S02B00002F686F6D652F6A73323239342F576172702D6669726D776172652F6275696C642F6B73646B312E3121
S113000000060020310500005905000059050000D4
S113001000000000000000000000000000000000DC
S1130020000000000000000000000000590500006E
S11300300000000000000000590500005905000000
S11300405905000059050000590500005905000034
S11300505905000059050000590500005905000024
S11300604D2A000059050000572A000059050000D8
S11300705905000059050000590500005905000004
S113008059050000590500005905000059050000F4
S1130090E5080000FD0800005905000059050000AE
S11300A059050000590500005905000059050000D4
S11300B059050000590500005905000059050000C4
S1130400FFFFFFFFFFFFFFFFFFFFFFFFFE3DFFFFBB
S113041008B5054B054803331B1A062B03D9044BB7
S1130420002B00D0984708BDACFFFF1FACFFFF1F97
S1130430000000000648074908B5091A8910CB0FC7
S11304405918491003D0044B002B00D0984708BD1D
S1130450ACFFFF1FACFFFF1F0000000010B5074CEE
S11304602378002B09D1FFF7D3FF054B002B02D0D3
S1130470044800E000BF0123237010BDACFFFF1F40
S1130480000000006465000008B5094B002B03D090
S11304900848094900E000BF08480368002B02D15E
S11304A0FFF7C8FF08BD064B002BF9D09847F7E7C4
S11304B00000000064650000B0FFFF1FA8FFFF1FDD
S11304C000000000144B002B00D1124B9D4640222B
S11304D092029A1A924600218B460F461148124AFC
S11304E0121A04F0CAFA0D4B002B00D098470C4B9B
S11304F0002B00D098470020002104000D000B4879
S113050004F03FFA04F076FA2000290000F09AFE85
S113051004F046FA00000800000600200000000075
S113052000000000ACFFFF1FF4020020CD490000D2
S113053072B606480649074A02600A6002F090FA59
S113054002F0D0FA62B6FFF7BDFF000080E100E0E0
S113055080E200E0FFFFFFFF00480047590500006C
S113056002B4714649084900095649008E4402BC48
S11305707047C04602B4714649084900095C490005
S11305808E4402BC7047C046002243088B4274D399
S113059003098B425FD3030A8B4244D3030B8B4280
S11305A028D3030C8B420DD3FF22090212BA030C89
S11305B08B4202D31212090265D0030B8B4219D36A
S11305C000E0090AC30B8B4201D3CB03C01A52418A
S11305D0830B8B4201D38B03C01A5241430B8B42D2
S11305E001D34B03C01A5241030B8B4201D30B03BB
S11305F0C01A5241C30A8B4201D3CB02C01A5241E2
S1130600830A8B4201D38B02C01A5241430A8B42A4
S113061001D34B02C01A5241030A8B4201D30B028D
S1130620C01A5241CDD2C3098B4201D3CB01C01AA7
S1130630524183098B4201D38B01C01A52414309B1
S11306408B4201D34B01C01A524103098B4201D39F
S11306500B01C01A5241C3088B4201D3CB00C01A0C
S1130660524183088B4201D38B00C01A5241430884
S11306708B4201D34B00C01A5241411A00D20146A9
S1130680524110467047FFE701B5002000F0FCF826
S113069002BDC0460029F7D003B5FFF775FF0EBCB5
S11306A04243891A1847C04603460B437FD40022AD
S11306B043088B4274D303098B425FD3030A8B42F2
S11306C044D3030B8B4228D3030C8B420DD3FF225C
S11306D0090212BA030C8B4202D31212090265D02A
S11306E0030B8B4219D300E0090AC30B8B4201D3DD
S11306F0CB03C01A5241830B8B4201D38B03C01A24
S11307005241430B8B4201D34B03C01A5241030B9A
S11307108B4201D30B03C01A5241C30A8B4201D34B
S1130720CB02C01A5241830A8B4201D38B02C01AF6
S11307305241430A8B4201D34B02C01A5241030A6D
S11307408B4201D30B02C01A5241CDD2C3098B4252
S113075001D3CB01C01A524183098B4201D38B01CF
S1130760C01A524143098B4201D34B01C01A524172
S113077003098B4201D30B01C01A5241C3088B42B7
S113078001D3CB00C01A524183088B4201D38B00A2
S1130790C01A524143088B4201D34B00C01A524144
S11307A0411A00D201465241104670475DE0CA0F1B
S11307B000D04942031000D34042534000229C46DB
S11307C003098B422DD3030A8B4212D3FC228901E5
S11307D012BA030A8B420CD3890192118B4208D3BB
S11307E0890192118B4204D389013AD0921100E01D
S11307F08909C3098B4201D3CB01C01A5241830931
S11308008B4201D38B01C01A524143098B4201D35D
S11308104B01C01A524103098B4201D30B01C01A88
S11308205241C3088B4201D3CB00C01A5241830802
S11308308B4201D38B00C01A5241D9D243088B4258
S113084001D34B00C01A5241411A00D201466346FB
S113085052415B10104601D34042002B00D549425F
S1130860704763465B1000D3404201B5002000F09E
S11308700BF802BD0029F8D003B5FFF715FF0EBC35
S11308804243891A1847C0467047C04608B50A4B08
S11308901A68002A01D1094A1A601A68084910180E
S11308A0884206D904F076F80C2303600120404204
S11308B001E01860101C08BDC8FFFF1FF8020020EB
S11308C0F80200200223807883428041404270472E
S11308D0437A0020013B012B03D901200B7801331B
S11308E00B70704708B5002003F092FC002803D079
S11308F00020011C03F080FC08BD0000024A1368BC
S1130900013313607047C0460800002037B500204B
S113091002F082FBC02300250D4A9B0013600D4AA0
S11309200D4C13600D4A281C13600D4B2571657125
S1130930A5711A68FA239B0053430A49236003F004
S1130940B5FC281C211C01AA03F018FD37BDC046C4
S1130950189014541C9014540000002000A0145447
S113096018FEFF1F0C00002008B5002003F0E2FC75
S113097080230A4A5B001360094A08201360094A6D
S1130980136002F0E3FD062002F0E0FD092002F00E
S1130990DDFD002002F045FB08BDC046189014544C
S11309A01C90145400A0145408B5002002F03EFB1F
S11309B08023054A9B001360044A00201360044905
S11309C002F0A4FE08BDC0460CA0145410A0145498
S11309D0CCFFFF1F08B5002002F0D4FE8023822044
S11309E0074A5B001360074A4000136002F0AEFD43
S11309F00420FF3002F0AAFD002002F01CFB08BD19
S1130A000CA0145410A0145408B50023354A3649D8
S1130A101360364A1360364A0133FF331360354A94
S1130A201360354A1360354A1360354A1360354AFA
S1130A301360354A1360012208780240081C3349C8
S1130A40002A01D00B6000E00A60314A314913608A
S1130A5000220A6030490A60304A1360304A136049
S1130A60304A1360304A1360304A1360304A1360CE
S1130A700378DB0703D50220FF3002F059FD09207B
S1130A8002F064FD0C2002F061FD052002F05EFD21
S1130A90082002F05BFD0620FF3002F057FD0E2017
S1130AA0FF3002F053FD8320400002F04FFD082088
S1130AB0FF3002F04BFD0C20FF3002F039FD8220A4
S1130AC0400002F043FD0420FF3002F03FFD082007
S1130AD002F03CFD062002F039FD092002F036FD4B
S1130AE008BDC0460C90145410FEFF1F10901454FF
S1130AF014901454189014541C90145420901454AA
S1130B00249014543090145400A0145404A0145489
S1130B1008A014540CA0145410A0145414A0145479
S1130B2018A014541CA0145428A014542CA0145419
S1130B3034A0145408B5092002F008FD08BD08B516
S1130B400C2002F003FD08BD08B5384B984259D07B
S1130B5013D8374B984243D007D8364B984230D0FD
S1130B606433984238D0C83B12E0334B98423ED0AD
S1130B706433984242D0314B15E0314B98422FD028
S1130B800CD8304B98421CD06433984224D02E4B5E
S1130B90984242D1052002F0D9FC15E02B4B984233
S1130BA025D006D82A4B984237D1052002F0CEFC36
S1130BB020E0C8231B01984220D0264B984221D024
S1130BC02BE0052002F0B4FC082002F0BFFC062054
S1130BD0FF3002F0BBFC24E0052002F0B7FC02E089
S1130BE0052002F0A5FC082002F0A2FCEFE7052096
S1130BF002F09EFC082002F0A9FC09E0052002F0A6
S1130C00A5FC02E0052002F093FC082002F090FC11
S1130C100620FF3002F08CFC03E000200E4901F0B6
S1130C2009FF0E4B186802F021F808BDC409000042
S1130C30340800006C070000FC080000980800005D
S1130C40540B00008C0A0000280A00001C0C000051
S1130C50B80B0000E40C0000B04D00000CFEFF1FB8
S1130C6008B5FFF771FF092002F062FC0C2002F0C6
S1130C706DFC8320400002F069FC08BD08B5FFF755
S1130C8063FF092002F062FC0C2002F051FC832077
S1130C90400002F04DFC08BDAF2108B50B4B021C0F
S1130CA0C3189BB289008B4202D8FFF7D9FF0BE02F
S1130CB0074BC3189BB28B4202D8FFF7DFFF03E058
S1130CC00020044901F0B6FE08BDC046F8F8FFFF55
S1130CD0D8F5FFFFDD4D000008B5FFF72BFFFFF748
S1130CE02EFF8320400002F023FC024B186801F021
S1130CF0BDFF08BD0CFEFF1F10B5041C002901D068
S1130D00FFF782FE0021022001F080F8211C04205C
S1130D1001F07CF810BD08B501200021FFF7ECFFBD
S1130D203C200121FFF7E8FFF6E70000F0B585B0AD
S1130D300391041C161C00209AB2012101F003F94E
S1130D40071C002C1CD01C49002001F063FC1B4C28
S1130D50206801F08BFF1A49002001F05BFC206839
S1130D6001F084FF1749002001F054FC206801F0D1
S1130D707DFF0020144901F04DFC206801F076FF4E
S1130D800025124C124923686268002000922A1C34
S1130D9001F050FE039801F017F9226800206368FF
S1130DA00C49009701F046FE002E02DD301C01F0D4
S1130DB05DFF0135E5E7C046154E000000FEFF1F4C
S1130DC03D4E00005F4E0000DB5D000000D003409C
S1130DD0844E0000904E0000F0B591B01D1C16AB7F
S1130DE00C91197817AB05921A7818AB1B78041C70
S1130DF00D931CAB1B780EA80E931DAB1B88089398
S1130E0021231B18DB7F09931FAB1B880F9320AB97
S1130E101B780A930B1C914200D9131CDFB2059B6B
S1130E20002D02D1002B06D101E0002B03D00020BD
S1130E30544901F0FFFD0898FFF72EFF211C002004
S1130E4001F0E8FB0023089C0293039307930493A7
S1130E5000230693069A199B93426BDB00261A9B88
S1130E609E4264DABB190B932C226B469B181878AC
S1130E7001210C9B9847002838D1049B013304932B
S1130E80089B9C4204D9643CA4B2201CFFF704FFD5
S1130E90002D16D0099A6B7BD31A5A425341039AF8
S1130EA0D31803930A9B002B39D0EB7A287B697BF8
S1130EB000900191DBB2F2193349002001F0BAFD30
S1130EC02DE0059B099A1B7AD31A5A425341039A7F
S1130ED0D31803930A9B002B21D0059BF2191B7A8C
S1130EE0281CDBB2294901F0A5FD18E0022810D125
S1130EF0002027490B9A01F09DFD079B01330793BE
S1130F000F9B9C420BD26434A4B2201CFFF7C4FE96
S1130F1005E0033843425841029B1B1802931B9B74
S1130F20002B02DD181C01F0A1FE013697E7069B99
S1130F3001338EE70E9B002B04D07B1CDFB20D9B8C
S1130F409F4285D9049A079B944612496344002022
S1130F5001F070FD322001F089FE099B039A009391
S1130F600D49049B002001F065FD322001F07EFE56
S1130F700A49029A002001F05DFD322001F076FE5C
S1130F8011B0F0BDB04D00009D4E0000C24E0000F7
S1130F90D74E0000EA4E0000024F0000334F00001D
S1130FA0F0B591B01D1C16AB40CB041C1B780F1C74
S1130FB00C931AAB1B880D931BAB1B880E931CABB5
S1130FC01B780F93002810D0101CFFF7EDFC601E57
S1130FD0112858D8FFF7CEFA0D26292C2F57323571
S1130FE0383B3E41444A47574D502B4901F012FBD0
S1130FF04FE0312200230292199A00970392189A23
S1131000019305920D9A049607920F9A06950892F9
S11310100E9A224809920C9A21490A92214AFFF712
S1131020DBFE2DE00020204928E000201F4925E0B8
S113103000201F4922E000201E491FE000201E4915
S11310401CE000201D4919E000201D4916E0002085
S11310501C4913E000201C4910E000201B490DE04E
S113106000201B490AE000201A4907E000201A4921
S113107004E00020194901E00020194901F0CAFAEE
S1131080FFF7A8FC05E01749221C002001F0D2FC60
S1131090F6E711B0F0BDC046484F0000744F0000A1
S11310A0651F0000F0FFFF1F824F0000AD4F0000DE
S11310B0DE4F00000E5000003E5000006B50000058
S11310C098500000C4500000F25000001E5100006F
S11310D04B51000077510000A3510000D051000093
S11310E0FC51000028520000031C303B021C181E57
S11310F009280CD9131C613B052B01D8573A05E08C
S1131100131C413B0020052B01D8373A101C7047B3
S113111070B501F09AFA051C01F097FAFF24061C39
S1131120281C2040FFF7E0FF051C301C2040FFF77F
S1131130DBFF2D012818C0B270BD70B501F085FA2F
S1131140041C01F082FA061C01F07FFA051C01F070
S11311507CFAFF23FA221C401D409200303C544389
S113116064212A1C1E40303E4E43303A5A394A43C9
S1131170A4190340A218303BD01870BD70B50C1CE4
S1131180161C88B00CAA157806A908800A4A05A876
S113119005700A4D12682D684A6004AA1670009002
S11311A001930295231C002002F012FC431E984177
S11311B0400008B070BDC04614FEFF1F08FEFF1FAC
S11311C0F7B56A46CB1DDB08DB00D31A02AF9D4698
S11311D0051C0C1CFFF79AFBFA23002002AE9B00AF
S11311E02A1C00940193011C331C03F023F9041CF2
S11311F0FFF7BAFB201CBD46441EA0418000F2BD8F
S113120008B50020014901F005FA08BD7A52000032
S113121010B5094C0020211C01F0FCF9211C002010
S113122001F0F8F90549002001F0F4F9044900201F
S113123001F0F0F910BDC046A6520000D6520000DD
S113124007530000F0B5B9B025AC00210722201CDB
S113125003F013FCFA4A01252C92032215AB2F93B9
S113126017AB309319AB32931DAB34931FAB35934B
S113127021AB369323AB37932CAB1BAF1A710020F1
S113128011AA2E92149333972570319401F0BCFE69
S1131290281C01F0B9FE8022EA4B12021A6001F008
S11312A003FD00200095021C031C011C01F0D4F96D
S11312B0E549002001F0AEF9C82001F0D7FCE3496C
S11312C0002001F0A7F9C82001F0D0FCE04900207B
S11312D001F0A0F9C82001F0C9FCDE4A2B1C022150
S11312E0DD4801F005FD291C281C01F00DFD00203E
S11312F002F0CAFE0026FC2329A9DB00301C0B8067
S11313004D808D80CE800E818E7202F0EBFE311CFA
S11313102A1C11A803F0B1FB4820259B08A91993A6
S1131320A28809180A80A279023008A909180A704B
S1131330442108AA5218413911701B93A28808A9A4
S1131340BA80A2791038BA7105223A701593A2882E
S113135002270A87A27909180A70342108AA5218A8
S113136017701793A288063008A909180A80A27971
S1131370C01908A909180A700422063808A909180E
S11313800A701D93A2881C3008A909180A80A27942
S1131390C01908A909180A700822063808A90918EA
S11313A00A701F93A2880C3008A909180A80C01972
S11313B0A27908A909180A700921063808AA12187E
S11313C011702193A3880C3008AA12181380A379F2
S11313D0C01908AA121813700A23063808AA12188A
S11313E013706C2208AB9B181E7014AA2B1C2FA818
S11313F001F06AFE311C381C00F008FD974998483A
S113140002F07AF8FFF700FB0820FF3002F090F8B2
S1131410C82001F02BFC0820FF3002F097F8C82008
S113142001F024FC0820FF3002F082F8C82001F00B
S11314301DFC0820FF3002F089F8C82001F016FCDA
S11314400820FF3002F074F8C82001F00FFC0820D7
S1131450FF3002F07BF883491D2000F06FFDFFF799
S11314603BFC00F023FE00F0C9FEFA20800001F0EE
S1131470FDFB80231B020A93331C089609960C96E5
S113148003330B937849002001F0C4F8774C784F6C
S1131490206801F0EBFB7749002001F0BBF82068DD
S11314A001F0E4FB7449089A099B002001F0C2FA98
S11314B0206801F0DBFB714D714E72492A68336874
S11314C00968002000910A9901916F4901F0B2FA6C
S11314D0206801F0CBFB6D4B6D4A0020D2587B692C
S11314E0396800916B4901F0A5FA206801F0BEFB50
S11314F0694B69491A785B788979D2B2DBB2009179
S11315000020664901F096FA206801F0AFFB624BB7
S113151063491A7A1B7E0978D2B2DBB200910020AB
S1131520604901F087FA206801F0A0FB5E4B5F4937
S11315301A785B780969D2B2DBB2009100205C4969
S113154001F078FA206801F091FB5A4B50499A78DF
S1131550594BD2B2CB58796800200091574901F019
S113156069FA206801F082FB554B56491A6811ABA1
S11315701B78002001F05EFA206801F077FB5249E5
S1131580002001F047F8206801F070FB4F4900206B
S113159001F040F8206801F069FB4D49002001F09A
S11315A039F8206801F062FB4A49002001F032F862
S11315B0206801F05BFB4849002001F02BF820680B
S11315C001F054FB4549002001F024F8206801F0A3
S11315D04DFB4349002001F01DF8206801F046FB53
S11315E04049002001F016F8206801F03FFB3E4915
S11315F0002001F00FF8206801F038FB3B4900207F
S113160001F008F8206801F031FB099A0B9B384976
S1131610002001F00FFA206801F028FB3549002072
S113162000F0F8FF206801F021FB3349002000F0AE
S1131630F1FF206801F01AFB3049002060E0C04649
S1131640D10800004C02002039530000545300001C
S11316505A53000028FEFF1F2CFFFF1F3CFEFF1FF4
S11316602CFEFF1FF0FFFF1F6153000000FEFF1F51
S113167000D0034085530000B753000014FEFF1F41
S113168018FEFF1F04FEFF1FEB5300003C10000078
S113169000700440235400000040064059540000E8
S11316A0005006408854000000E0074000ED00E0D0
S11316B0B854000000D0074034100000F254000079
S11316C0080000202A55000058550000625500000B
S11316D07F5500009B550000B7550000D45500000D
S11316E0FB5500001A5600003956000064560000ED
S11316F087560000B6560000D2560000F656000089
S113170000F088FF206801F0B1FADE49002000F003
S113171081FF206801F0AAFADB49002000F07AFF7B
S1131720206801F0A3FAD949002000F073FF206873
S113173001F09CFAD649002000F06CFF206801F00B
S113174095FAD449002000F065FF206801F08EFA74
S1131750D149002000F05EFF206801F087FACF49EC
S1131760002000F057FF206801F080FACC490020E7
S113177000F050FF206801F079FACA49002000F017
S113178049FF206801F072FAC749002000F042FFC7
S1131790206801F06BFA00F058FFFF22071C02409A
S11317A06B2A00D151E200DD94E0652A00D1EBE11F
S11317B01CDC622A00D1C5E106DC0A2A00D1BCE2A5
S11317C0612A00D1CFE0BEE2632A00D1CBE1642AD2
S11317D000D0B8E2B549002000F01CFFFFF7ADFCD3
S11317E0B34BB44918601A680020AEE2682A00D1ED
S11317F017E211DC662A00D1D1E1672A00D0A2E207
S1131800AD49002000F006FFFFF797FC83B2089370
S11318101A1C0020A94998E2692A00D109E26A2A1F
S113182000D090E2099AA649002001F003F900F0E3
S11318300CFFA449041C002000F0ECFE00F005FF9E
S1131840A1490D90002000F0E5FE00F0FEFE9F4946
S11318500E90002000F0DEFEFFF76FFC9C49051C93
S1131860002000F0D7FEFFF768FC9A49061C002010
S113187000F0D0FEFFF761FC97490F90002000F0C4
S1131880C9FEFFF745FC0A9B071C01930295934987
S11318900B9A099B0096002001F0CCF8231C0D9AAA
S11318A0303B303A00920E9A1C1C303A511E8A4149
S11318B00192089A631E9C4104926A46029503961B
S11318C0958FE3B2059506970B9809990A9AFFF745
S11318D067FBD7E5722A00D107E20CDC6E2A00D13F
S11318E0FAE100DAB7E16F2A00D1FAE10220702AA6
S11318F000D1FBE127E2752A00D104E206DC732A59
S113190000D1F8E1742A00D1BCE51CE2782A00D1A8
S113191009E27A2A00D016E27149002000F07AFE2A
S11319200A98FFF741F86F49002000F073FE00F0B9
S11319308CFE6D49051C002000F06CFEFFF7FDFBDA
S113194086B26A49321C002001F074F8206801F064
S11319508DF9E9B268394D4269410120C9B2321C9E
S11319600A9BFFF7E3F96249002000F053FE614946
S1131970002000F04FFE206801F078F95E49002055
S113198000F048FE5D49002000F044FE5C49002060
S113199000F040FE206801F069F95A49002000F087
S11319A039FE206801F062F95749002000F032FE48
S11319B0206801F05BF95549002000F02BFE2068F7
S11319C001F054F95249002000F024FE206801F08F
S11319D04DF95049002000F01DFE206801F046F941
S11319E04D49002000F016FE206801F03FF94B49F4
S11319F0002000F00FFE206801F038F9484900206B
S1131A0000F008FE206801F031F94649002000F09A
S1131A1001FE206801F02AF94349002000F0FAFD94
S1131A20206801F023F94149002000F0F3FD20680B
S1131A3001F01CF93E49002000F0ECFD206801F0A3
S1131A4015F93C49002000F0E5FD206801F00EF98D
S1131A503949002000F0DEFD206801F007F937491C
S1131A60002000F0D7FD206801F000F900F0EDFD42
S1131A70FF220240352A00D065E1314B0C9301234B
S1131A80FFE4C0461A570000345700004F570000C7
S1131A906D5700008A570000A9570000C85700007E
S1131AA0E25700000D5800002D580000475D00006B
S1131AB004FEFF1F765D0000975E0000C35E000019
S1131AC06C5F0000A65F0000CF5F0000E85F0000CD
S1131AD027600000536000008B600000BC600000C1
S1131AE08A620000A3620000CC620000146300005C
S1131AF0405800004B58000089580000CB580000A3
S1131B000C5900004C5900007C590000B9590000E0
S1131B10F8590000365A0000735A0000B15A000008
S1131B20EE5A00002D5B00006A5B0000935B00002E
S1131B30D05B0000075C0000445C0000815C000096
S1131B40F0FFFF1F8349002000F064FDFFF7F5FA62
S1131B5028602A68804B9A4201D1804B2B602A6806
S1131B6000207F49F1E07F49002000F053FDFFF79A
S1131B70E4FA30603268784B9A4201D1774B336093
S1131B80326800207849E0E07849002000F042FD06
S1131B90FFF7BEFA099076490020099AD5E0754905
S1131BA0002000F037FDFFF7B3FA061C724C321C1C
S1131BB0211C002000F03EFF7049002000F02AFDA7
S1131BC0FFF7A6FA12AF021C3870211C002000F0A7
S1131BD031FF992E02D100206949B0E02B6827AC6F
S1131BE0089828932680FFF757F80A98FEF7DCFE3A
S1131BF024216B465B181B7813AA1370614B0020D9
S1131C0019680123029100970193211C01F0E0FE61
S1131C10021E03D000205C4900F00CFFFEF7DAFE40
S1131C2030E45A49002000F0F5FC0120FFF7F0FAF7
S1131C3028E45749002000F0EDFCFFF77EFA83B258
S1131C400A931A1C002053497FE05349002000F0F6
S1131C50E1FCFFF760F84D49002000F0DBFC4F4940
S1131C60002000F0D7FCFFF753FA27AD28704C4949
S1131C70002000F0CFFCFFF760FAFFB2041C2B78C1
S1131C806C2F17D10A9A00200092089A45490192B4
S1131C90221C00F0CFFE0025A54201DBFFF7F2FB7A
S1131CA027AB1A780023FF2000930121FFF766FA7F
S1131CB00135F1E7089A002000923B49221C00F00C
S1131CC0B9FE0025A54201DBFFF7DCFB27A80121B3
S1131CD0FFF776FA0135F5E70898FEF7DDFFFFF721
S1131CE0D1FBFEF7F9FFFFF7CDFB0820002100F040
S1131CF08DF8FFF7C7FB2549002000F08BFCFFF7A8
S1131D007FFAFFF7BFFB0C9B002B02D1181C27495D
S1131D1015E02749002000F07DFCFFF7F9F90C9B42
S1131D201870FFF7AFFB2349002000F073FC0B4849
S1131D3000F09CFF0020204901E000201F4900F032
S1131D4069FCFFF79FFB00201D4900F073FEFFF7BD
S1131D5099FBC046B15C00000F270000102700006B
S1131D60DF5C0000FF5C00002D5D0000915D000061
S1131D70C75D0000DE5D0000115E0000275E00000C
S1131D80505E000008FEFF1F765E0000E55E000066
S1131D90135F00004F5F0000F96000001C61000049
S1131DA03B6100005B610000AD610000EB6100007D
S1131DB02962000061620000806200004C63000040
S1131DC0955C00001FB5041C01A9002002F0B2F9C3
S1131DD001A8694602F0ECF8009B68461C1901A9A9
S1131DE0009402F06DF801A90122002002F0CEF95E
S1131DF01FBD00000022034B1A608022024B120612
S1131E00DA67704700A01C5804E100E010B50A230B
S1131E1008286FD80C1CFEF7ADFB051B283C486254
S1131E206466570001F0E6FA0523012862D0FFF743
S1131E30E1FF201CFFF7C6FF0020011C01F068F938
S1131E40041C0020012100F05FFF002C4FD150E062
S1131E5001F0D0FA062301284CD0FFF7CBFF201C59
S1131E60FFF7B0FF01200021E8E701F0C3FA0823DF
S1131E7001283FD000F0D0FF002803D0002001212A
S1131E8000F042FF0220002101F042F900282ED187
S1131E902FE001F0AFFA072300282BD0FFF7AAFFA9
S1131EA0201CFFF78FFF032005E0FFF7A3FF201C92
S1131EB0FFF788FF0420002101F02AF9041C01F037
S1131EC099FA0028C1D1BDE70820002101F020F9CA
S1131ED000280CD10120011C00F016FF09E00520A8
S1131EE002E0062000E00720002101F011F9092397
S1131EF000E00023181C10BD10B50C1C0C4B88B05E
S1131F001B7806A90B800B4B05AA1B6810700A48A6
S1131F104B6004AB1C700068009301230290019392
S1131F20002001F055FD431E9841400008B010BD4B
S1131F30F0FFFF1F14FEFF1F08FEFF1FC223FF3325
S1131F4008704B60704738B5031C0D1C0920191C20
S1131F50FFF7D2FF291C041C2A20FFF7CDFF0443FE
S1131F60E0B238BDFF2310B588B005AA1370182855
S1131F7004D8092806D206281BD803E0031C1D3BFD
S1131F80142B16D80C4B10701C7806AB1C800B4C11
S1131F900B482468006807940A4C01910290191CAC
S1131FA000940123002001F020FD431E98414000CD
S1131FB000E0032008B010BDF0FFFF1F14FEFF1F58
S1131FC008FEFF1FF8FFFF1F38B50221041C012083
S1131FD0FFF7C8FF304D2A7A6B7AD2B2DBB2002801
S1131FE004D02E49002000F015FB11E0002C03D092
S1131FF02B4900F01FFD0BE092019B081343802244
S113200092015A40274B201CD218274900F012FD98
S113201002210320FFF7A6FF2A7A697AD2B2CBB253
S1132020002804D01D49002000F0F4FA11E0002C2F
S113203003D01B4900F0FEFC0BE092019B08134304
S1132040802292015A40174B201CD218164900F0E6
S1132050F1FC02210520FFF785FF2A7A697AD2B2C2
S1132060CBB2002804D00D49002000F0D3FA11E0CF
S1132070002C03D00A4900F0DDFC0BE092019B0820
S11320801343802292015A40064B201CD218064961
S113209000F0D0FC38BDC046F0FFFF1F7E63000097
S11320A08563000000E0FFFF8B4E000038B5324925
S11320B0002000F0BFFC00210920FFF71DFF2F497D
S11320C0002000F0B7FC00212A20FFF715FF2C495F
S11320D0002000F0AFFCB8211520FFF70DFF2949BF
S11320E0002000F0A7FC03211720FFF705FF264975
S11320F0002000F09FFC06211820FFF7FDFE234975
S1132100002000F097FC04212D20FFF7F5FE204964
S1132110002000F08FFC00212E20FFF7EDFE1D496A
S1132120002000F087FC01212A20FFF7E5FE1A4970
S1132130051C002000F07EFC1849002000F07AFC09
S113214001211620FFF70EFF1549002000F072FC54
S1132150144B00201C7A1449E4B2221C00F06AFCDF
S1132160E40903D1642000F081FDE5E70F49002074
S113217000F060FC281C38BD95630000AA630000D1
S1132180AF630000B4630000B9630000BE630000E5
S1132190C3630000C8630000CD630000D263000085
S11321A0D7630000F0FFFF1FDC630000DF63000063
S11321B013B5041C0C2001F0BBF90A2000F056FDF5
S11321C00C2001F0C3F90E20FF3001F0BFF9012308
S11321D0084A002014700093FA239B000193011C09
S11321E0054B02F027F9041C0C2001F0A1F9201C76
S11321F016BDC0465C0000203C00002008B5C0238A
S1132200654A9B001360654A1360FEF77FFB8023D9
S1132210634A5B001360634A02201360624A1360DE
S113222001F086F9642000F021FD022001F08EF90E
S1132230642000F01BFD022001F07AF9642000F014
S113224015FDAE20FFF7B4FFA020FFF7B1FF722009
S1132250FFF7AEFFA120FFF7ABFF0020FFF7A8FFB9
S1132260A220FFF7A5FF0020FFF7A2FFA420FFF79D
S11322709FFFA820FFF79CFF3F20FFF799FFAD20A9
S1132280FFF796FF8E20FFF793FFB020FFF790FF34
S11322900B20FFF78DFFB120FFF78AFF3120FFF7F6
S11322A087FFB320FFF784FFF020FFF781FF8A2028
S11322B0FFF77EFF6420FFF77BFF8B20FFF778FF9B
S11322C07820FFF775FF8A20FFF772FF6420FFF77D
S11322D06FFFBB20FFF76CFF3A20FFF769FFBE20BA
S11322E0FFF766FF3E20FFF763FF8720FFF760FFDD
S11322F00620FFF75DFF8120FFF75AFF9120FFF7CB
S113230057FF8220FFF754FF5020FFF751FF83202F
S1132310FFF74EFF7D20FFF74BFFAF20FFF748FF8D
S11323202620FFF745FF0120FFF742FF2520FFF796
S11323303FFF0020FFF73CFF0020FFF739FF5F203D
S1132340FFF736FF3F20FFF733FF2220FFF730FF70
S11323500020FFF72DFF0020FFF72AFF5F20FFF783
S113236027FF3F20FFF724FF0020FFF721FF002075
S1132370FFF71EFFFF20FFF71BFF0020FFF718FFEA
S11323800020FFF715FFFF20FFF712FF0020074989
S113239000F040F9002008BD2090145424901454F7
S11323A034A014543090145400A01454F06300006A
S11323B00269C3689A4203D880681018013800E0A3
S11323C0501EC01A7047F7B58368C668051C40687C
S11323D00191141C9F1B8019974203D902F044FBFE
S11323E0A4190AE001993A1C02F03EFB019BE41B8C
S11323F0D9196868221C02F037FBEC60F7BD002392
S1132400F7B5061C171CC568019100933369B468BD
S1132410AB4200D81B19013B5B1B641BBC4200D9B7
S11324203C1C9C4200D91C1C7368221C581901993D
S113243002F01AFB009B2D191B190093019B3F1BF3
S11324401B190193B368EB1A5A1E93415B421D405A
S1132450F560002FDAD10098FEBD0000022310B50C
S11324600F4C104A236163610F4BA261E361C823DF
S1132470A2640E4A2362E26400230422A36263621C
S1132480E362A3656365E3652265E01D084902F024
S1132490ADFB201C074902F0A9FB2023A37110BD4A
S11324A04801002010640000800000207C0000200F
S11324B0196400001D640000F0B5294B171C1A783C
S11324C085B0009001910293002A01D1FFF7C6FF65
S11324D01823009A00255343029AD3181A1C503229
S11324E052689C6D039294421BD91B6D3D1C1B1BAF
S11324F09F4200D91D1C1826009B2A1C5E43029B88
S113250001989E19F36C7F1B191902F0ADFA019B17
S113251064195B190193336DE31A5A1E93415B42AC
S11325201C40039B1E1BBE4200D93E1C002E0CD037
S11325301823009A01985343029AAD19D318D96C01
S1132540321C091902F090FAA419002D05D01823A1
S1132550009A5343024AD3189C65281C05B0F0BD69
S11325604801002010B50B1CEFF31084012181F306
S11325701088191CFFF7A0FF84F3108810BD000019
S1132580F8B51823451C5D434343141C134A0E1C21
S1132590D018C76A5519012F0FD0002F07D0022F6A
S11325A017D1221C281CFFF72AFF041C14E0281C46
S11325B0FFF7FEFEA0420ED305E0281CFFF7F8FE4D
S11325C0844200D9041C281C311C221CFFF7FBFE8A
S11325D002E0002400E03C1C201CF8BD480100205F
S11325E0F8B50B4B071C1B780E1C151C002B01D1D6
S11325F0FFF734FFEFF31084012181F31088381CB6
S1132600311C2A1CFFF7BCFF84F31088F8BDC046B8
S11326104801002038B5051C081C0C1C02F0EEFA19
S1132620211C021C281CFFF7DBFF38BD13B56B46C9
S1132630DC1D0020211C0122FFF794FF012801D199
S1132640207801E00120404216BD08B5FFF7EEFFF7
S11326500028FBDB08BD0000F7B5164C0193237876
S1132660051C0F1C161C002B01D1FFF7F7FE236974
S11326709D421CD2EFF31082012181F31088002DBA
S11326800CD01823691C59436B43675061184E6082
S11326900199E318196200219962596218235D4374
S11326A0089B6419E36282F31088002001E0012092
S11326B04042FEBD48010020826810B5041C4068F9
S11326C0531C834205D820688154A360E368013316
S11326D0E360A26863689A420CD120692168FFF71D
S11326E07FFFA368984203D001235B42E36001E0CB
S11326F00023A36010BD0000F0B5051C1F1C081CBE
S1132700012685B00A9C00910192019B984204D352
S11327100199FDF739FF0136F7E70296BE4200D270
S1132720029701230B9A1A40039218D1002C01D16D
S1132730002414E00B9B20269B070DD5002F0BD102
S1132740103609E0281C311CFFF7B6FFEB68013C8A
S1132750002B04DB002CEBD0029BA342F2D3EB68EA
S1132760002B35DB0126012F01D9013F06E000983B
S1132770311CFDF709FF019B984208D3019B5E437E
S1132780F1E7301C0199FDF7FFFE061E10D00098FA
S1132790311CFDF7F9FE331C4343009AD31A00930E
S11327A00C4B195C281CFFF787FFEB68002BE8DA59
S11327B0039B002B0CD0002C0AD0029BA34207D20F
S11327C0281C2021FFF778FFEB68013C002BF2DA8C
S11327D005B0F0BD24640000F0B59FB00EAB0993C2
S11327E040230A930023161C06900B930D900C9320
S11327F00B784C1C002B04D10C9B0393002B22DC84
S113280015E1252B16D1002502314F1E3B782B2BC9
S11328100CD003D8232B27D1082308E02D2B03D079
S1132820302B21D1022302E0012300E004231D43C5
S11328300131EAE7191C09A8FFF73EFF211C0C9B94
S1132840002BD5DAD8E70B9A002A03D006980EA9F4
S1132850FFF7C6FE0C9B03930B9B0493049A039B04
S1132860944663440C93E2E000243A78131C303B12
S1132870092B05D80A235C43303C0137A418F4E73C
S1132880002303932E2A0DD101373A78131C303BD1
S1132890092B07D80A23039901374B43303B9B1874
S11328A00393F2E7397804230A1C9A43682A01D176
S11328B00137F7E7642926D008D8582900D195E0D4
S11328C063291AD0252900D0AFE0ABE0732900D1E9
S11328D095E00DD8702900D0A7E032680021131DBF
S11328E03360082301910093116809A8102296E02F
S11328F0752971D0782979D097E0336819681A1D41
S11329003260C9B28EE033681A1D1B683260DA1770
S113291098180493012350400593092805DD0A21E2
S1132920FDF7C2FE059B0133F6E7059B039A93422C
S113293000D20592002C05D0049B002B01DB6B0711
S113294000D5013CAB0702D5039B002B10D0EB074D
S11329500ED4002C01D100240AE0059BA34207D227
S113296009A82021FFF7A8FE0C9B013C002BF0DAFC
S11329700C9B0793002B58DB049B002B04DA5B426F
S1132980049309A82D2103E06B0703D52B2109A883
S1132990FFF792FE0C9B002B47DB03232B40022BFB
S11329A011D1039B002B0ED1002C01D100240AE08D
S11329B0059BA34207D209A83021FFF77DFE0C9B9B
S11329C0013C002BF0DA0C9B0593002B2DDB0094CB
S11329D0019509A8049906E03368009401951A1D2D
S11329E01968326009A80A22039B18E0336800942E
S11329F01A1D0195326009A819681022F4E733689A
S1132A001A1D32601C682178013400290DD009A8F0
S1132A10FFF752FE0C9B0393002BF4DA05E0FFF75B
S1132A206BFE02E009A8FFF747FE791C07E70C9844
S1132A301FB0F0BD0EB403B503AB02CB01AA0193E2
S1132A40FFF7CAFE02B008BC03B0184708B500205F
S1132A5000F08AFD08BD08B5002001F0F5FB08BDB3
S1132A60082110B5164B9A780A4202D09A780A4384
S1132A709A70882200212220124B52019950124A46
S1132A8010708020114A400298501868104A024081
S1132A9010481A601C58104A2240C024A40422433F
S1132AA01A5080220D4B19721A767F3A19705A7097
S1132AB00B4A11700C2299791142FBD110BDC0460A
S1132AC000D007400070044000E0074044100000BC
S1132AD0FFFFF3FF04100000FFFFFFF0004006407B
S1132AE000500640154B164810B5191E81420CD0F3
S1132AF00022144B9B089B009A4203D084588C50AC
S1132B000432F9E7104B996001E00F4A9360002307
S1132B100E4A0F49891A8B4204D0D45C0D48C45420
S1132B200133F8E700230C4A0C49891A8B4204D07C
S1132B300024D01804700133F8E710BD0000000031
S1132B40000000000000000000ED00E08C650000C3
S1132B503867000000FEFF1FACFFFF1FF4020020D7
S1132B6000234170436003708360181C704710B5E4
S1132B704378041C0120FF2B08D000F06DFA637821
S1132B800133DBB2637000F05BFA002010BD00205B
S1132B90704738B5041C0D1C00F05EFAE168294347
S1132BA0E16000F04DFA002038BD000000220A4B1D
S1132BB09A641A1C40329A631A1C30329A621A1CA4
S1132BC020329A611A1C10329A60044A1360044B32
S1132BD09B60DB607047C046D4010020D001002018
S1132BE0C00100200022024B1A60186880B27047AE
S1132BF00C007C5038B54378041C0D1C002B0BD002
S1132C00002500F029FA6378013BDBB2637025707C
S1132C1000F016FA281C28E00220002925D0237889
S1132C20002B15D0FFF7DEFF6368A268984201D33A
S1132C30C01A03E0C01A80235B02C018824213D278
S1132C4000F00AFA0023237000F0FAF902200CE0E5
S1132C504B1C09D000F000FA0123237000F0F0F9B6
S1132C60FFF7C0FFA5606060032038BD38B5051CC0
S1132C70FFF7B8FF041CFFF7B5FFA04201D3001B08
S1132C8003E08023001B5B02C0188542F3D238BDE9
S1132C9008B5012801D100F0DFF908BD08B5012805
S1132CA001D100F0CDF908BD10B5FFF77FFF012376
S1132CB00020084A08491360084A094C106008605B
S1132CC004212160074C216007490B600749086013
S1132CD0136010BD3880045000008450000004507C
S1132CE0000004510400045104000C50000004537B
S1132CF010B5044C206021710020A260237363731B
S1132D0010BDC04624020020F0B587B06B46029087
S1132D101B7A05AC23706B4603911B7B3D4D63709E
S1132D202B79029A0420934271D92B7B6B73012374
S1132D30A37000230193374E0093337B009A371C12
S1132D4093421AD9009BB2689B009B58002B10D069
S1132D501A79D2070DD51A68201C99689047002863
S1132D6007D06B461B787373039B002B3AD0052363
S1132D700193009B0133DBB2DDE7019E002E02D0FC
S1132D80039B012B2FD10120FFF782FF0C20029B14
S1132D9058432B68181800F0A7F86B461B7A0120DB
S1132DA06B71FFF77BFF02230025A3703B7BAB42D3
S1132DB016D9BA68AB009B58002B0ED01A7992072B
S1132DC00BD51A68201C99689047002805D0039BEE
S1132DD07D73002B1AD0062301930135EDB2E5E78C
S1132DE0019814E005260023009FA370013FFFB261
S1132DF0FF2F09D0AA68BB009B58002BF6D01A6895
S1132E00201C99689047F1E7301C00E0062007B0C9
S1132E10F0BDC04624020020014B58797047C046DB
S1132E202402002013B500210378041C0191022B15
S1132E3007D0032B0BD0012B0ED10279191C134898
S1132E4001E00279114801AB00F0CEFF08E001A9CE
S1132E500E4801F00BF803E00C4801A900F0A8FFAC
S1132E60002812D1A3790A4ADB01DBB2137063781C
S1132E70084A5B00DBB21370A278074B1A70E27841
S1132E80064B1A706279064B1A7016BD0040064054
S1132E9018408653004086500040065001400650BA
S1132EA0184016501F22802302405B05D2051A43A6
S1132EB0034943099B005B181A43002313607047BE
S1132EC0288004401F2280210240D305490519436C
S1132ED0430904489B001B1819430123081C934011
S1132EE003607047288004400022072373B5041C44
S1132EF0104D0093281C131C012101F097F9201C8C
S1132F00FFF790FF0022637A217A0093281C131C98
S1132F1001F08CF9E379084A9B041360074BA17A0A
S1132F201D68281C00F0BEFF281CE17A00F0C1FFD8
S1132F30002076BD0070044000700C5980640000CD
S1132F4008B5054800F0F6FE044B1968C9B2013112
S1132F50FDF71AFB08BDC0460040064044801C5ED5
S1132F6008B5054800F0E6FE044B1968C9B2013102
S1132F70FDF70AFB08BDC0460040064044801C5EC5
S1132F8008B5054800F0D6FE044B1968C9B20131F2
S1132F90FDF7FAFA08BDC0460040064044801458C4
S1132FA008B5054800F0C6FE044B1968C9B20131E2
S1132FB0FDF7EAFA08BDC0460040064044801458B4
S1132FC00C4B1B68DBB2022B0DD0032B0ED0002B55
S1132FD001D000200CE08021074A09021268101E6B
S1132FE08842F6D104E0054B186801E0FA2080001D
S1132FF07047C04600700C594C020020500200205B
S113300008B5FFF7DDFF08BD08B5024B185CFFF7F4
S113301059FF08BD3464000008B57620FFF752FF5D
S113302008BD08B57620FFF73DFF08BD08B566204A
S1133030FFF748FF08BD08B56620FFF733FF08BD5A
S1133040044A1368002B04D0013B1360002B00D109
S113305062B670473402002072B6024A1368013324
S1133060136070473402002010B50B4B0B4A1278E2
S1133070002A04D1013B002BF8D103200AE0064CBE
S1133080074801F069FB012803D0013C002CF7D16B
S1133090F3E7002010BDC046EA03000002D0075148
S11330A000E0074010B5064C064801F055FB042823
S11330B004D0013C002CF7D1032000E0002010BD17
S11330C0EA03000000E00740F7B5071C0E1C151CBE
S11330D001930120002F18D0002916D0FFF7D8FD46
S11330E00A4C0021201C102201F0C7FC2760267125
S11330F0002D06D06B461B79A56023736B461B79A4
S113310063730120FFF7CAFD0020FEBD38020020D2
S1133110F0B5B24C8BB002900191237B0120637314
S1133120FFF7B6FD2379029A934204D80120FFF7F2
S1133130B5FD022050E1029A23689200D6586B46EE
S11331401B7907AC357823726B461B7A2A1C2370D3
S113315002239A4366600392012A01D0052D0AD105
S113316001219F4801F04AFA002809D10120FFF704
S113317095FD012030E1072D02D999480321F1E79B
S11331800123637200240094944F009A3B7B934282
S11331901AD9009BBA689B009B58002B0FD01A7950
S11331A0D2070CD51A6807A899689047002806D05A
S11331B06B461B7804247B73019B012B04D1009B79
S11331C00133DBB20093DFE70120FFF767FD854899
S11331D000F0D4FD039B012B1DD10138C0B202289D
S11331E011D8FFF7DDFE804B98420CD8FFF7A8FEFC
S11331F07E4FB84207D8FFF7C3FEB84203D8FFF7A3
S1133200AFFEB84207D9019B012B01D1062407E088
S1133210002C05D1FAE7019B012B52D0002C50D091
S11332200120FFF735FD002307AE009D7372013DB9
S1133230EDB2FF2D40D0694BAA009B68D358002BF8
S1133240F5D01A79D207F2D51A68301C99689047DC
S1133250EDE7072205AB1A7000225A70F2789A70D3
S11332603279DA702B1C083B05A9022B03D8737939
S11332708B71B379CB717378002B00D084E05848FC
S113328001F0F0F9002800D00324002D00D08AE0DA
S1133290FFF7EAFE0024002800D09DE00120FFF79C
S11332A0F7FC6B464D4E1B7A0025B373022307AF20
S11332B07B72337BAB427CD80120FFF7EFFC201CF0
S11332C08AE003200A2D00D986E0281CFDF748F97E
S11332D006080A1940583339C1282D00002250E04D
S11332E003224EE03E4801F037FA012807D03C485B
S11332F0002101F093F9FFF7B7FE041E6CD10122FF
S11333003FE0374801F028FA042807D03448022166
S113331001F084F9FFF7C6FE041E5DD1042230E0FB
S1133320072205AB1A70063A03E0072205AB1A70B0
S1133330043A5A7096E7022205AB1A70013A1A71E0
S113334004E00222012105AB1A7019715A7189E750
S11333500222002705AB1A702148013A1A715F71E5
S113336001F0FAF9012800D17CE71D48391C01F06D
S113337055F9FFF779FE041EBC4200D172E72BE039
S1133380052205AB1A706DE7012D00D877E7B278F6
S11333900220174B002A02D01A69024301E01A697D
S11333A082431A616BE7012D00D077E7FFF77AFEBD
S11333B070E7B268AB009B58002B0AD01A799207C9
S11333C007D51A68381C99689047002801D005244D
S11333D075730135EDB26CE70BB0F0BD3802002017
S11333E000E007400040064040420F0080841E0079
S11333F000ED00E008B5064801F0AEF9002301280D
S113340003D00133042800D00A33181C08BDC04679
S113341000E00740F7B5FF2403681C4A1D0A254055
S11334201C40AB009F581A4A061C9B58281C019349
S1133430FFF7EAFD211C0022381C01F095F9019BDD
S1133440A4001C19842332795B05234352001A60BB
S1133450802372795B0523431A609023B2795B055C
S1133460234312011A60F3790A4A14431A042260AE
S1133470002B0AD0084B5A5D002A06D01F231340A4
S113348001229A40131C054A1360F7BD8C640000A6
S113349084640000000018189464000000E100E057
S11334A0F8B5FF24051C0368114A180A20401C4083
S11334B083009F580F4A9E58FFF7A6FD381C211C15
S11334C0012201F051F96A68381C211C01F05CF9F1
S11334D088232A7AA40034195B05234392001A60D6
S11334E098235B051C436B7A9B012360F8BDC0469F
S11334F08C6400008464000038B50C1C002802D1E0
S1133500002C09D112E003680133F9D0051C0835F9
S1133510FFF780FF281CF6E72368013306D0251C3B
S1133520201C0C35FFF7BCFF2C1CF5E738BD000050
S1133530FF22030A134002400120904002499B00ED
S11335405B5858607047C0468C640000FF22030A31
S1133550134002400120904002499B005B58986050
S11335607047C0468C64000008B5084B8200D358ED
S113357094220233520513431B78002B02D000F02F
S113358041FA01E000F096FA08BDC0463864000034
S1133590031C80220C33520513431B78002BF7D0F5
S11335A00171704738B50D1C084B8000C458201CAD
S11335B0291C1830FFF71EFB0328F8D0002801D07F
S11335C004232374207CC0B238BDC04648020020C6
S11335D0F0B589B00290161C820037480593105844
S11335E00EAB019035481B781458002007AA1080B0
S11335F0A27C8F0A04920122E274A2745A425341BB
S11336001E3FDBB203937B425F41FFB2CDB28742E0
S113361002D0CBB29C460D0A00216D00EDB28F4260
S113362004D1391C002E01D16B46197B0D4307AB25
S11336301D700122002F02D062465A700222A3603C
S1133640E2600198291CFFF7A3FF02980F99FFF786
S1133650A9FF237C002B0CD1002E0AD0059BA66069
S1133660E36031780198FFF793FF02980F99FFF711
S113367099FF237C002B16D1039B002B13D0002F22
S113368001D1002E0FD000230127A3600198E76029
S113369001F0D2F8391C01982943FFF779FF029809
S11336A00F99FFF77FFF0023E3746B46207C1B7C9C
S11336B0C0B2A37409B0F0BD386400004802002011
S11336C0104A830010B598580F4A9C58E37C002B8D
S11336D005D0237C052B02D0237C042B09D198220E
S11336E0831C5205134300221A7001F0B7F801231A
S11336F06374A37C002B03D0201C1830FFF737FA27
S113370010BDC0463864000048020020F7B5194BCC
S11337108700FB5801250093174BFE58002E26D135
S11337200C1C24220190081C311C01F0A6F9201C59
S1133730311C1830FFF714FA0198FFF777FC009852
S113374001F02AF80C4B019AFC500C4B9A5C1F2395
S113375013402A1C9A40131C094A13609C22009BA4
S113376052050233134380226574351C1A70281CD9
S1133770FEBDC046386400004802002036640000E4
S113378000E100E0F7B59C220027051C0D4E8400E3
S1133790A359520501930C4BE358023313431F7092
S11337A0FFF749FC094B01985A5D1F23134001227E
S11337B09A40131C064A1830D367FFF7E8F9A7515B
S11337C0F7BDC0464802002038640000366400009B
S11337D004E100E00A4B800070B5C558094BC65897
S11337E04B68726993420AD00C1CFFF7C9FB002393
S11337F0011C6268281C00F0DDFF6368736170BD02
S11338003864000048020020F0B587B00FAC334F95
S1133810334D267884006559E459677C002F02D122
S11338200320207458E0002E01D11E270E97059323
S11338300023A674E360A360237423606374071CED
S113384004920391FFF7C6FF90231021AA1C5B0585
S1133850134319708421EB1C49050B430221197091
S113386098235B05134302934023029A281C137088
S113387000F0E2FF039B381C1988012300930E9B80
S1133880049A0193059BFFF7A3FE0D9B002B15D013
S1133890237C002B0FD10C9B281CA3600D9BE360A1
S11338A00C9B1978FFF774FE002E13D0381C0E9968
S11338B0FFF778FE0EE0237C042B0BD100230126B6
S11338C0029A1370EB785B09334202D0281C00F093
S11338D0C5FF6674207CC0B207B0F0BD480200206A
S11338E038640000F0B58BB013AC2478364E374DF5
S11338F0039484006559A459667C002E02D10320E8
S113390020745FE0039E002E01D11E3612960993A7
S1133910109B00262360119BA66063606B461B7B93
S1133920E660A37426746674079108920490FFF706
S113393051FF9023AF1C5B053B4305931023059A6D
S1133940281C13708422EB1C5205134302221A70A4
S113395098235B053B4306934023069A137000F0BB
S11339606BFF079B089A1988129B00960193049891
S1133970099BFFF72DFE227CD2B2B24212D1059BE5
S113398011991A708C235B053B43012900D108224D
S11339901A702B79039B002B12D004981299FFF70D
S11339A001FE0DE0237C042B0AD1069B1E70012628
S11339B0EB785B09334202D0281C00F04FFF667499
S11339C0207CC0B20BB0F0BD480200203864000077
S11339D01FB5069C0094079C0194089C0294012442
S11339E00394FFF711FF04B010BD1FB5069C0094AB
S11339F0079C0194089C029401240394FFF772FF2E
S1133A0004B010BD842138B5244B8200D558490533
S1133A10EB1C0B4302211970214BD45890226B18D4
S1133A2052051A431278E978D2B2890634D5942122
S1133A3049051943097800292ED0012A15D1EB78BC
S1133A40134202D0052323740CE0E368013BE360D6
S1133A50002B07D0A368281C5A1CA2605978FFF7D2
S1133A6097FD19E0FFF72CFE16E06268013A6260E8
S1133A70002A06D08C214905012A05D10B430822CE
S1133A8004E0FFF71DFE02E000220B431A702368D6
S1133A905A1C22602A791A7038BDC0463864000066
S1133AA048020020842303305B051843022303707B
S1133AB070470000902149050A1CF0B58F4B071C84
S1133AC08000C55889B0EB1C0493EB78EE78DBB228
S1133AD00593F3B20693AB1D1A43944612789826C5
S1133AE0D2B20792942252051A4314787605621EC4
S1133AF09441E2B2824C33430459A81C0090084319
S1133B0001921A780178D2B2C9B203910199029054
S1133B1000292FD0079900290CD010236246281CB5
S1133B201370FFF7BFFF236BF8B20121002B00D005
S1133B30DCE0E0E0002A1DD04022281C1A70FFF7C8
S1133B40B1FF231C2C331B78002B02D1009A16439F
S1133B503370236B002B03D0F8B28021626B98473B
S1133B60E37D002B04D0201C80211830FFF711F8CE
S1133B700A23BFE0069B281C9E1101231E40FFF769
S1133B8091FF0122059B1B11134219D09023049A23
S1133B905B05134310221A70002E04D0EB785B07E8
S1133BA0DB0F10D11AE0082323702C342278002A6A
S1133BB000D0A0E0982300995B050B431A709AE0AB
S1133BC0002E16D0EAE71023029A1370236B002B01
S1133BD06ED0F8B20221626B984769E0029A1370C2
S1133BE0236B002B03D0F8B20421626B98472B7926
S1133BF081E0039B012B29D1EB78039A134257D020
S1133C00029B1E702B79231C2C331B78002B09D1AB
S1133C10019B002B06D19823009A5B0513436A4647
S1133C2012791A70236B002B03D0F8B20821626B4F
S1133C309847A37D002B04D0201C08211830FEF7E0
S1133C40A8FF00236360E360237554E02B79A26826
S1133C50DBB2002A2AD0226913702369013323615D
S1133C60A368013BA360A368002B44D1019B002BF4
S1133C7013D1231C2C331B78002B06D19823009AD4
S1133C805B0513436A4612791A70E37D002B04D056
S1133C90201C20211830FEF77CFF0023637523616C
S1133CA0236BF8B22021002B20D124E0072321E04C
S1133CB06368002B1DD0E3681A782B1C80210C3319
S1133CC049050B431B78002BF7D02A71E3680133B5
S1133CD0E3606368013B63606368002B0BD1E360BE
S1133CE02375236B002B06D01021F8B2626B984722
S1133CF001E00623237009B0F0BDC046386400001B
S1133D004802002084235B0503431A7800239A4267
S1133D1009D0802301305B0518430378012B01D0BF
S1133D20024B00E0024B181C7047C04680841E0002
S1133D3000127A0010B50D4A831D13431B78DBB2C1
S1133D40002B10D0012B08D1041CFFF7DBFF084B1C
S1133D5008341C432378D84006E00020022B03D10A
S1133D60044B186800E0044810BDC0460000081168
S1133D70000090104C020020006CDC020B4A831DF2
S1133D8013431B78DBB2012B06D0181E0CD0032082
S1133D90022B09D0052007E0802301305B0518437E
S1133DA000784342584101307047C0460000081172
S1133DB0021C031C9C201833400503438020187008
S1133DC00020064B134318700548931D03431B78CA
S1133DD0D8B20028F8D1034B0B60704700000813D9
S1133DE000000811006CDC02F8B5041C0D1C171C43
S1133DF01E1CFFF7C3FF012802D1002D04D007E0E9
S1133E00022805D1012D03D1201C311CFFF7D0FF5E
S1133E108022631C520513431D70842302225B0518
S1133E2023431A70231C0C4A083313437A00D2B27A
S1133E301A704022094B23431A70094AA31D1343E5
S1133E401B78012BF9D1002D01D1064A00E0064A66
S1133E503A4100203260F8BD0000901000000813C1
S1133E600000081180841E0000127A000A4B10B56D
S1133E701C681A1C0123002C0CD08024074B03431C
S1133E801C70074C831D23431B78022BF9D1136844
S1133E900B600023181C10BD4C0200200000081306
S1133EA0000008119C23C9015B051843C9B20170C5
S1133EB07047942349015B051843C9B201707047E8
S1133EC070B506680C1C301C2049FCF75DFB1F49CB
S1133ED0051C301CFCF7DEFB0E1C081CE12109014B
S1133EE0FCF752FBE121E0800901301CFCF7D2FB16
S1133EF00E1C081C3C21FCF747FB3C212081301C94
S1133F00FCF7C8FB6E22124BA1722380FF32238878
S1133F1095420BD9AD1A032201339BB22380B721FA
S1133F2013405A1E93414900CA1AF0E709499B07F6
S1133F3000D109490123CA5C954201D8638003E09A
S1133F400133AD1A0D2BF6D1A58070BD805101004F
S1133F50B2070000636400005664000030B5114AE3
S1133F600188031C8A180020812A19D85A88541EF3
S1133F700B2C15D89C88651E1E2D11D8DD88172D95
S1133F800ED81D893B2D0BD89B7A3B2B08D88B0769
S1133F9001D0054B00E0054B9B5CA3424041C0B2FD
S1133FA030BDC0464EF8FFFF636400005664000055
S1133FB070B5124A838804889A186E23FF336343CA
S1133FC04588D318A2089B180D4A6E00B25A9B1854
S1133FD0A20702D1022D00D8013B0B60E1233C2251
S1133FE0C4881B015C4303895343827AE3189A18FB
S1133FF00868044B4343D3180B6070BD4A05F5FFB2
S11340003C64000080510100084B1A6880231B02A5
S11340109A4209D1A02310305B0518430368002B92
S113402002D10133FF3303607047C0464C020020C5
S1134030021C802110B500230124490510320A43D3
S11340401460136090224360520504601C300243E4
S113405013608822520502431360842252050243EE
S113406008431360036010BD031C902214335205EF
S1134070134300221A604260103201601A607047D4
S113408003680B6070470000114B820070B5D5586F
S11340908022104B92051A60041C281CFFF7C8FFED
S11340A0281CFFF7B1FF01201F22011C0A4B0B4EF5
S11340B01B5D345D134099402240C0250B1C904089
S11340C007496D004B5148510B60086070BDC046F4
S11340D0746400003C80845E7164000070640000BD
S11340E000E100E0F7B50027114B8000C658081C1A
S11340F00D1C0197FFF732FF041EBC4216D001A924
S1134100281CFFF755FF381CFEF77AFF011C80209E
S11341100002814206D0FCF737FA011C0198FCF733
S113412033FA0190301C0199FFF79EFF201CFEBD5D
S113413074640000F7B50025124B8000C4580E1CAF
S1134140201C01A90195FFF79BFF281CFEF758FFCF
S1134150051C8020000285420ED00B4B291C043420
S11341601C43FCF711FA2768019C291C4443B8B28C
S1134170FCF70AFA20180190311C01A8FFF7A0FEF1
S1134180F7BDC0467464000000007810F0B5002646
S1134190184B800085B0C458081C0F1C019203966C
S11341A0FFF7DCFE051EB54201D100251EE0381CD8
S11341B003A9FFF7FDFE301C2768FEF721FF011C51
S11341C080200002814206D0FCF7DEF9011C03982E
S11341D0FCF7DAF90390039BBB42E6D3A360882380
S11341E01C345B051C43019B9B002360281C05B009
S11341F0F0BDC046746400008822044B8000C3589C
S113420052051C331343890019607047746400001D
S11342108822054B8000C358520514331343186891
S1134220431E9841C0B27047746400006B46E0229C
S11342301B78D2021B04134009071943014BC01811
S1134240016070474410000008B5084B8200D35841
S113425090220333520513431B78002B02D000F045
S113426015F901E000F07AF908BDC0467C6400004D
S113427008B50C4B8000C2580B4B0021C3589C203E
S11342800333400518431171017094204005034322
S11342901970137F8B4203D02032101CFEF767FC89
S11342A008BDC046540200207C640000F7B5061C1B
S11342B01C4B30220C1C8700081C0021FD5800F008
S11342C0DCFB301CFEF7A8FEFEF75AFE2060281C1B
S11342D000F0E1FA201C00212030FEF741FCEB1C29
S11342E001939023019A5B0513431022281C1A7032
S11342F0032100F010FB281C002100F032FB0A4BC4
S1134300FC500A4B9A5D1F23134001229A40131C50
S1134310074A13609823019A5B05134340221A70DD
S1134320F7BDC0467C64000054020020786400009D
S113433000E100E0F8B50D4E84000D4BA759051CB3
S1134340E05800F0A8FA381C2030FEF720FC094B96
S1134350281C5A5D1F23134001229A40131C064A4D
S1134360D367FEF75EFE0023A351F8BD540200207C
S11343707C6400007864000004E100E00A4B8000E3
S113438070B5C658094B0C1CC358151C301C1A6850
S1134390096800F087FA28602179301C6279A379D2
S11343A000F0CCFA70BDC0467C64000054020020CA
S11343B0F7B51E4A83009C581D4A9E58227904234F
S11343C0002A31D1071C002902D001AAFFF7D6FF29
S11343D0982300214020F21C5B05134319701870C8
S11343E025698D4203D1381CFFF742FF1BE00123EE
S11343F0237194235B053343A161197807230029B2
S113440012D0A368191E02D019780133A360B171C8
S11344102369013B2361A3690133A3619C235B05E9
S11344201A43802313700023181CFEBD540200207D
S11344307C640000F8B5134F134C85002C59ED59DA
S11344400127069E2777A2602661E3606661FFF775
S1134450AFFF061E14D1201C07992030FEF7CAFBBB
S11344600328F8D000280BD09C210022EB1C49051E
S1134470194322710A709421032649050B431A70CB
S1134480301CF8BD7C6400005402002010B51E4BA3
S11344908200D3581D4951581A79002A32D05A69DA
S11344A0002A11D09C2252050A431278002A0BD00C
S11344B08A79DC68D2B2002C03D02270DA68013227
S11344C0DA605A69013A5A611A69002A12D09422B0
S11344D052050A431278002A0CD09A68141E02D09E
S11344E0147801329A608C711A69013A1A619A69D6
S11344F001329A611A69002A04D15B69002B01D147
S1134500FFF7B6FE10BDC046540200207C640000D4
S1134510104A80008158002208B50F4B0331C3585C
S1134520581CC2779C2040050843DA621A701A832B
S11345305A629A621A6302709420400501430A7019
S11345401A1C38321278002A03D0181D0121FEF7F4
S113455020FB08BD7C6400005402002038B5254BC4
S11345608200D35824495258591CC97F00293FD08E
S1134570D96A002916DB94214905114309780029D9
S113458010D0596A1C7F002905D0DD6A002D02DD98
S11345900C78013159629471D96A0139D962596B25
S11345A001315963D96A002905DA9424D11C6405C0
S11345B0214300240C70196B002911DD9C2149054D
S11345C01143097800290BD09279996AD2B2002953
S11345D003D00A709A6A01329A621A6B013A1A631A
S11345E0DA6A002A04DC1B6B002B01DCFFF790FF66
S11345F038BDC046540200207C640000012903D069
S1134600032909D1842300E094235B05184300782F
S1134610431E9841C0B200E000207047034B0130B4
S113462049011843C9B201707047C046000088129E
S1134630942302305B0549011843C9B201707047E5
S1134640034B023089011843C9B201707047C04658
S1134650000008138C2302305B05C9001843C9B25B
S113466001707047F7B5384EC21C164337780B7883
S1134670FFB20122072B65D8041C181C0D1CFBF784
S113468079FF04192A0D192A2A3A00232F480134E4
S1134690044323703378012BFCD152E00322012F11
S11346A050D1402329480134044323703378042B28
S11346B0FCD146E00021012B01D0042302213078F3
S11346C0032298423ED1201CFFF7A8FF0421204A70
S11346D013698B4333E00227BB4207D100270B79D0
S11346E0BB4203D04979201CFFF7AAFF19480134C3
S11346F00443277019E004231649621C0A4313700B
S11347006A78A31C0B431A706B78002B06D1AB7824
S1134710002B03D0E978201CFFF78AFFAB79002B2C
S113472003D0E979201CFFF795FF04213378084A68
S1134730DBB20193019B0133019313690B431361B2
S113474030BF0022101CFEBD000030100000881293
S113475000ED00E000001010024B03301843007815
S1134760C0B270470000301014308023012A04D1F5
S11347708A401B051843026005E0DB04184301234B
S11347808B40D9430160704701238B40002A01D03C
S1134790436000E0836070470023C22203704370CB
S11347A08370C37043718371C371037242728372E5
S11347B0C3727047F0B5002789B00393FA2301252B
S11347C03C1C9B0053430690079102936D42019752
S11347D00123A3400493174B9E1CCA330593049BE7
S11347E0318807985943FBF7CFFE029B029AC31AFC
S11347F0824200D9131AAB4204D2B21E1778019434
S11348001D1E03D0059B04369E42E8D10134032CBF
S113481001D0002DDCD1039B002B00D01D603F2371
S11348201F40019B9B011F43069BFFB25F7009B0B1
S1134830F0BDC04696640000942302305B05034338
S11348401B78002B04D088235B051843042303E062
S113485080231B0518433023037070479422831C64
S113486052051A431278011C0220012A12D1802217
S1134870D2041343CF221A708022D2002023C87896
S1134880034004D0013A002A03D0C046F6E7181CBE
S113489000E0092070470423C37000238370437031
S11348A003717047F0B5130B89B0012504930823F5
S11348B000266D4203935B190790059106920293BB
S11348C002270024731C191C069879430193FBF7F3
S11348D05BFE059B834206D31B1A9D4203D91D1C14
S11348E004900394029601347F00092C02D0002D19
S11348F0E8D104E0072E02D0019E002DE0D1702201
S1134900029B04981B011340039A1343079ADBB2DA
S1134910537009B0F0BD8422C31C52051A4301230D
S11349200B405B00DBB2137090238907C90F5B0552
S1134930023009011843C9B20170704710B58C24C4
S113494003306405C9000443C9B221708821920070
S113495049050143D2B20A70802252051043037004
S113496010BD8023012202305B0503430A401A7004
S11349708C238907C90F5B05C9001843C9B20170AC
S11349807047011C002008B5021C031C00F03EF90E
S113499008BD0000014B18687047C046A4FFFF1F04
S11349A0084B10B5041C002B02D0002100F08AF93A
S11349B0054B1868836A002B00D09847201C00F030
S11349C0F5F9C046C54C00006065000038B5074BDA
S11349D0074C1D1CE41AA410002C04D0013CA300B5
S11349E0EB589847F8E701F0C3FD38BD886500002F
S11349F08C6500000E4B70B500251E1C0D4CE41A8E
S1134A00A410A54204D0AB00F35898470135F8E749
S1134A1001F0A8FD084B00251E1C084CE41AA41044
S1134A20A54204D0AB00F35898470135F8E770BDB0
S1134A3084650000846500008465000088650000CA
S1134A4008B5034B011C186800F066F808BDC046A1
S1134A50A4FFFF1F08B5034B011C186800F016F8EB
S1134A6008BDC046A4FFFF1F002310B5934203D026
S1134A70CC5CC4540133F9E710BD031C8218934283
S1134A8002D019700133FAE77047000030B50029ED
S1134A903ED004390B68002B00DAC9181D4A13688C
S1134AA0141C002B02D14B60116031E099420DD2ED
S1134AB008680A189A4203D11368C3180B60536834
S1134AC04B60216024E08A4203D8131C5A68002AF0
S1134AD0F9D11D685C198C420BD109686918581802
S1134AE01960904214D110685268091819605A600C
S1134AF00EE08C4202D90C23036009E008680C180C
S1134B00944203D114685268001908604A605960DD
S1134B1030BDC0465C020020032370B5CC1C9C430E
S1134B200834051C0C2C01D20C2405E0002C03DAFB
S1134B300C2300202B6042E08C42F9D3204A1368F6
S1134B40101C191C002913D00A68121B0DD40B2A3F
S1134B5002D90A608B181FE08B4202D15A680260A6
S1134B601BE04A685A600B1C17E00B1C4968E9E714
S1134B70144E3368002B03D1281C00F025F8306054
S1134B80281C211C00F020F8031C421CD0D0032256
S1134B90C61C964386420AD11C60181C07210B30A0
S1134BA01A1D8843821A0AD05142995007E0311ADB
S1134BB0281C00F009F8431CBAD0331CECE770BD84
S1134BC05C0200205802002038B50023064C051C66
S1134BD0081C2360FBF75AFE431C03D12368002BF7
S1134BE000D02B6038BDC046F0020020031C0A78B8
S1134BF001311A700133002AF9D170470023C25CD5
S1134C000133002AFBD1581E70470000F7B52A4D26
S1134C10061C2C680091171C0193002C01D1274C11
S1134C202C6063681F2B15DD254B002B02D101205E
S1134C30404240E08C20FFF703FF041EF7D02A68AF
S1134C4000230260021C88324360286013609E4285
S1134C500AD128E0002E26D0231C883318680028A7
S1134C6010D1174B002BE2D084204000FFF7E8FE60
S1134C700028DCD0031C0022FC335A609A60231CF9
S1134C8088331860012261688A408B00C31880C38E
S1134C90FC304168114341600199D967022E02D169
S1134CA083681A438260002063685A1C626002337E
S1134CB0009A9B001A51FEBDEC0200206002002005
S1134CC0414A0000F0B587B005900391344D2C683B
S1134CD0002C63D0231C88331E6863685A1E01921B
S1134CE0304A9B189B00F7180433E3180293019B86
S1134CF0002B3DDB039B002B07D0002E31D03B1C47
S1134D0080331B68039A93422BD16268029B0199FA
S1134D10013A5B68914201D1616002E0002202998C
S1134D204A60002B1DD062680492002E07D0012235
S1134D3001998A40311CFC314868104201D19847DE
S1134D4008E08968114203D105983968984701E061
S1134D5038689847049B62689342B7D12B68A34292
S1134D60B4D1019B043F013B0193029B043BBDE78B
S1134D700D4B002B12D062682368002A0BD1002B44
S1134D8009D02B60002E02D0301CFFF763FE201CDC
S1134D90FFF760FE9BE7251C1C1C99E707B0F0BDDC
S1134DA0EC020020FFFFFF3F554A0000FEE7C0462B
S1134DB01B5B306D1B5B343B34336D1B5B313B330E
S1134DC0376D0D53616E69747920636865636B2078
S1134DD06661696C6564211B5B306D0A001B5B3086
S1134DE06D1B5B343B34316D1B5B313B33376D0DD5
S1134DF0496E76616C696420737570706C79207685
S1134E006F6C74616765205B25645D206D56211BA2
S1134E105B306D0A004D6561737572656D656E7406
S1134E20206E756D6265722C205254432D3E54538E
S1134E30522C205254432D3E5450522C00204D4DA0
S1134E40413834353120782C204D4D4138343531BA
S1134E5020792C204D4D4138343531207A2C0020D6
S1134E605254432D3E5453522C205254432D3E54FD
S1134E7050522C202320436F6E666967204572725E
S1134E806F72730025752C2025642C2025642C005A
S1134E902025642C2025642C2025640A000D09306B
S1134EA07825303278202D2D3E205B307825303225
S1134EB07820307825303278203078253032785D8B
S1134EC00A000D09307825303278202D2D3E20300F
S1134ED078253032780A000D093078253032782070
S1134EE02D2D3E202D2D2D2D0A000D0A0925642F70
S1134EF02564207375636365737320726174652E12
S1134F000A000D0925642F25642073756363657396
S1134F10736573206D617463686564207265662EC1
S1134F202076616C7565206F662030782530327884
S1134F302E0A000D0925642062616420636F6D6D83
S1134F40616E64732E0A0A000D0A094144584C33F9
S1134F50363220526561642041626F727465642E3A
S1134F60204465766963652044697361626C656495
S1134F70203A28000D0A4D4D4138343531513A0A52
S1134F800D000D0A0A424D453638302052656164E1
S1134F902041626F727465642E204465766963658E
S1134FA02044697361626C6564203A28000D0A0923
S1134FB0424D58303535616363656C2052656164D8
S1134FC02041626F727465642E204465766963655E
S1134FD02044697361626C6564203A2820000D0ADC
S1134FE009424D583035356779726F2052656164D6
S1134FF02041626F727465642E204465766963652E
S11350002044697361626C6564203A2820000D0AAB
S11350100920424D583035356D6167205265616411
S11350202041626F727465642E20446576696365FD
S11350302044697361626C6564203A2820000D0A7B
S1135040094D41473331313020526561642041625A
S11350506F727465642E20446576696365204469C3
S11350607361626C6564203A2820000D0A094C3390
S1135070474432304820526561642041626F727443
S113508065642E20446576696365204469736162B2
S11350906C6564203A2820000D0A094C50533235BF
S11350A04820526561642041626F727465642E20E9
S11350B04465766963652044697361626C65642044
S11350C03A2820000D0A095443533334373235202B
S11350D0526561642041626F727465642E20446578
S11350E0766963652044697361626C6564203A285B
S11350F020000D0A09534934373035205265616464
S11351002041626F727465642E204465766963651C
S11351102044697361626C6564203A2820000D0A9A
S11351200948444331303030205265616420416283
S11351306F727465642E20446576696365204469E2
S11351407361626C6564203A2820000D0A09534992
S11351503730323120526561642041626F72746568
S1135160642E204465766963652044697361626CCA
S11351706564203A2820000D0A094343533831312D
S113518020526561642041626F727465642E20440C
S113519065766963652044697361626C6564203A6D
S11351A02820000D0A09414D473838333420526510
S11351B061642041626F727465642E20446576696F
S11351C063652044697361626C6564203A28200039
S11351D00D0A094153373236322052656164204149
S11351E0626F727465642E20446576696365204439
S11351F0697361626C6564203A2820000D0A0941D4
S1135200533732363320526561642041626F7274C1
S113521065642E2044657669636520446973616220
S11352206C6564203A2820000D09496E76616C692A
S113523064207761727053656E736F72446576692A
S11352406365205B25645D207061737365642074FD
S11352506F207265706561745265676973746572F5
S113526052656164466F72446576696365416E6434
S1135270416464726573732E0A000D09506F77657B
S113528072757020636F6D6D616E64206661696C08
S113529065642E20424D583035352064697361624F
S11352A06C6564200A000D09506F776572646F772E
S11352B06E20636F6D6D616E64206162616E646FF8
S11352C06E65642E20424D58303535206469736113
S11352D0626C65640A000D09506F776572646F77BC
S11352E06E20636F6D6D616E64206162616E646FC8
S11352F06E65642E204C3347443230482064697311
S113530061626C65640A000D09506F776572646FA1
S1135310776E20636F6D6D616E64206162616E648F
S11353206F6E65642E205443533334373235206412
S1135330697361626C65640A000A0A0A0D426F6F40
S113534074696E6720576172702C20696E20332E49
S11353502E2E2000322E2E2E2000312E2E2E0A0D1F
S1135360000D0A0A0A0A5B202A090909095709617A
S11353700972097009287265762E206229090909C3
S11353802A205D0A000D5B2020090909092020203C
S113539020202043616D627269646765202F20506C
S11353A0687973636F6D706C61622020200909094C
S11353B00920205D0A0A000D09537570706C793D4F
S11353C025646D562C0944656661756C74205461BE
S11353D072676574205265616420526567697374ED
S11353E065723D3078253032780A000D0949324320
S11353F03D25646B622F732C095350493D25646B22
S1135400622F732C09554152543D25646B622F73EE
S11354102C094932432050756C6C2D55703D256420
S11354200A0A000D0953494D2D3E53434743363D67
S113543030782530327809095254432D3E53523D79
S113544030782530327809095254432D3E54535252
S11354503D3078253032780A000D094D43475F43CB
S1135460313D3078253032780909094D43475F438F
S1135470323D30782530327809094D43475F533D3A
S11354803078253032780A000D094D43475F534385
S11354903D3078253032780909094D43475F4D4343
S11354A03D30782530327809094F53435F43523DEC
S11354B03078253032780A000D09534D435F504D42
S11354C050524F543D307825303278090909534DF4
S11354D0435F504D4354524C3D3078253032780967
S11354E0095343422D3E5343523D307825303278A0
S11354F00A000D09504D435F52454753433D3078F0
S11355002530327809090953494D5F5343474334E1
S11355103D307825303278095254432D3E54505250
S11355203D3078253032780A0A000D09256473204D
S1135530696E205254432048616E646C6572207415
S11355406F2D646174652C09256420506D67722089
S11355504572726F72730A000D53656C6563743A19
S11355600A000D2D202761273A2073657420646595
S11355706661756C742073656E736F722E0A000D0C
S11355802D202762273A2073657420493243206214
S113559061756420726174652E0A000D2D202763E5
S11355A0273A207365742053504920626175642042
S11355B0726174652E0A000D2D202764273A20732A
S11355C0657420554152542062617564207261747F
S11355D0652E0A000D2D202765273A207365742057
S11355E064656661756C742072656769737465724D
S11355F020616464726573732E0A000D2D20276682
S1135600273A207772697465206279746520746F13
S11356102073656E736F722E0A000D2D2027672785
S11356203A207365742064656661756C7420535305
S1135630535550504C592E0A000D2D202768273AF7
S113564020706F776572646F776E20636F6D6D6124
S11356506E6420746F20616C6C2073656E736F725E
S1135660732E0A000D2D202769273A2073657420B4
S113567070756C6C2D757020656E61626C6520763A
S1135680616C75652E0A000D2D20276A273A207259
S1135690657065617420726561642072656720308D
S11356A07825303278206F6E2073656E736F7220A8
S11356B02325642E0A000D2D20276B273A20736CB6
S11356C065657020756E74696C2072657365742EDF
S11356D00A000D2D20276C273A2073656E64207212
S11356E0657065617465642062797465206F6E20ED
S11356F04932432E0A000D2D20276D273A20736569
S11357006E64207265706561746564206279746585
S1135710206F6E205350492E0A000D2D20276E272E
S11357203A20656E61626C65205353535550504C5A
S1135730592E0A000D2D20276F273A2064697361C2
S1135740626C65205353535550504C592E0A000D2A
S11357502D202770273A2073776974636820746F4B
S113576020564C5052206D6F64652E0A000D2D207A
S11357702772273A2073776974636820746F205204
S1135780554E206D6F64652E0A000D2D202773275A
S11357903A20706F77657220757020616C6C20738D
S11357A0656E736F72732E0A000D2D202774273ACD
S11357B02064756D702070726F636573736F7220EF
S11357C073746174652E0A000D2D202775273A2005
S11357D07365742049324320616464726573732E67
S11357E00A000D2D202778273A2064697361626CC2
S11357F0652053574420616E64207370696E20667F
S11358006F7220313020736563732E0A000D2D20D2
S1135810277A273A2064756D7020616C6C2073655B
S11358206E736F727320646174612E0A000D456E8D
S11358307465722073656C656374696F6E3E2000D5
S11358400D0953656C6563743A0A000D092D202710
S11358503127204144584C3336320909092830781D
S113586030302D2D30783244293A20312E365620CE
S11358702D2D20332E35562028636F6D70696C658D
S113588064206F757429200A000D092D2027322702
S113589020424D58303535616363656C2009092811
S11358A0307830302D2D30783346293A20322E345A
S11358B056202D2D20332E36562028636F6D7069A7
S11358C06C6564206F757429200A000D092D20274A
S11358D0332720424D583035356779726F090909ED
S11358E028307830302D2D30783346293A20322E26
S11358F03456202D2D20332E36562028636F6D709C
S1135900696C6564206F757429200A000D092D20C7
S113591027342720424D583035356D616709090910
S113592028307834302D2D30783532293A20322EF3
S11359303456202D2D20332E36562028636F6D705B
S1135940696C6564206F757429200A000D092D2087
S1135950273527204D4D413834353151090909285F
S1135960307830302D2D30783331293A20312E39AA
S11359703556202D2D20332E36560A000D092D20A4
S1135980273627204C5053323548090909283078E6
S113599030382D2D30783234293A20312E375620A4
S11359A02D2D20332E36562028636F6D70696C655B
S11359B064206F757429200A000D092D20273727CC
S11359C0204D4147333131300909092830783030CE
S11359D02D2D30783131293A20312E393556202D6C
S11359E02D20332E36562028636F6D70696C6564E4
S11359F0206F757429200A000D092D2027382720CF
S1135A004844433130303009090928307830302D8A
S1135A102D30783146293A20332E3056202D2D2032
S1135A20352E30562028636F6D70696C6564206F65
S1135A30757429200A000D092D2027392720534980
S1135A403730323109090928307830302D2D30783B
S1135A503046293A20312E3956202D2D20332E362A
S1135A60562028636F6D70696C6564206F757429A6
S1135A70200A000D092D20276127204C334744328A
S1135A80304809090928307830462D2D30783339CB
S1135A90293A20322E3256202D2D20332E365620F0
S1135AA028636F6D70696C6564206F757429200AB2
S1135AB0000D092D2027622720424D453638300934
S1135AC0090928307841412D2D30784638293A206B
S1135AD0312E3656202D2D20332E36562028636F36
S1135AE06D70696C6564206F757429200A000D0956
S1135AF02D20276427205443533334373235090982
S1135B000928307830302D2D30783144293A20322C
S1135B102E3756202D2D20332E33562028636F6DBB
S1135B2070696C6564206F757429200A000D092D55
S1135B302027652720534934373035090909286E51
S1135B402F61293A2020202020202020322E375671
S1135B50202D2D20352E35562028636F6D70696CED
S1135B606564206F757429200A000D092D202766AD
S1135B70272050414E31333236090909286E2F61EE
S1135B80292028636F6D70696C6564206F757429B2
S1135B90200A000D092D202767272043435338315D
S1135BA03109090928307830302D2D3078464629BE
S1135BB03A20312E3856202D2D20332E36562028CB
S1135BC0636F6D70696C6564206F757429200A00B9
S1135BD00D092D2027682720414D473838333409D3
S1135BE0090928307830302D2D3F293A203F56209E
S1135BF02D2D203F562028636F6D70696C656420DD
S1135C006F757429200A000D092D20276A27204169
S1135C10533732363209090928307830302D2D3087
S1135C20783242293A20322E3756202D2D20332E19
S1135C3036562028636F6D70696C6564206F7574C7
S1135C4029200A000D092D20276B272041533732C4
S1135C50363309090928307830302D2D3078324216
S1135C60293A20322E3756202D2D20332E36562019
S1135C7028636F6D70696C6564206F757429200AE0
S1135C80000D09456E7465722073656C65637469F3
S1135C906F6E3E20000D09496E76616C6964207355
S1135CA0656C656374696F6E202725632720210A5C
S1135CB0000D0A09536574204932432062617564FA
S1135CC0207261746520696E206B62707320286590
S1135CD02E672E2C20273030303127293E20000D0E
S1135CE00A09493243206261756420726174652037
S1135CF073657420746F202564206B622F73000D0C
S1135D000A095365742053504920626175642072F6
S1135D1061746520696E206B6270732028652E673C
S1135D202E2C20273030303127293E20000D0A093F
S1135D30535049206261756420726174653A20256C
S1135D4064206B622F73000D0A095365742055415A
S1135D5052542062617564207261746520696E20FA
S1135D606B6270732028652E672E2C20273030300C
S1135D703127293E20000D0A095541525420626101
S1135D80756420726174653A202564206B622F73F8
S1135D90000D0A09456E74657220322D6E796262B7
S1135DA06C65207265676973746572206865782014
S1135DB0616464726573732028652E672E2C202716
S1135DC0336527293E20000D0A09456E7465726506
S1135DD064205B3078253032785D2E0A0A000D0A83
S1135DE009456E7465722049324320616464722EE1
S1135DF02028652E672E2C202730662729206F72D5
S1135E00202739392720666F7220535049203E20BD
S1135E10000D0A09456E7465726564205B3078254F
S1135E203032785D2E0A000D0A09456E74657220C1
S1135E30686578206279746520746F2073656E6478
S1135E402028652E672E2C2027306627293E200027
S1135E500D0A095350492077726974652066616997
S1135E606C65642E204144584C33363220446973A7
S1135E7061626C6564000D0A0949324320777269D6
S1135E807465206661696C65642C206572726F723A
S1135E902025642E0A0A000D0A094F76657272697C
S1135EA06465205353535550504C5920696E206DEE
S1135EB0562028652E672E2C20273138303027298C
S1135EC03E20000D0A094F7665727269646520539D
S1135ED053535550504C592073657420746F2025CA
S1135EE064206D56000D0A094E4F54453A20466908
S1135EF072737420706F7765722073656E736F723E
S1135F007320616E6420656E61626C652049324362
S1135F100A0A000D0A0944656661756C742070757F
S1135F206C6C757020656E61626C652076616C7551
S1135F306520696E206B696C6F4F686D73202865EE
S1135F402E672E2C20273030303027293E20000D9C
S1135F500A0949326350756C6C757056616C7565CD
S1135F602073657420746F2025640A000D0A0941AA
S1135F7075746F2D696E6372656D656E74206672DB
S1135F806F6D206261736520616464726573732050
S1135F903078253032783F205B273027207C20273B
S1135FA031275D3E20000D0A094368756E6B20722F
S1135FB065616473207065722061646472657373D3
S1135FC02028652E672E2C20273127293E20000DFE
S1135FD00A094368617474793F205B273027207C69
S1135FE0202731275D3E20000D0A09496E74657231
S1135FF02D6F7065726174696F6E207370696E20A5
S113600064656C617920696E206D696C6C69736577
S1136010636F6E64732028652E672E2C2027303022
