S02B00002F686F6D652F6A73323239342F576172702D6669726D776172652F6275696C642F6B73646B312E3121
S113000000060020310500005905000059050000D4
S113001000000000000000000000000000000000DC
S1130020000000000000000000000000590500006E
S11300300000000000000000590500005905000000
S11300405905000059050000590500005905000034
S11300505905000059050000590500005905000024
S1130060891A000059050000931A00005905000080
S11300705905000059050000590500005905000004
S113008059050000590500005905000059050000F4
S1130090E5080000FD0800005905000059050000AE
S11300A059050000590500005905000059050000D4
S11300B059050000590500005905000059050000C4
S1130400FFFFFFFFFFFFFFFFFFFFFFFFFE3DFFFFBB
S113041008B5054B054803331B1A062B03D9044BB7
S1130420002B00D0984708BDA4FFFF1FA4FFFF1FA7
S1130430000000000648074908B5091A8910CB0FC7
S11304405918491003D0044B002B00D0984708BD1D
S1130450A4FFFF1FA4FFFF1F0000000010B5074CFE
S11304602378002B09D1FFF7D3FF054B002B02D0D3
S1130470044800E000BF0123237010BDA4FFFF1F48
S113048000000000C844000008B5094B002B03D04D
S11304900848094900E000BF08480368002B02D15E
S11304A0FFF7C8FF08BD064B002BF9D09847F7E7C4
S11304B000000000C8440000A8FFFF1FA0FFFF1FAA
S11304C000000000144B002B00D1124B9D4640222B
S11304D092029A1A924600218B460F461148124AFC
S11304E0121A03F080FA0D4B002B00D098470C4BE6
S11304F0002B00D098470020002104000D000B4879
S113050003F0F5F903F02CFA2000290000F0BAFBFF
S113051003F0FCF9000008000006002000000000C1
S113052000000000A4FFFF1FEC0200203939000086
S113053072B606480649074A02600A6001F0AEFA3C
S113054001F0EEFA62B6FFF7BDFF000080E100E0C3
S113055080E200E0FFFFFFFF00480047590500006C
S113056002B4714649084900095649008E4402BC48
S11305707047C04602B4714649084900095C490005
S11305808E4402BC7047C046002243088B4274D399
S113059003098B425FD3030A8B4244D3030B8B4280
S11305A028D3030C8B420DD3FF22090212BA030C89
S11305B08B4202D31212090265D0030B8B4219D36A
S11305C000E0090AC30B8B4201D3CB03C01A52418A
S11305D0830B8B4201D38B03C01A5241430B8B42D2
S11305E001D34B03C01A5241030B8B4201D30B03BB
S11305F0C01A5241C30A8B4201D3CB02C01A5241E2
S1130600830A8B4201D38B02C01A5241430A8B42A4
S113061001D34B02C01A5241030A8B4201D30B028D
S1130620C01A5241CDD2C3098B4201D3CB01C01AA7
S1130630524183098B4201D38B01C01A52414309B1
S11306408B4201D34B01C01A524103098B4201D39F
S11306500B01C01A5241C3088B4201D3CB00C01A0C
S1130660524183088B4201D38B00C01A5241430884
S11306708B4201D34B00C01A5241411A00D20146A9
S1130680524110467047FFE701B5002000F0FCF826
S113069002BDC0460029F7D003B5FFF775FF0EBCB5
S11306A04243891A1847C04603460B437FD40022AD
S11306B043088B4274D303098B425FD3030A8B42F2
S11306C044D3030B8B4228D3030C8B420DD3FF225C
S11306D0090212BA030C8B4202D31212090265D02A
S11306E0030B8B4219D300E0090AC30B8B4201D3DD
S11306F0CB03C01A5241830B8B4201D38B03C01A24
S11307005241430B8B4201D34B03C01A5241030B9A
S11307108B4201D30B03C01A5241C30A8B4201D34B
S1130720CB02C01A5241830A8B4201D38B02C01AF6
S11307305241430A8B4201D34B02C01A5241030A6D
S11307408B4201D30B02C01A5241CDD2C3098B4252
S113075001D3CB01C01A524183098B4201D38B01CF
S1130760C01A524143098B4201D34B01C01A524172
S113077003098B4201D30B01C01A5241C3088B42B7
S113078001D3CB00C01A524183088B4201D38B00A2
S1130790C01A524143088B4201D34B00C01A524144
S11307A0411A00D201465241104670475DE0CA0F1B
S11307B000D04942031000D34042534000229C46DB
S11307C003098B422DD3030A8B4212D3FC228901E5
S11307D012BA030A8B420CD3890192118B4208D3BB
S11307E0890192118B4204D389013AD0921100E01D
S11307F08909C3098B4201D3CB01C01A5241830931
S11308008B4201D38B01C01A524143098B4201D35D
S11308104B01C01A524103098B4201D30B01C01A88
S11308205241C3088B4201D3CB00C01A5241830802
S11308308B4201D38B00C01A5241D9D243088B4258
S113084001D34B00C01A5241411A00D201466346FB
S113085052415B10104601D34042002B00D549425F
S1130860704763465B1000D3404201B5002000F09E
S11308700BF802BD0029F8D003B5FFF715FF0EBC35
S11308804243891A1847C0467047C04608B50A4B08
S11308901A68002A01D1094A1A601A68084910180E
S11308A0884206D903F02CF80C230360012040424F
S11308B001E01860101C08BDC0FFFF1FF0020020FB
S11308C0F002002002238078834280414042704736
S11308D0437A0020013B012B03D901200B7801331B
S11308E00B70704708B5002002F06CFC002803D0A0
S11308F00020011C02F05AFC08BD0000024A1368E3
S1130900013313607047C0460000002037B5002053
S113091001F08EFBC02300250D4A9B0013600D4A95
S11309200D4C13600D4A281C13600D4B2571657125
S1130930A5711A68FA239B0053430A49236002F005
S11309408FFC281C211C01AA02F0CEFC37BDC04636
S1130950189014541C901454F8FFFF1F00A0145452
S113096010FEFF1F0400002008B5002001F065FB05
S11309708023054A9B001360044A00201360044945
S113098001F0C6FE08BDC0460CA0145410A01454B7
S1130990C4FFFF1F08B50023354A36491360364AA1
S11309A01360364A0133FF331360354A1360354A06
S11309B01360354A1360354A1360354A1360354A6B
S11309C01360012208780240081C3349002A01D030
S11309D00B6000E00A60314A3149136000220A606A
S11309E030490A60304A1360304A1360304A136059
S11309F0304A1360304A1360304A13600378DB07CF
S1130A0003D50220FF3001F095FD092001F0A0FD7F
S1130A100C2001F09DFD052001F09AFD082001F055
S1130A2097FD0620FF3001F093FD0E20FF3001F00A
S1130A308FFD8320400001F08BFD0820FF3001F082
S1130A4087FD0C20FF3001F075FD8220400001F08D
S1130A507FFD0420FF3001F07BFD082001F078FDCC
S1130A60062001F075FD092001F072FD08BDC046A5
S1130A700C90145408FEFF1F109014541490145436
S1130A80189014541C90145420901454249014540A
S1130A903090145400A0145404A0145408A0145406
S1130AA00CA0145410A0145414A0145418A01454DA
S1130AB01CA0145428A014542CA0145434A014546E
S1130AC008B5092001F044FD08BD08B50C2001F06B
S1130AD03FFD08BD08B5384B984259D013D8374B61
S1130AE0984243D007D8364B984230D0643398426A
S1130AF038D0C83B12E0334B98423ED0643398421E
S1130B0042D0314B15E0314B98422FD00CD8304BAA
S1130B1098421CD06433984224D02E4B984242D140
S1130B20052001F015FD15E02B4B984225D006D881
S1130B302A4B984237D1052001F00AFD20E0C82352
S1130B401B01984220D0264B984221D02BE005204F
S1130B5001F0F0FC082001F0FBFC0620FF3001F05E
S1130B60F7FC24E0052001F0F3FC02E0052001F08D
S1130B70E1FC082001F0DEFCEFE7052001F0DAFCDF
S1130B80082001F0E5FC09E0052001F0E1FC02E0A9
S1130B90052001F0CFFC082001F0CCFC0620FF303A
S1130BA001F0C8FC03E000200E4900F061FF0E4B89
S1130BB0186801F077F808BDC40900003408000083
S1130BC06C070000FC08000098080000540B0000AB
S1130BD08C0A0000280A00001C0C0000B80B00005E
S1130BE0E40C00001C3D000004FEFF1F08B5FFF7E5
S1130BF071FF092001F09EFC0C2001F0A9FC832068
S1130C00400001F0A5FC08BD08B5FFF763FF09200B
S1130C1001F09EFC0C2001F08DFC8320400001F0CB
S1130C2089FC08BDAF2108B50B4B021CC3189BB24D
S1130C3089008B4202D8FFF7D9FF0BE0074BC3189A
S1130C409BB28B4202D8FFF7DFFF03E00020044988
S1130C5000F00EFF08BDC046F8F8FFFFD8F5FFFF0F
S1130C60493D000008B5FFF72BFFFFF72EFF832057
S1130C70400001F05FFC024B186801F013F808BD56
S1130C8004FEFF1FF0B5A7B015AC0021201C0722FD
S1130C9002F0A9FE834A01251A92032205AB1D9393
S1130CA007AB1E9309AB20930DAB22930FAB239399
S1130CB011AB249313AB25931AAB0BAF1A7100201D
S1130CC003AA1C92049325701F94219701F0A8F99C
S1130CD0281C01F0A5F98022734B12021A6000F05F
S1130CE0FFFF00200095021C031C011C00F0D2FC35
S1130CF06E49002000F0C2FCC82000F0D3FF6C490C
S1130D00002000F0BBFCC82000F0CCFF69490020A3
S1130D1000F0B4FCC82000F0C5FF674A2B1C022178
S1130D20664801F001F8291C281C01F009F800208C
S1130D3002F084F90026FC2317A9DB00301C0B8089
S1130D404D808D80CE800E818E7202F0A5F9311C0B
S1130D502A1C03A802F047FE69462A20159B099322
S1130D60A2880A85A27909180A706A4624215218B1
S1130D70213911700B93A2886946BA80A279083888
S1130D80BA7105223A7002270593A2880A83A279D0
S1130D900F758A760793A2880A84A27909180A70C3
S1130DA0694604220A770D93A28818300A87A2792B
S1130DB009180A7069460822063809180A70694633
S1130DC00F93A2880C3009180A806946A279C019C9
S1130DD009180A706A4609210638121811706A4601
S1130DE01193A3880C30121813806A46A379C01992
S1130DF0121813706A460A230638121813706B46C9
S1130E004C2208249B181E7004AA2B1C1DA801F058
S1130E105DF9311C381CFF3400F07EF8284929485C
S1130E2001F06CFBFFF7B6FD201C01F083FBC8202A
S1130E3000F038FF201C01F08BFBC82000F032FFCB
S1130E40201C01F077FBC82000F02CFF201C01F0CF
S1130E507FFBC82000F026FF201C01F06BFBC8209C
S1130E6000F020FF201C01F073FB17491D2000F047
S1130E70EBF8FFF7F7FE1548FFF7D4FE80200002D9
S1130E80FFF772FD00F07AF9FA20800000F00AFF03
S1130E908020000200F010F900F0BAFA301C27B0EC
S1130EA0F0BDC046D108000044020020813D00008E
S1130EB09C3D0000A23D000020FEFF1F24FFFF1FF9
S1130EC034FEFF1F24FEFF1FE8FFFF1FB80B0000C6
S1130ED01FB5041C01A9002002F006F901A8694607
S1130EE002F040F8009B68461C1901A9009401F027
S1130EF0C1FF01A90122002002F022F91FBD000058
S1130F000022034B1A608022024B1206DA677047F4
S1130F1000A01C5804E100E010B50A2308286FD88B
S1130F200C1CFFF727FB051B283C4862646657002E
S1130F3001F062FA0523012862D0FFF7E1FF201CCB
S1130F40FFF7C6FF0020011C01F0E4F8041C002098
S1130F50012100F0F5FE002C4FD150E001F04CFAD5
S1130F60062301284CD0FFF7CBFF201CFFF7B0FF6E
S1130F7001200021E8E701F03FFA082301283FD0CF
S1130F8000F066FF002803D00020012100F0D8FE05
S1130F900220002101F0BEF800282ED12FE001F03C
S1130FA02BFA072300282BD0FFF7AAFF201CFFF7FA
S1130FB08FFF032005E0FFF7A3FF201CFFF788FF46
S1130FC00420002101F0A6F8041C01F015FA002801
S1130FD0C1D1BDE70820002101F09CF800280CD104
S1130FE00120011C00F0ACFE09E0052002E006200F
S1130FF000E00720002101F08DF8092300E0002320
S1131000181C10BD10B50C1C0C4B88B01B7806A91D
S11310100B800B4B05AA1B6810700A484B6004AB8D
S11310201C7000680093012302900193002001F0DA
S1131030A9FC431E9841400008B010BDE8FFFF1F03
S11310400CFEFF1F00FEFF1FC223FF3308704B601E
S113105070470000FF2310B588B005AA1370182844
S113106004D8092806D206281BD803E0031C1D3B1C
S1131070142B16D80C4B10701C7806AB1C800B4C30
S11310800B482468006807940A4C01910290191CCB
S113109000940123002001F082FC431E984140008B
S11310A000E0032008B010BDE8FFFF1F0CFEFF1F87
S11310B000FEFF1FF0FFFF1F10B51A49002000F0CB
S11310C0D7FC00212A20FFF79DFFB8211520FFF748
S11310D099FF03211720FFF795FF06211820FFF73A
S11310E091FF04212D20FFF78DFF00212E20FFF713
S11310F089FF2A200121FFF785FF041C1620012106
S1131100FFF7A8FF084B1A7AD2B253B2002B03DBC5
S11311100A2000F0C7FDF1E70449002000F0A8FC14
S1131120201C10BDE4420000E8FFFF1FF94200004C
S113113013B5041C0C2001F0FDF90A2000F0B2FDE7
S11311400C2001F005FA0E20FF3001F001FA012312
S1131150084A002014700093FA239B000193011C99
S1131160054B02F01DF9041C0C2001F0E3F9201CCE
S113117016BDC046540000203400002008B5C0232A
S11311809D4A9B0013609D4A1360FFF7BFFB8023B9
S11311909B4A5B0013609B4A022013609A4A1360C7
S11311A001F0C8F9642000F07DFD022001F0D0F9BF
S11311B0642000F077FD022001F0BCF9642000F007
S11311C071FDAE20FFF7B4FFA020FFF7B1FF72203E
S11311D0FFF7AEFFA120FFF7ABFF0020FFF7A8FF4A
S11311E0A220FFF7A5FF0020FFF7A2FFA420FFF72E
S11311F09FFFA820FFF79CFF3F20FFF799FFAD203A
S1131200FFF796FF8E20FFF793FFB020FFF790FFC4
S11312100B20FFF78DFFB120FFF78AFF3120FFF786
S113122087FFB320FFF784FFF020FFF781FF8A20B8
S1131230FFF77EFF6420FFF77BFF8B20FFF778FF2B
S11312407820FFF775FF8A20FFF772FF6420FFF70D
S11312506FFFBB20FFF76CFF3A20FFF769FFBE204A
S1131260FFF766FF3E20FFF763FF8720FFF760FF6D
S11312700620FFF75DFF8120FFF75AFFFF20FFF7ED
S113128057FF8220FFF754FFFF20FFF751FF832011
S1131290FFF74EFFFF20FFF74BFFAF20FFF748FF9C
S11312A02620FFF745FF0120FFF742FF2520FFF727
S11312B03FFF0020FFF73CFF0020FFF739FF5F20CE
S11312C0FFF736FF3F20FFF733FF2120FFF730FF02
S11312D01920FFF72DFF2220FFF72AFF2820FFF710
S11312E027FF3620FFF724FF0020FFF721FFFF2010
S11312F0FFF71EFF0020FFF71BFF2120FFF718FF59
S11313002820FFF715FF3620FFF712FF5420FFF7C0
S11313100FFF0820FFF70CFF0020FFF709FFFF2055
S1131320FFF706FF0020FFF703FF2120FFF700FF70
S11313305420FFF7FDFE0820FFF7FAFE5720FFF7C1
S1131340F7FE0B20FFF7F4FE0020FFF7F1FEFF206D
S1131350FFF7EEFE0020FFF7EBFE2120FFF7E8FE8B
S11313605720FFF7E5FE0B20FFF7E2FE2820FFF7EA
S1131370DFFE3C20FFF7DCFE0020FFF7D9FEFF2054
S1131380FFF7D6FE0020FFF7D3FE2120FFF7D0FEA3
S11313902820FFF7CDFE3C20FFF7CAFE1620FFF7FA
S11313A0C7FE2420FFF7C4FE0020FFF7C1FEFF2084
S11313B0FFF7BEFE0020FFF7BBFE2120FFF7B8FEBB
S11313C01620FFF7B5FE2420FFF7B2FE1920FFF721
S11313D0AFFE2220FFF7ACFE0020FFF7A9FEFF209E
S11313E0FFF7A6FE0020FFF7A3FE0020074900F048
S11313F045F9002008BDC04620901454249014548C
S113140034A014543090145400A014542743000002
S113141008B52520FFF78CFE0020FFF789FE002089
S1131420FFF786FE5F20FFF783FE3F20FFF780FE75
S11314302220FFF77DFE2C20FFF77AFE0620FFF71F
S113144077FE3420FFF774FE2820FFF771FEFF209B
S1131450FFF76EFE0020FFF76BFE0020FFF768FE2B
S1131460FF20FFF765FE0020FFF762FE0020FFF774
S11314705FFE2220FFF75CFE2C20FFF759FE302090
S1131480FFF756FE3420FFF753FE3820FFF750FED7
S1131490FF20FFF74DFE0020FFF74AFE0020FFF774
S11314A047FEFF20FFF744FE0020FFF741FE002027
S11314B0FFF73EFE0020094900F0E0F8FA20800022
S11314C000F0F0FBA720FFF733FEFA20800000F0C5
S11314D0E9FBA420FFF72CFEF0E7C04645430000DB
S11314E00269C3689A4203D880681018013800E082
S11314F0501EC01A7047F7B58368C668051C40685B
S11315000191141C9F1B8019974203D902F062FABF
S1131510A4190AE001993A1C02F05CFA019BE41B4D
S1131520D9196868221C02F055FAEC60F7BD002353
S1131530F7B5061C171CC568019100933369B4689C
S1131540AB4200D81B19013B5B1B641BBC4200D996
S11315503C1C9C4200D91C1C7368221C581901991C
S113156002F038FA009B2D191B190093019B3F1BB5
S11315701B190193B368EB1A5A1E93415B421D4039
S1131580F560002FDAD10098FEBD0000022310B5EB
S11315900F4C104A236163610F4BA261E361C823BE
S11315A0A2640E4A2362E26400230422A3626362FB
S11315B0E362A3656365E3652265E01D084902F003
S11315C0CBFA201C074902F0C7FA2023A37110BDEF
S11315D040010020734300007800002074000020C4
S11315E07C43000080430000F8B51823451C5D438C
S11315F04343141C134A0E1CD018C76A5519012FF3
S11316000FD0002F07D0022F17D1221C281CFFF760
S11316108EFF041C14E0281CFFF762FFA0420ED3C7
S113162005E0281CFFF75CFF844200D9041C281C39
S1131630311C221CFFF75FFF02E0002400E03C1C89
S1131640201CF8BD40010020F8B50B4B071C1B788B
S11316500E1C151C002B01D1FFF798FFEFF310842B
S1131660012181F31088381C311C2A1CFFF7BCFFB0
S113167084F31088F8BDC0464001002038B5051C2D
S1131680081C0C1C02F070FA211C021C281CFFF719
S1131690DBFF38BDF7B5164C01932378051C0F1CEE
S11316A0161C002B01D1FFF771FF23699D421CD248
S11316B0EFF31082012181F31088002D0CD0182340
S11316C0691C59436B43675061184E600199E318D4
S11316D0196200219962596218235D43089B6419B9
S11316E0E36282F31088002001E001204042FEBD45
S11316F040010020826810B5041C4068531C8342DA
S113170005D820688154A360E3680133E360A268CC
S113171063689A420CD120692168FFF795FFA3689A
S1131720984203D001235B42E36001E00023A360FD
S113173010BD0000F0B5051C1F1C081C012685B057
S11317400A9C00910192019B984204D30199FEF7EF
S11317501BFF0136F7E70296BE4200D2029701232F
S11317600B9A1A40039218D1002C01D1002414E0E2
S11317700B9B20269B070DD5002F0BD1103609E0BB
S1131780281C311CFFF7B6FFEB68013C002B04DB7F
S1131790002CEBD0029BA342F2D3EB68002B35DB89
S11317A00126012F01D9013F06E00098311CFEF704
S11317B0EBFE019B984208D3019B5E43F1E7301C8A
S11317C00199FEF7E1FE061E10D00098311CFEF7C9
S11317D0DBFE331C4343009AD31A00930C4B195C71
S11317E0281CFFF787FFEB68002BE8DA039B002B2C
S11317F00CD0002C0AD0029BA34207D2281C202123
S1131800FFF778FFEB68013C002BF2DA05B0F0BD7E
S113181087430000F0B59FB00EAB099340230A93B1
S11318200023161C06900B930D900C930B784C1C04
S1131830002B04D10C9B0393002B22DC15E1252BF8
S113184016D1002502314F1E3B782B2B0CD003D828
S1131850232B27D1082308E02D2B03D0302B21D1B3
S1131860022302E0012300E004231D430131EAE7DF
S1131870191C09A8FFF73EFF211C0C9B002BD5DA8D
S1131880D8E70B9A002A03D006980EA9FFF7DCFECE
S11318900C9B03930B9B0493049A039B944663440D
S11318A00C93E2E000243A78131C303B092B05D852
S11318B00A235C43303C0137A418F4E70023039364
S11318C02E2A0DD101373A78131C303B092B07D847
S11318D00A23039901374B43303B9B180393F2E7E8
S11318E0397804230A1C9A43682A01D10137F7E79F
S11318F0642926D008D8582900D195E063291AD044
S1131900252900D0AFE0ABE0732900D195E00DD8D4
S1131910702900D0A7E032680021131D336008232A
S113192001910093116809A8102296E0752971D0DD
S1131930782979D097E0336819681A1D3260C9B2E2
S11319408EE033681A1D1B683260DA179818049306
S1131950012350400593092805DD0A21FEF7A4FE62
S1131960059B0133F6E7059B039A934200D2059247
S1131970002C05D0049B002B01DB6B0700D5013C38
S1131980AB0702D5039B002B10D0EB070ED4002C21
S113199001D100240AE0059BA34207D209A8202113
S11319A0FFF7A8FE0C9B013C002BF0DA0C9B07937D
S11319B0002B58DB049B002B04DA5B42049309A838
S11319C02D2103E06B0703D52B2109A8FFF792FE15
S11319D00C9B002B47DB03232B40022B11D1039BD1
S11319E0002B0ED1002C01D100240AE0059BA34258
S11319F007D209A83021FFF77DFE0C9B013C002B88
S1131A00F0DA0C9B0593002B2DDB0094019509A8BB
S1131A10049906E03368009401951A1D1968326030
S1131A2009A80A22039B18E0336800941A1D019543
S1131A30326009A819681022F4E733681A1D32606D
S1131A401C682178013400290DD009A8FFF752FE43
S1131A500C9B0393002BF4DA05E0FFF76BFE02E026
S1131A6009A8FFF747FE791C07E70C981FB0F0BDE3
S1131A700EB403B503AB02CB01AA0193FFF7CAFE70
S1131A8002B008BC03B0184708B5002000F06EFD92
S1131A9008BD08B5002001F0B1FB08BD082110B550
S1131AA0164B9A780A4202D09A780A439A7088228E
S1131AB000212220124B52019950124A10708020AA
S1131AC0114A400298501868104A024010481A609F
S1131AD01C58104A2240C024A40422431A508022D5
S1131AE00D4B19721A767F3A19705A700B4A11709D
S1131AF00C2299791142FBD110BDC04600D0074099
S1131B000070044000E0074044100000FFFFF3FFB2
S1131B1004100000FFFFFFF00040064000500640A4
S1131B20154B164810B5191E81420CD00022144BD7
S1131B309B089B009A4203D084588C500432F9E7E6
S1131B40104B996001E00F4A936000230E4A0F493D
S1131B50891A8B4204D0D45C0D48C4540133F8E78D
S1131B6000230C4A0C49891A8B4204D00024D01853
S1131B7004700133F8E710BD00000000000000000D
S1131B800000000000ED00E0F04400009446000076
S1131B9000FEFF1FA4FFFF1FEC0200200023417082
S1131BA0436003708360181C704710B54378041CAD
S1131BB00120FF2B08D000F051FA63780133DBB227
S1131BC0637000F03FFA002010BD38B5041C0D1CF2
S1131BD000F044FAE1682943E16000F033FA0020A0
S1131BE038BD000000220A4B9A641A1C40329A63E2
S1131BF01A1C30329A621A1C20329A611A1C103252
S1131C009A60044A1360044B9B60DB607047C046D3
S1131C10CC010020C8010020B80100200022024BA2
S1131C201A60186880B270470C007C5038B543784D
S1131C30041C0D1C002B0BD0002500F00FFA637858
S1131C40013BDBB26370257000F0FCF9281C28E02E
S1131C500220002925D02378002B15D0FFF7DEFFC2
S1131C606368A268984201D3C01A03E0C01A8023B3
S1131C705B02C018824213D200F0F0F900232370F3
S1131C8000F0E0F902200CE04B1C09D000F0E6F96A
S1131C900123237000F0D6F9FFF7C0FFA560606050
S1131CA0032038BD38B5051CFFF7B8FF041CFFF747
S1131CB0B5FFA04201D3001B03E08023001B5B029D
S1131CC0C0188542F3D238BD08B5012801D100F00F
S1131CD0C5F908BD08B5012801D100F0B3F908BD64
S1131CE010B5FFF77FFF01230020084A084913605D
S1131CF0084A094C1060086004212160074C2160E7
S1131D0007490B6007490860136010BD3880045010
S1131D1000008450000004500000045104000451E9
S1131D2004000C500000045310B5044C20602171D1
S1131D300020A2602373637310BDC0461C02002000
S1131D40F0B587B06B4602901B7A05AC23706B46E6
S1131D5003911B7B3D4D63702B79029A04209342BF
S1131D6071D92B7B6B730123A37000230193374E2E
S1131D700093337B009A371C93421AD9009BB268B4
S1131D809B009B58002B10D01A79D2070DD51A68E6
S1131D90201C99689047002807D06B461B78737302
S1131DA0039B002B3AD005230193009B0133DBB244
S1131DB0DDE7019E002E02D0039B012B2FD10120D1
S1131DC0FFF782FF0C20029B58432B68181800F081
S1131DD097F86B461B7A01206B71FFF77BFF022398
S1131DE00025A3703B7BAB4216D9BA68AB009B5865
S1131DF0002B0ED01A7992070BD51A68201C99680B
S1131E009047002805D0039B7D73002B1AD006232E
S1131E1001930135EDB2E5E7019814E005260023AE
S1131E20009FA370013FFFB2FF2F09D0AA68BB0037
S1131E309B58002BF6D01A68201C99689047F1E74C
S1131E40301C00E0062007B0F0BDC0461C02002094
S1131E50014B58797047C0461C02002013B500217D
S1131E600378041C0191022B07D0032B0BD0012B08
S1131E700ED10279191C134801E00279114801AB13
S1131E8000F08CFF08E001A90E4800F0C9FF03E050
S1131E900C4801A900F066FF002812D1A3790A4A70
S1131EA0DB01DBB213706378084A5B00DBB21370AA
S1131EB0A278074B1A70E278064B1A706279064BC7
S1131EC01A7016BD004006401840865300408650E4
S1131ED00040065001400650184016501F22802131
S1131EE00240D30549051943430904489B001B18C4
S1131EF019430123081C9340036070472880044061
S1131F000022072373B5041C104D0093281C131CD6
S1131F10012101F065F9201CFFF7A0FF0022637A7C
S1131F20217A0093281C131C01F05AF9E379084A1A
S1131F309B041360074BA17A1D68281C00F08CFFDA
S1131F40281CE17A00F08FFF002076BD0070044069
S1131F5000700C59E443000008B5054800F0C4FEC5
S1131F60044B1968C9B20131FEF70EFB08BDC04627
S1131F700040064044801C5E08B5054800F0B4FEED
S1131F80044B1968C9B20131FEF7FEFA08BDC04618
S1131F900040064044801C5E08B5054800F0A4FEDD
S1131FA0044B1968C9B20131FEF7EEFA08BDC04608
S1131FB0004006404480145808B5054800F094FEDB
S1131FC0044B1968C9B20131FEF7DEFA08BDC046F8
S1131FD000400640448014580C4B1B68DBB2022BB3
S1131FE00DD0032B0ED0002B01D000200CE080215B
S1131FF0074A09021268101E8842F6D104E0054B14
S1132000186801E0FA2080007047C04600700C593F
S1132010440200204802002008B5FFF7DDFF08BD98
S113202008B5024B185CFFF759FF08BD9743000041
S113203008B57620FFF752FF08BD08B56620FFF704
S11320404DFF08BD044A1368002B04D0013B136004
S1132050002B00D162B670472C02002072B6024AEF
S113206013680133136070472C02002010B50B4B2A
S11320700B4A1278002A04D1013B002BF8D103202B
S11320800AE0064C074801F01DFB012803D0013C7F
S1132090002CF7D1F3E7002010BDC046EA0300008E
S11320A002D0075100E0074010B5064C064801F085
S11320B009FB042804D0013C002CF7D1032000E0E4
S11320C0002010BDEA03000000E00740F7B5071C3C
S11320D00E1C151C01930120002F18D0002916D0C6
S11320E0FFF7F2FD0A4C0021201C102201F07BFCBA
S11320F027602671002D06D06B461B79A5602373DB
S11321006B461B7963730120FFF7E4FD0020FEBDDD
S113211030020020F0B5B24C8BB002900191237BC9
S113212001206373FFF7D0FD2379029A934204D808
S11321300120FFF7CFFD022050E1029A23689200AC
S1132140D6586B461B7907AC357823726B461B7ADD
S11321502A1C237002239A4366600392012A01D049
S1132160052D0AD101219F4801F0FEF9002809D16B
S11321700120FFF7AFFD012030E1072D02D9994876
S11321800321F1E70123637200240094944F009A21
S11321903B7B93421AD9009BBA689B009B58002B47
S11321A00FD01A79D2070CD51A6807A899689047F6
S11321B0002806D06B461B7804247B73019B012BFB
S11321C004D1009B0133DBB20093DFE70120FFF76A
S11321D081FD854800F0ACFD039B012B1DD1013826
S11321E0C0B2022811D8FFF7E7FE804B98420CD802
S11321F0FFF7B2FE7E4FB84207D8FFF7CDFEB842D4
S113220003D8FFF7B9FEB84207D9019B012B01D1CE
S1132210062407E0002C05D1FAE7019B012B52D0DC
S1132220002C50D00120FFF74FFD002307AE009D86
S11322307372013DEDB2FF2D40D0694BAA009B683B
S1132240D358002BF5D01A79D207F2D51A68301C6E
S113225099689047EDE7072205AB1A7000225A707F
S1132260F2789A703279DA702B1C083B05A9022B9C
S113227003D873798B71B379CB717378002B00D049
S113228084E0584801F0A4F9002800D00324002D6C
S113229000D08AE0FFF7EAFE0024002800D09DE089
S11322A00120FFF711FD6B464D4E1B7A0025B373D9
S11322B0022307AF7B72337BAB427CD80120FFF74C
S11322C009FD201C8AE003200A2D00D986E0281C81
S11322D0FEF746F906080A1940583339C1282D007B
S11322E0002250E003224EE03E4801F0EBF90128C1
S11322F007D03C48002101F047F9FFF7B7FE041E60
S11323006CD101223FE0374801F0DCF9042807D002
S11323103448022101F038F9FFF7C6FE041E5DD1EE
S1132320042230E0072205AB1A70063A03E00722C4
S113233005AB1A70043A5A7096E7022205AB1A707C
S1132340013A1A7104E00222012105AB1A701971D5
S11323505A7189E70222002705AB1A702148013A15
S11323601A715F7101F0AEF9012800D17CE71D48B4
S1132370391C01F009F9FFF779FE041EBC4200D1B3
S113238072E72BE0052205AB1A706DE7012D00D82A
S113239077E7B2780220174B002A02D01A69024369
S11323A001E01A6982431A616BE7012D00D077E7D7
S11323B0FFF77AFE70E7B268AB009B58002B0AD097
S11323C01A79920707D51A68381C9968904700282B
S11323D001D0052475730135EDB26CE70BB0F0BD87
S11323E03002002000E007400040064040420F0059
S11323F080841E0000ED00E008B5064801F062F993
S11324000023012803D00133042800D00A33181C08
S113241008BDC04600E00740F7B5FF2403681C4A26
S11324201D0A25401C40AB009F581A4A061C9B58A5
S1132430281C0193FFF7F4FD211C0022381C01F035
S113244049F9019BA4001C19842332795B052343B9
S113245052001A60802372795B0523431A6090232B
S1132460B2795B05234312011A60F3790A4A1443D3
S11324701A042260002B0AD0084B5A5D002A06D0A9
S11324801F23134001229A40131C054A1360F7BD11
S1132490F0430000E843000000001818F84300006F
S11324A000E100E0F8B5FF24051C0368114A180A8E
S11324B020401C4083009F580F4A9E58FFF7B0FDF0
S11324C0381C211C012201F005F96A68381C211C02
S11324D001F010F988232A7AA40034195B052343F8
S11324E092001A6098235B051C436B7A9B0123605E
S11324F0F8BDC046F0430000E843000038B50C1CAA
S1132500002802D1002C09D112E003680133F9D06C
S1132510051C0835FFF780FF281CF6E72368013304
S113252006D0251C201C0C35FFF7BCFF2C1CF5E73E
S113253038BD0000FF22030A1340024001209040EE
S113254002499B005B5858607047C046F043000046
S1132550FF22030A134002400120904002499B00DD
S11325605B5898607047C046F043000008B5084BBC
S11325708200D35894220233520513431B78002B54
S113258002D000F019FA01E000F06EFA08BDC0466E
S11325909C430000031C80220C33520513431B7818
S11325A0002BF7D00171704738B50D1C084B800023
S11325B0C458201C291C1830FFF738FB0328F8D016
S11325C0002801D004232374207CC0B238BDC04647
S11325D040020020F0B589B00290161C82003748F2
S11325E0059310580EAB019035481B781458002001
S11325F007AA1080A27C8F0A04920122E274A274BA
S11326005A4253411E3FDBB203937B425F41FFB208
S1132610CDB2874202D0CBB29C460D0A00216D0098
S1132620EDB28F4204D1391C002E01D16B46197BC7
S11326300D4307AB1D700122002F02D062465A7071
S11326400222A360E2600198291CFFF7A3FF02980D
S11326500F99FFF7A9FF237C002B0CD1002E0AD081
S1132660059BA660E36031780198FFF793FF029819
S11326700F99FFF799FF237C002B16D1039B002BA6
S113268013D0002F01D1002E0FD000230127A36007
S11326900198E76001F086F8391C01982943FFF797
S11326A079FF02980F99FFF77FFF0023E3746B46CD
S11326B0207C1B7CC0B2A37409B0F0BD9C43000015
S11326C040020020104A830010B598580F4A9C58C5
S11326D0E37C002B05D0237C052B02D0237C042B28
S11326E009D19822831C5205134300221A7001F069
S11326F06BF801236374A37C002B03D0201C1830D7
S1132700FFF753FA10BDC0469C430000400200206E
S1132710F7B5194B8700FB5801250093174BFE585A
S1132720002E26D10C1C24220190081C311C01F01F
S11327305AF9201C311C1830FFF730FA0198FFF7C2
S11327407CFC009800F0DEFF0C4B019AFC500C4B13
S11327509A5C1F2313402A1C9A40131C094A1360D5
S11327609C22009B52050233134380226574351C5E
S11327701A70281CFEBDC0469C4300004002002085
S11327809943000000E100E00A4B800070B5C55891
S1132790094BC6584B68726993420AD00C1CFFF768
S11327A0FBFB0023011C6268281C00F0B9FF63686E
S11327B0736170BD9C43000040020020F0B587B0F7
S11327C00FAC334F334D267884006559E459677C48
S11327D0002F02D10320207458E0002E01D11E27BF
S11327E00E9705930023A674E360A360237423600B
S11327F06374071C04920391FFF7C6FF9023102112
S1132800AA1C5B05134319708421EB1C49050B4377
S11328100221197098235B05134302934023029A03
S1132820281C137000F0BEFF039B381C1988012379
S113283000930E9B049A0193059BFFF7CBFE0D9B1F
S1132840002B15D0237C002B0FD10C9B281CA360DC
S11328500D9BE3600C9B1978FFF79CFE002E13D0B0
S1132860381C0E99FFF7A0FE0EE0237C042B0BD13D
S113287000230126029A1370EB785B09334202D0DD
S1132880281C00F0A1FF6674207CC0B207B0F0BD24
S1132890400200209C430000F0B58BB013AC2478B8
S11328A0364E374D039484006559A459667C002E36
S11328B002D1032020745FE0039E002E01D11E3656
S11328C012960993109B00262360119BA6606360F7
S11328D06B461B7BE660A3742674667407910892AA
S11328E00490FFF751FF9023AF1C5B053B43059316
S11328F01023059A281C13708422EB1C52051343E1
S113290002221A7098235B053B4306934023069AE0
S1132910137000F047FF079B089A1988129B0096D2
S113292001930498099BFFF755FE227CD2B2B24270
S113293012D1059B11991A708C235B053B43012925
S113294000D108221A702B79039B002B12D0049813
S11329501299FFF729FE0DE0237C042B0AD1069B74
S11329601E700126EB785B09334202D0281C00F06C
S11329702BFF6674207CC0B20BB0F0BD4002002077
S11329809C4300001FB5069C0094079C0194089C7E
S1132990029401240394FFF711FF04B010BD1FB586
S11329A0069C0094079C0194089C029401240394BF
S11329B0FFF772FF04B010BD842138B5244B8200A8
S11329C0D5584905EB1C0B4302211970214BD458EF
S11329D090226B1852051A431278E978D2B289060C
S11329E034D5942149051943097800292ED0012AA8
S11329F015D1EB78134202D0052323740CE0E3686D
S1132A00013BE360002B07D0A368281C5A1CA2607A
S1132A105978FFF7BFFD19E0FFF754FE16E062682E
S1132A20013A6260002A06D08C214905012A05D1A9
S1132A300B43082204E0FFF745FE02E000220B43AB
S1132A401A7023685A1C22602A791A7038BDC0464D
S1132A509C43000040020020842303305B0518439C
S1132A600223037070470000902149050A1CF0B549
S1132A708F4B071C8000C55889B0EB1C0493EB787E
S1132A80EE78DBB20593F3B20693AB1D1A4394467A
S1132A9012789826D2B20792942252051A431478D7
S1132AA07605621E9441E2B2824C33430459A81C59
S1132AB00090084301921A780178D2B2C9B2039106
S1132AC00199029000292FD0079900290CD01023D6
S1132AD06246281C1370FFF7BFFF236BF8B2012175
S1132AE0002B00D0DCE0E0E0002A1DD04022281CAE
S1132AF01A70FFF7B1FF231C2C331B78002B02D173
S1132B00009A16433370236B002B03D0F8B2802154
S1132B10626B9847E37D002B04D0201C8021183081
S1132B20FFF753F80A23BFE0069B281C9E110123DC
S1132B301E40FFF791FF0122059B1B11134219D080
S1132B409023049A5B05134310221A70002E04D0BC
S1132B50EB785B07DB0F10D11AE0082323702C34C9
S1132B602278002A00D0A0E0982300995B050B434B
S1132B701A709AE0002E16D0EAE71023029A137016
S1132B80236B002B6ED0F8B20221626B984769E088
S1132B90029A1370236B002B03D0F8B20421626BEA
S1132BA098472B7981E0039B012B29D1EB78039A79
S1132BB0134257D0029B1E702B79231C2C331B7895
S1132BC0002B09D1019B002B06D19823009A5B05A9
S1132BD013436A4612791A70236B002B03D0F8B2A0
S1132BE00821626B9847A37D002B04D0201C082188
S1132BF01830FEF7EAFF00236360E360237554E0B6
S1132C002B79A268DBB2002A2AD0226913702369C7
S1132C1001332361A368013BA360A368002B44D163
S1132C20019B002B13D1231C2C331B78002B06D1C2
S1132C309823009A5B0513436A4612791A70E37D60
S1132C40002B04D0201C20211830FEF7BEFF0023E7
S1132C5063752361236BF8B22021002B20D124E07B
S1132C60072321E06368002B1DD0E3681A782B1C2E
S1132C7080210C3349050B431B78002BF7D02A71B4
S1132C80E3680133E3606368013B63606368002BBE
S1132C900BD1E3602375236B002B06D01021F8B20F
S1132CA0626B984701E00623237009B0F0BDC0466B
S1132CB09C4300004002002084235B0503431A78F0
S1132CC000239A4209D0802301305B05184303781E
S1132CD0012B01D0024B00E0024B181C7047C04688
S1132CE080841E0000127A0010B50D4A831D134320
S1132CF01B78DBB2002B10D0012B08D1041CFFF78A
S1132D00DBFF084B08341C432378D84006E000203E
S1132D10022B03D1044B186800E0044810BDC046E0
S1132D20000008110000901044020020006CDC0236
S1132D300B4A831D13431B78DBB2012B06D0181EEC
S1132D400CD00320022B09D0052007E0802301309A
S1132D505B05184300784342584101307047C04630
S1132D6000000811021C031C9C2018334005034377
S1132D70802018700020064B134318700548931DDB
S1132D8003431B78D8B20028F8D1034B0B6070477B
S1132D900000081300000811006CDC02F8B5041CE4
S1132DA00D1C171C1E1CFFF7C3FF012802D1002DA8
S1132DB004D007E0022805D1012D03D1201C311CC9
S1132DC0FFF7D0FF8022631C520513431D70842338
S1132DD002225B0523431A70231C0C4A0833134355
S1132DE07A00D2B21A704022094B23431A70094A5E
S1132DF0A31D13431B78012BF9D1002D01D1064AE1
S1132E0000E0064A3A4100203260F8BD000090100C
S1132E10000008130000081180841E0000127A00CC
S1132E200A4B10B51C681A1C0123002C0CD08024FA
S1132E30074B03431C70074C831D23431B78022B51
S1132E40F9D113680B600023181C10BD4402002044
S1132E5000000813000008119C23C9015B051843F6
S1132E60C9B201707047942349015B051843C9B284
S1132E700170704770B506680C1C301C2049FDF7C2
S1132E8083FB1F49051C301CFDF704FC0E1C081CA9
S1132E90E1210901FDF778FBE121E0800901301C03
S1132EA0FDF7F8FB0E1C081C3C21FDF76DFB3C21D3
S1132EB02081301CFDF7EEFB6E22124BA1722380A1
S1132EC0FF32238895420BD9AD1A032201339BB2FA
S1132ED02380B72113405A1E93414900CA1AF0E7D0
S1132EE009499B0700D109490123CA5C954201D8CD
S1132EF0638003E00133AD1A0D2BF6D1A58070BDBC
S1132F0080510100B2070000C7430000BA4300002B
S1132F1030B5114A0188031C8A180020812A19D867
S1132F205A88541E0B2C15D89C88651E1E2D11D84A
S1132F30DD88172D0ED81D893B2D0BD89B7A3B2B92
S1132F4008D88B0701D0054B00E0054B9B5CA342DE
S1132F504041C0B230BDC0464EF8FFFFC743000039
S1132F60BA43000070B5124A838804889A186E2305
S1132F70FF3363434588D318A2089B180D4A6E009B
S1132F80B25A9B18A20702D1022D00D8013B0B6054
S1132F90E1233C22C4881B015C4303895343827AA6
S1132FA0E3189A180868044B4343D3180B6070BDA8
S1132FB04A05F5FFA043000080510100084B1A6840
S1132FC080231B029A4209D1A02310305B051843C9
S1132FD00368002B02D10133FF3303607047C046FE
S1132FE044020020021C802110B50023012449055D
S1132FF010320A4314601360902243605205046047
S11330001C30024313608822520502431360842259
S11330105205024308431360036010BD031C902251
S113302014335205134300221A60426010320160C7
S11330301A60704703680B6070470000114B8200F0
S113304070B5D5588022104B92051A60041C281CB8
S1133050FFF7C8FF281CFFF7B1FF01201F22011C46
S11330600A4B0B4E1B5D345D134099402240C02532
S11330700B1C904007496D004B5148510B60086090
S113308070BDC046D84300003C80845ED543000038
S1133090D443000000E100E0F7B50027114B8000A5
S11330A0C658081C0D1C0197FFF732FF041EBC42D2
S11330B016D001A9281CFFF755FF381CFEF7ACFFFA
S11330C0011C80200002814206D0FDF75DFA011C3C
S11330D00198FDF759FA0190301C0199FFF79EFF02
S11330E0201CFEBDD8430000F7B50025124B80001C
S11330F0C4580E1C201C01A90195FFF79BFF281C36
S1133100FEF78AFF051C8020000285420ED00B4B7F
S1133110291C04341C43FDF737FA2768019C291C39
S11331204443B8B2FDF730FA20180190311C01A8CD
S1133130FFF7A0FEF7BDC046D8430000000078109A
S1133140F0B50026184B800085B0C458081C0F1C2D
S113315001920396FFF7DCFE051EB54201D100255E
S11331601EE0381C03A9FFF7FDFE301C2768FEF79C
S113317053FF011C80200002814206D0FDF704FAAF
S1133180011C0398FDF700FA0390039BBB42E6D3AE
S1133190A36088231C345B051C43019B9B002360B4
S11331A0281C05B0F0BDC046D84300008822044B5B
S11331B08000C35852051C331343890019607047BB
S11331C0D84300008822054B8000C35852051433AD
S11331D013431868431E9841C0B27047D843000097
S11331E06B46E0221B78D2021B04134009071943E3
S11331F0014BC018016070474410000008B5084B2B
S11332008200D35890220333520513431B78002BBA
S113321002D000F0F1F801E000F056F908BDC04614
S1133220E043000008B50C4B8000C2580B4B002152
S1133230C3589C2003334005184311710170942036
S1133240400503431970137F8B4203D02032101CB6
S1133250FEF7ABFC08BDC0464C020020E043000072
S1133260F7B5061C1C4B30220C1C8700081C0021DF
S1133270FD5800F0B8FB301CFEF7DAFEFEF78CFEBA
S11332802060281C00F0BDFA201C00212030FEF72D
S113329085FCEB1C01939023019A5B0513431022D8
S11332A0281C1A70032100F0ECFA281C002100F0FD
S11332B00EFB0A4BFC500A4B9A5D1F23134001225C
S11332C09A40131C074A13609823019A5B05134321
S11332D040221A70F7BDC046E04300004C020020B3
S11332E0DC43000000E100E00A4B800070B5C658E2
S11332F0094B0C1CC358151C301C1A68096800F0D3
S113330087FA28602179301C6279A37900F0CCFA1D
S113331070BDC046E04300004C020020F7B51E4AD1
S113332083009C581D4A9E5822790423002A31D1D7
S1133330071C002902D001AAFFF7D6FF9823002119
S11333404020F21C5B0513431970187025698D42E7
S113335003D1381CFFF766FF1BE00123237194237C
S11333605B053343A16119780723002912D0A368B0
S1133370191E02D019780133A360B1712369013B8E
S11333802361A3690133A3619C235B051A43802352
S113339013700023181CFEBD4C020020E043000003
S11333A0F8B5134F134C85002C59ED590127069E8F
S11333B02777A2602661E3606661FFF7AFFF061E10
S11333C014D1201C07992030FEF730FC0328F8D0D4
S11333D000280BD09C210022EB1C490519432271C3
S11333E00A709421032649050B431A70301CF8BD5A
S11333F0E04300004C02002010B51E4B8200D3585D
S11334001D4951581A79002A32D05A69002A11D01C
S11334109C2252050A431278002A0BD08A79DC6870
S1133420D2B2002C03D02270DA680132DA605A6911
S1133430013A5A611A69002A12D0942252050A43A9
S11334401278002A0CD09A68141E02D01478013223
S11334509A608C711A69013A1A619A6901329A6107
S11334601A69002A04D15B69002B01D1FFF7DAFE47
S113347010BDC0464C020020E0430000104A80000A
S11334808158002208B50F4B0331C358581CC2772A
S11334909C2040050843DA621A701A835A629A62C1
S11334A01A6302709420400501430A701A1C3832D2
S11334B01278002A03D0181D0121FEF786FB08BDEF
S11334C0E04300004C02002038B5254B8200D3585D
S11334D024495258591CC97F00293FD0D96A002970
S11334E016DB9421490511430978002910D0596A43
S11334F01C7F002905D0DD6A002D02DD0C78013126
S113350059629471D96A0139D962596B013159638D
S1133510D96A002905DA9424D11C640521430024C6
S11335200C70196B002911DD9C21490511430978A0
S113353000290BD09279996AD2B2002903D00A707B
S11335409A6A01329A621A6B013A1A63DA6A002A99
S113355004DC1B6B002B01DCFFF790FF38BDC04679
S11335604C020020E0430000012903D0032909D1C3
S1133570842300E094235B0518430078431E98419C
S1133580C0B200E000207047034B013049011843EA
S1133590C9B201707047C0460000881294230230FB
S11335A05B0549011843C9B201707047034B0230EF
S11335B089011843C9B201707047C046000008135E
S11335C08C2302305B05C9001843C9B201707047EF
S11335D0F7B5384EC21C164337780B78FFB2012278
S11335E0072B65D8041C181C0D1CFCF7C3FF041919
S11335F02A0D192A2A3A00232F4801340443237040
S11336003378012BFCD152E00322012F50D1402307
S113361029480134044323703378042BFCD146E059
S11336200021012B01D00423022130780322984287
S11336303ED1201CFFF7A8FF0421204A13698B43C5
S113364033E00227BB4207D100270B79BB4203D0EA
S11336504979201CFFF7AAFF194801340443277055
S113366019E004231649621C0A4313706A78A31CE8
S11336700B431A706B78002B06D1AB78002B03D068
S1133680E978201CFFF78AFFAB79002B03D0E97996
S1133690201CFFF795FF04213378084ADBB201931D
S11336A0019B0133019313690B43136130BF002263
S11336B0101CFEBD000030100000881200ED00E078
S11336C000001010024B033018430078C0B270475A
S11336D00000301014308023012A04D18A401B05D5
S11336E01843026005E0DB04184301238B40D943EF
S11336F00160704701238B40002A01D0436000E041
S1133700836070470023C222037043708370C370C8
S113371043718371C371037242728372C3727047BF
S1133720F0B5002789B00393FA2301253C1C9B00C4
S113373053430690079102936D4201970123A340DE
S11337400493174B9E1CCA330593049B3188079836
S11337505943FCF719FF029B029AC31A824200D90B
S1133760131AAB4204D2B21E177801941D1E03D063
S1133770059B04369E42E8D10134032C01D0002D70
S1133780DCD1039B002B00D01D603F231F40019B15
S11337909B011F43069BFFB25F7009B0F0BDC0469A
S11337A0FA430000942302305B0503431B78002B8B
S11337B004D088235B051843042303E080231B05FE
S11337C018433023037070479422831C52051A4314
S11337D01278011C0220012A12D18022D204134340
S11337E0CF221A708022D2002023C878034004D04C
S11337F0013A002A03D0C046F6E7181C00E009206D
S113380070470423C37000238370437003717047AF
S1133810F0B5130B89B001250493082300266D42EB
S113382003935B19079005910692029302270024E3
S1133830731C191C069879430193FCF7A5FE059B9C
S1133840834206D31B1A9D4203D91D1C0490039482
S1133850029601347F00092C02D0002DE8D104E047
S1133860072E02D0019E002DE0D17022029B049805
S11338701B011340039A1343079ADBB2537009B038
S1133880F0BD8422C31C52051A4301230B405B0084
S1133890DBB2137090238907C90F5B05023009015D
S11338A01843C9B20170704710B58C240330640505
S11338B0C9000443C9B2217088219200490501431B
S11338C0D2B20A70802252051043037010BD8023C7
S11338D0012202305B0503430A401A708C238907D6
S11338E0C90F5B05C9001843C9B201707047011CB8
S11338F0002008B5021C031C00F03EF908BD0000BE
S1133900014B18687047C0469CFFFF1F084B10B559
S1133910041C002B02D0002100F08AF9054B186822
S1133920836A002B00D09847201C00F0F5F9C046AC
S1133930313C0000C444000038B5074B074C1D1C43
S1133940E41AA410002C04D0013CA300EB589847BF
S1133950F8E700F0BFFD38BDEC440000F04400007F
S11339600E4B70B500251E1C0D4CE41AA410A54284
S113397004D0AB00F35898470135F8E700F0A4FDF4
S1133980084B00251E1C084CE41AA410A54204D0C0
S1133990AB00F35898470135F8E770BDE8440000E0
S11339A0E8440000E8440000EC44000008B5034B80
S11339B0011C186800F066F808BDC0469CFFFF1F94
S11339C008B5034B011C186800F016F808BDC04682
S11339D09CFFFF1F002310B5934203D0CC5CC4545A
S11339E00133F9E710BD031C8218934202D0197009
S11339F00133FAE77047000030B500293ED004399E
S1133A000B68002B00DAC9181D4A1368141C002B1C
S1133A1002D14B60116031E099420DD208680A1856
S1133A209A4203D11368C3180B6053684B6021603A
S1133A3024E08A4203D8131C5A68002AF9D11D686D
S1133A405C198C420BD109686918581819609042A6
S1133A5014D110685268091819605A600EE08C423B
S1133A6002D90C23036009E008680C18944203D1BE
S1133A7014685268001908604A60596030BDC04635
S1133A8054020020032370B5CC1C9C430834051C4D
S1133A900C2C01D20C2405E0002C03DA0C230020AA
S1133AA02B6042E08C42F9D3204A1368101C191C85
S1133AB0002913D00A68121B0DD40B2A02D90A60FC
S1133AC08B181FE08B4202D15A6802601BE04A68DF
S1133AD05A600B1C17E00B1C4968E9E7144E336865
S1133AE0002B03D1281C00F025F83060281C211C71
S1133AF000F020F8031C421CD0D00322C61C9643BD
S1133B0086420AD11C60181C07210B301A1D8843F9
S1133B10821A0AD05142995007E0311A281C00F049
S1133B2009F8431CBAD0331CECE770BD54020020E2
S1133B305002002038B50023064C051C081C2360E5
S1133B40FCF7A4FE431C03D12368002B00D02B6098
S1133B5038BDC046E8020020031C0A7801311A70FF
S1133B600133002AF9D170470023C25C0133002AD3
S1133B70FBD1581E70470000F7B52A4D061C2C686F
S1133B800091171C0193002C01D1274C2C60636811
S1133B901F2B15DD254B002B02D10120404240E0B4
S1133BA08C20FFF703FF041EF7D02A68002302606D
S1133BB0021C88324360286013609E420AD128E0C8
S1133BC0002E26D0231C88331868002810D1174BE8
S1133BD0002BE2D084204000FFF7E8FE0028DCD070
S1133BE0031C0022FC335A609A60231C883318603B
S1133BF0012261688A408B00C31880C3FC3041688D
S1133C00114341600199D967022E02D183681A4396
S1133C108260002063685A1C62600233009A9B0031
S1133C201A51FEBDE402002058020020AD39000004
S1133C30F0B587B005900391344D2C68002C63D007
S1133C40231C88331E6863685A1E0192304A9B18ED
S1133C509B00F7180433E3180293019B002B3DDB10
S1133C60039B002B07D0002E31D03B1C80331B68F4
S1133C70039A93422BD16268029B0199013A5B68D3
S1133C80914201D1616002E0002202994A60002B56
S1133C901DD062680492002E07D0012201998A4047
S1133CA0311CFC314868104201D1984708E089680A
S1133CB0114203D105983968984701E0386898475C
S1133CC0049B62689342B7D12B68A342B4D1019B91
S1133CD0043F013B0193029B043BBDE70D4B002BCA
S1133CE012D062682368002A0BD1002B09D02B6004
S1133CF0002E02D0301CFFF763FE201CFFF760FE8D
S1133D009BE7251C1C1C99E707B0F0BDE4020020CA
S1133D10FFFFFF3FC1390000FEE7C0461B5B306D6B
S1133D201B5B343B34336D1B5B313B33376D0D53BD
S1133D30616E69747920636865636B206661696C80
S1133D406564211B5B306D0A001B5B306D1B5B34AB
S1133D503B34316D1B5B313B33376D0D496E7661FE
S1133D606C696420737570706C7920766F6C746103
S1133D706765205B25645D206D56211B5B306D0AF1
S1133D80000A0A0A0D426F6F74696E6720576172E8
S1133D90702C20696E20332E2E2E2000322E2E2ED3
S1133DA02000312E2E2E0A0D004D6561737572654B
S1133DB06D656E74206E756D6265722C205254436D
S1133DC02D3E5453522C205254432D3E5450522CC9
S1133DD000204D4D413834353120782C204D4D4153
S1133DE03834353120792C204D4D4138343531204B
S1133DF07A2C00205254432D3E5453522C205254BA
S1133E00432D3E5450522C202320436F6E66696725
S1133E10204572726F72730025752C2025642C2046
S1133E2025642C002025642C2025642C2025640A7C
S1133E30000D09307825303278202D2D3E205B305E
S1133E407825303278203078253032782030782543
S1133E503032785D0A000D09307825303278202D13
S1133E602D3E203078253032780A000D093078252F
S1133E70303278202D2D3E202D2D2D2D0A000D0AB7
S1133E800925642F25642073756363657373207239
S1133E906174652E0A000D0925642F25642073754D
S1133EA063636573736573206D617463686564200F
S1133EB07265662E2076616C7565206F6620307899
S1133EC0253032782E0A000D0925642062616420B1
S1133ED0636F6D6D616E64732E0A0A000D0A0941E9
S1133EE044584C33363220526561642041626F720B
S1133EF07465642E20446576696365204469736142
S1133F00626C6564203A28000D0A4D4D4138343501
S1133F1031513A0A0D000D0A0A424D453638302017
S1133F20526561642041626F727465642E20446539
S1133F30766963652044697361626C6564203A281C
S1133F40000D0A09424D58303535616363656C20B4
S1133F50526561642041626F727465642E20446509
S1133F60766963652044697361626C6564203A28EC
S1133F7020000D0A09424D583035356779726F209B
S1133F80526561642041626F727465642E204465D9
S1133F90766963652044697361626C6564203A28BC
S1133FA020000D0A0920424D583035356D616720D7
S1133FB0526561642041626F727465642E204465A9
S1133FC0766963652044697361626C6564203A288C
S1133FD020000D0A094D41473331313020526561CB
S1133FE0642041626F727465642E2044657669634F
S1133FF0652044697361626C6564203A2820000D71
S11340000A094C33474432304820526561642041E8
S1134010626F727465642E2044657669636520441A
S1134020697361626C6564203A2820000D0A094CAA
S1134030505332354820526561642041626F727476
S113404065642E2044657669636520446973616202
S11340506C6564203A2820000D0A09544353333414
S113406037323520526561642041626F7274656431
S11340702E204465766963652044697361626C65CA
S113408064203A2820000D0A09534934373035207A
S1134090526561642041626F727465642E204465C8
S11340A0766963652044697361626C6564203A28AB
S11340B020000D0A094844433130303020526561F4
S11340C0642041626F727465642E2044657669636E
S11340D0652044697361626C6564203A2820000D90
S11340E00A095349373032312052656164204162F4
S11340F06F727465642E2044657669636520446933
S11341007361626C6564203A2820000D0A094343F8
S11341105338313120526561642041626F72746595
S1134120642E204465766963652044697361626C1A
S11341306564203A2820000D0A09414D4738383378
S11341403420526561642041626F727465642E206C
S11341504465766963652044697361626C656420B3
S11341603A2820000D0A094153373236322052656D
S113417061642041626F727465642E2044657669BF
S113418063652044697361626C6564203A28200089
S11341900D0A094153373236332052656164204198
S11341A0626F727465642E20446576696365204489
S11341B0697361626C6564203A2820000D09496EB8
S11341C076616C6964207761727053656E736F7287
S11341D0446576696365205B25645D207061737353
S11341E0656420746F2072657065617452656769D7
S11341F07374657252656164466F7244657669636F
S113420065416E64416464726573732E0A000D091E
S1134210506F776572757020636F6D6D616E642089
S11342206661696C65642E20424D583035352064D2
S1134230697361626C6564200A000D09506F7765CB
S113424072646F776E20636F6D6D616E642061625E
S1134250616E646F6E65642E20424D583035352092
S113426064697361626C65640A000D09506F776557
S113427072646F776E20636F6D6D616E642061622E
S1134280616E646F6E65642E204C3347443230484F
S11342902064697361626C65640A000D09506F776C
S11342A06572646F776E20636F6D6D616E642061FB
S11342B062616E646F6E65642E20544353333437E9
S11342C032352064697361626C65640A00202D2DA7
S11342D02D2D2C0020307825303278203078253070
S11342E032782C005374617274206465746563744D
S11342F0696E672066616C6C0046616C6C20646555
S113430074656374656421212072656769737465DB
S11343107220307831362076616C75652069733A85
S113432020307825782E000D0A09446F6E652077B9
S113433069746820646973706C6179696E6720744C
S113434069636B0A000D0A09446F6E65207769740E
S11343506820646973706C6179696E672072656442
S1134360206578636C616D6174696F6E206D617234
S11343706B0A005465726D696E616C00525454008E
S11343805345474745520030313233343536373898
S113439039414243444546898A080000006006408A
S11343A0000000001F003B005A0078009700B50091
S11343B0D400F300110130014E01001F1D1F1E1F08
S11343C01E1F1F1E1F1E1F001F1C1F1E1F1E1F1F20
S11343D01E1F1E1F1514000000D003400A00000019
S11343E000600740005006400090044000A00440D4
S11343F000F00F4040F00F401E1F000014000100A9
S113440016000200180003001A0004001C00050036
S11344101E0009002000060022000A0024000700F4
S113442028000C002C00100030001100380012008D
S113443040000F0044001300480014005000150011
S1134440580019006000160068001A007000170078
S113445080001C0090001D00A0001E00C00022006F
S1134460E0001F00F00023000001240020012500CB
S11344704001260080012A00C0012700E0012B0032
S113448000022C0040022D0080022E0000033200A6
S113449080032F00C003330000043400800435007F
S11344A00005360000063A000007370080073B008D
S11344B000083C0000093D00000A3E00000C3F00DB
S11344C0000F43003CFFFF1FF8B5C046F8BC08BC12
S11344D09E467047F8B5C046F8BC08BC9E46704777
S10B44E0E4BFFF7F01000000AE
S10744E8890400003F
S10744EC5D04000067
S11344F0050000000100000001000000C8000000E9
S1134500C8000000C508000003000000000000000F
S113451014FEFF1F0101000001010000FFFFFFFF67
S11345200000000000000000010000000100000085
S11345300100000001000000010000000200000072
S1134540010000000100000005000000010000005F
S1134550010000000800000001000000010000004C
S11345600C00000001000000010000000900000030
S1134570010000000100000005010000010000002E
S1134580010000000601000001000000010000001D
S11345900701000001000000010000000A01000002
S11345A001000000010000000B01000001000000F8
S11345B0010000000D0100000100000001000000E6
S11345C002010000010000000100000003010000DE
S11345D001000000010000000401000001000000CF
S11345E001000000060000000100000001000000BE
S11345F008000000010000000100000009000000A4
S11346000100000001000000FFFFFFFF00000000A8
S11346100000000001010000000000000001000093
S11346200000000000000100000100000000000084
S11346300000000000000000000000000000000076
S1134640000000000000000000000000C244000060
S11346500000000000000000000000000000000056
S11346600000000000000000000000000000000046
S11346700000000000000000000000000000000036
S11346800000000000000000000000003CFFFF1FCD
S10746900000000022
S9030531C6
