:1000000000060020310500005905000059050000D8
:1000100000000000000000000000000000000000E0
:100020000000000000000000000000005905000072
:100030000000000000000000590500005905000004
:100040005905000059050000590500005905000038
:100050005905000059050000590500005905000028
:100060008D26000059050000972600005905000064
:100070005905000059050000590500005905000008
:1000800059050000590500005905000059050000F8
:10009000E5080000FD0800005905000059050000B2
:1000A00059050000590500005905000059050000D8
:1000B00059050000590500005905000059050000C8
:10040000FFFFFFFFFFFFFFFFFFFFFFFFFE3DFFFFBF
:1004100008B5054B054803331B1A062B03D9044BBB
:10042000002B00D0984708BDACFFFF1FACFFFF1F9B
:10043000000000000648074908B5091A8910CB0FCB
:100440005918491003D0044B002B00D0984708BD21
:10045000ACFFFF1FACFFFF1F0000000010B5074CF2
:100460002378002B09D1FFF7D3FF054B002B02D0D7
:10047000044800E000BF0123237010BDACFFFF1F44
:1004800000000000A861000008B5094B002B03D054
:100490000848094900E000BF08480368002B02D162
:1004A000FFF7C8FF08BD064B002BF9D09847F7E7C8
:1004B00000000000A8610000B0FFFF1FA8FFFF1FA1
:1004C00000000000144B002B00D1124B9D4640222F
:1004D00092029A1A924600218B460F461148124A00
:1004E000121A04F0EAF80D4B002B00D098470C4B81
:1004F000002B00D098470020002104000D000B487D
:1005000004F05FF804F096F82000290000F0E0FD08
:1005100004F066F80000080000060020000000005B
:1005200000000000ACFFFF1FF40200200D46000099
:1005300072B606480649074A02600A6002F0B0F83F
:1005400002F0F0F862B6FFF7BDFF000080E100E0C6
:1005500080E200E0FFFFFFFF004800475905000070
:1005600002B4714649084900095649008E4402BC4C
:100570007047C04602B4714649084900095C490009
:100580008E4402BC7047C046002243088B4274D39D
:1005900003098B425FD3030A8B4244D3030B8B4284
:1005A00028D3030C8B420DD3FF22090212BA030C8D
:1005B0008B4202D31212090265D0030B8B4219D36E
:1005C00000E0090AC30B8B4201D3CB03C01A52418E
:1005D000830B8B4201D38B03C01A5241430B8B42D6
:1005E00001D34B03C01A5241030B8B4201D30B03BF
:1005F000C01A5241C30A8B4201D3CB02C01A5241E6
:10060000830A8B4201D38B02C01A5241430A8B42A8
:1006100001D34B02C01A5241030A8B4201D30B0291
:10062000C01A5241CDD2C3098B4201D3CB01C01AAB
:10063000524183098B4201D38B01C01A52414309B5
:100640008B4201D34B01C01A524103098B4201D3A3
:100650000B01C01A5241C3088B4201D3CB00C01A10
:10066000524183088B4201D38B00C01A5241430888
:100670008B4201D34B00C01A5241411A00D20146AD
:10068000524110467047FFE701B5002000F0FCF82A
:1006900002BDC0460029F7D003B5FFF775FF0EBCB9
:1006A0004243891A1847C04603460B437FD40022B1
:1006B00043088B4274D303098B425FD3030A8B42F6
:1006C00044D3030B8B4228D3030C8B420DD3FF2260
:1006D000090212BA030C8B4202D31212090265D02E
:1006E000030B8B4219D300E0090AC30B8B4201D3E1
:1006F000CB03C01A5241830B8B4201D38B03C01A28
:100700005241430B8B4201D34B03C01A5241030B9E
:100710008B4201D30B03C01A5241C30A8B4201D34F
:10072000CB02C01A5241830A8B4201D38B02C01AFA
:100730005241430A8B4201D34B02C01A5241030A71
:100740008B4201D30B02C01A5241CDD2C3098B4256
:1007500001D3CB01C01A524183098B4201D38B01D3
:10076000C01A524143098B4201D34B01C01A524176
:1007700003098B4201D30B01C01A5241C3088B42BB
:1007800001D3CB00C01A524183088B4201D38B00A6
:10079000C01A524143088B4201D34B00C01A524148
:1007A000411A00D201465241104670475DE0CA0F1F
:1007B00000D04942031000D34042534000229C46DF
:1007C00003098B422DD3030A8B4212D3FC228901E9
:1007D00012BA030A8B420CD3890192118B4208D3BF
:1007E000890192118B4204D389013AD0921100E021
:1007F0008909C3098B4201D3CB01C01A5241830935
:100800008B4201D38B01C01A524143098B4201D361
:100810004B01C01A524103098B4201D30B01C01A8C
:100820005241C3088B4201D3CB00C01A5241830806
:100830008B4201D38B00C01A5241D9D243088B425C
:1008400001D34B00C01A5241411A00D201466346FF
:1008500052415B10104601D34042002B00D5494263
:10086000704763465B1000D3404201B5002000F0A2
:100870000BF802BD0029F8D003B5FFF715FF0EBC39
:100880004243891A1847C0467047C04608B50A4B0C
:100890001A68002A01D1094A1A601A680849101812
:1008A000884206D903F096FE0C23036001204042E3
:1008B00001E01860101C08BDC8FFFF1FF8020020EF
:1008C000F802002002238078834280414042704732
:1008D000437A0020013B012B03D901200B7801331F
:1008E0000B70704708B5002003F0B2FA002803D05F
:1008F0000020011C03F0A0FA08BD0000024A1368A2
:10090000013313607047C0460800002037B500204F
:1009100002F0A2F9C02300250D4A9B0013600D4A86
:100920000D4C13600D4A281C13600D4B2571657129
:10093000A5711A68FA239B0053430A49236003F008
:10094000D5FA281C211C01AA03F038FB37BDC0468C
:10095000189014541C901454F0FFFF1F00A014545E
:1009600018FEFF1F0C00002008B5002003F002FB5A
:1009700080230A4A5B001360094A08201360094A71
:10098000136002F003FC062002F000FC092002F0D4
:10099000FDFB002002F065F908BDC0461890145414
:1009A0001C90145400A0145408B5002002F05EF905
:1009B0008023054A9B001360044A00201360044909
:1009C00002F0C4FC08BDC0460CA0145410A014547E
:1009D000CCFFFF1F08B5002002F0F4FC802382202A
:1009E000074A5B001360074A4000136002F0CEFB29
:1009F0000420FF3002F0CAFB002002F03CF908BDE1
:100A00000CA0145410A0145408B50023354A3649DC
:100A10001360364A1360364A0133FF331360354A98
:100A20001360354A1360354A1360354A1360354AFE
:100A30001360354A1360012208780240081C3349CC
:100A4000002A01D00B6000E00A60314A314913608E
:100A500000220A6030490A60304A1360304A13604D
:100A6000304A1360304A1360304A1360304A1360D2
:100A70000378DB0703D50220FF3002F079FB092061
:100A800002F084FB0C2002F081FB052002F07EFBCB
:100A9000082002F07BFB0620FF3002F077FB0E20DF
:100AA000FF3002F073FB8320400002F06FFB082050
:100AB000FF3002F06BFB0C20FF3002F059FB82206C
:100AC000400002F063FB0420FF3002F05FFB0820CF
:100AD00002F05CFB062002F059FB092002F056FBF5
:100AE00008BDC0460C90145410FEFF1F1090145403
:100AF00014901454189014541C90145420901454AE
:100B0000249014543090145400A0145404A014548D
:100B100008A014540CA0145410A0145414A014547D
:100B200018A014541CA0145428A014542CA014541D
:100B300034A0145408B5092002F028FB08BD08B5FC
:100B40000C2002F023FB08BD08B5384B984259D061
:100B500013D8374B984243D007D8364B984230D001
:100B60006433984238D0C83B12E0334B98423ED0B1
:100B70006433984242D0314B15E0314B98422FD02C
:100B80000CD8304B98421CD06433984224D02E4B62
:100B9000984242D1052002F0F9FA15E02B4B984219
:100BA00025D006D82A4B984237D1052002F0EEFA1C
:100BB00020E0C8231B01984220D0264B984221D028
:100BC0002BE0052002F0D4FA082002F0DFFA06201C
:100BD000FF3002F0DBFA24E0052002F0D7FA02E051
:100BE000052002F0C5FA082002F0C2FAEFE705205E
:100BF00002F0BEFA082002F0C9FA09E0052002F06E
:100C0000C5FA02E0052002F0B3FA082002F0B0FABB
:100C10000620FF3002F0ACFA03E000200E4901F09C
:100C200029FD0E4B186801F041FE08BDC409000003
:100C3000340800006C070000FC0800009808000061
:100C4000540B00008C0A0000280A00001C0C000055
:100C5000B80B0000E40C0000F04900000CFEFF1F80
:100C600008B5FFF771FF092002F082FA0C2002F0AC
:100C70008DFA8320400002F089FA08BD08B5FFF71D
:100C800063FF092002F082FA0C2002F071FA83203F
:100C9000400002F06DFA08BDAF2108B50B4B021CF5
:100CA000C3189BB289008B4202D8FFF7D9FF0BE033
:100CB000074BC3189BB28B4202D8FFF7DFFF03E05C
:100CC0000020044901F0D6FC08BDC046F8F8FFFF3B
:100CD000D8F5FFFF1D4A000008B5FFF72BFFFFF70F
:100CE0002EFF8320400002F043FA024B186801F007
:100CF000DDFD08BD0CFEFF1F10B5041C002901D04E
:100D0000FFF782FE0021022000F0B4FF211C042026
:100D100000F0B0FF10BD08B501200021FFF7ECFF87
:100D20003C200121FFF7E8FFF6E7000073B5161C31
:100D3000002815D01649002001F08CFA154C2068C7
:100D400001F0B4FD1449002001F084FA206801F09C
:100D5000ADFD0020114901F07DFA206801F0A6FDEB
:100D600000250F4C0F4923686268002000922A1C5E
:100D700001F080FC002022680B496368009001F0BC
:100D800079FC002E02DD301C01F090FD0135E8E712
:100D9000554A000000FEFF1F7D4A0000345A000043
:100DA00000D00340A24A0000AE4A0000F0B591B066
:100DB0001D1C16AB0C91197817AB05921A7818AB5D
:100DC0001B78041C0D931CAB1B780EA80E931DAB57
:100DD0001B88089321231B18DB7F09931FAB1B88FB
:100DE0000F9320AB1B780A930B1C914200D9131C64
:100DF000DFB2059B002D02D1002B06D101E0002BB4
:100E000003D00020544901F035FC0898FFF744FF57
:100E1000211C002001F01EFA0023089C029303937A
:100E20000793049300230693069A199B93426BDB66
:100E300000261A9B9E4264DABB190B932C226B4648
:100E40009B18187801210C9B9847002838D1049BE7
:100E500001330493089B9C4204D9643CA4B2201C37
:100E6000FFF71AFF002D16D0099A6B7BD31A5A424E
:100E70005341039AD31803930A9B002B39D0EB7A82
:100E8000287B697B00900191DBB2F2193349002085
:100E900001F0F0FB2DE0059B099A1B7AD31A5A4208
:100EA0005341039AD31803930A9B002B21D0059B2F
:100EB000F2191B7A281CDBB2294901F0DBFB18E090
:100EC000022810D1002027490B9A01F0D3FB079B81
:100ED000013307930F9B9C420BD26434A4B2201CB5
:100EE000FFF7DAFE05E0033843425841029B1B1826
:100EF00002931B9B002B02DD181C01F0D7FC01366E
:100F000097E7069B01338EE70E9B002B04D07B1CDA
:100F1000DFB20D9B9F4285D9049A079B94461249E4
:100F20006344002001F0A6FB322001F0BFFC099BC6
:100F3000039A00930D49049B002001F09BFB322093
:100F400001F0B4FC0A49029A002001F093FB322020
:100F500001F0ACFC11B0F0BDF0490000BB4A00004C
:100F6000E04A0000F54A0000084B0000204B00005A
:100F7000514B0000031C303B021C181E09280CD9E1
:100F8000131C613B052B01D8573A05E0131C413B6C
:100F90000020052B01D8373A101C704770B501F0BE
:100FA00074F9051C01F071F9FF24061C281C20406F
:100FB000FFF7E0FF051C301C2040FFF7DBFF2D0191
:100FC0002818C0B270BD70B501F05FF9041C01F0C3
:100FD0005CF9061C01F059F9051C01F056F9FF23D4
:100FE000FA221C401D409200303C544364212A1CCC
:100FF0001E40303E4E43303A5A394A43A41903400A
:10100000A218303BD01870BD70B50C1C161C88B0EF
:101010000CAA157806A908800A4A05A805700A4D89
:1010200012682D684A6004AA167000900193029518
:10103000231C002002F0ECFA431E9841400008B047
:1010400070BDC04614FEFF1F08FEFF1FF7B56A46BD
:10105000CB1DDB08DB00D31A02AF9D46051C0C1C20
:10106000FFF754FCFA23002002AE9B002A1C0094D8
:101070000193011C331C02F0FDFF041CFFF774FCFC
:10108000201CBD46441EA0418000F2BD08B50020D2
:10109000014901F0DFF808BDB74E000010B5094C5A
:1010A0000020211C01F0D6F8211C002001F0D2F80C
:1010B0000549002001F0CEF80449002001F0CAF8EB
:1010C00010BDC046E34E0000134F0000444F000027
:1010D000F0B5B9B025AC0021201C072203F0EDFAD1
:1010E000F94A01262C92032215AB2F9317AB3093AC
:1010F0001BAB33931DAB34931FAB359321AB3693AE
:1011000023AB37932CAB19AF1A71002011AA2E9282
:10111000149326703194329701F096FD301C01F043
:1011200093FD8022E94B12021A6001F0DDFB0020E2
:101130000096021C031C011C01F0AEF8E4490020DB
:1011400001F088F8C82001F0B1FBE249002001F06D
:1011500081F8C82001F0AAFBDF49002001F07AF8ED
:10116000C82001F0A3FBDD4A331C0221DC4801F05A
:10117000DFFB311C301C01F0E7FB0020002502F0F2
:10118000A3FDFC2329A9DB00281C0B804E808E8048
:10119000CD800D818D7202F0C5FD291C321C11A875
:1011A00003F08BFA259B60201993A28804A9BA80CA
:1011B000A2790918BA7103223A701B93A2880230EF
:1011C0000A80A27904A909180A700522063804A920
:1011D00009180A701593A288143804A909180A80FE
:1011E000A279023004A909180A704421022704AA2E
:1011F000521817701793A288063004A909180A809C
:10120000A279C01904A909180A704C2104AA52181D
:10121000483911701D93A288163004A909180A8054
:10122000A279C01904A909180A700822063804A96D
:1012300009180A701F93A2880C3004A909180A80A3
:10124000C019A27904A909180A700921063804AA4C
:10125000121811702193A3880C3004AA121813805D
:10126000A379C01904AA121813700A23063804AA15
:10127000121813707C2204AB9B181D7014AA331C27
:101280002FA801F041FD291C381C00F0F3FC954902
:10129000954801F051FFFFF7B7FB0820FF3001F040
:1012A00067FFC82001F002FB0820FF3001F06EFF4D
:1012B000C82001F0FBFA0820FF3001F059FFC820D8
:1012C00001F0F4FA0820FF3001F060FFC82001F0BF
:1012D000EDFA0820FF3001F04BFFC82001F0E6FADC
:1012E0000820FF3001F052FF804C4020211C00F00C
:1012F00037FDFFF7F1FC00F0A1FD04230293E12389
:10130000DB000793C833099300952B1C01960395C6
:1013100004960595069608950A9675487549221C07
:10132000FFF744FD80231B020D950E950C93724927
:10133000002000F08FFF714C714F206801F0B6FA69
:101340007049002000F086FF206801F0AFFA6E4976
:101350000D9A0E9B002001F08DF9206801F0A6FA8D
:101360006A4D6B4E6B492A6833680968002000910A
:101370000C990191684901F07DF9206801F096FA15
:10138000664B674A0020D2587B69396800916549ED
:1013900001F070F9206801F089FA634B62491A780C
:1013A0005B788979D2B2DBB2009100205F4901F00D
:1013B00061F9206801F07AFA5B4B5D491A7A1B7E6D
:1013C0000978D2B2DBB2009100205A4901F052F9FB
:1013D000206801F06BFA584B58491A785B78096914
:1013E000D2B2DBB200910020554901F043F92068E8
:1013F00001F05CFA534B4A499A78534BD2B2CB581E
:10140000796800200091514901F034F9206801F019
:101410004DFA4F4B4F491A6811AB1B78002001F071
:1014200029F9206801F042FA4B49002000F012FF30
:10143000206801F03BFA4949002000F00BFF2068CA
:1014400001F034FA4649002000F004FF206801F062
:101450002DFA4449002000F0FDFE206801F026FA34
:101460004149002000F0F6FE206801F01FFA3F49D4
:10147000002000F0EFFE206801F018FA3C4900203F
:1014800000F0E8FE206801F011FA3A49002000F06F
:10149000E1FE206801F00AFA3749002000F0DAFE88
:1014A000206801F003FA3549002000F0D3FE2068DF
:1014B00001F0FCF90E9A03233149002001F0DAF81B
:1014C000206801F0F3F95DE0D10800004C02002033
:1014D000764F0000914F0000974F000028FEFF1F3D
:1014E0002CFFFF1F3CFEFF1F2CFEFF1FF8FFFF1FFE
:1014F0009E4F0000791D0000AA4F000000FEFF1F54
:1015000000D00340CE4F00000050000014FEFF1F2B
:1015100018FEFF1F04FEFF1F345000003C100000A7
:10152000007004406C50000000400640A2500000D3
:1015300000500640D150000000E0074000ED00E000
:101540000151000000D00740341000003B51000062
:101550000800002073510000A1510000AB510000B1
:10156000C8510000E4510000005200001D5200006C
:10157000445200006352000082520000AD5200004D
:10158000D0520000E249002000F064FE206801F023
:101590008DF9E049002000F05DFE206801F086F939
:1015A000DD49002000F056FE206801F07FF9DB499C
:1015B000002000F04FFE206801F078F9D8490020A3
:1015C00000F048FE206801F071F9D649002000F0D3
:1015D00041FE206801F06AF9D349002000F03AFE8C
:1015E000206801F063F9D149002000F033FE206843
:1015F00001F05CF9CE49002000F02CFE206801F0DB
:1016000055F9CC49002000F025FE206801F04EF984
:10161000C949002000F01EFE206801F047F9C749C3
:10162000002000F017FE206801F040F9C4490020B6
:1016300000F010FE206801F039F900F026FEFF27C7
:10164000021C0F903A406B2A00D142E200DD04E117
:10165000652A00D1DBE100DDA4E0622A00D145E18A
:1016600000DD8DE00A2A00D1A1E2612A00D0A4E2C7
:10167000B449002000F0EEFDB349002000F0EAFD7F
:10168000206801F013F9B149002000F0E3FDB049F2
:10169000002000F0DFFDAF49002000F0DBFD2068F6
:1016A00001F004F9AC49002000F0D4FD206801F0FD
:1016B000FDF8AA49002000F0CDFD206801F0F6F801
:1016C000A749002000F0C6FD206801F0EFF8A54909
:1016D000002000F0BFFD206801F0E8F8A2490020DA
:1016E00000F0B8FD206801F0E1F8A049002000F00A
:1016F000B1FD206801F0DAF89D49002000F0AAFD54
:10170000206801F0D3F89B49002000F0A3FD206879
:1017100001F0CCF89849002000F09CFD206801F011
:10172000C5F89649002000F095FD206801F0BEF84C
:101730009349002000F08EFD206801F0B7F8914930
:10174000002000F087FD206801F0B0F88E490020ED
:1017500000F080FD206801F0A9F88C49002000F01D
:1017600079FD206801F0A2F88949002000F072FD9F
:10177000206801F09BF800F088FD021C3A401CE252
:10178000632A00D132E1642A00D016E281490020A8
:1017900000F060FDFFF717FC7F4B804918601A6866
:1017A00000200CE2682A00D17CE111DC662A00D11D
:1017B00038E1672A00D000E27949002000F04AFDB4
:1017C000FFF701FC83B20D931A1C00207549F6E166
:1017D000692A00D16EE16A2A00D0EEE10E9A7249C0
:1017E000002000F047FF00F050FD7049002000F09D
:1017F00031FD00F04AFD6E49002000F02BFD00F0A5
:1018000044FD6C49002000F025FDFFF7DCFB6A4930
:10181000041C002000F01EFDFFF7D5FB051C6749E6
:10182000002000F017FDFFF7CEFB6549002000F017
:1018300011FDFFF7B3FB0C9B6249019303220E9B42
:1018400000950294002000F015FF0C98FFF7ACF80B
:101850005D49002000F0FEFC38E1722A00D18BE1E6
:101860000CDC6E2A00D17EE100DA38E16F2A00D16B
:101870007EE10220702A00D17FE19EE1752A00D12D
:1018800088E106DC732A00D17CE1742A00D14EE5A0
:1018900093E1782A00D180E17A2A00D08DE14B498A
:1018A000002000F0D7FC0C98FFF77EF84849002094
:1018B00000F0D0FC00F0E9FC4649051C002000F0D7
:1018C000C9FCFFF780FB86B24349321C002000F0C0
:1018D000D1FE206800F0EAFFE9B268394D42694163
:1018E0000120C9B2321C0C9BFFF720FA3B490020B3
:1018F00000F0B0FCFFF767FB28602A68384B9A427B
:1019000001D1384B2B602A680020374957E1C04687
:10191000FF5200001B5300003F53000063530000C0
:101920007D53000098530000B6530000D3530000CD
:10193000F2530000115400002B54000056540000D4
:10194000765400008954000094540000D2540000E2
:10195000145500005555000095550000D555000060
:1019600012560000515600008F560000CC56000061
:101970000A5700004757000086570000C357000071
:10198000EC57000029580000605800009D580000E6
:10199000DA580000A059000004FEFF1FCF590000D4
:1019A000F05A00001C5B0000C55B0000FF5B0000FC
:1019B000285C0000415C0000805C0000AC5C000022
:1019C000E45C0000155D0000EA4B0000AB5E000027
:1019D000C45E0000ED5E0000355F00000A590000A3
:1019E0000F2700001027000038590000764900201A
:1019F00000F030FCFFF7E7FA30603268734B9A4230
:101A000001D1734B3360326800207249D7E07249CC
:101A1000002000F01FFCFFF7C1FA0E906F49002074
:101A20000E9ACCE06E49002000F014FCFFF7B6FAE5
:101A3000061C6C4C321C211C002000F01BFE6A4965
:101A4000002000F007FCFFF7A9FA12AF021C387063
:101A5000211C002000F00EFE992E02D100206349C7
:101A6000A7E02B6827AC0D9828932680FFF714F980
:101A70000C98FEF799FF38216B465B181B7813AA68
:101A800013705B4B002019680123029100970193AA
:101A9000211C01F0BDFD021E18D05649002000F0A7
:101AA000E9FD13E05449002000F0D4FB0120FFF7CA
:101AB000F5FA3CE45149002000F0CCFBFFF783FA33
:101AC00083B20C931A1C00204D4978E0FEF782FF88
:101AD0002DE44C49002000F0BDFBFFF71CF94649FE
:101AE000002000F0B7FB4849002000F0B3FBFFF7EF
:101AF00055FA27AD28704549002000F0ABFBFFF7F1
:101B000062FA6B463C229B181E78041C2B786C2EC4
:101B100017D10C9A002000920D9A3D490192221C87
:101B200000F0A8FD0025A54201DBFFF700FC27AB74
:101B30001A780023FF2000930121FFF765FA013591
:101B4000F1E70D9A002000923249221C00F092FD2C
:101B50000026A64201DBFFF7EAFB281C0121FFF764
:101B600075FA0136F5E70D98FFF796F8FFF7DFFBFA
:101B7000FFF7B2F8FFF7DBFB0820002100F07AF84E
:101B8000FFF7D5FB1C49002000F064FBFFF77EFA4D
:101B9000FFF7CDFB002020490BE02049002000F09A
:101BA00059FB0B4800F082FE00201D4901E0002097
:101BB0001C4900F04FFBFFF7BAFB00201A4900F068
:101BC00059FDFFF7B4FBC046585900000F2700002D
:101BD0001027000086590000EA590000205A000032
:101BE000375A00006A5A0000805A0000A95A0000C3
:101BF00008FEFF1FCF5A00003E5B00006C5B000038
:101C0000A85B0000525D0000755D0000945D00005F
:101C1000B45D0000065E0000445E0000825E0000CD
:101C2000A15E00006D5F0000EE5800001FB5041CAF
:101C300001A9002002F09EF801A8694601F0D8FF32
:101C4000009B68461C1901A9009401F059FF01A9E5
:101C50000122002002F0BAF81FBD00000022034B51
:101C60001A608022024B1206DA67704700A01C58E7
:101C700004E100E010B50A2308286FD80C1CFEF719
:101C800079FC051B283C48626466570001F0D2F9D4
:101C90000523012862D0FFF7E1FF201CFFF7C6FFF4
:101CA0000020011C01F054F8041C0020012100F068
:101CB0004BFE002C4FD150E001F0BCF90623012867
:101CC0004CD0FFF7CBFF201CFFF7B0FF0120002115
:101CD000E8E701F0AFF9082301283FD000F0BCFE8F
:101CE000002803D00020012100F02EFE0220002158
:101CF00001F02EF800282ED12FE001F09BF90723E8
:101D000000282BD0FFF7AAFF201CFFF78FFF03202E
:101D100005E0FFF7A3FF201CFFF788FF0420002148
:101D200001F016F8041C01F085F90028C1D1BDE7C7
:101D30000820002101F00CF800280CD10120011C22
:101D400000F002FE09E0052002E0062000E0072086
:101D5000002100F0FDFF092300E00023181C10BD46
:101D600038B5051C0C1C0020024900F073FA2570E0
:101D700038BDC0469F5F0000F0B5071C89B00C1C41
:101D80000020154900F066FA144E06A9337805AD17
:101D90000B80134B2F701B6800204B60114B01947C
:101DA0000093FA235B000293F43B2A1CFF3B01F0F3
:101DB0003CFC041E09D1337A717A2A78DBB2009197
:101DC000094900F057FC201C04E00020074900F0FE
:101DD00041FA022009B0F0BDBB5F0000F8FFFF1F11
:101DE00014FEFF1F00000020E55F000013600000EC
:101DF00013B5041C0C2001F0BBF90A2000F056FDBD
:101E00000C2001F0C3F90E20FF3001F0BFF90123CF
:101E1000084A002014700093FA239B000193011CD0
:101E2000054B02F027F9041C0C2001F0A1F9201C3D
:101E300016BDC0465C0000203C00002008B5C02351
:101E4000654A9B001360654A1360FEF75FFD8023BF
:101E5000634A5B001360634A02201360624A1360A6
:101E600001F086F9642000F021FD022001F08EF9D6
:101E7000642000F01BFD022001F07AF9642000F0DC
:101E800015FDAE20FFF7B4FFA020FFF7B1FF7220D1
:101E9000FFF7AEFFA120FFF7ABFF0020FFF7A8FF81
:101EA000A220FFF7A5FF0020FFF7A2FFA420FFF765
:101EB0009FFFA820FFF79CFF3F20FFF799FFAD2071
:101EC000FFF796FF8E20FFF793FFB020FFF790FFFC
:101ED0000B20FFF78DFFB120FFF78AFF3120FFF7BE
:101EE00087FFB320FFF784FFF020FFF781FF8A20F0
:101EF000FFF77EFF6420FFF77BFF8B20FFF778FF63
:101F00007820FFF775FF8A20FFF772FF6420FFF744
:101F10006FFFBB20FFF76CFF3A20FFF769FFBE2081
:101F2000FFF766FF3E20FFF763FF8720FFF760FFA4
:101F30000620FFF75DFF8120FFF75AFF9120FFF792
:101F400057FF8220FFF754FF5020FFF751FF8320F7
:101F5000FFF74EFF7D20FFF74BFFAF20FFF748FF55
:101F60002620FFF745FF0120FFF742FF2520FFF75E
:101F70003FFF0020FFF73CFF0020FFF739FF5F2005
:101F8000FFF736FF3F20FFF733FF2220FFF730FF38
:101F90000020FFF72DFF0020FFF72AFF5F20FFF74B
:101FA00027FF3F20FFF724FF0020FFF721FFFF203E
:101FB000FFF71EFF0020FFF71BFF0020FFF718FFB1
:101FC000FF20FFF715FF0020FFF712FF0020074951
:101FD00000F040F9002008BD2090145424901454BF
:101FE00034A014543090145400A0145435600000F0
:101FF0000269C3689A4203D880681018013800E06B
:10200000501EC01A7047F7B58368C668051C406843
:102010000191141C9F1B8019974203D902F044FBC5
:10202000A4190AE001993A1C02F03EFB019BE41B53
:10203000D9196868221C02F037FBEC60F7BD002359
:10204000F7B5061C171CC568019100933369B46885
:10205000AB4200D81B19013B5B1B641BBC4200D97F
:102060003C1C9C4200D91C1C7368221C5819019905
:1020700002F01AFB009B2D191B190093019B3F1BBB
:102080001B190193B368EB1A5A1E93415B421D4022
:10209000F560002FDAD10098FEBD0000022310B5D4
:1020A0000F4C104A236163610F4BA261E361C823A7
:1020B000A2640E4A2362E26400230422A3626362E4
:1020C000E362A3656365E3652265E01D084902F0EC
:1020D000ADFB201C074902F0A9FB2023A37110BD12
:1020E0004801002055600000800000207C00002096
:1020F0005E60000062600000F0B5294B171C1A7882
:1021000085B0009001910293002A01D1FFF7C6FF2C
:102110001823009A00255343029AD3181A1C5032F0
:1021200052689C6D039294421BD91B6D3D1C1B1B76
:102130009F4200D91D1C1826009B2A1C5E43029B4F
:1021400001989E19F36C7F1B191902F0ADFA019BDF
:1021500064195B190193336DE31A5A1E93415B4274
:102160001C40039B1E1BBE4200D93E1C002E0CD0FF
:102170001823009A01985343029AAD19D318D96CC9
:10218000321C091902F090FAA419002D05D0182369
:10219000009A5343024AD3189C65281C05B0F0BD31
:1021A0004801002010B50B1CEFF31084012181F3CE
:1021B0001088191CFFF7A0FF84F3108810BD0000E1
:1021C000F8B51823451C5D434343141C134A0E1CE9
:1021D000D018C76A5519012F0FD0002F07D0022F32
:1021E00017D1221C281CFFF72AFF041C14E0281C0E
:1021F000FFF7FEFEA0420ED305E0281CFFF7F8FE15
:10220000844200D9041C281C311C221CFFF7FBFE51
:1022100002E0002400E03C1C201CF8BD4801002026
:10222000F8B50B4B071C1B780E1C151C002B01D19D
:10223000FFF734FFEFF31084012181F31088381C7D
:10224000311C2A1CFFF7BCFF84F31088F8BDC04680
:102250004801002038B5051C081C0C1C02F0EEFAE1
:10226000211C021C281CFFF7DBFF38BD13B56B4691
:10227000DC1D0020211C0122FFF794FF012801D161
:10228000207801E00120404216BD08B5FFF7EEFFBF
:102290000028FBDB08BD0000F7B5164C019323783E
:1022A000051C0F1C161C002B01D1FFF7F7FE23693C
:1022B0009D421CD2EFF31082012181F31088002D82
:1022C0000CD01823691C59436B43675061184E604A
:1022D0000199E318196200219962596218235D433C
:1022E000089B6419E36282F31088002001E001205A
:1022F0004042FEBD48010020826810B5041C4068C1
:10230000531C834205D820688154A360E3680133DD
:10231000E360A26863689A420CD120692168FFF7E4
:102320007FFFA368984203D001235B42E36001E092
:102330000023A36010BD0000F0B5051C1F1C081C85
:10234000012685B00A9C00910192019B984204D31A
:102350000199FEF719F90136F7E70296BE4200D25D
:10236000029701230B9A1A40039218D1002C01D135
:10237000002414E00B9B20269B070DD5002F0BD1CA
:10238000103609E0281C311CFFF7B6FFEB68013C52
:10239000002B04DB002CEBD0029BA342F2D3EB68B2
:1023A000002B35DB0126012F01D9013F06E0009803
:1023B000311CFEF7E9F8019B984208D3019B5E436C
:1023C000F1E7301C0199FEF7DFF8061E10D00098E7
:1023D000311CFEF7D9F8331C4343009AD31A0093FB
:1023E0000C4B195C281CFFF787FFEB68002BE8DA21
:1023F000039B002B0CD0002C0AD0029BA34207D2D7
:10240000281C2021FFF778FFEB68013C002BF2DA53
:1024100005B0F0BD69600000F0B59FB00EAB099348
:1024200040230A930023161C06900B930D900C93E7
:102430000B784C1C002B04D10C9B0393002B22DC4B
:1024400015E1252B16D1002502314F1E3B782B2B91
:102450000CD003D8232B27D1082308E02D2B03D041
:10246000302B21D1022302E0012300E004231D438D
:102470000131EAE7191C09A8FFF73EFF211C0C9B5C
:10248000002BD5DAD8E70B9A002A03D006980EA9BC
:10249000FFF7C6FE0C9B03930B9B0493049A039BCC
:1024A000944663440C93E2E000243A78131C303BDA
:1024B000092B05D80A235C43303C0137A418F4E704
:1024C000002303932E2A0DD101373A78131C303B99
:1024D000092B07D80A23039901374B43303B9B183C
:1024E0000393F2E7397804230A1C9A43682A01D13E
:1024F0000137F7E7642926D008D8582900D195E09C
:1025000063291AD0252900D0AFE0ABE0732900D1B0
:1025100095E00DD8702900D0A7E032680021131D86
:102520003360082301910093116809A8102296E0F6
:10253000752971D0782979D097E0336819681A1D08
:102540003260C9B28EE033681A1D1B683260DA1738
:1025500098180493012350400593092805DD0A21AA
:10256000FEF7A2F8059B0133F6E7059B039A934219
:1025700000D20592002C05D0049B002B01DB6B07D9
:1025800000D5013CAB0702D5039B002B10D0EB0715
:102590000ED4002C01D100240AE0059BA34207D2EF
:1025A00009A82021FFF7A8FE0C9B013C002BF0DAC4
:1025B0000C9B0793002B58DB049B002B04DA5B4237
:1025C000049309A82D2103E06B0703D52B2109A84B
:1025D000FFF792FE0C9B002B47DB03232B40022BC3
:1025E00011D1039B002B0ED1002C01D100240AE055
:1025F000059BA34207D209A83021FFF77DFE0C9B63
:10260000013C002BF0DA0C9B0593002B2DDB009492
:10261000019509A8049906E03368009401951A1DF4
:102620001968326009A80A22039B18E033680094F5
:102630001A1D0195326009A819681022F4E7336861
:102640001A1D32601C682178013400290DD009A8B8
:10265000FFF752FE0C9B0393002BF4DA05E0FFF723
:102660006BFE02E009A8FFF747FE791C07E70C980C
:102670001FB0F0BD0EB403B503AB02CB01AA0193AA
:10268000FFF7CAFE02B008BC03B0184708B5002027
:1026900000F08AFD08BD08B5002001F0F5FB08BD7B
:1026A000082110B5164B9A780A4202D09A780A434C
:1026B0009A70882200212220124B52019950124A0E
:1026C00010708020114A400298501868104A024049
:1026D00010481A601C58104A2240C024A404224307
:1026E0001A5080220D4B19721A767F3A19705A705F
:1026F0000B4A11700C2299791142FBD110BDC046D2
:1027000000D007400070044000E007404410000083
:10271000FFFFF3FF04100000FFFFFFF00040064042
:1027200000500640154B164810B5191E81420CD0BA
:102730000022144B9B089B009A4203D084588C5073
:102740000432F9E7104B996001E00F4A93600023CF
:102750000E4A0F49891A8B4204D0D45C0D48C454E8
:102760000133F8E700230C4A0C49891A8B4204D044
:102770000024D01804700133F8E710BD00000000F9
:10278000000000000000000000ED00E0D06100004B
:102790007C63000000FEFF1FACFFFF1FF40200205F
:1027A00000234170436003708360181C704710B5AC
:1027B0004378041C0120FF2B08D000F06DFA6378E9
:1027C0000133DBB2637000F05BFA002010BD002023
:1027D000704738B5041C0D1C00F05EFAE16829430F
:1027E000E16000F04DFA002038BD000000220A4BE5
:1027F0009A641A1C40329A631A1C30329A621A1C6C
:1028000020329A611A1C10329A60044A1360044BF9
:102810009B60DB607047C046D4010020D0010020DF
:10282000C00100200022024B1A60186880B2704775
:102830000C007C5038B54378041C0D1C002B0BD0C9
:10284000002500F029FA6378013BDBB26370257044
:1028500000F016FA281C28E00220002925D0237851
:10286000002B15D0FFF7DEFF6368A268984201D302
:10287000C01A03E0C01A80235B02C018824213D240
:1028800000F00AFA0023237000F0FAF902200CE0AD
:102890004B1C09D000F000FA0123237000F0F0F97E
:1028A000FFF7C0FFA5606060032038BD38B5051C88
:1028B000FFF7B8FF041CFFF7B5FFA04201D3001BD0
:1028C00003E08023001B5B02C0188542F3D238BDB1
:1028D00008B5012801D100F0DFF908BD08B50128CD
:1028E00001D100F0CDF908BD10B5FFF77FFF01233E
:1028F0000020084A08491360084A094C1060086023
:1029000004212160074C216007490B6007490860DA
:10291000136010BD38800450000084500000045043
:10292000000004510400045104000C500000045342
:1029300010B5044C206021710020A26023736373E2
:1029400010BDC04624020020F0B587B06B4602904F
:102950001B7A05AC23706B4603911B7B3D4D637066
:102960002B79029A0420934271D92B7B6B7301233C
:10297000A37000230193374E0093337B009A371CDA
:1029800093421AD9009BB2689B009B58002B10D031
:102990001A79D2070DD51A68201C9968904700282B
:1029A00007D06B461B787373039B002B3AD005232B
:1029B0000193009B0133DBB2DDE7019E002E02D0C4
:1029C000039B012B2FD10120FFF782FF0C20029BDC
:1029D00058432B68181800F0A7F86B461B7A0120A3
:1029E0006B71FFF77BFF02230025A3703B7BAB429B
:1029F00016D9BA68AB009B58002B0ED01A799207F3
:102A00000BD51A68201C99689047002805D0039BB5
:102A10007D73002B1AD0062301930135EDB2E5E753
:102A2000019814E005260023009FA370013FFFB228
:102A3000FF2F09D0AA68BB009B58002BF6D01A685C
:102A4000201C99689047F1E7301C00E0062007B091
:102A5000F0BDC04624020020014B58797047C046A3
:102A60002402002013B500210378041C0191022BDD
:102A700007D0032B0BD0012B0ED10279191C134860
:102A800001E00279114801AB00F0CEFF08E001A996
:102A90000E4801F00BF803E00C4801A900F0A8FF74
:102AA000002812D1A3790A4ADB01DBB213706378E4
:102AB000084A5B00DBB21370A278074B1A70E27809
:102AC000064B1A706279064B1A7016BD004006401C
:102AD0001840865300408650004006500140065082
:102AE000184016501F22802302405B05D2051A436E
:102AF000034943099B005B181A4300231360704786
:102B0000288004401F2280210240D3054905194333
:102B1000430904489B001B1819430123081C9340D8
:102B200003607047288004400022072373B5041C0B
:102B3000104D0093281C131C012101F097F9201C53
:102B4000FFF790FF0022637A217A0093281C131C60
:102B500001F08CF9E379084A9B041360074BA17AD2
:102B60001D68281C00F0BEFF281CE17A00F0C1FFA0
:102B7000002076BD0070044000700C59C460000055
:102B800008B5054800F0F6FE044B1968C9B20131DA
:102B9000FDF7FAFC08BDC0460040064044801C5EBC
:102BA00008B5054800F0E6FE044B1968C9B20131CA
:102BB000FDF7EAFC08BDC0460040064044801C5EAC
:102BC00008B5054800F0D6FE044B1968C9B20131BA
:102BD000FDF7DAFC08BDC0460040064044801458AA
:102BE00008B5054800F0C6FE044B1968C9B20131AA
:102BF000FDF7CAFC08BDC04600400640448014589A
:102C00000C4B1B68DBB2022B0DD0032B0ED0002B1C
:102C100001D000200CE08021074A09021268101E32
:102C20008842F6D104E0054B186801E0FA208000E4
:102C30007047C04600700C594C0200205002002022
:102C400008B5FFF7DDFF08BD08B5024B185CFFF7BC
:102C500059FF08BD7960000008B57620FFF752FFE4
:102C600008BD08B57620FFF73DFF08BD08B5662012
:102C7000FFF748FF08BD08B56620FFF733FF08BD22
:102C8000044A1368002B04D0013B1360002B00D1D1
:102C900062B670473402002072B6024A13680133EC
:102CA000136070473402002010B50B4B0B4A1278AA
:102CB000002A04D1013B002BF8D103200AE0064C86
:102CC000074801F069FB012803D0013C002CF7D133
:102CD000F3E7002010BDC046EA03000002D0075110
:102CE00000E0074010B5064C064801F055FB0428EB
:102CF00004D0013C002CF7D1032000E0002010BDDF
:102D0000EA03000000E00740F7B5071C0E1C151C85
:102D100001930120002F18D0002916D0FFF7D8FD0D
:102D20000A4C0021201C102201F0C7FC27602671EC
:102D3000002D06D06B461B79A56023736B461B796B
:102D400063730120FFF7CAFD0020FEBD380200209A
:102D5000F0B5B24C8BB002900191237B01206373DC
:102D6000FFF7B6FD2379029A934204D80120FFF7BA
:102D7000B5FD022050E1029A23689200D6586B46B6
:102D80001B7907AC357823726B461B7A2A1C23709B
:102D900002239A4366600392012A01D0052D0AD1CD
:102DA00001219F4801F04AFA002809D10120FFF7CC
:102DB00095FD012030E1072D02D999480321F1E763
:102DC0000123637200240094944F009A3B7B93424A
:102DD0001AD9009BBA689B009B58002B0FD01A7918
:102DE000D2070CD51A6807A899689047002806D022
:102DF0006B461B7804247B73019B012B04D1009B41
:102E00000133DBB20093DFE70120FFF767FD854860
:102E100000F0D4FD039B012B1DD10138C0B2022864
:102E200011D8FFF7DDFE804B98420CD8FFF7A8FEC3
:102E30007E4FB84207D8FFF7C3FEB84203D8FFF76A
:102E4000AFFEB84207D9019B012B01D1062407E050
:102E5000002C05D1FAE7019B012B52D0002C50D059
:102E60000120FFF735FD002307AE009D7372013D81
:102E7000EDB2FF2D40D0694BAA009B68D358002BC0
:102E8000F5D01A79D207F2D51A68301C99689047A4
:102E9000EDE7072205AB1A7000225A70F2789A709B
:102EA0003279DA702B1C083B05A9022B03D8737901
:102EB0008B71B379CB717378002B00D084E05848C4
:102EC00001F0F0F9002800D00324002D00D08AE0A2
:102ED000FFF7EAFE0024002800D09DE00120FFF764
:102EE000F7FC6B464D4E1B7A0025B373022307AFE8
:102EF0007B72337BAB427CD80120FFF7EFFC201CB8
:102F00008AE003200A2D00D986E0281CFDF728FB63
:102F100006080A1940583339C1282D00002250E014
:102F200003224EE03E4801F037FA012807D03C4822
:102F3000002101F093F9FFF7B7FE041E6CD10122C6
:102F40003FE0374801F028FA042807D0344802212E
:102F500001F084F9FFF7C6FE041E5DD1042230E0C3
:102F6000072205AB1A70063A03E0072205AB1A7078
:102F7000043A5A7096E7022205AB1A70013A1A71A8
:102F800004E00222012105AB1A7019715A7189E718
:102F90000222002705AB1A702148013A1A715F71AD
:102FA00001F0FAF9012800D17CE71D48391C01F035
:102FB00055F9FFF779FE041EBC4200D172E72BE001
:102FC000052205AB1A706DE7012D00D877E7B278BE
:102FD0000220174B002A02D01A69024301E01A6945
:102FE00082431A616BE7012D00D077E7FFF77AFE85
:102FF00070E7B268AB009B58002B0AD01A79920791
:1030000007D51A68381C99689047002801D0052414
:1030100075730135EDB26CE70BB0F0BD38020020DE
:1030200000E007400040064040420F0080841E0040
:1030300000ED00E008B5064801F0AEF900230128D4
:1030400003D00133042800D00A33181C08BDC04641
:1030500000E00740F7B5FF2403681C4A1D0A25401D
:103060001C40AB009F581A4A061C9B58281C019311
:10307000FFF7EAFD211C0022381C01F095F9019BA5
:10308000A4001C19842332795B05234352001A6083
:10309000802372795B0523431A609023B2795B0524
:1030A000234312011A60F3790A4A14431A04226076
:1030B000002B0AD0084B5A5D002A06D01F2313406C
:1030C00001229A40131C054A1360F7BDD06000002E
:1030D000C860000000001818D860000000E100E09F
:1030E000F8B5FF24051C0368114A180A20401C404B
:1030F00083009F580F4A9E58FFF7A6FD381C211CDD
:10310000012201F051F96A68381C211C01F05CF9B8
:1031100088232A7AA40034195B05234392001A609D
:1031200098235B051C436B7A9B012360F8BDC04666
:10313000D0600000C860000038B50C1C002802D127
:10314000002C09D112E003680133F9D0051C0835C1
:10315000FFF780FF281CF6E72368013306D0251C03
:10316000201C0C35FFF7BCFF2C1CF5E738BD000018
:10317000FF22030A134002400120904002499B00B5
:103180005B5858607047C046D0600000FF22030AB9
:10319000134002400120904002499B005B58986018
:1031A0007047C046D060000008B5084B8200D35875
:1031B00094220233520513431B78002B02D000F0F7
:1031C00041FA01E000F096FA08BDC0467C600000BC
:1031D000031C80220C33520513431B78002BF7D0BD
:1031E0000171704738B50D1C084B8000C458201C75
:1031F000291C1830FFF71EFB0328F8D0002801D047
:1032000004232374207CC0B238BDC046480200208D
:10321000F0B589B00290161C82003748059310580B
:103220000EAB019035481B781458002007AA108077
:10323000A27C8F0A04920122E274A2745A42534182
:103240001E3FDBB203937B425F41FFB2CDB28742A8
:1032500002D0CBB29C460D0A00216D00EDB28F4228
:1032600004D1391C002E01D16B46197B0D4307ABED
:103270001D700122002F02D062465A700222A36004
:10328000E2600198291CFFF7A3FF02980F99FFF74E
:10329000A9FF237C002B0CD1002E0AD0059BA66031
:1032A000E36031780198FFF793FF02980F99FFF7D9
:1032B00099FF237C002B16D1039B002B13D0002FEA
:1032C00001D1002E0FD000230127A3600198E760F1
:1032D00001F0D2F8391C01982943FFF779FF0298D1
:1032E0000F99FFF77FFF0023E3746B46207C1B7C64
:1032F000C0B2A37409B0F0BD7C6000004802002099
:10330000104A830010B598580F4A9C58E37C002B54
:1033100005D0237C052B02D0237C042B09D19822D5
:10332000831C5205134300221A7001F0B7F80123E1
:103330006374A37C002B03D0201C1830FFF737FAEE
:1033400010BDC0467C60000048020020F7B5194B54
:103350008700FB5801250093174BFE58002E26D1FD
:103360000C1C24220190081C311C01F0A6F9201C21
:10337000311C1830FFF714FA0198FFF777FC00981A
:1033800001F02AF80C4B019AFC500C4B9A5C1F235D
:1033900013402A1C9A40131C094A13609C22009B6C
:1033A00052050233134380226574351C1A70281CA1
:1033B000FEBDC0467C600000480200207B6000002B
:1033C00000E100E0F7B59C220027051C0D4E8400AB
:1033D000A359520501930C4BE358023313431F705A
:1033E000FFF749FC094B01985A5D1F231340012246
:1033F0009A40131C064A1830D367FFF7E8F9A75123
:10340000F7BDC046480200207C6000007B600000E1
:1034100004E100E00A4B800070B5C558094BC6585E
:103420004B68726993420AD00C1CFFF7C9FB00235A
:10343000011C6268281C00F0DDFF6368736170BDC9
:103440007C60000048020020F0B587B00FAC334F1D
:10345000334D267884006559E459677C002F02D1EA
:103460000320207458E0002E01D11E270E970593EB
:103470000023A674E360A360237423606374071CB5
:1034800004920391FFF7C6FF90231021AA1C5B054D
:10349000134319708421EB1C49050B430221197059
:1034A00098235B05134302934023029A281C137050
:1034B00000F0E2FF039B381C1988012300930E9B48
:1034C000049A0193059BFFF7A3FE0D9B002B15D0DB
:1034D000237C002B0FD10C9B281CA3600D9BE36069
:1034E0000C9B1978FFF774FE002E13D0381C0E9930
:1034F000FFF778FE0EE0237C042B0BD1002301267E
:10350000029A1370EB785B09334202D0281C00F05A
:10351000C5FF6674207CC0B207B0F0BD4802002031
:103520007C600000F0B58BB013AC2478364E374D7C
:10353000039484006559A459667C002E02D10320AF
:1035400020745FE0039E002E01D11E36129609936F
:10355000109B00262360119BA66063606B461B7B5B
:10356000E660A37426746674079108920490FFF7CE
:1035700051FF9023AF1C5B053B4305931023059A35
:10358000281C13708422EB1C5205134302221A706C
:1035900098235B053B4306934023069A137000F083
:1035A0006BFF079B089A1988129B00960193049859
:1035B000099BFFF72DFE227CD2B2B24212D1059BAD
:1035C00011991A708C235B053B43012900D1082215
:1035D0001A702B79039B002B12D004981299FFF7D5
:1035E00001FE0DE0237C042B0AD1069B1E700126F0
:1035F000EB785B09334202D0281C00F04FFF667461
:10360000207CC0B20BB0F0BD480200207C600000FE
:103610001FB5069C0094079C0194089C0294012409
:103620000394FFF711FF04B010BD1FB5069C009472
:10363000079C0194089C029401240394FFF772FFF5
:1036400004B010BD842138B5244B8200D5584905FB
:10365000EB1C0B4302211970214BD45890226B189C
:1036600052051A431278E978D2B2890634D59421EA
:1036700049051943097800292ED0012A15D1EB7884
:10368000134202D0052323740CE0E368013BE3609E
:10369000002B07D0A368281C5A1CA2605978FFF79A
:1036A00097FD19E0FFF72CFE16E06268013A6260B0
:1036B000002A06D08C214905012A05D10B43082296
:1036C00004E0FFF71DFE02E000220B431A7023689E
:1036D0005A1C22602A791A7038BDC0467C600000EE
:1036E00048020020842303305B0518430223037043
:1036F00070470000902149050A1CF0B58F4B071C4C
:103700008000C55889B0EB1C0493EB78EE78DBB2EF
:103710000593F3B20693AB1D1A439446127898268C
:10372000D2B20792942252051A4314787605621E8B
:103730009441E2B2824C33430459A81C00900843E0
:1037400001921A780178D2B2C9B20391019902901C
:1037500000292FD0079900290CD010236246281C7D
:103760001370FFF7BFFF236BF8B20121002B00D0CD
:10377000DCE0E0E0002A1DD04022281C1A70FFF790
:10378000B1FF231C2C331B78002B02D1009A164367
:103790003370236B002B03D0F8B28021626B984703
:1037A000E37D002B04D0201C80211830FFF711F896
:1037B0000A23BFE0069B281C9E1101231E40FFF731
:1037C00091FF0122059B1B11134219D09023049AEB
:1037D0005B05134310221A70002E04D0EB785B07B0
:1037E000DB0F10D11AE0082323702C342278002A32
:1037F00000D0A0E0982300995B050B431A709AE073
:10380000002E16D0EAE71023029A1370236B002BC8
:103810006ED0F8B20221626B984769E0029A137089
:10382000236B002B03D0F8B20421626B98472B79ED
:1038300081E0039B012B29D1EB78039A134257D0E7
:10384000029B1E702B79231C2C331B78002B09D173
:10385000019B002B06D19823009A5B0513436A460F
:1038600012791A70236B002B03D0F8B20821626B17
:103870009847A37D002B04D0201C08211830FEF7A8
:10388000A8FF00236360E360237554E02B79A268EE
:10389000DBB2002A2AD02269137023690133236125
:1038A000A368013BA360A368002B44D1019B002BBC
:1038B00013D1231C2C331B78002B06D19823009A9C
:1038C0005B0513436A4612791A70E37D002B04D01E
:1038D000201C20211830FEF77CFF00236375236134
:1038E000236BF8B22021002B20D124E0072321E014
:1038F0006368002B1DD0E3681A782B1C80210C33E1
:1039000049050B431B78002BF7D02A71E36801337C
:10391000E3606368013B63606368002B0BD1E36085
:103920002375236B002B06D01021F8B2626B9847E9
:1039300001E00623237009B0F0BDC0467C600000A2
:103940004802002084235B0503431A7800239A422F
:1039500009D0802301305B0518430378012B01D087
:10396000024B00E0024B181C7047C04680841E00CA
:1039700000127A0010B50D4A831D13431B78DBB289
:10398000002B10D0012B08D1041CFFF7DBFF084BE4
:1039900008341C432378D84006E00020022B03D1D2
:1039A000044B186800E0044810BDC0460000081130
:1039B000000090104C020020006CDC020B4A831DBA
:1039C00013431B78DBB2012B06D0181E0CD003204A
:1039D000022B09D0052007E0802301305B05184346
:1039E00000784342584101307047C046000008113A
:1039F000021C031C9C2018334005034380201870D0
:103A00000020064B134318700548931D03431B7891
:103A1000D8B20028F8D1034B0B60704700000813A0
:103A200000000811006CDC02F8B5041C0D1C171C0A
:103A30001E1CFFF7C3FF012802D1002D04D007E0B0
:103A4000022805D1012D03D1201C311CFFF7D0FF26
:103A50008022631C520513431D70842302225B05E0
:103A600023431A70231C0C4A083313437A00D2B242
:103A70001A704022094B23431A70094AA31D1343AD
:103A80001B78012BF9D1002D01D1064A00E0064A2E
:103A90003A4100203260F8BD000090100000081389
:103AA0000000081180841E0000127A000A4B10B535
:103AB0001C681A1C0123002C0CD08024074B0343E4
:103AC0001C70074C831D23431B78022BF9D113680C
:103AD0000B600023181C10BD4C02002000000813CE
:103AE000000008119C23C9015B051843C9B201708D
:103AF0007047942349015B051843C9B201707047B0
:103B000070B506680C1C301C2049FCF73DFD1F49B0
:103B1000051C301CFCF7BEFD0E1C081CE121090130
:103B2000FCF732FDE121E0800901301CFCF7B2FD19
:103B30000E1C081C3C21FCF727FD3C212081301C79
:103B4000FCF7A8FD6E22124BA1722380FF3223885E
:103B500095420BD9AD1A032201339BB22380B721C2
:103B600013405A1E93414900CA1AF0E709499B07BE
:103B700000D109490123CA5C954201D8638003E062
:103B80000133AD1A0D2BF6D1A58070BD8051010017
:103B9000B2070000A76000009A60000030B5114A2B
:103BA0000188031C8A180020812A19D85A88541EBB
:103BB0000B2C15D89C88651E1E2D11D8DD88172D5D
:103BC0000ED81D893B2D0BD89B7A3B2B08D88B0731
:103BD00001D0054B00E0054B9B5CA3424041C0B2C5
:103BE00030BDC0464EF8FFFFA76000009A6000009D
:103BF00070B5124A838804889A186E23FF33634392
:103C00004588D318A2089B180D4A6E00B25A9B181B
:103C1000A20702D1022D00D8013B0B60E1233C2218
:103C2000C4881B015C4303895343827AE3189A18C2
:103C30000868044B4343D3180B6070BD4A05F5FF79
:103C40008060000080510100084B1A6880231B022D
:103C50009A4209D1A02310305B0518430368002B5A
:103C600002D10133FF3303607047C0464C0200208D
:103C7000021C802110B500230124490510320A439B
:103C80001460136090224360520504601C300243AC
:103C900013608822520502431360842252050243B6
:103CA00008431360036010BD031C902214335205B7
:103CB000134300221A604260103201601A6070479C
:103CC00003680B6070470000114B820070B5D55837
:103CD0008022104B92051A60041C281CFFF7C8FFB5
:103CE000281CFFF7B1FF01201F22011C0A4B0B4EBD
:103CF0001B5D345D134099402240C0250B1C904051
:103D000007496D004B5148510B60086070BDC046BB
:103D1000B86000003C80845EB5600000B4600000C4
:103D200000E100E0F7B50027114B8000C658081CE1
:103D30000D1C0197FFF732FF041EBC4216D001A9EB
:103D4000281CFFF755FF381CFEF77AFF011C802066
:103D50000002814206D0FCF717FC011C0198FCF719
:103D600013FC0190301C0199FFF79EFF201CFEBD43
:103D7000B8600000F7B50025124B8000C4580E1C37
:103D8000201C01A90195FFF79BFF281CFEF758FF97
:103D9000051C8020000285420ED00B4B291C0434E8
:103DA0001C43FCF7F1FB2768019C291C4443B8B273
:103DB000FCF7EAFB20180190311C01A8FFF7A0FED8
:103DC000F7BDC046B860000000007810F0B50026CE
:103DD000184B800085B0C458081C0F1C0192039634
:103DE000FFF7DCFE051EB54201D100251EE0381CA0
:103DF00003A9FFF7FDFE301C2768FEF721FF011C19
:103E000080200002814206D0FCF7BEFB011C039813
:103E1000FCF7BAFB0390039BBB42E6D3A360882365
:103E20001C345B051C43019B9B002360281C05B0D0
:103E3000F0BDC046B86000008822044B8000C35823
:103E400052051C331343890019607047B8600000A5
:103E50008822054B8000C358520514331343186859
:103E6000431E9841C0B27047B86000006B46E02224
:103E70001B78D2021B04134009071943014BC018D9
:103E8000016070474410000008B5084B8200D35809
:103E900090220333520513431B78002B02D000F00D
:103EA00015F901E000F07AF908BDC046C0600000D5
:103EB00008B50C4B8000C2580B4B0021C3589C2006
:103EC00003334005184311710170942040050343EA
:103ED0001970137F8B4203D02032101CFEF767FC51
:103EE00008BDC04654020020C0600000F7B5061CA3
:103EF0001C4B30220C1C8700081C0021FD5800F0D0
:103F0000DCFB301CFEF7A8FEFEF75AFE2060281CE2
:103F100000F0E1FA201C00212030FEF741FCEB1CF0
:103F200001939023019A5B0513431022281C1A70F9
:103F3000032100F010FB281C002100F032FB0A4B8B
:103F4000FC500A4B9A5D1F23134001229A40131C18
:103F5000074A13609823019A5B05134340221A70A5
:103F6000F7BDC046C060000054020020BC600000E5
:103F700000E100E0F8B50D4E84000D4BA759051C7B
:103F8000E05800F0A8FA381C2030FEF720FC094B5E
:103F9000281C5A5D1F23134001229A40131C064A15
:103FA000D367FEF75EFE0023A351F8BD5402002044
:103FB000C0600000BC60000004E100E00A4B80002B
:103FC00070B5C658094B0C1CC358151C301C1A6818
:103FD000096800F087FA28602179301C6279A3799A
:103FE00000F0CCFA70BDC046C06000005402002052
:103FF000F7B51E4A83009C581D4A9E582279042317
:10400000002A31D1071C002902D001AAFFF7D6FFF0
:10401000982300214020F21C5B051343197018708F
:1040200025698D4203D1381CFFF742FF1BE00123B5
:10403000237194235B053343A16119780723002979
:1040400012D0A368191E02D019780133A360B17190
:104050002369013B2361A3690133A3619C235B05B1
:104060001A43802313700023181CFEBD5402002045
:10407000C0600000F8B5134F134C85002C59ED5962
:104080000127069E2777A2602661E3606661FFF73D
:10409000AFFF061E14D1201C07992030FEF7CAFB83
:1040A0000328F8D000280BD09C210022EB1C4905E6
:1040B000194322710A709421032649050B431A7093
:1040C000301CF8BDC06000005402002010B51E4B2B
:1040D0008200D3581D4951581A79002A32D05A69A2
:1040E000002A11D09C2252050A431278002A0BD0D4
:1040F0008A79DC68D2B2002C03D02270DA680132EF
:10410000DA605A69013A5A611A69002A12D0942277
:1041100052050A431278002A0CD09A68141E02D065
:10412000147801329A608C711A69013A1A619A699D
:1041300001329A611A69002A04D15B69002B01D10E
:10414000FFF7B6FE10BDC04654020020C06000005C
:10415000104A80008158002208B50F4B0331C35824
:10416000581CC2779C2040050843DA621A701A83F3
:104170005A629A621A6302709420400501430A70E1
:104180001A1C38321278002A03D0181D0121FEF7BC
:1041900020FB08BDC06000005402002038B5254B4C
:1041A0008200D35824495258591CC97F00293FD056
:1041B000D96A002916DB94214905114309780029A1
:1041C00010D0596A1C7F002905D0DD6A002D02DD60
:1041D0000C78013159629471D96A0139D962596BED
:1041E00001315963D96A002905DA9424D11C640588
:1041F000214300240C70196B002911DD9C21490515
:104200001143097800290BD09279996AD2B200291A
:1042100003D00A709A6A01329A621A6B013A1A63E1
:10422000DA6A002A04DC1B6B002B01DCFFF790FF2D
:1042300038BDC04654020020C0600000012903D0F0
:10424000032909D1842300E094235B0518430078F7
:10425000431E9841C0B200E000207047034B01307C
:1042600049011843C9B201707047C0460000881266
:10427000942302305B0549011843C9B201707047AD
:10428000034B023089011843C9B201707047C04620
:10429000000008138C2302305B05C9001843C9B223
:1042A00001707047F7B5384EC21C164337780B784B
:1042B000FFB20122072B65D8041C181C0D1CFCF74B
:1042C00059F904192A0D192A2A3A00232F480134D2
:1042D000044323703378012BFCD152E00322012FD9
:1042E00050D1402329480134044323703378042BF0
:1042F000FCD146E00021012B01D0042302213078BB
:10430000032298423ED1201CFFF7A8FF0421204A37
:1043100013698B4333E00227BB4207D100270B7997
:10432000BB4203D04979201CFFF7AAFF194801348A
:104330000443277019E004231649621C0A431370D2
:104340006A78A31C0B431A706B78002B06D1AB78EC
:10435000002B03D0E978201CFFF78AFFAB79002BF4
:1043600003D0E979201CFFF795FF04213378084A30
:10437000DBB20193019B0133019313690B4313617A
:1043800030BF0022101CFEBD00003010000088125B
:1043900000ED00E000001010024B033018430078DD
:1043A000C0B270470000301014308023012A04D1BD
:1043B0008A401B051843026005E0DB041843012313
:1043C0008B40D9430160704701238B40002A01D004
:1043D000436000E0836070470023C2220370437093
:1043E0008370C37043718371C371037242728372AD
:1043F000C3727047F0B5002789B00393FA230125F3
:104400003C1C9B0053430690079102936D42019719
:104410000123A3400493174B9E1CCA330593049BAE
:10442000318807985943FCF7AFF8029B029AC31AE8
:10443000824200D9131AAB4204D2B21E17780194FB
:104440001D1E03D0059B04369E42E8D10134032C87
:1044500001D0002DDCD1039B002B00D01D603F2339
:104460001F40019B9B011F43069BFFB25F7009B079
:10447000F0BDC046DA600000942302305B050343C0
:104480001B78002B04D088235B051843042303E02A
:1044900080231B0518433023037070479422831C2C
:1044A00052051A431278011C0220012A12D18022DF
:1044B000D2041343CF221A708022D2002023C8785E
:1044C000034004D0013A002A03D0C046F6E7181C86
:1044D00000E0092070470423C370002383704370F9
:1044E00003717047F0B5130B89B0012504930823BD
:1044F00000266D4203935B19079005910692029383
:1045000002270024731C191C069879430193FCF7B9
:104510003BF8059B834206D31B1A9D4203D91D1C01
:1045200004900394029601347F00092C02D0002DE0
:10453000E8D104E0072E02D0019E002DE0D17022C8
:10454000029B04981B011340039A1343079ADBB2A2
:10455000537009B0F0BD8422C31C52051A430123D5
:104560000B405B00DBB2137090238907C90F5B051A
:10457000023009011843C9B20170704710B58C248C
:1045800003306405C9000443C9B221708821920038
:1045900049050143D2B20A708022520510430370CC
:1045A00010BD8023012202305B0503430A401A70CC
:1045B0008C238907C90F5B05C9001843C9B2017074
:1045C0007047011C002008B5021C031C00F03EF9D6
:1045D00008BD0000014B18687047C046A4FFFF1FCC
:1045E000084B10B5041C002B02D0002100F08AF902
:1045F000054B1868836A002B00D09847201C00F0F8
:10460000F5F9C04605490000A461000038B5074B24
:10461000074C1D1CE41AA410002C04D0013CA3007C
:10462000EB589847F8E701F0C5FD38BDCC610000B4
:10463000D06100000E4B70B500251E1C0D4CE41A15
:10464000A410A54204D0AB00F35898470135F8E711
:1046500001F0AAFD084B00251E1C084CE41AA4100A
:10466000A54204D0AB00F35898470135F8E770BD78
:10467000C8610000C8610000C8610000CC61000092
:1046800008B5034B011C186800F066F808BDC04669
:10469000A4FFFF1F08B5034B011C186800F016F8B3
:1046A00008BDC046A4FFFF1F002310B5934203D0EE
:1046B000CC5CC4540133F9E710BD031C821893424B
:1046C00002D019700133FAE77047000030B50029B5
:1046D0003ED004390B68002B00DAC9181D4A136854
:1046E000141C002B02D14B60116031E099420DD2B5
:1046F00008680A189A4203D11368C3180B605368FC
:104700004B60216024E08A4203D8131C5A68002AB7
:10471000F9D11D685C198C420BD1096869185818C9
:104720001960904214D110685268091819605A60D3
:104730000EE08C4202D90C23036009E008680C18D3
:10474000944203D114685268001908604A605960A5
:1047500030BDC0465C020020032370B5CC1C9C43D6
:104760000834051C0C2C01D20C2405E0002C03DAC3
:104770000C2300202B6042E08C42F9D3204A1368BE
:10478000101C191C002913D00A68121B0DD40B2A07
:1047900002D90A608B181FE08B4202D15A6802606E
:1047A0001BE04A685A600B1C17E00B1C4968E9E7DC
:1047B000144E3368002B03D1281C00F025F830601C
:1047C000281C211C00F020F8031C421CD0D003221E
:1047D000C61C964386420AD11C60181C07210B3068
:1047E0001A1D8843821A0AD05142995007E0311AA3
:1047F000281C00F009F8431CBAD0331CECE770BD4C
:104800005C0200205802002038B50023064C051C2D
:10481000081C2360FCF73AF8431C03D12368002BE3
:1048200000D02B6038BDC046F0020020031C0A787F
:1048300001311A700133002AF9D170470023C25C9C
:104840000133002AFBD1581E70470000F7B52A4DEE
:10485000061C2C680091171C0193002C01D1274CD9
:104860002C6063681F2B15DD254B002B02D1012026
:10487000404240E08C20FFF703FF041EF7D02A6877
:1048800000230260021C88324360286013609E424D
:104890000AD128E0002E26D0231C8833186800286F
:1048A00010D1174B002BE2D084204000FFF7E8FE28
:1048B0000028DCD0031C0022FC335A609A60231CC1
:1048C00088331860012261688A408B00C31880C356
:1048D000FC304168114341600199D967022E02D131
:1048E00083681A438260002063685A1C6260023346
:1048F000009A9B001A51FEBDEC02002060020020CD
:1049000081460000F0B587B005900391344D2C68C6
:10491000002C63D0231C88331E6863685A1E0192E2
:10492000304A9B189B00F7180433E3180293019B4D
:10493000002B3DDB039B002B07D0002E31D03B1C0E
:1049400080331B68039A93422BD16268029B0199C2
:10495000013A5B68914201D1616002E00022029954
:104960004A60002B1DD062680492002E07D00122FD
:1049700001998A40311CFC314868104201D19847A6
:1049800008E08968114203D105983968984701E029
:1049900038689847049B62689342B7D12B68A3425A
:1049A000B4D1019B043F013B0193029B043BBDE753
:1049B0000D4B002B12D062682368002A0BD1002B0C
:1049C00009D02B60002E02D0301CFFF763FE201CA4
:1049D000FFF760FE9BE7251C1C1C99E707B0F0BDA4
:1049E000EC020020FFFFFF3F95460000FEE7C046B7
:1049F0001B5B306D1B5B343B34336D1B5B313B33D6
:104A0000376D0D53616E69747920636865636B203F
:104A10006661696C6564211B5B306D0A001B5B304D
:104A20006D1B5B343B34316D1B5B313B33376D0D9C
:104A3000496E76616C696420737570706C7920764C
:104A40006F6C74616765205B25645D206D56211B6A
:104A50005B306D0A004D6561737572656D656E74CE
:104A6000206E756D6265722C205254432D3E545356
:104A7000522C205254432D3E5450522C002052545C
:104A8000432D3E5453522C205254432D3E545052E9
:104A90002C202320436F6E666967204572726F7207
:104AA000730025752C2025642C2025642C002025DE
:104AB000642C2025642C2025640A000D09307825FB
:104AC000303278202D2D3E205B3078253032782012
:104AD000307825303278203078253032785D0A0001
:104AE0000D09307825303278202D2D3E2030782564
:104AF0003032780A000D09307825303278202D2D9B
:104B00003E202D2D2D2D0A000D0A0925642F256428
:104B1000207375636365737320726174652E0A0078
:104B20000D0925642F2564207375636365737365B0
:104B300073206D617463686564207265662E2076EB
:104B4000616C7565206F66203078253032782E0ACA
:104B5000000D0925642062616420636F6D6D616ED4
:104B600064732E0A0A000D0A094144584C33363248
:104B700020526561642041626F727465642E204426
:104B800065766963652044697361626C6564203A87
:104B900028000D0A094D4D413834353151205265F8
:104BA00061642041626F727465642E204465766989
:104BB00063652044697361626C6564203A28000D66
:104BC0000A0A424D45363830205265616420416200
:104BD0006F727465642E204465766963652044694C
:104BE0007361626C6564203A28000D0A09424D58D1
:104BF000303535616363656C2052656164204162C4
:104C00006F727465642E204465766963652044691B
:104C10007361626C6564203A2820000D0A09424DD8
:104C2000583035356779726F205265616420416272
:104C30006F727465642E20446576696365204469EB
:104C40007361626C6564203A2820000D0A092042D5
:104C50004D583035356D6167205265616420416281
:104C60006F727465642E20446576696365204469BB
:104C70007361626C6564203A2820000D0A094D4179
:104C8000473331313020526561642041626F727464
:104C900065642E20446576696365204469736162AA
:104CA0006C6564203A2820000D0A094C33474432D1
:104CB000304820526561642041626F727465642ED1
:104CC000204465766963652044697361626C65643C
:104CD000203A2820000D0A094C5053323548205202
:104CE0006561642041626F727465642E204465764C
:104CF0006963652044697361626C6564203A2820A9
:104D0000000D0A095443533334373235205265615C
:104D1000642041626F727465642E20446576696315
:104D2000652044697361626C6564203A2820000D37
:104D30000A09534934373035205265616420416295
:104D40006F727465642E20446576696365204469DA
:104D50007361626C6564203A2820000D0A0948449A
:104D6000433130303020526561642041626F72748B
:104D700065642E20446576696365204469736162C9
:104D80006C6564203A2820000D0A095349373032F7
:104D90003120526561642041626F727465642E2017
:104DA0004465766963652044697361626C6564205B
:104DB0003A2820000D0A0943435338313120526507
:104DC00061642041626F727465642E204465766967
:104DD00063652044697361626C6564203A28200031
:104DE0000D0A09414D47383833342052656164203B
:104DF00041626F727465642E204465766963652034
:104E000044697361626C6564203A2820000D0A09C8
:104E100041533732363220526561642041626F72ED
:104E20007465642E20446576696365204469736106
:104E3000626C6564203A2820000D0A09415337321C
:104E4000363320526561642041626F727465642E4E
:104E5000204465766963652044697361626C6564AA
:104E6000203A2820000D09496E76616C696420772C
:104E700061727053656E736F724465766963652005
:104E80005B25645D2070617373656420746F2072AC
:104E900065706561745265676973746572526561A6
:104EA00064466F72446576696365416E644164640B
:104EB000726573732E0A000D09506F7765727570F5
:104EC00020636F6D6D616E64206661696C65642E30
:104ED00020424D583035352064697361626C6564D9
:104EE000200A000D09506F776572646F776E20633A
:104EF0006F6D6D616E64206162616E646F6E65647A
:104F00002E20424D583035352064697361626C65DE
:104F1000640A000D09506F776572646F776E2063C5
:104F20006F6D6D616E64206162616E646F6E656449
:104F30002E204C3347443230482064697361626CE0
:104F400065640A000D09506F776572646F776E2093
:104F5000636F6D6D616E64206162616E646F6E651A
:104F6000642E2054435333343732352064697361DF
:104F7000626C65640A000A0A0A0D426F6F74696EFA
:104F80006720576172702C20696E20332E2E2E20E0
:104F900000322E2E2E2000312E2E2E0A0D000D0A4C
:104FA000494E413231393A0A0D000D0A0A0A0A5BAC
:104FB000202A09090909570961097209700928722B
:104FC00065762E2062290909092A205D0A000D5BF9
:104FD00020200909090920202020202043616D623A
:104FE0007269646765202F2050687973636F6D70F4
:104FF0006C61622020200909090920205D0A0A004D
:105000000D09537570706C793D25646D562C0944FB
:10501000656661756C7420546172676574205265B1
:1050200061642052656769737465723D307825301C
:1050300032780A000D094932433D25646B622F73B3
:105040002C095350493D25646B622F732C0955413F
:1050500052543D25646B622F732C09493243205012
:10506000756C6C2D55703D25640A0A000D09534975
:105070004D2D3E53434743363D3078253032780935
:10508000095254432D3E53523D3078253032780931
:10509000095254432D3E5453523D307825303278D6
:1050A0000A000D094D43475F43313D3078253032CA
:1050B000780909094D43475F43323D307825303246
:1050C0007809094D43475F533D3078253032780ADF
:1050D000000D094D43475F53433D3078253032780A
:1050E0000909094D43475F4D433D307825303278FB
:1050F00009094F53435F43523D3078253032780AD7
:10510000000D09534D435F504D50524F543D307880
:1051100025303278090909534D435F504D435452AD
:105120004C3D30782530327809095343422D3E53A7
:1051300043523D3078253032780A000D09504D43F6
:105140005F52454753433D3078253032780909098D
:1051500053494D5F53434743343D307825303278CF
:10516000095254432D3E5450523D30782530327808
:105170000A0A000D0925647320696E2052544320E9
:1051800048616E646C657220746F2D646174652C67
:1051900009256420506D6772204572726F72730A20
:1051A000000D53656C6563743A0A000D2D2027616C
:1051B000273A207365742064656661756C7420738A
:1051C000656E736F722E0A000D2D202762273A201C
:1051D0007365742049324320626175642072617482
:1051E000652E0A000D2D202763273A207365742051
:1051F000535049206261756420726174652E0A0003
:105200000D2D202764273A20736574205541525490
:10521000206261756420726174652E0A000D2D2074
:105220002765273A207365742064656661756C7420
:105230002072656769737465722061646472657356
:10524000732E0A000D2D202766273A207772697485
:1052500065206279746520746F2073656E736F7258
:105260002E0A000D2D202767273A207365742064CD
:10527000656661756C74205353535550504C592ECC
:105280000A000D2D202768273A20706F7765726419
:105290006F776E20636F6D6D616E6420746F206137
:1052A0006C6C2073656E736F72732E0A000D2D2067
:1052B0002769273A207365742070756C6C2D7570A2
:1052C00020656E61626C652076616C75652E0A00E2
:1052D0000D2D20276A273A2072657065617420724F
:1052E0006561642072656720307825303278206FE0
:1052F0006E2073656E736F72202325642E0A000D75
:105300002D20276B273A20736C65657020756E74AD
:10531000696C2072657365742E0A000D2D20276C50
:10532000273A2073656E64207265706561746564E8
:105330002062797465206F6E204932432E0A000D79
:105340002D20276D273A2073656E64207265706585
:10535000617465642062797465206F6E20535049D2
:105360002E0A000D2D20276E273A20656E61626C93
:1053700065205353535550504C592E0A000D2D2083
:10538000276F273A2064697361626C652053535319
:105390005550504C592E0A000D2D202770273A20C9
:1053A00073776974636820746F20564C5052206D77
:1053B0006F64652E0A000D2D202772273A2073771F
:1053C0006974636820746F2052554E206D6F646558
:1053D0002E0A000D2D202773273A20706F776572F3
:1053E00020757020616C6C2073656E736F72732E04
:1053F0000A000D2D202774273A2064756D702070E7
:10540000726F636573736F722073746174652E0AB3
:10541000000D2D202775273A2073657420493243EB
:1054200020616464726573732E0A000D2D20277845
:10543000273A2064697361626C6520535744206188
:105440006E64207370696E20666F72203130207335
:105450006563732E0A000D2D20277A273A20647584
:105460006D7020616C6C2073656E736F7273206455
:105470006174612E0A000D456E7465722073656C4F
:10548000656374696F6E3E20000D0953656C65633A
:10549000743A0A000D092D20273127204144584C29
:1054A00033363209090928307830302D2D307832E2
:1054B00044293A20312E3656202D2D20332E3556B4
:1054C0002028636F6D70696C6564206F7574292086
:1054D0000A000D092D2027322720424D583035353E
:1054E000616363656C20090928307830302D2D30D8
:1054F000783346293A20322E3456202D2D20332E53
:1055000036562028636F6D70696C6564206F757402
:1055100029200A000D092D2027332720424D58301D
:1055200035356779726F09090928307830302D2DAB
:1055300030783346293A20322E3456202D2D203310
:105540002E36562028636F6D70696C6564206F7508
:105550007429200A000D092D2027342720424D5898
:105560003035356D616709090928307834302D2DC3
:1055700030783532293A20322E3456202D2D2033E2
:105580002E36562028636F6D70696C6564206F75C8
:105590007429200A000D092D20273527204D4D4163
:1055A000383435315109090928307830302D2D3003
:1055B000783331293A20312E393556202D2D20339C
:1055C0002E36562028636F6D70696C6564206F7588
:1055D0007429200A000D092D20273627204C50530E
:1055E00032354809090928307830382D2D30783285
:1055F00034293A20312E3756202D2D20332E365681
:105600002028636F6D70696C6564206F7574292044
:105610000A000D092D20273727204D41473331310E
:105620003009090928307830302D2D307831312972
:105630003A20312E393556202D2D20332E36562046
:1056400028636F6D70696C6564206F757429200A1A
:10565000000D092D202738272048444331303030B1
:1056600009090928307830302D2D30783146293A13
:1056700020332E3056202D2D20352E3056202863F5
:105680006F6D70696C6564206F757429200A000D58
:10569000092D20273927205349373032310909098C
:1056A00028307830302D2D30783046293A20312E70
:1056B0003956202D2D20332E36562028636F6D70DD
:1056C000696C6564206F757429200A000D092D200E
:1056D000276127204C3347443230480909092830D4
:1056E0007830462D2D30783339293A20322E3256F3
:1056F000202D2D20332E36562028636F6D70696C57
:105700006564206F757429200A000D092D20276219
:105710002720424D45363830090909283078414163
:105720002D2D30784638293A20312E3656202D2D11
:1057300020332E36562028636F6D70696C656420A7
:105740006F757429200A000D092D20276427205425
:105750004353333437323509090928307830302D36
:105760002D30783144293A20322E3756202D2D20E5
:10577000332E33562028636F6D70696C6564206F1B
:10578000757429200A000D092D202765272053490B
:1057900034373035090909286E2F61293A20202035
:1057A0002020202020322E3756202D2D20352E353A
:1057B000562028636F6D70696C6564206F7574295D
:1057C000200A000D092D202766272050414E313335
:1057D0003236090909286E2F61292028636F6D7000
:1057E000696C6564206F757429200A000D092D20ED
:1057F0002767272043435338313109090928307876
:1058000030302D2D30784646293A20312E3856201A
:105810002D2D20332E36562028636F6D70696C65F0
:1058200064206F757429200A000D092D2027682730
:1058300020414D4738383334090909283078303051
:105840002D2D3F293A203F56202D2D203F56202830
:10585000636F6D70696C6564206F757429200A0030
:105860000D092D20276A2720415337323632090986
:105870000928307830302D2D30783242293A2032C4
:105880002E3756202D2D20332E36562028636F6D4F
:1058900070696C6564206F757429200A000D092DEC
:1058A00020276B2720415337323633090909283026
:1058B0007830302D2D30783242293A20322E37562A
:1058C000202D2D20332E36562028636F6D70696C85
:1058D0006564206F757429200A000D09456E746592
:1058E000722073656C656374696F6E3E20000D09EC
:1058F000496E76616C69642073656C656374696F69
:105900006E202725632720210A000D0A095365749C
:105910002049324320626175642072617465206998
:105920006E206B6270732028652E672E2C20273026
:1059300030303127293E20000D0A094932432062C8
:1059400061756420726174652073657420746F20C2
:105950002564206B622F73000D0A09536574205370
:1059600050492062617564207261746520696E20FF
:105970006B6270732028652E672E2C202730303004
:105980003127293E20000D0A0953504920626175D4
:105990006420726174653A202564206B622F730065
:1059A0000D0A095365742055415254206261756493
:1059B000207261746520696E206B627073202865A7
:1059C0002E672E2C20273030303127293E20000D25
:1059D0000A095541525420626175642072617465F0
:1059E0003A202564206B622F73000D0A09456E74FE
:1059F000657220322D6E7962626C6520726567690E
:105A0000737465722068657820616464726573736D
:105A10002028652E672E2C2027336527293E20005D
:105A20000D0A09456E7465726564205B3078253017
:105A300032785D2E0A0A000D0A09456E74657220DF
:105A400049324320616464722E2028652E672E2C13
:105A5000202730662729206F7220273939272066B2
:105A60006F7220535049203E20000D0A09456E7484
:105A700065726564205B3078253032785D2E0A00CF
:105A80000D0A09456E746572206865782062797424
:105A90006520746F2073656E642028652E672E2C38
:105AA0002027306627293E20000D0A09535049203F
:105AB0007772697465206661696C65642E20414463
:105AC000584C3336322044697361626C6564000D52
:105AD0000A09493243207772697465206661696CEE
:105AE00065642C206572726F722025642E0A0A008C
:105AF0000D0A094F766572726964652053535355D8
:105B000050504C5920696E206D562028652E672E06
:105B10002C20273138303027293E20000D0A094F2C
:105B200076657272696465205353535550504C59D1
:105B30002073657420746F202564206D56000D0A53
:105B4000094E4F54453A20466972737420706F773E
:105B500065722073656E736F727320616E64206569
:105B60006E61626C65204932430A0A000D0A0944DD
:105B7000656661756C742070756C6C757020656EEF
:105B800061626C652076616C756520696E206B6959
:105B90006C6F4F686D732028652E672E2C20273080
:105BA00030303027293E20000D0A094932635075F4
:105BB0006C6C757056616C75652073657420746FBC
:105BC0002025640A000D0A094175746F2D696E6302
:105BD00072656D656E742066726F6D2062617365AB
:105BE0002061646472657373203078253032783FA9
:105BF000205B273027207C202731275D3E20000DA9
:105C00000A094368756E6B20726561647320706564
:105C10007220616464726573732028652E672E2C70
:105C200020273127293E20000D0A0943686174743A
:105C3000793F205B273027207C202731275D3E20BD
:105C4000000D0A09496E7465722D6F70657261747A
:105C5000696F6E207370696E2064656C617920696C
:105C60006E206D696C6C697365636F6E6473202858
:105C7000652E672E2C20273030303027293E20001B
:105C80000D0A0952657065746974696F6E732070CE
:105C9000657220616464726573732028652E672EB7
:105CA0002C20273030303027293E20000D0A094DA6
:105CB0006178696D756D20766F6C746167652066BB
:105CC0006F7220616461707469766520737570709D
:105CD0006C792028652E672E2C2027303030302715
:105CE000293E20000D0A095265666572656E63657E
:105CF000206279746520666F7220636F6D706172C7
:105D000069736F6E732028652E672E2C20273365EC
:105D100027293E20000D0A09526570656174696E7D
:105D200067206465762564204020307825303278FD
:105D30002C20726570733D25642C2070756C6C3D51
:105D400025642C2064656C61793D25646D733A0A85
:105D50000A000D0A09536C656570696E6720756EDF
:105D600074696C2073797374656D207265736574E2
:105D70002E2E2E0A000D0A094279746520746F20B8
:105D800073656E642028652E672E2C2027463027E9
:105D9000293E20000D0A0952657065746974696FA7
:105DA0006E732028652E672E2C2027303030302748
:105DB000293E20000D0A0953656E64696E6720252F
:105DC000642072657065746974696F6E73206F66A4
:105DD000205B3078253032785D206F6E2049324369
:105DE0002C2069326350756C6C7570456E61626C05
:105DF000653D25642C205353535550504C593D2537
:105E0000646D560A0A000D0A0953656E64696E676F
:105E10002025642072657065746974696F6E7320E3
