S02B00002F686F6D652F6A73323239342F576172702D6669726D776172652F6275696C642F6B73646B312E3121
S113000000060020310500005905000059050000D4
S113001000000000000000000000000000000000DC
S1130020000000000000000000000000590500006E
S11300300000000000000000590500005905000000
S11300405905000059050000590500005905000034
S11300505905000059050000590500005905000024
S113006065260000590500006F26000059050000B0
S11300705905000059050000590500005905000004
S113008059050000590500005905000059050000F4
S1130090E5080000FD0800005905000059050000AE
S11300A059050000590500005905000059050000D4
S11300B059050000590500005905000059050000C4
S1130400FFFFFFFFFFFFFFFFFFFFFFFFFE3DFFFFBB
S113041008B5054B054803331B1A062B03D9044BB7
S1130420002B00D0984708BDACFFFF1FACFFFF1F97
S1130430000000000648074908B5091A8910CB0FC7
S11304405918491003D0044B002B00D0984708BD1D
S1130450ACFFFF1FACFFFF1F0000000010B5074CEE
S11304602378002B09D1FFF7D3FF054B002B02D0D3
S1130470044800E000BF0123237010BDACFFFF1F40
S1130480000000003C61000008B5094B002B03D0BC
S11304900848094900E000BF08480368002B02D15E
S11304A0FFF7C8FF08BD064B002BF9D09847F7E7C4
S11304B0000000003C610000B0FFFF1FA8FFFF1F09
S11304C000000000144B002B00D1124B9D4640222B
S11304D092029A1A924600218B460F461148124AFC
S11304E0121A04F0D6F80D4B002B00D098470C4B91
S11304F0002B00D098470020002104000D000B4879
S113050004F04BF804F082F82000290000F0E0FD2C
S113051004F052F80000080000060020000000006B
S113052000000000ACFFFF1FF4020020E5450000BE
S113053072B606480649074A02600A6002F09CF84F
S113054002F0DCF862B6FFF7BDFF000080E100E0D6
S113055080E200E0FFFFFFFF00480047590500006C
S113056002B4714649084900095649008E4402BC48
S11305707047C04602B4714649084900095C490005
S11305808E4402BC7047C046002243088B4274D399
S113059003098B425FD3030A8B4244D3030B8B4280
S11305A028D3030C8B420DD3FF22090212BA030C89
S11305B08B4202D31212090265D0030B8B4219D36A
S11305C000E0090AC30B8B4201D3CB03C01A52418A
S11305D0830B8B4201D38B03C01A5241430B8B42D2
S11305E001D34B03C01A5241030B8B4201D30B03BB
S11305F0C01A5241C30A8B4201D3CB02C01A5241E2
S1130600830A8B4201D38B02C01A5241430A8B42A4
S113061001D34B02C01A5241030A8B4201D30B028D
S1130620C01A5241CDD2C3098B4201D3CB01C01AA7
S1130630524183098B4201D38B01C01A52414309B1
S11306408B4201D34B01C01A524103098B4201D39F
S11306500B01C01A5241C3088B4201D3CB00C01A0C
S1130660524183088B4201D38B00C01A5241430884
S11306708B4201D34B00C01A5241411A00D20146A9
S1130680524110467047FFE701B5002000F0FCF826
S113069002BDC0460029F7D003B5FFF775FF0EBCB5
S11306A04243891A1847C04603460B437FD40022AD
S11306B043088B4274D303098B425FD3030A8B42F2
S11306C044D3030B8B4228D3030C8B420DD3FF225C
S11306D0090212BA030C8B4202D31212090265D02A
S11306E0030B8B4219D300E0090AC30B8B4201D3DD
S11306F0CB03C01A5241830B8B4201D38B03C01A24
S11307005241430B8B4201D34B03C01A5241030B9A
S11307108B4201D30B03C01A5241C30A8B4201D34B
S1130720CB02C01A5241830A8B4201D38B02C01AF6
S11307305241430A8B4201D34B02C01A5241030A6D
S11307408B4201D30B02C01A5241CDD2C3098B4252
S113075001D3CB01C01A524183098B4201D38B01CF
S1130760C01A524143098B4201D34B01C01A524172
S113077003098B4201D30B01C01A5241C3088B42B7
S113078001D3CB00C01A524183088B4201D38B00A2
S1130790C01A524143088B4201D34B00C01A524144
S11307A0411A00D201465241104670475DE0CA0F1B
S11307B000D04942031000D34042534000229C46DB
S11307C003098B422DD3030A8B4212D3FC228901E5
S11307D012BA030A8B420CD3890192118B4208D3BB
S11307E0890192118B4204D389013AD0921100E01D
S11307F08909C3098B4201D3CB01C01A5241830931
S11308008B4201D38B01C01A524143098B4201D35D
S11308104B01C01A524103098B4201D30B01C01A88
S11308205241C3088B4201D3CB00C01A5241830802
S11308308B4201D38B00C01A5241D9D243088B4258
S113084001D34B00C01A5241411A00D201466346FB
S113085052415B10104601D34042002B00D549425F
S1130860704763465B1000D3404201B5002000F09E
S11308700BF802BD0029F8D003B5FFF715FF0EBC35
S11308804243891A1847C0467047C04608B50A4B08
S11308901A68002A01D1094A1A601A68084910180E
S11308A0884206D903F082FE0C23036001204042F3
S11308B001E01860101C08BDC8FFFF1FF8020020EB
S11308C0F80200200223807883428041404270472E
S11308D0437A0020013B012B03D901200B7801331B
S11308E00B70704708B5002003F09EFA002803D06F
S11308F00020011C03F08CFA08BD0000024A1368B2
S1130900013313607047C0460800002037B500204B
S113091002F08EF9C02300250D4A9B0013600D4A96
S11309200D4C13600D4A281C13600D4B2571657125
S1130930A5711A68FA239B0053430A49236003F004
S1130940C1FA281C211C01AA03F024FB37BDC046B0
S1130950189014541C901454F0FFFF1F00A014545A
S113096018FEFF1F0C00002008B5002003F0EEFA6B
S113097080230A4A5B001360094A08201360094A6D
S1130980136002F0EFFB062002F0ECFB092002F0FA
S1130990E9FB002002F051F908BDC0461890145438
S11309A01C90145400A0145408B5002002F04AF915
S11309B08023054A9B001360044A00201360044905
S11309C002F0B0FC08BDC0460CA0145410A014548E
S11309D0CCFFFF1F08B5002002F0E0FC802382203A
S11309E0074A5B001360074A4000136002F0BAFB39
S11309F00420FF3002F0B6FB002002F028F908BD05
S1130A000CA0145410A0145408B50023354A3649D8
S1130A101360364A1360364A0133FF331360354A94
S1130A201360354A1360354A1360354A1360354AFA
S1130A301360354A1360012208780240081C3349C8
S1130A40002A01D00B6000E00A60314A314913608A
S1130A5000220A6030490A60304A1360304A136049
S1130A60304A1360304A1360304A1360304A1360CE
S1130A700378DB0703D50220FF3002F065FB092071
S1130A8002F070FB0C2002F06DFB052002F06AFB03
S1130A90082002F067FB0620FF3002F063FB0E2003
S1130AA0FF3002F05FFB8320400002F05BFB082074
S1130AB0FF3002F057FB0C20FF3002F045FB822090
S1130AC0400002F04FFB0420FF3002F04BFB0820F3
S1130AD002F048FB062002F045FB092002F042FB2D
S1130AE008BDC0460C90145410FEFF1F10901454FF
S1130AF014901454189014541C90145420901454AA
S1130B00249014543090145400A0145404A0145489
S1130B1008A014540CA0145410A0145414A0145479
S1130B2018A014541CA0145428A014542CA0145419
S1130B3034A0145408B5092002F014FB08BD08B50C
S1130B400C2002F00FFB08BD08B5384B984259D071
S1130B5013D8374B984243D007D8364B984230D0FD
S1130B606433984238D0C83B12E0334B98423ED0AD
S1130B706433984242D0314B15E0314B98422FD028
S1130B800CD8304B98421CD06433984224D02E4B5E
S1130B90984242D1052002F0E5FA15E02B4B984229
S1130BA025D006D82A4B984237D1052002F0DAFA2C
S1130BB020E0C8231B01984220D0264B984221D024
S1130BC02BE0052002F0C0FA082002F0CBFA062040
S1130BD0FF3002F0C7FA24E0052002F0C3FA02E075
S1130BE0052002F0B1FA082002F0AEFAEFE7052082
S1130BF002F0AAFA082002F0B5FA09E0052002F092
S1130C00B1FA02E0052002F09FFA082002F09CFAF3
S1130C100620FF3002F098FA03E000200E4901F0AC
S1130C2015FD0E4B186801F02DFE08BDC409000027
S1130C30340800006C070000FC080000980800005D
S1130C40540B00008C0A0000280A00001C0C000051
S1130C50B80B0000E40C0000C84900000CFEFF1FA4
S1130C6008B5FFF771FF092002F06EFA0C2002F0BC
S1130C7079FA8320400002F075FA08BD08B5FFF741
S1130C8063FF092002F06EFA0C2002F05DFA832063
S1130C90400002F059FA08BDAF2108B50B4B021C05
S1130CA0C3189BB289008B4202D8FFF7D9FF0BE02F
S1130CB0074BC3189BB28B4202D8FFF7DFFF03E058
S1130CC00020044901F0C2FC08BDC046F8F8FFFF4B
S1130CD0D8F5FFFFF549000008B5FFF72BFFFFF734
S1130CE02EFF8320400002F02FFA024B186801F017
S1130CF0C9FD08BD0CFEFF1F10B5041C002901D05E
S1130D00FFF782FE0021022000F0B0FF211C042026
S1130D1000F0ACFF10BD08B501200021FFF7ECFF87
S1130D203C200121FFF7E8FFF6E7000073B5161C2D
S1130D30002815D01649002001F078FA154C2068D7
S1130D4001F0A0FD1449002001F070FA206801F0C0
S1130D5099FD0020114901F069FA206801F092FD23
S1130D6000250F4C0F4923686268002000922A1C5A
S1130D7001F06CFC002022680B496368009001F0CC
S1130D8065FC002E02DD301C01F07CFD0135E8E736
S1130D902D4A000000FEFF1F554A00000C5A0000B7
S1130DA000D003407A4A0000864A0000F0B591B0B2
S1130DB01D1C16AB0C91197817AB05921A7818AB59
S1130DC01B78041C0D931CAB1B780EA80E931DAB53
S1130DD01B88089321231B18DB7F09931FAB1B88F7
S1130DE00F9320AB1B780A930B1C914200D9131C60
S1130DF0DFB2059B002D02D1002B06D101E0002BB0
S1130E0003D00020544901F021FC0898FFF744FF67
S1130E10211C002001F00AFA0023089C029303938A
S1130E200793049300230693069A199B93426BDB62
S1130E3000261A9B9E4264DABB190B932C226B4644
S1130E409B18187801210C9B9847002838D1049BE3
S1130E5001330493089B9C4204D9643CA4B2201C33
S1130E60FFF71AFF002D16D0099A6B7BD31A5A424A
S1130E705341039AD31803930A9B002B39D0EB7A7E
S1130E80287B697B00900191DBB2F2193349002081
S1130E9001F0DCFB2DE0059B099A1B7AD31A5A4218
S1130EA05341039AD31803930A9B002B21D0059B2B
S1130EB0F2191B7A281CDBB2294901F0C7FB18E0A0
S1130EC0022810D1002027490B9A01F0BFFB079B91
S1130ED0013307930F9B9C420BD26434A4B2201CB1
S1130EE0FFF7DAFE05E0033843425841029B1B1822
S1130EF002931B9B002B02DD181C01F0C3FC01367E
S1130F0097E7069B01338EE70E9B002B04D07B1CD6
S1130F10DFB20D9B9F4285D9049A079B94461249E0
S1130F206344002001F092FB322001F0ABFC099BEA
S1130F30039A00930D49049B002001F087FB3220A3
S1130F4001F0A0FC0A49029A002001F07FFB322044
S1130F5001F098FC11B0F0BDC8490000934A0000AC
S1130F60B84A0000CD4A0000E04A0000F84A0000F8
S1130F70294B0000031C303B021C181E09280CD905
S1130F80131C613B052B01D8573A05E0131C413B68
S1130F900020052B01D8373A101C704770B501F0BA
S1130FA060F9051C01F05DF9FF24061C281C204093
S1130FB0FFF7E0FF051C301C2040FFF7DBFF2D018D
S1130FC02818C0B270BD70B501F04BF9041C01F0D3
S1130FD048F9061C01F045F9051C01F042F9FF230C
S1130FE0FA221C401D409200303C544364212A1CC8
S1130FF01E40303E4E43303A5A394A43A419034006
S1131000A218303BD01870BD70B50C1C161C88B0EB
S11310100CAA157806A908800A4A05A805700A4D85
S113102012682D684A6004AA167000900193029514
S1131030231C002002F0D8FA431E9841400008B057
S113104070BDC04614FEFF1F08FEFF1FF7B56A46B9
S1131050CB1DDB08DB00D31A02AF9D46051C0C1C1C
S1131060FFF754FCFA23002002AE9B002A1C0094D4
S11310700193011C331C02F0E9FF041CFFF774FC0C
S1131080201CBD46441EA0418000F2BD08B50020CE
S1131090014901F0CBF808BD8F4E000010B5094C92
S11310A00020211C01F0C2F8211C002001F0BEF830
S11310B00549002001F0BAF80449002001F0B6F80F
S11310C010BDC046BB4E0000EB4E00001C4F00009C
S11310D0F0B5B9B025AC0021201C072203F0D9FAE1
S11310E0FA4A01262C92032215AB2F9317AB3093A7
S11310F01BAB33931DAB34931FAB359321AB3693AA
S113110023AB37932CAB19AF1A71002011AA2E927E
S1131110149326703194329701F082FD301C01F053
S11311207FFD8022EA4B12021A6001F0C9FB002005
S11311300096021C031C011C01F09AF8E5490020EA
S113114001F074F8C82001F09DFBE349002001F090
S11311506DF8C82001F096FBE049002001F066F824
S1131160C82001F08FFBDE4A331C0221DD4801F068
S1131170CBFB311C301C01F0D3FB0020002502F016
S11311808FFDFC2329A9DB00281C0B804E808E8058
S1131190CD800D818D7202F0B1FD291C321C11A885
S11311A003F077FA259B60201993A28804A9BA80DA
S11311B0A2790918BA7103223A701B93A2880230EB
S11311C00A80A27904A909180A700522063804A91C
S11311D009180A701593A288143804A909180A80FA
S11311E0A279023004A909180A704421022704AA2A
S11311F0521817701793A288063004A909180A8098
S1131200A279C01904A909180A704C2104AA521819
S1131210483911701D93A288163004A909180A8050
S1131220A279C01904A909180A700822063804A969
S113123009180A701F93A2880C3004A909180A809F
S1131240C019A27904A909180A700921063804AA48
S1131250121811702193A3880C3004AA1218138059
S1131260A379C01904AA121813700A23063804AA11
S1131270121813707C2204AB9B181D7014AA331C23
S11312802FA801F02DFD291C381C00F0EFFC964915
S1131290964801F03DFFFFF7B7FB0820FF3001F04F
S11312A053FFC82001F0EEFA0820FF3001F05AFF86
S11312B0C82001F0E7FA0820FF3001F045FFC820FC
S11312C001F0E0FA0820FF3001F04CFFC82001F0E3
S11312D0D9FA0820FF3001F037FFC82001F0D2FA14
S11312E00820FF3001F03EFF814C4020211C00F01B
S11312F033FDFFF7F1FC00F08DFD0423009502930C
S113130001962B1C0395049605950696079508955A
S113131009950A9677487849221CFFF747FD8023F0
S11313201B020D950E950C937449002000F07EFF6E
S1131330734C744F206801F0A5FA7349002000F043
S113134075FF206801F09EFA70490D9A0E9B0020EB
S113135001F07CF9206801F095FA6D4D6D4E6E49EF
S11313602A6833680968002000910C9901916B493F
S113137001F06CF9206801F085FA694B694A002094
S1131380D2587B6939680091674901F05FF9206898
S113139001F078FA654B65491A785B788979D2B29D
S11313A0DBB200910020624901F050F9206801F09D
S11313B069FA5E4B5F491A7A1B7E0978D2B2DBB2B6
S11313C0009100205C4901F041F9206801F05AFACB
S11313D05A4B5B491A785B780969D2B2DBB2009147
S11313E00020584901F032F9206801F04BFA564BBD
S11313F04C499A78554BD2B2CB5879680020009169
S1131400534901F023F9206801F03CFA514B524949
S11314101A6811AB1B78002001F018F9206801F05C
S113142031FA4E49002000F001FF206801F02AFA49
S11314304B49002000F0FAFE206801F023FA4949E4
S1131440002000F0F3FE206801F01CFA4649002059
S113145000F0ECFE206801F015FA4449002000F089
S1131460E5FE206801F00EFA4149002000F0DEFE9E
S1131470206801F007FA3F49002000F0D7FE2068F9
S113148001F000FA3C49002000F0D0FE206801F091
S1131490F9F93A49002000F0C9FE206801F0F2F998
S11314A03749002000F0C2FE206801F0EBF90E9AE3
S11314B003233449002001F0C9F8206801F0E2F95F
S11314C03149002000F0B2FE20685FE0D10800003E
S11314D04C0200204E4F0000694F00006F4F000087
S11314E028FEFF1F2CFFFF1F3CFEFF1F2CFEFF1FCB
S11314F0F8FFFF1F764F00005D1D0000824F0000C3
S113150000FEFF1F00D00340A64F0000D84F00008C
S113151014FEFF1F18FEFF1F04FEFF1F0C500000E7
S11315203C1000000070044044500000004006409D
S11315307A50000000500640A950000000E0074027
S113154000ED00E0D950000000D007403410000046
S113155013510000080000204B5100007951000095
S113156083510000A0510000BC510000D85100007C
S1131570F55100001C5200003B5200005A5200007A
S113158085520000A8520000D752000001F07AF9F9
S1131590DE49002000F04AFE206801F073F9DC49BE
S11315A0002000F043FE206801F06CF9D9490020C6
S11315B000F03CFE206801F065F9D749002000F0F6
S11315C035FE206801F05EF9D449002000F02EFEBB
S11315D0206801F057F9D249002000F027FE206866
S11315E001F050F9CF49002000F020FE206801F0FE
S11315F049F9CD49002000F019FE206801F042F9B4
S1131600CA49002000F012FE206801F03BF9C849E5
S1131610002000F00BFE206801F034F9C5490020D9
S113162000F004FE206801F02DF9C349002000F009
S1131630FDFD206801F026F900F013FEFF27021CCF
S11316400F903A406B2A00D13FE200DD04E1652AA5
S113165000D1D8E100DDA4E0622A00D145E100DD3B
S11316608DE00A2A00D19EE2612A00D0A1E2B349AA
S1131670002000F0DBFDB249002000F0D7FD206817
S113168001F000F9AF49002000F0D0FDAE49002080
S113169000F0CCFDAD49002000F0C8FD206801F049
S11316A0F1F8AB49002000F0C1FD206801F0EAF830
S11316B0A849002000F0BAFD206801F0E3F8A6492B
S11316C0002000F0B3FD206801F0DCF8A3490020FD
S11316D000F0ACFD206801F0D5F8A149002000F02D
S11316E0A5FD206801F0CEF89E49002000F09EFD83
S11316F0206801F0C7F89C49002000F097FD20689D
S113170001F0C0F89949002000F090FD206801F034
S1131710B9F89749002000F089FD206801F0B2F87B
S11317209449002000F082FD206801F0ABF8924952
S1131730002000F07BFD206801F0A4F88F49002010
S113174000F074FD206801F09DF88D49002000F040
S11317506DFD206801F096F88A49002000F066FDCE
S1131760206801F08FF88849002000F05FFD2068B0
S113177001F088F800F075FD021C3A4019E2632A72
S113178000D12FE1642A00D013E28049002000F048
S11317904DFDFFF718FC7E4B7E4918601A68002047
S11317A009E2682A00D179E111DC662A00D135E129
S11317B0672A00D0FDE17849002000F037FDFFF7EB
S11317C002FC83B20D931A1C00207449F3E1692AC8
S11317D000D16BE16A2A00D0EBE10E9A7049002037
S11317E000F034FF00F03DFD6E49002000F01EFDC6
S11317F000F037FD6C49002000F018FD00F031FDC9
S11318006A49002000F012FDFFF7DDFB6849041C63
S1131810002000F00BFDFFF7D6FB051C65490020F6
S113182000F004FDFFF7CFFB6349002000F0FEFC4D
S1131830FFF7B4FB0C9B6149019303220E9B0095B7
S11318400294002000F002FF0C98FFF7ADF85C4909
S1131850002000F0EBFC35E1722A00D188E10CDCB9
S11318606E2A00D17BE100DA35E16F2A00D17BE1F9
S11318700220702A00D17CE19BE1752A00D185E128
S113188006DC732A00D179E1742A00D14CE590E199
S1131890782A00D17DE17A2A00D08AE149490020E2
S11318A000F0C4FC0C98FFF77FF84749002000F0D3
S11318B0BDFC00F0D6FC4549051C002000F0B6FC38
S11318C0FFF781FB86B24249321C002000F0BEFEC5
S11318D0206800F0D7FFE9B268394D426941012020
S11318E0C9B2321C0C9BFFF721FA3A49002000F0E0
S11318F09DFCFFF768FB28602A68374B9A4201D1A8
S1131900364B2B602A680020354954E1F35200001D
S1131910175300003B530000555300007053000060
S11319208E530000AB530000CA530000E95300007B
S1131930035400002E5400004E5400006154000073
S11319406C540000AA540000EC5400002D55000013
S11319506D550000AD550000EA5500002956000001
S113196067560000A4560000E25600001F5700000E
S11319705E5700009B570000C45700000158000048
S11319803858000075580000B2580000785900001B
S113199004FEFF1FA7590000C85A0000F45A0000B3
S11319A09D5B0000D75B0000005C0000195C000038
S11319B0585C0000845C0000BC5C0000ED5C00002E
S11319C0C24B0000835E00009C5E0000C55E000008
S11319D00D5F0000E25800000F27000010270000F0
S11319E0105900007649002000F020FCFFF7EBFAC4
S11319F030603268734B9A4201D1734B3360326862
S1131A0000207249D7E07249002000F00FFCFFF774
S1131A10C5FA0E906F4900200E9ACCE06E49002062
S1131A2000F004FCFFF7BAFA061C6C4C321C211CB3
S1131A30002000F00BFE6A49002000F0F7FBFFF7DE
S1131A40ADFA12AF021C3870211C002000F0FEFD1C
S1131A50992E02D100206349A7E02B6827AC0D988A
S1131A6028932680FFF718F90C98FEF79DFF38217C
S1131A706B465B181B7813AA13705B4B0020196824
S1131A800123029100970193211C01F0ADFD021E78
S1131A9018D05649002000F0D9FD13E05449002025
S1131AA000F0C4FB0120FFF7F9FA3DE4514900209E
S1131AB000F0BCFBFFF787FA83B20C931A1C0020DA
S1131AC04D4978E0FEF786FF2EE44C49002000F0F3
S1131AD0ADFBFFF720F94649002000F0A7FB484979
S1131AE0002000F0A3FBFFF759FA27AD2870454901
S1131AF0002000F09BFBFFF766FA6B463C229B1824
S1131B001E78041C2B786C2E17D10C9A002000929E
S1131B100D9A3D490192221C00F098FD0025A54232
S1131B2001DBFFF701FC27AB1A780023FF200093A9
S1131B300121FFF769FA0135F1E70D9A00200092BF
S1131B403249221C00F082FD0026A64201DBFFF789
S1131B50EBFB281C0121FFF779FA0136F5E70D9814
S1131B60FFF79AF8FFF7E0FBFFF7B6F8FFF7DCFBA7
S1131B700820002100F07AF8FFF7D6FB1C4900206A
S1131B8000F054FBFFF782FAFFF7CEFB0020204958
S1131B900BE02049002000F049FB0B4800F072FEE6
S1131BA000201D4901E000201C4900F03FFBFFF725
S1131BB0BBFB00201A4900F049FDFFF7B5FBC04606
S1131BC0305900000F270000102700005E59000064
S1131BD0C2590000F85900000F5A0000425A000090
S1131BE0585A0000815A000008FEFF1FA75A00003F
S1131BF0165B0000445B0000805B00002A5D00006F
S1131C004D5D00006C5D00008C5D0000DE5D000039
S1131C101C5E00005A5E0000795E0000455F000013
S1131C20C65800001FB5041C01A9002002F08EF85C
S1131C3001A8694601F0C8FF009B68461C1901A968
S1131C40009401F049FF01A90122002002F0AAF842
S1131C501FBD00000022034B1A608022024B1206B3
S1131C60DA67704700A01C5804E100E010B50A23AD
S1131C7008286FD80C1CFEF77DFC051B283C486225
S1131C806466570001F0C2F90523012862D0FFF70A
S1131C90E1FF201CFFF7C6FF0020011C01F044F8FF
S1131CA0041C0020012100F03BFE002C4FD150E029
S1131CB001F0ACF9062301284CD0FFF7CBFF201C20
S1131CC0FFF7B0FF01200021E8E701F09FF90823A6
S1131CD001283FD000F0ACFE002803D000200121F1
S1131CE000F01EFE0220002101F01EF800282ED173
S1131CF02FE001F08BF9072300282BD0FFF7AAFF70
S1131D00201CFFF78FFF032005E0FFF7A3FF201C33
S1131D10FFF788FF0420002101F006F8041C01F0FD
S1131D2075F90028C1D1BDE70820002100F0FCFFAF
S1131D3000280CD10120011C00F0F2FD09E005206F
S1131D4002E0062000E00720002100F0EDFF092357
S1131D5000E00023181C10BD08707047F0B5154F43
S1131D6089B03B7806A90B80134B05AE1B68307015
S1131D704B60124B02240093FA235B000293F43B62
S1131D8001940020321CFF3B01F03BFC051E09D1ED
S1131D903B7A797A3278DBB20091094900F056FC3B
S1131DA0281C04E00020074900F040FA201C09B078
S1131DB0F0BDC046F8FFFF1F14FEFF1F0000002007
S1131DC0775F0000A55F000013B5041C0C2001F030
S1131DD0BBF90A2000F056FD0C2001F0C3F90E20D7
S1131DE0FF3001F0BFF90123084A0020147000936A
S1131DF0FA239B000193011C054B02F027F9041CF4
S1131E000C2001F0A1F9201C16BDC0465C00002086
S1131E103C00002008B5C023654A9B001360654A56
S1131E201360FEF773FD8023634A5B001360634A0B
S1131E3002201360624A136001F086F9642000F006
S1131E4021FD022001F08EF9642000F01BFD022028
S1131E5001F07AF9642000F015FDAE20FFF7B4FF1D
S1131E60A020FFF7B1FF7220FFF7AEFFA120FFF71C
S1131E70ABFF0020FFF7A8FFA220FFF7A5FF00207B
S1131E80FFF7A2FFA420FFF79FFFA820FFF79CFF06
S1131E903F20FFF799FFAD20FFF796FF8E20FFF755
S1131EA093FFB020FFF790FF0B20FFF78DFFB120C9
S1131EB0FFF78AFF3120FFF787FFB320FFF784FF86
S1131EC0F020FFF781FF8A20FFF77EFF6420FFF7F1
S1131ED07BFF8B20FFF778FF7820FFF775FF8A20C0
S1131EE0FFF772FF6420FFF76FFFBB20FFF76CFF63
S1131EF03A20FFF769FFBE20FFF766FF3E20FFF799
S1131F0063FF8720FFF760FF0620FFF75DFF812056
S1131F10FFF75AFF9120FFF757FF8220FFF754FF86
S1131F205020FFF751FF8320FFF74EFF7D20FFF77E
S1131F304BFFAF20FFF748FF2620FFF745FF0120A6
S1131F40FFF742FF2520FFF73FFF0020FFF73CFF8C
S1131F500020FFF739FF5F20FFF736FF3F20FFF730
S1131F6033FF2220FFF730FF0020FFF72DFF002072
S1131F70FFF72AFF5F20FFF727FF3F20FFF724FF2B
S1131F800020FFF721FFFF20FFF71EFF0020FFF7CF
S1131F901BFF0020FFF718FFFF20FFF715FF0020AD
S1131FA0FFF712FF0020074900F040F9002008BDA8
S1131FB0209014542490145434A014543090145485
S1131FC000A01454C75F00000269C3689A4203D892
S1131FD080681018013800E0501EC01A7047F7B529
S1131FE08368C668051C40680191141C9F1B8019F6
S1131FF0974203D902F044FBA4190AE001993A1C60
S113200002F03EFB019BE41BD9196868221C02F014
S113201037FBEC60F7BD0023F7B5061C171CC56839
S1132020019100933369B468AB4200D81B19013B9A
S11320305B1B641BBC4200D93C1C9C4200D91C1C89
S11320407368221C5819019902F01AFB009B2D1980
S11320501B190093019B3F1B1B190193B368EB1AD7
S11320605A1E93415B421D40F560002FDAD100985F
S1132070FEBD0000022310B50F4C104A23616361BA
S11320800F4BA261E361C823A2640E4A2362E26497
S113209000230422A3626362E362A3656365E365CC
S11320A02265E01D084902F0ADFB201C074902F03F
S11320B0A9FB2023A37110BD48010020E75F0000A5
S11320C0800000207C000020F05F0000F45F00002E
S11320D0F0B5294B171C1A7885B000900191029332
S11320E0002A01D1FFF7C6FF1823009A00255343A5
S11320F0029AD3181A1C503252689C6D039294426F
S11321001BD91B6D3D1C1B1B9F4200D91D1C18268F
S1132110009B2A1C5E43029B01989E19F36C7F1B53
S1132120191902F0ADFA019B64195B190193336D1F
S1132130E31A5A1E93415B421C40039B1E1BBE4282
S113214000D93E1C002E0CD01823009A019853434A
S1132150029AAD19D318D96C321C091902F090FAFD
S1132160A419002D05D01823009A5343024AD3180A
S11321709C65281C05B0F0BD4801002010B50B1C5F
S1132180EFF31084012181F31088191CFFF7A0FFDD
S113219084F3108810BD0000F8B51823451C5D4376
S11321A04343141C134A0E1CD018C76A5519012F37
S11321B00FD0002F07D0022F17D1221C281CFFF7A5
S11321C02AFF041C14E0281CFFF7FEFEA0420ED3D5
S11321D005E0281CFFF7F8FE844200D9041C281CE3
S11321E0311C221CFFF7FBFE02E0002400E03C1C33
S11321F0201CF8BD48010020F8B50B4B071C1B78C8
S11322000E1C151C002B01D1FFF734FFEFF31084D3
S1132210012181F31088381C311C2A1CFFF7BCFFF4
S113222084F31088F8BDC0464801002038B5051C69
S1132230081C0C1C02F0EEFA211C021C281CFFF7DF
S1132240DBFF38BD13B56B46DC1D0020211C0122C9
S1132250FFF794FF012801D1207801E001204042DA
S113226016BD08B5FFF7EEFF0028FBDB08BD000034
S1132270F7B5164C01932378051C0F1C161C002B74
S113228001D1FFF7F7FE23699D421CD2EFF31082C0
S1132290012181F31088002D0CD01823691C5943A7
S11322A06B43675061184E600199E318196200216D
S11322B09962596218235D43089B6419E36282F3AF
S11322C01088002001E001204042FEBD48010020AA
S11322D0826810B5041C4068531C834205D82068EA
S11322E08154A360E3680133E360A26863689A429F
S11322F00CD120692168FFF77FFFA368984203D0BF
S113230001235B42E36001E00023A36010BD0000F1
S1132310F0B5051C1F1C081C012685B00A9C009101
S11323200192019B984204D30199FEF72DF90136DD
S1132330F7E70296BE4200D2029701230B9A1A4095
S1132340039218D1002C01D1002414E00B9B202609
S11323509B070DD5002F0BD1103609E0281C311C2A
S1132360FFF7B6FFEB68013C002B04DB002CEBD03D
S1132370029BA342F2D3EB68002B35DB0126012F2D
S113238001D9013F06E00098311CFEF7FDF8019BDE
S1132390984208D3019B5E43F1E7301C0199FEF794
S11323A0F3F8061E10D00098311CFEF7EDF8331C2C
S11323B04343009AD31A00930C4B195C281CFFF773
S11323C087FFEB68002BE8DA039B002B0CD0002C72
S11323D00AD0029BA34207D2281C2021FFF778FFD2
S11323E0EB68013C002BF2DA05B0F0BDFB5F0000A6
S11323F0F0B59FB00EAB099340230A930023161C3B
S113240006900B930D900C930B784C1C002B04D16D
S11324100C9B0393002B22DC15E1252B16D1002500
S113242002314F1E3B782B2B0CD003D8232B27D102
S1132430082308E02D2B03D0302B21D1022302E006
S1132440012300E004231D430131EAE7191C09A814
S1132450FFF73EFF211C0C9B002BD5DAD8E70B9A23
S1132460002A03D006980EA9FFF7C6FE0C9B03931F
S11324700B9B0493049A039B944663440C93E2E0FD
S113248000243A78131C303B092B05D80A235C43FB
S1132490303C0137A418F4E7002303932E2A0DD10E
S11324A001373A78131C303B092B07D80A230399C8
S11324B001374B43303B9B180393F2E739780423ED
S11324C00A1C9A43682A01D10137F7E7642926D008
S11324D008D8582900D195E063291AD0252900D0BD
S11324E0AFE0ABE0732900D195E00DD8702900D09E
S11324F0A7E032680021131D336008230191009383
S1132500116809A8102296E0752971D0782979D02C
S113251097E0336819681A1D3260C9B28EE03368D7
S11325201A1D1B683260DA1798180493012350406F
S11325300593092805DD0A21FEF7B6F8059B01334A
S1132540F6E7059B039A934200D20592002C05D02E
S1132550049B002B01DB6B0700D5013CAB0702D5C4
S1132560039B002B10D0EB070ED4002C01D10024C8
S11325700AE0059BA34207D209A82021FFF7A8FE81
S11325800C9B013C002BF0DA0C9B0793002B58DBCF
S1132590049B002B04DA5B42049309A82D2103E079
S11325A06B0703D52B2109A8FFF792FE0C9B002B88
S11325B047DB03232B40022B11D1039B002B0ED1AD
S11325C0002C01D100240AE0059BA34207D209A8EC
S11325D03021FFF77DFE0C9B013C002BF0DA0C9BB5
S11325E00593002B2DDB0094019509A8049906E0BE
S11325F03368009401951A1D1968326009A80A22EB
S1132600039B18E0336800941A1D0195326009A8F1
S113261019681022F4E733681A1D32601C682178A7
S1132620013400290DD009A8FFF752FE0C9B039337
S1132630002BF4DA05E0FFF76BFE02E009A8FFF7D0
S113264047FE791C07E70C981FB0F0BD0EB403B524
S113265003AB02CB01AA0193FFF7CAFE02B008BC88
S113266003B0184708B5002000F08AFD08BD08B57E
S1132670002001F0F5FB08BD082110B5164B9A782F
S11326800A4202D09A780A439A70882200212220B2
S1132690124B52019950124A10708020114A400284
S11326A098501868104A024010481A601C58104A82
S11326B02240C024A40422431A5080220D4B1972D4
S11326C01A767F3A19705A700B4A11700C22997954
S11326D01142FBD110BDC04600D007400070044039
S11326E000E0074044100000FFFFF3FF0410000067
S11326F0FFFFFFF00040064000500640154B16480F
S113270010B5191E81420CD00022144B9B089B006B
S11327109A4203D084588C500432F9E7104B9960E4
S113272001E00F4A936000230E4A0F49891A8B4235
S113273004D0D45C0D48C4540133F8E700230C4A98
S11327400C49891A8B4204D00024D0180470013338
S1132750F8E710BD000000000000000000000000C9
S113276000ED00E0646100001063000000FEFF1F44
S1132770ACFFFF1FF402002000234170436003708C
S11327808360181C704710B54378041C0120FF2B8C
S113279008D000F06DFA63780133DBB2637000F0A7
S11327A05BFA002010BD0020704738B5041C0D1CD6
S11327B000F05EFAE1682943E16000F04DFA002080
S11327C038BD000000220A4B9A641A1C40329A63F6
S11327D01A1C30329A621A1C20329A611A1C103266
S11327E09A60044A1360044B9B60DB607047C046E8
S11327F0D4010020D0010020C00100200022024B9F
S11328001A60186880B270470C007C5038B5437861
S1132810041C0D1C002B0BD0002500F029FA637852
S1132820013BDBB26370257000F016FA281C28E027
S11328300220002925D02378002B15D0FFF7DEFFD6
S11328406368A268984201D3C01A03E0C01A8023C7
S11328505B02C018824213D200F00AFA00232370EC
S113286000F0FAF902200CE04B1C09D000F000FA49
S11328700123237000F0F0F9FFF7C0FFA56060604A
S1132880032038BD38B5051CFFF7B8FF041CFFF75B
S1132890B5FFA04201D3001B03E08023001B5B02B1
S11328A0C0188542F3D238BD08B5012801D100F023
S11328B0DFF908BD08B5012801D100F0CDF908BD44
S11328C010B5FFF77FFF01230020084A0849136071
S11328D0084A094C1060086004212160074C2160FB
S11328E007490B6007490860136010BD3880045025
S11328F000008450000004500000045104000451FE
S113290004000C500000045310B5044C20602171E5
S11329100020A2602373637310BDC046240200200C
S1132920F0B587B06B4602901B7A05AC23706B46FA
S113293003911B7B3D4D63702B79029A04209342D3
S113294071D92B7B6B730123A37000230193374E42
S11329500093337B009A371C93421AD9009BB268C8
S11329609B009B58002B10D01A79D2070DD51A68FA
S1132970201C99689047002807D06B461B78737316
S1132980039B002B3AD005230193009B0133DBB258
S1132990DDE7019E002E02D0039B012B2FD10120E5
S11329A0FFF782FF0C20029B58432B68181800F095
S11329B0A7F86B461B7A01206B71FFF77BFF02239C
S11329C00025A3703B7BAB4216D9BA68AB009B5879
S11329D0002B0ED01A7992070BD51A68201C99681F
S11329E09047002805D0039B7D73002B1AD0062343
S11329F001930135EDB2E5E7019814E005260023C3
S1132A00009FA370013FFFB2FF2F09D0AA68BB004B
S1132A109B58002BF6D01A68201C99689047F1E760
S1132A20301C00E0062007B0F0BDC04624020020A0
S1132A30014B58797047C0462402002013B5002189
S1132A400378041C0191022B07D0032B0BD0012B1C
S1132A500ED10279191C134801E00279114801AB27
S1132A6000F0CEFF08E001A90E4801F00BF803E0E6
S1132A700C4801A900F0A8FF002812D1A3790A4A42
S1132A80DB01DBB213706378084A5B00DBB21370BE
S1132A90A278074B1A70E278064B1A706279064BDB
S1132AA01A7016BD004006401840865300408650F8
S1132AB00040065001400650184016501F22802343
S1132AC002405B05D2051A43034943099B005B1886
S1132AD01A43002313607047288004401F2280217A
S1132AE00240D30549051943430904489B001B18B8
S1132AF019430123081C9340036070472880044055
S1132B000022072373B5041C104D0093281C131CCA
S1132B10012101F097F9201CFFF790FF0022637A4E
S1132B20217A0093281C131C01F08CF9E379084ADC
S1132B309B041360074BA17A1D68281C00F0BEFF9C
S1132B40281CE17A00F0C1FF002076BD007004402B
S1132B5000700C595860000008B5054800F0F6FEF6
S1132B60044B1968C9B20131FDF70EFD08BDC0461A
S1132B700040064044801C5E08B5054800F0E6FEAF
S1132B80044B1968C9B20131FDF7FEFC08BDC0460B
S1132B900040064044801C5E08B5054800F0D6FE9F
S1132BA0044B1968C9B20131FDF7EEFC08BDC046FB
S1132BB0004006404480145808B5054800F0C6FE9D
S1132BC0044B1968C9B20131FDF7DEFC08BDC046EB
S1132BD000400640448014580C4B1B68DBB2022BA7
S1132BE00DD0032B0ED0002B01D000200CE080214F
S1132BF0074A09021268101E8842F6D104E0054B08
S1132C00186801E0FA2080007047C04600700C5933
S1132C104C0200205002002008B5FFF7DDFF08BD7C
S1132C2008B5024B185CFFF759FF08BD0B600000A4
S1132C3008B57620FFF752FF08BD08B57620FFF7E8
S1132C403DFF08BD08B56620FFF748FF08BD08B57D
S1132C506620FFF733FF08BD044A1368002B04D035
S1132C60013B1360002B00D162B670473402002090
S1132C7072B6024A136801331360704734020020AD
S1132C8010B50B4B0B4A1278002A04D1013B002BE0
S1132C90F8D103200AE0064C074801F069FB01283B
S1132CA003D0013C002CF7D1F3E7002010BDC0464F
S1132CB0EA03000002D0075100E0074010B5064CBB
S1132CC0064801F055FB042804D0013C002CF7D140
S1132CD0032000E0002010BDEA03000000E00740EC
S1132CE0F7B5071C0E1C151C01930120002F18D0EA
S1132CF0002916D0FFF7D8FD0A4C0021201C102211
S1132D0001F0C7FC27602671002D06D06B461B79A5
S1132D10A56023736B461B7963730120FFF7CAFD1B
S1132D200020FEBD38020020F0B5B24C8BB00290FA
S1132D300191237B01206373FFF7B6FD2379029A87
S1132D40934204D80120FFF7B5FD022050E1029A16
S1132D5023689200D6586B461B7907AC35782372EA
S1132D606B461B7A2A1C237002239A4366600392E3
S1132D70012A01D0052D0AD101219F4801F04AFA08
S1132D80002809D10120FFF795FD012030E1072D2E
S1132D9002D999480321F1E70123637200240094C6
S1132DA0944F009A3B7B93421AD9009BBA689B00CC
S1132DB09B58002B0FD01A79D2070CD51A6807A894
S1132DC099689047002806D06B461B7804247B73CF
S1132DD0019B012B04D1009B0133DBB20093DFE79D
S1132DE00120FFF767FD854800F0D4FD039B012B0C
S1132DF01DD10138C0B2022811D8FFF7DDFE804B87
S1132E0098420CD8FFF7A8FE7E4FB84207D8FFF7C8
S1132E10C3FEB84203D8FFF7AFFEB84207D9019BFF
S1132E20012B01D1062407E0002C05D1FAE7019B10
S1132E30012B52D0002C50D00120FFF735FD002388
S1132E4007AE009D7372013DEDB2FF2D40D0694B7A
S1132E50AA009B68D358002BF5D01A79D207F2D573
S1132E601A68301C99689047EDE7072205AB1A7081
S1132E7000225A70F2789A703279DA702B1C083B6F
S1132E8005A9022B03D873798B71B379CB7173784D
S1132E90002B00D084E0584801F0F0F9002800D05D
S1132EA00324002D00D08AE0FFF7EAFE0024002866
S1132EB000D09DE00120FFF7F7FC6B464D4E1B7AD6
S1132EC00025B373022307AF7B72337BAB427CD8FC
S1132ED00120FFF7EFFC201C8AE003200A2D00D913
S1132EE086E0281CFDF73CFB06080A1940583339D4
S1132EF0C1282D00002250E003224EE03E4801F09C
S1132F0037FA012807D03C48002101F093F9FFF774
S1132F10B7FE041E6CD101223FE0374801F028FAC5
S1132F20042807D03448022101F084F9FFF7C6FED3
S1132F30041E5DD1042230E0072205AB1A70063A64
S1132F4003E0072205AB1A70043A5A7096E702228E
S1132F5005AB1A70013A1A7104E00222012105AB93
S1132F601A7019715A7189E70222002705AB1A7089
S1132F702148013A1A715F7101F0FAF9012800D170
S1132F807CE71D48391C01F055F9FFF779FE041E52
S1132F90BC4200D172E72BE0052205AB1A706DE745
S1132FA0012D00D877E7B2780220174B002A02D00F
S1132FB01A69024301E01A6982431A616BE7012D21
S1132FC000D077E7FFF77AFE70E7B268AB009B5852
S1132FD0002B0AD01A79920707D51A68381C996809
S1132FE09047002801D0052475730135EDB26CE7D4
S1132FF00BB0F0BD3802002000E00740004006405E
S113300040420F0080841E0000ED00E008B5064831
S113301001F0AEF90023012803D00133042800D0C5
S11330200A33181C08BDC04600E00740F7B5FF246A
S113303003681C4A1D0A25401C40AB009F581A4ACD
S1133040061C9B58281C0193FFF7EAFD211C002253
S1133050381C01F095F9019BA4001C1984233279D2
S11330605B05234352001A60802372795B05234376
S11330701A609023B2795B05234312011A60F37935
S11330800A4A14431A042260002B0AD0084B5A5DE2
S1133090002A06D01F23134001229A40131C054A1C
S11330A01360F7BD646000005C6000000000181845
S11330B06C60000000E100E0F8B5FF24051C036823
S11330C0114A180A20401C4083009F580F4A9E58FA
S11330D0FFF7A6FD381C211C012201F051F96A6892
S11330E0381C211C01F05CF988232A7AA4003419C5
S11330F05B05234392001A6098235B051C436B7A9B
S11331009B012360F8BDC046646000005C60000061
S113311038B50C1C002802D1002C09D112E0036838
S11331200133F9D0051C0835FFF780FF281CF6E7AA
S11331302368013306D0251C201C0C35FFF7BCFF87
S11331402C1CF5E738BD0000FF22030A134002409F
S11331500120904002499B005B5858607047C0466C
S113316064600000FF22030A1340024001209040E3
S113317002499B005B5898607047C0466460000039
S113318008B5084B8200D3589422023352051343E6
S11331901B78002B02D000F041FA01E000F096FA0F
S11331A008BDC04610600000031C80220C33520589
S11331B013431B78002BF7D00171704738B50D1CF1
S11331C0084B8000C458201C291C1830FFF71EFB34
S11331D00328F8D0002801D004232374207CC0B233
S11331E038BDC04648020020F0B589B00290161CD4
S11331F082003748059310580EAB019035481B7870
S11332001458002007AA1080A27C8F0A049201227D
S1133210E274A2745A4253411E3FDBB203937B42D1
S11332205F41FFB2CDB2874202D0CBB29C460D0AB9
S113323000216D00EDB28F4204D1391C002E01D162
S11332406B46197B0D4307AB1D700122002F02D082
S113325062465A700222A360E2600198291CFFF7BB
S1133260A3FF02980F99FFF7A9FF237C002B0CD131
S1133270002E0AD0059BA660E36031780198FFF721
S113328093FF02980F99FFF799FF237C002B16D127
S1133290039B002B13D0002F01D1002E0FD000234D
S11332A00127A3600198E76001F0D2F8391C019866
S11332B02943FFF779FF02980F99FFF77FFF002357
S11332C0E3746B46207C1B7CC0B2A37409B0F0BDD0
S11332D01060000048020020104A830010B598587E
S11332E00F4A9C58E37C002B05D0237C052B02D08D
S11332F0237C042B09D19822831C520513430022FA
S11333001A7001F0B7F801236374A37C002B03D077
S1133310201C1830FFF737FA10BDC04610600000BB
S113332048020020F7B5194B8700FB58012500938C
S1133330174BFE58002E26D10C1C24220190081C89
S1133340311C01F0A6F9201C311C1830FFF714FAC7
S11333500198FFF777FC009801F02AF80C4B019ACA
S1133360FC500C4B9A5C1F2313402A1C9A40131CDC
S1133370094A13609C22009B5205023313438022A6
S11333806574351C1A70281CFEBDC0461060000010
S1133390480200200D60000000E100E0F7B59C2227
S11333A00027051C0D4E8400A359520501930C4BB4
S11333B0E358023313431F70FFF749FC094B01988C
S11333C05A5D1F23134001229A40131C064A1830E9
S11333D0D367FFF7E8F9A751F7BDC04648020020BC
S11333E0106000000D60000004E100E00A4B800062
S11333F070B5C558094BC6584B68726993420AD0D8
S11334000C1CFFF7C9FB0023011C6268281C00F098
S1133410DDFF6368736170BD106000004802002026
S1133420F0B587B00FAC334F334D2678840065591F
S1133430E459677C002F02D10320207458E0002E49
S113344001D11E270E9705930023A674E360A360A1
S1133450237423606374071C04920391FFF7C6FF6F
S113346090231021AA1C5B05134319708421EB1CC3
S113347049050B430221197098235B0513430293FA
S11334804023029A281C137000F0E2FF039B381CAF
S11334901988012300930E9B049A0193059BFFF75F
S11334A0A3FE0D9B002B15D0237C002B0FD10C9B6E
S11334B0281CA3600D9BE3600C9B1978FFF774FE36
S11334C0002E13D0381C0E99FFF778FE0EE0237CF3
S11334D0042B0BD100230126029A1370EB785B09AD
S11334E0334202D0281C00F0C5FF6674207CC0B2B1
S11334F007B0F0BD4802002010600000F0B58BB0AA
S113350013AC2478364E374D039484006559A4597E
S1133510667C002E02D1032020745FE0039E002EFF
S113352001D11E3612960993109B00262360119B2D
S1133530A66063606B461B7BE660A37426746674A6
S1133540079108920490FFF751FF9023AF1C5B058D
S11335503B4305931023059A281C13708422EB1C0B
S11335605205134302221A7098235B053B430693CA
S11335704023069A137000F06BFF079B089A198882
S1133580129B009601930498099BFFF72DFE227C61
S1133590D2B2B24212D1059B11991A708C235B05E9
S11335A03B43012900D108221A702B79039B002B7D
S11335B012D004981299FFF701FE0DE0237C042B2E
S11335C00AD1069B1E700126EB785B09334202D0B8
S11335D0281C00F04FFF6674207CC0B20BB0F0BD15
S11335E048020020106000001FB5069C0094079C50
S11335F00194089C029401240394FFF711FF04B082
S113360010BD1FB5069C0094079C0194089C02946D
S113361001240394FFF772FF04B010BD842138B570
S1133620244B8200D5584905EB1C0B430221197029
S1133630214BD45890226B1852051A431278E9781A
S1133640D2B2890634D59421490519430978002951
S11336502ED0012A15D1EB78134202D0052323740E
S11336600CE0E368013BE360002B07D0A368281C4F
S11336705A1CA2605978FFF797FD19E0FFF72CFE5A
S113368016E06268013A6260002A06D08C2149057E
S1133690012A05D10B43082204E0FFF71DFE02E0D6
S11336A000220B431A7023685A1C22602A791A706C
S11336B038BDC04610600000480200208423033057
S11336C05B051843022303707047000090214905ED
S11336D00A1CF0B58F4B071C8000C55889B0EB1C41
S11336E00493EB78EE78DBB20593F3B20693AB1D4B
S11336F01A43944612789826D2B20792942252051D
S11337001A4314787605621E9441E2B2824C334324
S11337100459A81C0090084301921A780178D2B287
S1133720C9B203910199029000292FD00799002969
S11337300CD010236246281C1370FFF7BFFF236BC5
S1133740F8B20121002B00D0DCE0E0E0002A1DD01B
S11337504022281C1A70FFF7B1FF231C2C331B785E
S1133760002B02D1009A16433370236B002B03D035
S1133770F8B28021626B9847E37D002B04D0201CB3
S113378080211830FFF711F80A23BFE0069B281C9C
S11337909E1101231E40FFF791FF0122059B1B117F
S11337A0134219D09023049A5B05134310221A7014
S11337B0002E04D0EB785B07DB0F10D11AE008234E
S11337C023702C342278002A00D0A0E0982300999A
S11337D05B050B431A709AE0002E16D0EAE710231B
S11337E0029A1370236B002B6ED0F8B20221626B25
S11337F0984769E0029A1370236B002B03D0F8B248
S11338000421626B98472B7981E0039B012B29D11A
S1133810EB78039A134257D0029B1E702B79231C1A
S11338202C331B78002B09D1019B002B06D1982344
S1133830009A5B0513436A4612791A70236B002BB6
S113384003D0F8B20821626B9847A37D002B04D003
S1133850201C08211830FEF7A8FF00236360E360F2
S1133860237554E02B79A268DBB2002A2AD022699E
S11338701370236901332361A368013BA360A36828
S1133880002B44D1019B002B13D1231C2C331B7818
S1133890002B06D19823009A5B0513436A461279DC
S11338A01A70E37D002B04D0201C20211830FEF771
S11338B07CFF002363752361236BF8B22021002B66
S11338C020D124E0072321E06368002B1DD0E368A6
S11338D01A782B1C80210C3349050B431B78002BD1
S11338E0F7D02A71E3680133E3606368013B6360E6
S11338F06368002B0BD1E3602375236B002B06D088
S11339001021F8B2626B984701E00623237009B0D6
S1133910F0BDC046106000004802002084235B050F
S113392003431A7800239A4209D0802301305B05AF
S113393018430378012B01D0024B00E0024B181C02
S11339407047C04680841E0000127A0010B50D4AEC
S1133950831D13431B78DBB2002B10D0012B08D13D
S1133960041CFFF7DBFF084B08341C432378D840C2
S113397006E00020022B03D1044B186800E0044841
S113398010BDC04600000811000090104C02002039
S1133990006CDC020B4A831D13431B78DBB2012B42
S11339A006D0181E0CD00320022B09D0052007E0F6
S11339B0802301305B0518430078434258410130AD
S11339C07047C04600000811021C031C9C201833D9
S11339D040050343802018700020064B13431870E1
S11339E00548931D03431B78D8B20028F8D1034B34
S11339F00B6070470000081300000811006CDC0223
S1133A00F8B5041C0D1C171C1E1CFFF7C3FF01286E
S1133A1002D1002D04D007E0022805D1012D03D1E5
S1133A20201C311CFFF7D0FF8022631C5205134376
S1133A301D70842302225B0523431A70231C0C4A45
S1133A40083313437A00D2B21A704022094B23433D
S1133A501A70094AA31D13431B78012BF9D1002DB9
S1133A6001D1064A00E0064A3A4100203260F8BD1E
S1133A7000009010000008130000081180841E004C
S1133A8000127A000A4B10B51C681A1C0123002C82
S1133A900CD08024074B03431C70074C831D234325
S1133AA01B78022BF9D113680B600023181C10BD7E
S1133AB04C02002000000813000008119C23C901D7
S1133AC05B051843C9B201707047942349015B0533
S1133AD01843C9B20170704770B506680C1C301CDD
S1133AE02049FCF751FD1F49051C301CFCF7D2FD91
S1133AF00E1C081CE1210901FCF746FDE121E080D0
S1133B000901301CFCF7C6FD0E1C081C3C21FCF707
S1133B103BFD3C212081301CFCF7BCFD6E22124B86
S1133B20A1722380FF32238895420BD9AD1A032258
S1133B3001339BB22380B72113405A1E934149009D
S1133B40CA1AF0E709499B0700D109490123CA5C55
S1133B50954201D8638003E00133AD1A0D2BF6D1F1
S1133B60A58070BD80510100B20700003B600000D9
S1133B702E60000030B5114A0188031C8A18002009
S1133B80812A19D85A88541E0B2C15D89C88651E76
S1133B901E2D11D8DD88172D0ED81D893B2D0BD86D
S1133BA09B7A3B2B08D88B0701D0054B00E0054BD3
S1133BB09B5CA3424041C0B230BDC0464EF8FFFFFB
S1133BC03B6000002E60000070B5124A83880488B0
S1133BD09A186E23FF3363434588D318A2089B18B1
S1133BE00D4A6E00B25A9B18A20702D1022D00D8CA
S1133BF0013B0B60E1233C22C4881B015C43038925
S1133C005343827AE3189A180868044B4343D31841
S1133C100B6070BD4A05F5FF14600000805101007F
S1133C20084B1A6880231B029A4209D1A023103042
S1133C305B0518430368002B02D10133FF33036093
S1133C407047C0464C020020021C802110B500239E
S1133C500124490510320A43146013609022436022
S1133C60520504601C30024313608822520502434B
S1133C70136084225205024308431360036010BD9D
S1133C80031C902214335205134300221A6042602D
S1133C90103201601A60704703680B6070470000BF
S1133CA0114B820070B5D5588022104B92051A60D2
S1133CB0041C281CFFF7C8FF281CFFF7B1FF0120D4
S1133CC01F22011C0A4B0B4E1B5D345D13409940AF
S1133CD02240C0250B1C904007496D004B514851B0
S1133CE00B60086070BDC0464C6000003C80845E80
S1133CF0496000004860000000E100E0F7B50027DB
S1133D00114B8000C658081C0D1C0197FFF732FFA9
S1133D10041EBC4216D001A9281CFFF755FF381C0D
S1133D20FEF77AFF011C80200002814206D0FCF7D6
S1133D302BFC011C0198FCF727FC0190301C019915
S1133D40FFF79EFF201CFEBD4C600000F7B5002568
S1133D50124B8000C4580E1C201C01A90195FFF7CA
S1133D609BFF281CFEF758FF051C8020000285429B
S1133D700ED00B4B291C04341C43FCF705FC2768AC
S1133D80019C291C4443B8B2FCF7FEFB20180190A7
S1133D90311C01A8FFF7A0FEF7BDC0464C6000002F
S1133DA000007810F0B50026184B800085B0C45888
S1133DB0081C0F1C01920396FFF7DCFE051EB5429A
S1133DC001D100251EE0381C03A9FFF7FDFE301CBD
S1133DD02768FEF721FF011C80200002814206D0E3
S1133DE0FCF7D2FB011C0398FCF7CEFB0390039B6A
S1133DF0BB42E6D3A36088231C345B051C43019BB0
S1133E009B002360281C05B0F0BDC0464C60000038
S1133E108822044B8000C35852051C331343890085
S1133E20196070474C6000008822054B8000C3581D
S1133E305205143313431868431E9841C0B27047A7
S1133E404C6000006B46E0221B78D2021B04134036
S1133E5009071943014BC018016070474410000062
S1133E6008B5084B8200D3589022033352051343FC
S1133E701B78002B02D000F015F901E000F07AF96C
S1133E8008BDC0465460000008B50C4B8000C25801
S1133E900B4B0021C3589C20033340051843117178
S1133EA001709420400503431970137F8B4203D0A3
S1133EB02032101CFEF767FC08BDC04654020020E7
S1133EC054600000F7B5061C1C4B30220C1C870004
S1133ED0081C0021FD5800F0DCFB301CFEF7A8FE96
S1133EE0FEF75AFE2060281C00F0E1FA201C002195
S1133EF02030FEF741FCEB1C01939023019A5B05F3
S1133F0013431022281C1A70032100F010FB281CF4
S1133F10002100F032FB0A4BFC500A4B9A5D1F2330
S1133F20134001229A40131C074A13609823019AF4
S1133F305B05134340221A70F7BDC046546000006D
S1133F40540200205060000000E100E0F8B50D4E7E
S1133F5084000D4BA759051CE05800F0A8FA381C42
S1133F602030FEF720FC094B281C5A5D1F23134008
S1133F7001229A40131C064AD367FEF75EFE002313
S1133F80A351F8BD540200205460000050600000AA
S1133F9004E100E00A4B800070B5C658094B0C1CC4
S1133FA0C358151C301C1A68096800F087FA286089
S1133FB02179301C6279A37900F0CCFA70BDC04637
S1133FC05460000054020020F7B51E4A83009C5838
S1133FD01D4A9E5822790423002A31D1071C002946
S1133FE002D001AAFFF7D6FF982300214020F21C3B
S1133FF05B0513431970187025698D4203D1381C71
S1134000FFF742FF1BE00123237194235B05334335
S1134010A16119780723002912D0A368191E02D0C0
S113402019780133A360B1712369013B2361A3694A
S11340300133A3619C235B051A438023137000237F
S1134040181CFEBD5402002054600000F8B5134F44
S1134050134C85002C59ED590127069E2777A26041
S11340602661E3606661FFF7AFFF061E14D1201CD2
S113407007992030FEF7CAFB0328F8D000280BD09C
S11340809C210022EB1C4905194322710A709421DA
S1134090032649050B431A70301CF8BD5460000018
S11340A05402002010B51E4B8200D3581D495158AC
S11340B01A79002A32D05A69002A11D09C2252055A
S11340C00A431278002A0BD08A79DC68D2B2002C19
S11340D003D02270DA680132DA605A69013A5A610F
S11340E01A69002A12D0942252050A431278002A2F
S11340F00CD09A68141E02D0147801329A608C7124
S11341001A69013A1A619A6901329A611A69002A94
S113411004D15B69002B01D1FFF7B6FE10BDC04688
S11341205402002054600000104A8000815800228C
S113413008B50F4B0331C358581CC2779C20400567
S11341400843DA621A701A835A629A621A63027016
S11341509420400501430A701A1C38321278002A50
S113416003D0181D0121FEF720FB08BD5460000098
S11341705402002038B5254B8200D35824495258A4
S1134180591CC97F00293FD0D96A002916DB942124
S1134190490511430978002910D0596A1C7F002968
S11341A005D0DD6A002D02DD0C780131596294716D
S11341B0D96A0139D962596B01315963D96A002925
S11341C005DA9424D11C6405214300240C70196B76
S11341D0002911DD9C2149051143097800290BD0E0
S11341E09279996AD2B2002903D00A709A6A01328C
S11341F09A621A6B013A1A63DA6A002A04DC1B6BAE
S1134200002B01DCFFF790FF38BDC04654020020AC
S113421054600000012903D0032909D1842300E05C
S113422094235B0518430078431E9841C0B200E014
S113423000207047034B013049011843C9B2017093
S11342407047C04600008812942302305B05490180
S11342501843C9B201707047034B023089011843F7
S1134260C9B201707047C046000008138C230230A5
S11342705B05C9001843C9B201707047F7B5384EE1
S1134280C21C164337780B78FFB20122072B65D87E
S1134290041C181C0D1CFCF76DF904192A0D192AAD
S11342A02A3A00232F480134044323703378012B26
S11342B0FCD152E00322012F50D14023294801347C
S11342C0044323703378042BFCD146E00021012BF6
S11342D001D0042302213078032298423ED1201CCD
S11342E0FFF7A8FF0421204A13698B4333E0022718
S11342F0BB4207D100270B79BB4203D04979201C6C
S1134300FFF7AAFF194801340443277019E0042376
S11343101649621C0A4313706A78A31C0B431A7073
S11343206B78002B06D1AB78002B03D0E978201CE6
S1134330FFF78AFFAB79002B03D0E979201CFFF744
S113434095FF04213378084ADBB20193019B0133C2
S1134350019313690B43136130BF0022101CFEBD8F
S1134360000030100000881200ED00E00000101082
S1134370024B033018430078C0B27047000030107D
S113438014308023012A04D18A401B05184302609B
S113439005E0DB04184301238B40D94301607047D7
S11343A001238B40002A01D0436000E08360704702
S11343B00023C222037043708370C37043718371FE
S11343C0C371037242728372C3727047F0B50027DF
S11343D089B00393FA2301253C1C9B0053430690A8
S11343E0079102936D4201970123A3400493174B55
S11343F09E1CCA330593049B318807985943FCF7E4
S1134400C3F8029B029AC31A824200D9131AAB4220
S113441004D2B21E177801941D1E03D0059B0436E6
S11344209E42E8D10134032C01D0002DDCD1039B42
S1134430002B00D01D603F231F40019B9B011F43A5
S1134440069BFFB25F7009B0F0BDC0466E6000000D
S1134450942302305B0503431B78002B04D088238C
S11344605B051843042303E080231B051843302312
S1134470037070479422831C52051A431278011C5E
S11344800220012A12D18022D2041343CF221A70AF
S11344908022D2002023C878034004D0013A002AA5
S11344A003D0C046F6E7181C00E009207047042337
S11344B0C37000238370437003717047F0B5130B0E
S11344C089B001250493082300266D4203935B19E8
S11344D0079005910692029302270024731C191C6D
S11344E0069879430193FCF74FF8059B834206D362
S11344F01B1A9D4203D91D1C049003940296013497
S11345007F00092C02D0002DE8D104E0072E02D050
S1134510019E002DE0D17022029B04981B011340E0
S1134520039A1343079ADBB2537009B0F0BD842297
S1134530C31C52051A4301230B405B00DBB213700A
S113454090238907C90F5B05023009011843C9B2DA
S11345500170704710B58C2403306405C90004430E
S1134560C9B221708821920049050143D2B20A7070
S1134570802252051043037010BD802301220230B3
S11345805B0503430A401A708C238907C90F5B0536
S1134590C9001843C9B201707047011C002008B556
S11345A0021C031C00F03EF908BD0000014B186812
S11345B07047C046A4FFFF1F084B10B5041C002B16
S11345C002D0002100F08AF9054B1868836A002B99
S11345D000D09847201C00F0F5F9C046DD480000E3
S11345E03861000038B5074B074C1D1CE41AA410B1
S11345F0002C04D0013CA300EB589847F8E701F0E5
S1134600A3FD38BD60610000646100000E4B70B50D
S113461000251E1C0D4CE41AA410A54204D0AB00C6
S1134620F35898470135F8E701F088FD084B002559
S11346301E1C084CE41AA410A54204D0AB00F35885
S113464098470135F8E770BD5C6100005C610000CB
S11346505C6100006061000008B5034B011C186830
S113466000F066F808BDC046A4FFFF1F08B5034B61
S1134670011C186800F016F808BDC046A4FFFF1F0F
S1134680002310B5934203D0CC5CC4540133F9E742
S113469010BD031C8218934202D019700133FAE74B
S11346A07047000030B500293ED004390B68002B58
S11346B000DAC9181D4A1368141C002B02D14B6080
S11346C0116031E099420DD208680A189A4203D168
S11346D01368C3180B6053684B60216024E08A425E
S11346E003D8131C5A68002AF9D11D685C198C423E
S11346F00BD10968691858181960904214D11068D0
S11347005268091819605A600EE08C4202D90C23D1
S1134710036009E008680C18944203D114685268D5
S1134720001908604A60596030BDC0465C02002030
S1134730032370B5CC1C9C430834051C0C2C01D2FB
S11347400C2405E0002C03DA0C2300202B6042E04B
S11347508C42F9D3204A1368101C191C002913D069
S11347600A68121B0DD40B2A02D90A608B181FE0A9
S11347708B4202D15A6802601BE04A685A600B1CE3
S113478017E00B1C4968E9E7144E3368002B03D18A
S1134790281C00F025F83060281C211C00F020F8AB
S11347A0031C421CD0D00322C61C964386420AD165
S11347B01C60181C07210B301A1D8843821A0AD06A
S11347C05142995007E0311A281C00F009F8431CA3
S11347D0BAD0331CECE770BD5C0200205802002004
S11347E038B50023064C051C081C2360FCF74EF862
S11347F0431C03D12368002B00D02B6038BDC04676
S1134800F0020020031C0A7801311A700133002AD7
S1134810F9D170470023C25C0133002AFBD1581E32
S113482070470000F7B52A4D061C2C680091171C30
S11348300193002C01D1274C2C6063681F2B15DDDC
S1134840254B002B02D10120404240E08C20FFF791
S113485003FF041EF7D02A6800230260021C88327A
S11348604360286013609E420AD128E0002E26D0BF
S1134870231C88331868002810D1174B002BE2D072
S113488084204000FFF7E8FE0028DCD0031C00224F
S1134890FC335A609A60231C8833186001226168D3
S11348A08A408B00C31880C3FC30416811434160C7
S11348B00199D967022E02D183681A4382600020CD
S11348C063685A1C62600233009A9B001A51FEBD51
S11348D0EC0200206002002059460000F0B587B0C9
S11348E005900391344D2C68002C63D0231C88332D
S11348F01E6863685A1E0192304A9B189B00F71881
S11349000433E3180293019B002B3DDB039B002B34
S113491007D0002E31D03B1C80331B68039A93428E
S11349202BD16268029B0199013A5B68914201D1E3
S1134930616002E0002202994A60002B1DD0626887
S11349400492002E07D0012201998A40311CFC31C7
S11349504868104201D1984708E08968114203D1A0
S113496005983968984701E038689847049B62685D
S11349709342B7D12B68A342B4D1019B043F013BBE
S11349800193029B043BBDE70D4B002B12D06268E0
S11349902368002A0BD1002B09D02B60002E02D0F3
S11349A0301CFFF763FE201CFFF760FE9BE7251C0D
S11349B01C1C99E707B0F0BDEC020020FFFFFF3F8D
S11349C06D460000FEE7C0461B5B306D1B5B343B4D
S11349D034336D1B5B313B33376D0D53616E69743A
S11349E07920636865636B206661696C6564211B6B
S11349F05B306D0A001B5B306D1B5B343B34316DE7
S1134A001B5B313B33376D0D496E76616C696420F5
S1134A10737570706C7920766F6C74616765205B58
S1134A2025645D206D56211B5B306D0A004D656168
S1134A30737572656D656E74206E756D6265722C2A
S1134A40205254432D3E5453522C205254432D3E55
S1134A505450522C00205254432D3E5453522C2077
S1134A605254432D3E5450522C202320436F6E66E3
S1134A706967204572726F72730025752C20256456
S1134A802C2025642C002025642C2025642C202532
S1134A90640A000D09307825303278202D2D3E200F
S1134AA05B307825303278203078253032782030E9
S1134AB078253032785D0A000D0930782530327857
S1134AC0202D2D3E203078253032780A000D093013
S1134AD07825303278202D2D3E202D2D2D2D0A00C5
S1134AE00D0A0925642F2564207375636365737348
S1134AF020726174652E0A000D0925642F25642037
S1134B00737563636573736573206D61746368653E
S1134B1064207265662E2076616C7565206F662050
S1134B203078253032782E0A000D09256420626120
S1134B306420636F6D6D616E64732E0A0A000D0A42
S1134B40094144584C333632205265616420416235
S1134B506F727465642E20446576696365204469C8
S1134B607361626C6564203A28000D0A094D4D4159
S1134B70383435315120526561642041626F72745A
S1134B8065642E20446576696365204469736162B7
S1134B906C6564203A28000D0A0A424D45363830C7
S1134BA020526561642041626F727465642E2044F2
S1134BB065766963652044697361626C6564203A53
S1134BC028000D0A09424D58303535616363656C20
S1134BD020526561642041626F727465642E2044C2
S1134BE065766963652044697361626C6564203A23
S1134BF02820000D0A09424D583035356779726F07
S1134C0020526561642041626F727465642E204491
S1134C1065766963652044697361626C6564203AF2
S1134C202820000D0A0920424D583035356D616742
S1134C3020526561642041626F727465642E204461
S1134C4065766963652044697361626C6564203AC2
S1134C502820000D0A094D41473331313020526577
S1134C6061642041626F727465642E2044657669C4
S1134C7063652044697361626C6564203A2820008E
S1134C800D0A094C33474432304820526561642090
S1134C9041626F727465642E204465766963652091
S1134CA044697361626C6564203A2820000D0A0926
S1134CB04C505332354820526561642041626F7212
S1134CC07465642E20446576696365204469736164
S1134CD0626C6564203A2820000D0A09544353335A
S1134CE03437323520526561642041626F727465D5
S1134CF0642E204465766963652044697361626C3F
S1134D006564203A2820000D0A09534934373035A8
S1134D1020526561642041626F727465642E204480
S1134D2065766963652044697361626C6564203AE1
S1134D302820000D0A0948444331303030205265A0
S1134D4061642041626F727465642E2044657669E3
S1134D5063652044697361626C6564203A282000AD
S1134D600D0A0953493730323120526561642041BC
S1134D70626F727465642E204465766963652044AD
S1134D80697361626C6564203A2820000D0A094346
S1134D90435338313120526561642041626F72742B
S1134DA065642E2044657669636520446973616295
S1134DB06C6564203A2820000D0A09414D473838B3
S1134DC0333420526561642041626F727465642ECD
S1134DD0204465766963652044697361626C656427
S1134DE0203A2820000D0A09415337323632205226
S1134DF06561642041626F727465642E2044657637
S1134E006963652044697361626C6564203A282093
S1134E10000D0A094153373236332052656164204C
S1134E2041626F727465642E2044657669636520FF
S1134E3044697361626C6564203A2820000D094955
S1134E406E76616C6964207761727053656E736FFE
S1134E5072446576696365205B25645D20706173C7
S1134E6073656420746F2072657065617452656740
S1134E70697374657252656164466F7244657669DC
S1134E806365416E64416464726573732E0A000D38
S1134E9009506F776572757020636F6D6D616E6414
S1134EA0206661696C65642E20424D58303535208A
S1134EB064697361626C6564200A000D09506F7740
S1134EC06572646F776E20636F6D6D616E642061CF
S1134ED062616E646F6E65642E20424D58303535C4
S1134EE02064697361626C65640A000D09506F7710
S1134EF06572646F776E20636F6D6D616E6420619F
S1134F0062616E646F6E65642E204C3347443230A8
S1134F10482064697361626C65640A000D09506F0E
S1134F20776572646F776E20636F6D6D616E642058
S1134F306162616E646F6E65642E20544353333432
S1134F403732352064697361626C65640A000A0A49
S1134F500A0D426F6F74696E6720576172702C205E
S1134F60696E20332E2E2E2000322E2E2E2000315C
S1134F702E2E2E0A0D000D0A494E413231393A0ABD
S1134F800D000D0A0A0A0A5B202A090909095709B2
S1134F90610972097009287265762E20622909094F
S1134FA0092A205D0A000D5B202009090909202037
S1134FB02020202043616D627269646765202F2080
S1134FC050687973636F6D706C61622020200909E9
S1134FD0090920205D0A0A000D09537570706C7967
S1134FE03D25646D562C0944656661756C742054C6
S1134FF061726765742052656164205265676973E4
S11350007465723D3078253032780A000D094932D2
S1135010433D25646B622F732C095350493D25642D
S11350206B622F732C09554152543D25646B622FDA
S1135030732C094932432050756C6C2D55703D25F5
S1135040640A0A000D0953494D2D3E534347433624
S11350503D30782530327809095254432D3E53525D
S11350603D30782530327809095254432D3E54534B
S1135070523D3078253032780A000D094D43475FA0
S113508043313D3078253032780909094D43475F73
S113509043323D30782530327809094D43475F5318
S11350A03D3078253032780A000D094D43475F536F
S11350B0433D3078253032780909094D43475F4D27
S11350C0433D30782530327809094F53435F4352CA
S11350D03D3078253032780A000D09534D435F5036
S11350E04D50524F543D30782530327809090953D8
S11350F04D435F504D4354524C3D30782530327807
S113510009095343422D3E5343523D3078253032F2
S1135110780A000D09504D435F52454753433D30D3
S1135120782530327809090953494D5F5343474381
S1135130343D307825303278095254432D3E545052
S1135140523D3078253032780A0A000D09256473FF
S113515020696E205254432048616E646C6572204D
S1135160746F2D646174652C09256420506D677219
S1135170204572726F72730A000D53656C65637417
S11351803A0A000D2D202761273A207365742064A4
S1135190656661756C742073656E736F722E0A0098
S11351A00D2D202762273A2073657420493243204D
S11351B06261756420726174652E0A000D2D2027CA
S11351C063273A20736574205350492062617564E3
S11351D020726174652E0A000D2D202764273A2061
S11351E07365742055415254206261756420726164
S11351F074652E0A000D2D202765273A20736574E7
S11352002064656661756C74207265676973746582
S11352107220616464726573732E0A000D2D202759
S113522066273A2077726974652062797465207400
S11352306F2073656E736F722E0A000D2D20276721
S1135240273A207365742064656661756C74205315
S113525053535550504C592E0A000D2D20276827C2
S11352603A20706F776572646F776E20636F6D6D2F
S1135270616E6420746F20616C6C2073656E736F53
S113528072732E0A000D2D202769273A2073657446
S11352902070756C6C2D757020656E61626C652074
S11352A076616C75652E0A000D2D20276A273A2039
S11352B0726570656174207265616420726567202F
S11352C0307825303278206F6E2073656E736F727C
S11352D0202325642E0A000D2D20276B273A2073E6
S11352E06C65657020756E74696C20726573657485
S11352F02E0A000D2D20276C273A2073656E64203A
S113530072657065617465642062797465206F6E7E
S1135310204932432E0A000D2D20276D273A207391
S1135320656E642072657065617465642062797469
S113533065206F6E205350492E0A000D2D20276ED4
S1135340273A20656E61626C652053535355505063
S11353504C592E0A000D2D20276F273A20646973BB
S113536061626C65205353535550504C592E0A00BA
S11353700D2D202770273A20737769746368207491
S11353806F20564C5052206D6F64652E0A000D2D0F
S1135390202772273A2073776974636820746F201A
S11353A052554E206D6F64652E0A000D2D20277313
S11353B0273A20706F77657220757020616C6C20BD
S11353C073656E736F72732E0A000D2D2027742778
S11353D03A2064756D702070726F636573736F72B9
S11353E02073746174652E0A000D2D202775273AE9
S11353F02073657420493243206164647265737359
S11354002E0A000D2D202778273A206469736162E3
S11354106C652053574420616E64207370696E205C
S1135420666F7220313020736563732E0A000D2D70
S113543020277A273A2064756D7020616C6C207384
S1135440656E736F727320646174612E0A000D457A
S11354506E7465722073656C656374696F6E3E204B
S1135460000D0953656C6563743A0A000D092D201B
S1135470273127204144584C333632090909283052
S11354807830302D2D30783244293A20312E36565A
S1135490202D2D20332E35562028636F6D70696CB6
S11354A06564206F757429200A000D092D202732A8
S11354B02720424D58303535616363656C200909F6
S11354C028307830302D2D30783346293A20322E4A
S11354D03456202D2D20332E36562028636F6D70C0
S11354E0696C6564206F757429200A000D092D20EC
S11354F027332720424D583035356779726F0909B3
S11355000928307830302D2D30783346293A20322E
S11355102E3456202D2D20332E36562028636F6DC1
S113552070696C6564206F757429200A000D092D5B
S11355302027342720424D583035356D61670909DD
S11355400928307834302D2D30783532293A2032FC
S11355502E3456202D2D20332E36562028636F6D81
S113556070696C6564206F757429200A000D092D1B
S113557020273527204D4D4138343531510909094B
S113558028307830302D2D30783331293A20312E9F
S1135590393556202D2D20332E36562028636F6D35
S11355A070696C6564206F757429200A000D092DDB
S11355B020273627204C5053323548090909283012
S11355C07830382D2D30783234293A20312E375620
S11355D0202D2D20332E36562028636F6D70696C74
S11355E06564206F757429200A000D092D20273762
S11355F027204D41473331313009090928307830AB
S1135600302D2D30783131293A20312E393556203C
S11356102D2D20332E36562028636F6D70696C65EE
S113562064206F757429200A000D092D202738275E
S1135630204844433130303009090928307830306B
S11356402D2D30783146293A20332E3056202D2DF9
S113565020352E30562028636F6D70696C65642088
S11356606F757429200A000D092D2027392720532E
S1135670493730323109090928307830302D2D303E
S1135680783046293A20312E3956202D2D20332EBC
S113569036562028636F6D70696C6564206F75746D
S11356A029200A000D092D20276127204C33474467
S11356B032304809090928307830462D2D307833A6
S11356C039293A20322E3256202D2D20332E3656AB
S11356D02028636F6D70696C6564206F7574292070
S11356E00A000D092D2027622720424D4536383007
S11356F009090928307841412D2D30784638293A56
S113570020312E3656202D2D20332E365620286358
S11357106F6D70696C6564206F757429200A000DC3
S1135720092D202764272054435333343732350955
S1135730090928307830302D2D30783144293A2029
S1135740322E3756202D2D20332E33562028636FCA
S11357506D70696C6564206F757429200A000D09E9
S11357602D20276527205349343730350909092866
S11357706E2F61293A2020202020202020322E372D
S113578056202D2D20352E35562028636F6D7069D7
S11357906C6564206F757429200A000D092D20277B
S11357A066272050414E31333236090909286E2FBD
S11357B061292028636F6D70696C6564206F75744E
S11357C029200A000D092D20276727204343533839
S11357D0313109090928307830302D2D307846468A
S11357E0293A20312E3856202D2D20332E3656209E
S11357F028636F6D70696C6564206F757429200A65
S1135800000D092D2027682720414D4738383334AF
S113581009090928307830302D2D3F293A203F5688
S1135820202D2D203F562028636F6D70696C6564B0
S1135830206F757429200A000D092D20276A27205E
S113584041533732363209090928307830302D2D4A
S113585030783242293A20322E3756202D2D2033EB
S11358602E36562028636F6D70696C6564206F75E1
S11358707429200A000D092D20276B272041533756
S113588032363309090928307830302D2D307832FA
S113589042293A20322E3756202D2D20332E3656CB
S11358A02028636F6D70696C6564206F757429209E
S11358B00A000D09456E7465722073656C65637426
S11358C0696F6E3E20000D09496E76616C69642033
S11358D073656C656374696F6E20272563272021C7
S11358E00A000D0A09536574204932432062617528
S11358F064207261746520696E206B627073202865
S1135900652E672E2C20273030303127293E200089
S11359100D0A09493243206261756420726174651D
S11359202073657420746F202564206B622F7300CC
S11359300D0A09536574205350492062617564202F
S11359407261746520696E206B6270732028652E05
S1135950672E2C20273030303127293E20000D0AB5
S113596009535049206261756420726174653A205C
S11359702564206B622F73000D0A0953657420554A
S11359804152542062617564207261746520696EAD
S1135990206B6270732028652E672E2C20273030F0
S11359A0303127293E20000D0A0955415254206206
S11359B061756420726174653A202564206B622FDE
S11359C073000D0A09456E74657220322D6E79627A
S11359D0626C6520726567697374657220686578A6
S11359E020616464726573732028652E672E2C20F1
S11359F027336527293E20000D0A09456E74657218
S1135A006564205B3078253032785D2E0A0A000DFB
S1135A100A09456E746572204932432061646472D8
S1135A202E2028652E672E2C202730662729206FEC
S1135A3072202739392720666F7220535049203E3F
S1135A4020000D0A09456E7465726564205B307828
S1135A50253032785D2E0A000D0A09456E74657290
S1135A6020686578206279746520746F2073656E90
S1135A70642028652E672E2C2027306627293E2097
S1135A80000D0A09535049207772697465206661D4
S1135A90696C65642E204144584C33363220446985
S1135AA07361626C6564000D0A09493243207772A0
S1135AB0697465206661696C65642C206572726F17
S1135AC0722025642E0A0A000D0A094F7665727247
S1135AD0696465205353535550504C5920696E20C6
S1135AE06D562028652E672E2C202731383030271C
S1135AF0293E20000D0A094F76657272696465209B
S1135B005353535550504C592073657420746F206F
S1135B102564206D56000D0A094E4F54453A20461F
S1135B206972737420706F7765722073656E736F1A
S1135B30727320616E6420656E61626C6520493207
S1135B40430A0A000D0A0944656661756C74207085
S1135B50756C6C757020656E61626C652076616C25
S1135B60756520696E206B696C6F4F686D732028B2
S1135B70652E672E2C20273030303027293E200018
S1135B800D0A0949326350756C6C757056616C75F9
S1135B90652073657420746F2025640A000D0A095A
S1135BA04175746F2D696E6372656D656E742066E0
S1135BB0726F6D20626173652061646472657373D2
S1135BC0203078253032783F205B273027207C2016
S1135BD02731275D3E20000D0A094368756E6B204E
S1135BE072656164732070657220616464726573A8
S1135BF0732028652E672E2C20273127293E20006C
S1135C000D0A094368617474793F205B27302720AB
S1135C107C202731275D3E20000D0A09496E7465FA
S1135C20722D6F7065726174696F6E207370696E26
S1135C302064656C617920696E206D696C6C697390
S1135C4065636F6E64732028652E672E2C202730C1
S1135C5030303027293E20000D0A095265706574E2
S1135C606974696F6E732070657220616464726513
S1135C7073732028652E672E2C2027303030302770
S1135C80293E20000D0A094D6178696D756D2076F5
S1135C906F6C7461676520666F72206164617074F3
S1135CA069766520737570706C792028652E672E6F
S1135CB02C20273030303027293E20000D0A09528D
S1135CC065666572656E6365206279746520666FCA
S1135CD07220636F6D70617269736F6E73202865D3
S1135CE02E672E2C2027336527293E20000D0A0914
S1135CF0526570656174696E6720646576256420F9
S1135D0040203078253032782C20726570733D2520
S1135D10642C2070756C6C3D25642C2064656C616A
S1135D20793D25646D733A0A0A000D0A09536C65BE
S1135D306570696E6720756E74696C20737973740D
S1135D40656D2072657365742E2E2E0A000D0A0986
S1135D504279746520746F2073656E642028652E03
S1135D60672E2C2027463027293E20000D0A095291
S1135D70657065746974696F6E732028652E672E6B
S1135D802C20273030303027293E20000D0A0953BB
S1135D90656E64696E672025642072657065746938
S1135DA074696F6E73206F66205B307825303278AB
S1135DB05D206F6E204932432C2069326350756C2C
S1135DC06C7570456E61626C653D25642C2053537F
S1135DD0535550504C593D25646D560A0A000D0A1E
S1135DE00953656E64696E67202564207265706569
S1135DF0746974696F6E73206F66205B3078253028
S1135E0032785D206F6E205350492C2053535355E4
S1135E1050504C593D25646D560A0A000D0A094339
S1135E20616E6E6F7420736574204932432061641F
S1135E3064726573733A204669727374207365746F
S1135E40207468652064656661756C74204932430A
S1135E50206465766963652E0A000D0A095370692A
S1135E606E6E696E6720666F7220313020736563D1
S1135E706F6E64732E2E2E0A000D09446F6E652E0C
S1135E800A0A000D0A09456E61626C696E67204951
S1135E9032432070696E732E2E2E0A000D0A0948B3
S1135EA06578206F7220636F6E7665727465642006
S1135EB06D6F64653F2028276827206F7220276351
S1135EC027293E20000D0A09536574207468652053
S1135ED074696D652064656C6179206265747765A9
S1135EE0656E20656163682072756E20696E206D31
S1135EF0696C6C697365636F6E64732028652E67C3
S1135F002E2C20273132333427293E20000D0A0954
S1135F1044656C6179206265747765656E2072658D
S1135F2061642062617463686573207365742074AE
S1135F306F202564206D696C6C697365636F6E6492
S1135F40732E0A0A000D095061796C6F6164732025
S1135F506D616B6520726F636B657473206D6F7216
S1135F6065207468616E206A757374206669726551
S1135F70776F726B732E000D526567697374657267
S1135F803A20307825303278202D2D3E2056616C11
S1135F9075653A095B3078253032782C30782530B5
S1135FA032785D0A000D52656164206F6620494EA7
S1135FB04132313920726567697374657220666194
S1135FC0696C65642E0A000D0A09446F6E652077BA
S1135FD069746820647261772072656374616E67A6
S1135FE06C652E2E2E0A005465726D696E616C000C
S1135FF052545400534547474552003031323334EC
S11360003536373839414243444546898A080000C9
S113601000600640000000001F003B005A007800AA
