S02B00002F686F6D652F6A73323239342F576172702D6669726D776172652F6275696C642F6B73646B312E3121
S113000000060020310500005905000059050000D4
S113001000000000000000000000000000000000DC
S1130020000000000000000000000000590500006E
S11300300000000000000000590500005905000000
S11300405905000059050000590500005905000034
S11300505905000059050000590500005905000024
S11300609D26000059050000A72600005905000040
S11300705905000059050000590500005905000004
S113008059050000590500005905000059050000F4
S1130090E5080000FD0800005905000059050000AE
S11300A059050000590500005905000059050000D4
S11300B059050000590500005905000059050000C4
S1130400FFFFFFFFFFFFFFFFFFFFFFFFFE3DFFFFBB
S113041008B5054B054803331B1A062B03D9044BB7
S1130420002B00D0984708BDACFFFF1FACFFFF1F97
S1130430000000000648074908B5091A8910CB0FC7
S11304405918491003D0044B002B00D0984708BD1D
S1130450ACFFFF1FACFFFF1F0000000010B5074CEE
S11304602378002B09D1FFF7D3FF054B002B02D0D3
S1130470044800E000BF0123237010BDACFFFF1F40
S113048000000000B861000008B5094B002B03D040
S11304900848094900E000BF08480368002B02D15E
S11304A0FFF7C8FF08BD064B002BF9D09847F7E7C4
S11304B000000000B8610000B0FFFF1FA8FFFF1F8D
S11304C000000000144B002B00D1124B9D4640222B
S11304D092029A1A924600218B460F461148124AFC
S11304E0121A04F0F2F80D4B002B00D098470C4B75
S11304F0002B00D098470020002104000D000B4879
S113050004F067F804F09EF82000290000F0E0FDF4
S113051004F06EF80000080000060020000000004F
S113052000000000ACFFFF1FF40200201D46000085
S113053072B606480649074A02600A6002F0B8F833
S113054002F0F8F862B6FFF7BDFF000080E100E0BA
S113055080E200E0FFFFFFFF00480047590500006C
S113056002B4714649084900095649008E4402BC48
S11305707047C04602B4714649084900095C490005
S11305808E4402BC7047C046002243088B4274D399
S113059003098B425FD3030A8B4244D3030B8B4280
S11305A028D3030C8B420DD3FF22090212BA030C89
S11305B08B4202D31212090265D0030B8B4219D36A
S11305C000E0090AC30B8B4201D3CB03C01A52418A
S11305D0830B8B4201D38B03C01A5241430B8B42D2
S11305E001D34B03C01A5241030B8B4201D30B03BB
S11305F0C01A5241C30A8B4201D3CB02C01A5241E2
S1130600830A8B4201D38B02C01A5241430A8B42A4
S113061001D34B02C01A5241030A8B4201D30B028D
S1130620C01A5241CDD2C3098B4201D3CB01C01AA7
S1130630524183098B4201D38B01C01A52414309B1
S11306408B4201D34B01C01A524103098B4201D39F
S11306500B01C01A5241C3088B4201D3CB00C01A0C
S1130660524183088B4201D38B00C01A5241430884
S11306708B4201D34B00C01A5241411A00D20146A9
S1130680524110467047FFE701B5002000F0FCF826
S113069002BDC0460029F7D003B5FFF775FF0EBCB5
S11306A04243891A1847C04603460B437FD40022AD
S11306B043088B4274D303098B425FD3030A8B42F2
S11306C044D3030B8B4228D3030C8B420DD3FF225C
S11306D0090212BA030C8B4202D31212090265D02A
S11306E0030B8B4219D300E0090AC30B8B4201D3DD
S11306F0CB03C01A5241830B8B4201D38B03C01A24
S11307005241430B8B4201D34B03C01A5241030B9A
S11307108B4201D30B03C01A5241C30A8B4201D34B
S1130720CB02C01A5241830A8B4201D38B02C01AF6
S11307305241430A8B4201D34B02C01A5241030A6D
S11307408B4201D30B02C01A5241CDD2C3098B4252
S113075001D3CB01C01A524183098B4201D38B01CF
S1130760C01A524143098B4201D34B01C01A524172
S113077003098B4201D30B01C01A5241C3088B42B7
S113078001D3CB00C01A524183088B4201D38B00A2
S1130790C01A524143088B4201D34B00C01A524144
S11307A0411A00D201465241104670475DE0CA0F1B
S11307B000D04942031000D34042534000229C46DB
S11307C003098B422DD3030A8B4212D3FC228901E5
S11307D012BA030A8B420CD3890192118B4208D3BB
S11307E0890192118B4204D389013AD0921100E01D
S11307F08909C3098B4201D3CB01C01A5241830931
S11308008B4201D38B01C01A524143098B4201D35D
S11308104B01C01A524103098B4201D30B01C01A88
S11308205241C3088B4201D3CB00C01A5241830802
S11308308B4201D38B00C01A5241D9D243088B4258
S113084001D34B00C01A5241411A00D201466346FB
S113085052415B10104601D34042002B00D549425F
S1130860704763465B1000D3404201B5002000F09E
S11308700BF802BD0029F8D003B5FFF715FF0EBC35
S11308804243891A1847C0467047C04608B50A4B08
S11308901A68002A01D1094A1A601A68084910180E
S11308A0884206D903F09EFE0C23036001204042D7
S11308B001E01860101C08BDC8FFFF1FF8020020EB
S11308C0F80200200223807883428041404270472E
S11308D0437A0020013B012B03D901200B7801331B
S11308E00B70704708B5002003F0BAFA002803D053
S11308F00020011C03F0A8FA08BD0000024A136896
S1130900013313607047C0460800002037B500204B
S113091002F0AAF9C02300250D4A9B0013600D4A7A
S11309200D4C13600D4A281C13600D4B2571657125
S1130930A5711A68FA239B0053430A49236003F004
S1130940DDFA281C211C01AA03F040FB37BDC04678
S1130950189014541C901454F0FFFF1F00A014545A
S113096018FEFF1F0C00002008B5002003F00AFB4E
S113097080230A4A5B001360094A08201360094A6D
S1130980136002F00BFC062002F008FC092002F0C0
S113099005FC002002F06DF908BDC04618901454FF
S11309A01C90145400A0145408B5002002F066F9F9
S11309B08023054A9B001360044A00201360044905
S11309C002F0CCFC08BDC0460CA0145410A0145472
S11309D0CCFFFF1F08B5002002F0FCFC802382201E
S11309E0074A5B001360074A4000136002F0D6FB1D
S11309F00420FF3002F0D2FB002002F044F908BDCD
S1130A000CA0145410A0145408B50023354A3649D8
S1130A101360364A1360364A0133FF331360354A94
S1130A201360354A1360354A1360354A1360354AFA
S1130A301360354A1360012208780240081C3349C8
S1130A40002A01D00B6000E00A60314A314913608A
S1130A5000220A6030490A60304A1360304A136049
S1130A60304A1360304A1360304A1360304A1360CE
S1130A700378DB0703D50220FF3002F081FB092055
S1130A8002F08CFB0C2002F089FB052002F086FBAF
S1130A90082002F083FB0620FF3002F07FFB0E20CB
S1130AA0FF3002F07BFB8320400002F077FB08203C
S1130AB0FF3002F073FB0C20FF3002F061FB822058
S1130AC0400002F06BFB0420FF3002F067FB0820BB
S1130AD002F064FB062002F061FB092002F05EFBD9
S1130AE008BDC0460C90145410FEFF1F10901454FF
S1130AF014901454189014541C90145420901454AA
S1130B00249014543090145400A0145404A0145489
S1130B1008A014540CA0145410A0145414A0145479
S1130B2018A014541CA0145428A014542CA0145419
S1130B3034A0145408B5092002F030FB08BD08B5F0
S1130B400C2002F02BFB08BD08B5384B984259D055
S1130B5013D8374B984243D007D8364B984230D0FD
S1130B606433984238D0C83B12E0334B98423ED0AD
S1130B706433984242D0314B15E0314B98422FD028
S1130B800CD8304B98421CD06433984224D02E4B5E
S1130B90984242D1052002F001FB15E02B4B98420C
S1130BA025D006D82A4B984237D1052002F0F6FA10
S1130BB020E0C8231B01984220D0264B984221D024
S1130BC02BE0052002F0DCFA082002F0E7FA062008
S1130BD0FF3002F0E3FA24E0052002F0DFFA02E03D
S1130BE0052002F0CDFA082002F0CAFAEFE705204A
S1130BF002F0C6FA082002F0D1FA09E0052002F05A
S1130C00CDFA02E0052002F0BBFA082002F0B8FA9F
S1130C100620FF3002F0B4FA03E000200E4901F090
S1130C2031FD0E4B186801F049FE08BDC4090000EF
S1130C30340800006C070000FC080000980800005D
S1130C40540B00008C0A0000280A00001C0C000051
S1130C50B80B0000E40C0000004A00000CFEFF1F6B
S1130C6008B5FFF771FF092002F08AFA0C2002F0A0
S1130C7095FA8320400002F091FA08BD08B5FFF709
S1130C8063FF092002F08AFA0C2002F079FA83202B
S1130C90400002F075FA08BDAF2108B50B4B021CE9
S1130CA0C3189BB289008B4202D8FFF7D9FF0BE02F
S1130CB0074BC3189BB28B4202D8FFF7DFFF03E058
S1130CC00020044901F0DEFC08BDC046F8F8FFFF2F
S1130CD0D8F5FFFF2D4A000008B5FFF72BFFFFF7FB
S1130CE02EFF8320400002F04BFA024B186801F0FB
S1130CF0E5FD08BD0CFEFF1F10B5041C002901D042
S1130D00FFF782FE0021022000F0BCFF211C04201A
S1130D1000F0B8FF10BD08B501200021FFF7ECFF7B
S1130D203C200121FFF7E8FFF6E7000073B5161C2D
S1130D30002815D01649002001F094FA154C2068BB
S1130D4001F0BCFD1449002001F08CFA206801F088
S1130D50B5FD0020114901F085FA206801F0AEFDCF
S1130D6000250F4C0F4923686268002000922A1C5A
S1130D7001F088FC002022680B496368009001F0B0
S1130D8081FC002E02DD301C01F098FD0135E8E7FE
S1130D90654A000000FEFF1F8D4A0000445A00000F
S1130DA000D00340B24A0000BE4A0000F0B591B042
S1130DB01D1C16AB0C91197817AB05921A7818AB59
S1130DC01B78041C0D931CAB1B780EA80E931DAB53
S1130DD01B88089321231B18DB7F09931FAB1B88F7
S1130DE00F9320AB1B780A930B1C914200D9131C60
S1130DF0DFB2059B002D02D1002B06D101E0002BB0
S1130E0003D00020544901F03DFC0898FFF744FF4B
S1130E10211C002001F026FA0023089C029303936E
S1130E200793049300230693069A199B93426BDB62
S1130E3000261A9B9E4264DABB190B932C226B4644
S1130E409B18187801210C9B9847002838D1049BE3
S1130E5001330493089B9C4204D9643CA4B2201C33
S1130E60FFF71AFF002D16D0099A6B7BD31A5A424A
S1130E705341039AD31803930A9B002B39D0EB7A7E
S1130E80287B697B00900191DBB2F2193349002081
S1130E9001F0F8FB2DE0059B099A1B7AD31A5A42FC
S1130EA05341039AD31803930A9B002B21D0059B2B
S1130EB0F2191B7A281CDBB2294901F0E3FB18E084
S1130EC0022810D1002027490B9A01F0DBFB079B75
S1130ED0013307930F9B9C420BD26434A4B2201CB1
S1130EE0FFF7DAFE05E0033843425841029B1B1822
S1130EF002931B9B002B02DD181C01F0DFFC013662
S1130F0097E7069B01338EE70E9B002B04D07B1CD6
S1130F10DFB20D9B9F4285D9049A079B94461249E0
S1130F206344002001F0AEFB322001F0C7FC099BB2
S1130F30039A00930D49049B002001F0A3FB322087
S1130F4001F0BCFC0A49029A002001F09BFB32200C
S1130F5001F0B4FC11B0F0BD004A0000CB4A00001F
S1130F60F04A0000054B0000184B0000304B000015
S1130F70614B0000031C303B021C181E09280CD9CD
S1130F80131C613B052B01D8573A05E0131C413B68
S1130F900020052B01D8373A101C704770B501F0BA
S1130FA07CF9051C01F079F9FF24061C281C20405B
S1130FB0FFF7E0FF051C301C2040FFF7DBFF2D018D
S1130FC02818C0B270BD70B501F067F9041C01F0B7
S1130FD064F9061C01F061F9051C01F05EF9FF23B8
S1130FE0FA221C401D409200303C544364212A1CC8
S1130FF01E40303E4E43303A5A394A43A419034006
S1131000A218303BD01870BD70B50C1C161C88B0EB
S11310100CAA157806A908800A4A05A805700A4D85
S113102012682D684A6004AA167000900193029514
S1131030231C002002F0F4FA431E9841400008B03B
S113104070BDC04614FEFF1F08FEFF1FF7B56A46B9
S1131050CB1DDB08DB00D31A02AF9D46051C0C1C1C
S1131060FFF754FCFA23002002AE9B002A1C0094D4
S11310700193011C331C03F005F8041CFFF774FCF6
S1131080201CBD46441EA0418000F2BD08B50020CE
S1131090014901F0E7F808BDC74E000010B5094C3E
S11310A00020211C01F0DEF8211C002001F0DAF8F8
S11310B00549002001F0D6F80449002001F0D2F8D7
S11310C010BDC046F34E0000234F0000544F0000F3
S11310D0F0B5B9B025AC0021201C072203F0F5FAC5
S11310E0FA4A01262C92032215AB2F9317AB3093A7
S11310F01BAB33931DAB34931FAB359321AB3693AA
S113110023AB37932CAB19AF1A71002011AA2E927E
S1131110149326703194329701F09EFD301C01F037
S11311209BFD8022EA4B12021A6001F0E5FB0020CD
S11311300096021C031C011C01F0B6F8E5490020CE
S113114001F090F8C82001F0B9FBE349002001F058
S113115089F8C82001F0B2FBE049002001F082F8D0
S1131160C82001F0ABFBDE4A331C0221DD4801F04C
S1131170E7FB311C301C01F0EFFB0020002502F0DE
S1131180ABFDFC2329A9DB00281C0B804E808E803C
S1131190CD800D818D7202F0CDFD291C321C11A869
S11311A003F093FA259B60201993A28804A9BA80BE
S11311B0A2790918BA7103223A701B93A2880230EB
S11311C00A80A27904A909180A700522063804A91C
S11311D009180A701593A288143804A909180A80FA
S11311E0A279023004A909180A704421022704AA2A
S11311F0521817701793A288063004A909180A8098
S1131200A279C01904A909180A704C2104AA521819
S1131210483911701D93A288163004A909180A8050
S1131220A279C01904A909180A700822063804A969
S113123009180A701F93A2880C3004A909180A809F
S1131240C019A27904A909180A700921063804AA48
S1131250121811702193A3880C3004AA1218138059
S1131260A379C01904AA121813700A23063804AA11
S1131270121813707C2204AB9B181D7014AA331C23
S11312802FA801F049FD291C381C00F0FBFC9649ED
S1131290964801F059FFFFF7B7FB0820FF3001F033
S11312A06FFFC82001F00AFB0820FF3001F076FF31
S11312B0C82001F003FB0820FF3001F061FFC820C3
S11312C001F0FCFA0820FF3001F068FFC82001F0AB
S11312D0F5FA0820FF3001F053FFC82001F0EEFAC0
S11312E00820FF3001F05AFF814C4020211C00F0FF
S11312F03FFDFFF7F1FC00F0A9FDFA20800001F0AA
S1131300DDFA80200002FFF74FFB04230293E12360
S1131310DB000793C833099300952B1C01960395B2
S113132004960595069608950A9672487249221CF9
S1131330FFF73CFD80231B020D950E950C936F491E
S1131340002000F08FFF6E4C6E4F206801F0B6FA5B
S11313506D49002000F086FF206801F0AFFA6B4968
S11313600D9A0E9B002001F08DF9206801F0A6FA79
S1131370674D684E68492A683368096800200091FF
S11313800C990191654901F07DF9206801F096FA04
S1131390634B644A0020D2587B69396800916249E2
S11313A001F070F9206801F089FA604B5F491A78FE
S11313B05B788979D2B2DBB2009100205C4901F0FC
S11313C061F9206801F07AFA584B5A491A7A1B7E5F
S11313D00978D2B2DBB200910020574901F052F9EA
S11313E0206801F06BFA554B55491A785B78096906
S11313F0D2B2DBB200910020524901F043F92068D7
S113140001F05CFA504B47499A78504BD2B2CB5812
S11314107968002000914E4901F034F9206801F008
S11314204DFA4C4B4C491A6811AB1B78002001F063
S113143029F9206801F042FA4849002000F012FF1F
S1131440206801F03BFA4649002000F00BFF2068B9
S113145001F034FA4349002000F004FF206801F051
S11314602DFA4149002000F0FDFE206801F026FA23
S11314703E49002000F0F6FE206801F01FFA3C49C6
S1131480002000F0EFFE206801F018FA394900202E
S113149000F0E8FE206801F011FA3749002000F05E
S11314A0E1FE206801F00AFA3449002000F0DAFE77
S11314B0206801F003FA3249002000F0D3FE2068CE
S11314C001F0FCF90E9A03235CE0C046D108000049
S11314D04C020020864F0000A14F0000A74F0000DF
S11314E028FEFF1F2CFFFF1F3CFEFF1F2CFEFF1FCB
S11314F0F8FFFF1FAE4F0000891D0000BA4F000027
S113150000FEFF1F00D00340DE4F0000105000001B
S113151014FEFF1F18FEFF1F04FEFF1F44500000AF
S11315203C100000007004407C5000000040064065
S1131530B250000000500640E150000000E00740B7
S113154000ED00E01151000000D00740341000000D
S11315504B5100000800002083510000B1510000ED
S1131560BB510000D8510000F4510000105200009B
S11315702D52000054520000735200009252000099
S1131580BD520000E549002001F07CF8206801F01C
S113159095F9E349002000F065FE206801F08EF91A
S11315A0E049002000F05EFE206801F087F9DE4982
S11315B0002000F057FE206801F080F9DB4900208C
S11315C000F050FE206801F079F9D949002000F0BC
S11315D049FE206801F072F9D649002000F042FE6D
S11315E0206801F06BF9D449002000F03BFE20682C
S11315F001F064F9D149002000F034FE206801F0C4
S11316005DF9CF49002000F02DFE206801F056F965
S1131610CC49002000F026FE206801F04FF9CA49A9
S1131620002000F01FFE206801F048F9C74900209F
S113163000F018FE206801F041F9C549002000F0CF
S113164011FE206801F03AF900F027FEFF27021C82
S11316500F903A406B2A00D143E200DD04E1652A91
S113166000D1DCE100DDA4E0622A00D145E100DD27
S11316708DE00A2A00D1A2E2612A00D0A5E2B54990
S1131680002000F0EFFDB449002000F0EBFD2068DD
S113169001F014F9B149002000F0E4FDB049002044
S11316A000F0E0FDAF49002000F0DCFD206801F00F
S11316B005F9AD49002000F0D5FD206801F0FEF8E1
S11316C0AA49002000F0CEFD206801F0F7F8A849EF
S11316D0002000F0C7FD206801F0F0F8A5490020C3
S11316E000F0C0FD206801F0E9F8A349002000F0F3
S11316F0B9FD206801F0E2F8A049002000F0B2FD35
S1131700206801F0DBF89E49002000F0ABFD206862
S113171001F0D4F89B49002000F0A4FD206801F0FA
S1131720CDF89949002000F09DFD206801F0C6F82D
S11317309649002000F096FD206801F0BFF8944916
S1131740002000F08FFD206801F0B8F891490020D6
S113175000F088FD206801F0B1F88F49002000F006
S113176081FD206801F0AAF88C49002000F07AFD80
S1131770206801F0A3F88A49002000F073FD206876
S113178001F09CF800F089FD021C3A401DE2632A36
S113179000D133E1642A00D017E28249002000F02E
S11317A061FDFFF710FC804B804918601A68002027
S11317B00DE2682A00D17DE111DC662A00D139E10D
S11317C0672A00D001E27A49002000F04BFDFFF7C0
S11317D0FAFB83B20D931A1C00207649F7E1692ABB
S11317E000D16FE16A2A00D0EFE10E9A724900201D
S11317F000F048FF00F051FD7049002000F032FD78
S113180000F04BFD6E49002000F02CFD00F045FD7A
S11318106C49002000F026FDFFF7D5FB6A49041C43
S1131820002000F01FFDFFF7CEFB051C67490020D8
S113183000F018FDFFF7C7FB6549002000F012FD1A
S1131840FFF7ACFB0C9B6349019303220E9B0095AD
S11318500294002000F016FF0C98FFF7A5F85E49EB
S1131860002000F0FFFC39E1722A00D18CE10CDC8D
S11318706E2A00D17FE100DA39E16F2A00D17FE1DD
S11318800220702A00D180E19FE1752A00D189E10C
S113189006DC732A00D17DE1742A00D14FE594E17E
S11318A0782A00D181E17A2A00D08EE14B490020C8
S11318B000F0D8FC0C98FFF777F84949002000F0B5
S11318C0D1FC00F0EAFC4749051C002000F0CAFCEA
S11318D0FFF779FB86B24449321C002000F0D2FEA7
S11318E0206800F0EBFFE9B268394D4269410120FC
S11318F0C9B2321C0C9BFFF719FA3C49002000F0D6
S1131900B1FCFFF760FB28602A68394B9A4201D189
S1131910384B2B602A680020374958E1E052000018
S11319200F5300002B5300004F530000735300006B
S11319308D530000A8530000C6530000E353000079
S113194002540000215400003B540000665400007F
S11319508654000099540000A4540000E25400008E
S11319602455000065550000A5550000E55500000C
S113197022560000615600009F560000DC5600000D
S11319801A5700005757000096570000D35700001D
S1131990FC5700003958000070580000AD58000092
S11319A0EA580000B059000004FEFF1FDF59000090
S11319B0005B00002C5B0000D55B00000F5C0000A6
S11319C0385C0000515C0000905C0000BC5C0000CE
S11319D0F45C0000255D0000FA4B0000BB5E0000D3
S11319E0D45E0000FD5E0000455F00001A5900004F
S11319F00F270000102700004859000076490020F6
S1131A0000F030FCFFF7DFFA30603268734B9A4223
S1131A1001D1734B3360326800207249D7E07249B8
S1131A20002000F01FFCFFF7B9FA0E906F49002068
S1131A300E9ACCE06E49002000F014FCFFF7AEFAD9
S1131A40061C6C4C321C211C002000F01BFE6A4951
S1131A50002000F007FCFFF7A1FA12AF021C387057
S1131A60211C002000F00EFE992E02D100206349B3
S1131A70A7E02B6827AC0D9828932680FFF70CF974
S1131A800C98FEF791FF38216B465B181B7813AA5C
S1131A9013705B4B00201968012302910097019396
S1131AA0211C01F0BDFD021E18D05649002000F093
S1131AB0E9FD13E05449002000F0D4FB0120FFF7B6
S1131AC0EDFA3CE45149002000F0CCFBFFF77BFA2F
S1131AD083B20C931A1C00204D4978E0FEF77AFF7C
S1131AE02DE44C49002000F0BDFBFFF714F94649F2
S1131AF0002000F0B7FB4849002000F0B3FBFFF7DB
S1131B004DFA27AD28704549002000F0ABFBFFF7E4
S1131B105AFA6B463C229B181E78041C2B786C2EB8
S1131B2017D10C9A002000920D9A3D490192221C73
S1131B3000F0A8FD0025A54201DBFFF700FC27AB60
S1131B401A780023FF2000930121FFF75DFA013585
S1131B50F1E70D9A002000923249221C00F092FD18
S1131B600026A64201DBFFF7EAFB281C0121FFF750
S1131B706DFA0136F5E70D98FFF78EF8FFF7DFFBF6
S1131B80FFF7AAF8FFF7DBFB0820002100F07AF842
S1131B90FFF7D5FB1C49002000F064FBFFF776FA41
S1131BA0FFF7CDFB002020490BE02049002000F086
S1131BB059FB0B4800F082FE00201D4901E0002083
S1131BC01C4900F04FFBFFF7BAFB00201A4900F054
S1131BD059FDFFF7B4FBC046685900000F27000009
S1131BE01027000096590000FA590000305A0000EE
S1131BF0475A00007A5A0000905A0000B95A00006F
S1131C0008FEFF1FDF5A00004E5B00007C5B0000F3
S1131C10B85B0000625D0000855D0000A45D00000B
S1131C20C45D0000165E0000545E0000925E000079
S1131C30B15E00007D5F0000FE5800001FB5041C6B
S1131C4001A9002002F09EF801A8694601F0D8FF1E
S1131C50009B68461C1901A9009401F059FF01A9D1
S1131C600122002002F0BAF81FBD00000022034B3D
S1131C701A608022024B1206DA67704700A01C58D3
S1131C8004E100E010B50A2308286FD80C1CFEF705
S1131C9071FC051B283C48626466570001F0D2F9C8
S1131CA00523012862D0FFF7E1FF201CFFF7C6FFE0
S1131CB00020011C01F054F8041C0020012100F054
S1131CC04BFE002C4FD150E001F0BCF90623012853
S1131CD04CD0FFF7CBFF201CFFF7B0FF0120002101
S1131CE0E8E701F0AFF9082301283FD000F0BCFE7B
S1131CF0002803D00020012100F02EFE0220002144
S1131D0001F02EF800282ED12FE001F09BF90723D3
S1131D1000282BD0FFF7AAFF201CFFF78FFF03201A
S1131D2005E0FFF7A3FF201CFFF788FF0420002134
S1131D3001F016F8041C01F085F90028C1D1BDE7B3
S1131D400820002101F00CF800280CD10120011C0E
S1131D5000F002FE09E0052002E0062000E0072072
S1131D60002100F0FDFF092300E00023181C10BD32
S1131D7038B5051C0C1C0020024900F073FA2570CC
S1131D8038BDC046AF5F0000F0B5041C89B01649E9
S1131D90002000F067FA154F06A93B7805AE0B80CA
S1131DA0134B34701B6802244B60124B0194009354
S1131DB0FA235B000293F43B0020321CFF3B01F04A
S1131DC03CFC051E09D13B7A797A3278DBB200916A
S1131DD0094900F057FC281C04E00020074900F0E2
S1131DE041FA201C09B0F0BDCB5F0000F8FFFF1FD3
S1131DF014FEFF1F00000020F55F000023600000B8
S1131E0013B5041C0C2001F0BBF90A2000F056FDA8
S1131E100C2001F0C3F90E20FF3001F0BFF90123BB
S1131E20084A002014700093FA239B000193011CBC
S1131E30054B02F027F9041C0C2001F0A1F9201C29
S1131E4016BDC0465C0000203C00002008B5C0233D
S1131E50654A9B001360654A1360FEF757FD8023B3
S1131E60634A5B001360634A02201360624A136092
S1131E7001F086F9642000F021FD022001F08EF9C2
S1131E80642000F01BFD022001F07AF9642000F0C8
S1131E9015FDAE20FFF7B4FFA020FFF7B1FF7220BD
S1131EA0FFF7AEFFA120FFF7ABFF0020FFF7A8FF6D
S1131EB0A220FFF7A5FF0020FFF7A2FFA420FFF751
S1131EC09FFFA820FFF79CFF3F20FFF799FFAD205D
S1131ED0FFF796FF8E20FFF793FFB020FFF790FFE8
S1131EE00B20FFF78DFFB120FFF78AFF3120FFF7AA
S1131EF087FFB320FFF784FFF020FFF781FF8A20DC
S1131F00FFF77EFF6420FFF77BFF8B20FFF778FF4E
S1131F107820FFF775FF8A20FFF772FF6420FFF730
S1131F206FFFBB20FFF76CFF3A20FFF769FFBE206D
S1131F30FFF766FF3E20FFF763FF8720FFF760FF90
S1131F400620FFF75DFF8120FFF75AFF9120FFF77E
S1131F5057FF8220FFF754FF5020FFF751FF8320E3
S1131F60FFF74EFF7D20FFF74BFFAF20FFF748FF41
S1131F702620FFF745FF0120FFF742FF2520FFF74A
S1131F803FFF0020FFF73CFF0020FFF739FF5F20F1
S1131F90FFF736FF3F20FFF733FF2220FFF730FF24
S1131FA00020FFF72DFF0020FFF72AFF5F20FFF737
S1131FB027FF3F20FFF724FF0020FFF721FFFF202A
S1131FC0FFF71EFF0020FFF71BFF0020FFF718FF9D
S1131FD0FF20FFF715FF0020FFF712FF002007493D
S1131FE000F040F9002008BD2090145424901454AB
S1131FF034A014543090145400A0145445600000CC
S11320000269C3689A4203D880681018013800E056
S1132010501EC01A7047F7B58368C668051C40682F
S11320200191141C9F1B8019974203D902F044FBB1
S1132030A4190AE001993A1C02F03EFB019BE41B3F
S1132040D9196868221C02F037FBEC60F7BD002345
S1132050F7B5061C171CC568019100933369B46871
S1132060AB4200D81B19013B5B1B641BBC4200D96B
S11320703C1C9C4200D91C1C7368221C58190199F1
S113208002F01AFB009B2D191B190093019B3F1BA7
S11320901B190193B368EB1A5A1E93415B421D400E
S11320A0F560002FDAD10098FEBD0000022310B5C0
S11320B00F4C104A236163610F4BA261E361C82393
S11320C0A2640E4A2362E26400230422A3626362D0
S11320D0E362A3656365E3652265E01D084902F0D8
S11320E0ADFB201C074902F0A9FB2023A37110BDFE
S11320F04801002065600000800000207C00002072
S11321006E60000072600000F0B5294B171C1A784D
S113211085B0009001910293002A01D1FFF7C6FF18
S11321201823009A00255343029AD3181A1C5032DC
S113213052689C6D039294421BD91B6D3D1C1B1B62
S11321409F4200D91D1C1826009B2A1C5E43029B3B
S113215001989E19F36C7F1B191902F0ADFA019BCB
S113216064195B190193336DE31A5A1E93415B4260
S11321701C40039B1E1BBE4200D93E1C002E0CD0EB
S11321801823009A01985343029AAD19D318D96CB5
S1132190321C091902F090FAA419002D05D0182355
S11321A0009A5343024AD3189C65281C05B0F0BD1D
S11321B04801002010B50B1CEFF31084012181F3BA
S11321C01088191CFFF7A0FF84F3108810BD0000CD
S11321D0F8B51823451C5D434343141C134A0E1CD5
S11321E0D018C76A5519012F0FD0002F07D0022F1E
S11321F017D1221C281CFFF72AFF041C14E0281CFA
S1132200FFF7FEFEA0420ED305E0281CFFF7F8FE00
S1132210844200D9041C281C311C221CFFF7FBFE3D
S113222002E0002400E03C1C201CF8BD4801002012
S1132230F8B50B4B071C1B780E1C151C002B01D189
S1132240FFF734FFEFF31084012181F31088381C69
S1132250311C2A1CFFF7BCFF84F31088F8BDC0466C
S11322604801002038B5051C081C0C1C02F0EEFACD
S1132270211C021C281CFFF7DBFF38BD13B56B467D
S1132280DC1D0020211C0122FFF794FF012801D14D
S1132290207801E00120404216BD08B5FFF7EEFFAB
S11322A00028FBDB08BD0000F7B5164C019323782A
S11322B0051C0F1C161C002B01D1FFF7F7FE236928
S11322C09D421CD2EFF31082012181F31088002D6E
S11322D00CD01823691C59436B43675061184E6036
S11322E00199E318196200219962596218235D4328
S11322F0089B6419E36282F31088002001E0012046
S11323004042FEBD48010020826810B5041C4068AC
S1132310531C834205D820688154A360E3680133C9
S1132320E360A26863689A420CD120692168FFF7D0
S11323307FFFA368984203D001235B42E36001E07E
S11323400023A36010BD0000F0B5051C1F1C081C71
S1132350012685B00A9C00910192019B984204D306
S11323600199FEF711F90136F7E70296BE4200D251
S1132370029701230B9A1A40039218D1002C01D121
S1132380002414E00B9B20269B070DD5002F0BD1B6
S1132390103609E0281C311CFFF7B6FFEB68013C3E
S11323A0002B04DB002CEBD0029BA342F2D3EB689E
S11323B0002B35DB0126012F01D9013F06E00098EF
S11323C0311CFEF7E1F8019B984208D3019B5E4360
S11323D0F1E7301C0199FEF7D7F8061E10D00098DB
S11323E0311CFEF7D1F8331C4343009AD31A0093EF
S11323F00C4B195C281CFFF787FFEB68002BE8DA0D
S1132400039B002B0CD0002C0AD0029BA34207D2C2
S1132410281C2021FFF778FFEB68013C002BF2DA3F
S113242005B0F0BD79600000F0B59FB00EAB099324
S113243040230A930023161C06900B930D900C93D3
S11324400B784C1C002B04D10C9B0393002B22DC37
S113245015E1252B16D1002502314F1E3B782B2B7D
S11324600CD003D8232B27D1082308E02D2B03D02D
S1132470302B21D1022302E0012300E004231D4379
S11324800131EAE7191C09A8FFF73EFF211C0C9B48
S1132490002BD5DAD8E70B9A002A03D006980EA9A8
S11324A0FFF7C6FE0C9B03930B9B0493049A039BB8
S11324B0944663440C93E2E000243A78131C303BC6
S11324C0092B05D80A235C43303C0137A418F4E7F0
S11324D0002303932E2A0DD101373A78131C303B85
S11324E0092B07D80A23039901374B43303B9B1828
S11324F00393F2E7397804230A1C9A43682A01D12A
S11325000137F7E7642926D008D8582900D195E087
S113251063291AD0252900D0AFE0ABE0732900D19C
S113252095E00DD8702900D0A7E032680021131D72
S11325303360082301910093116809A8102296E0E2
S1132540752971D0782979D097E0336819681A1DF4
S11325503260C9B28EE033681A1D1B683260DA1724
S113256098180493012350400593092805DD0A2196
S1132570FEF79AF8059B0133F6E7059B039A93420D
S113258000D20592002C05D0049B002B01DB6B07C5
S113259000D5013CAB0702D5039B002B10D0EB0701
S11325A00ED4002C01D100240AE0059BA34207D2DB
S11325B009A82021FFF7A8FE0C9B013C002BF0DAB0
S11325C00C9B0793002B58DB049B002B04DA5B4223
S11325D0049309A82D2103E06B0703D52B2109A837
S11325E0FFF792FE0C9B002B47DB03232B40022BAF
S11325F011D1039B002B0ED1002C01D100240AE041
S1132600059BA34207D209A83021FFF77DFE0C9B4E
S1132610013C002BF0DA0C9B0593002B2DDB00947E
S1132620019509A8049906E03368009401951A1DE0
S11326301968326009A80A22039B18E033680094E1
S11326401A1D0195326009A819681022F4E733684D
S11326501A1D32601C682178013400290DD009A8A4
S1132660FFF752FE0C9B0393002BF4DA05E0FFF70F
S11326706BFE02E009A8FFF747FE791C07E70C98F8
S11326801FB0F0BD0EB403B503AB02CB01AA019396
S1132690FFF7CAFE02B008BC03B0184708B5002013
S11326A000F08AFD08BD08B5002001F0F5FB08BD67
S11326B0082110B5164B9A780A4202D09A780A4338
S11326C09A70882200212220124B52019950124AFA
S11326D010708020114A400298501868104A024035
S11326E010481A601C58104A2240C024A4042243F3
S11326F01A5080220D4B19721A767F3A19705A704B
S11327000B4A11700C2299791142FBD110BDC046BD
S113271000D007400070044000E00740441000006F
S1132720FFFFF3FF04100000FFFFFFF0004006402E
S113273000500640154B164810B5191E81420CD0A6
S11327400022144B9B089B009A4203D084588C505F
S11327500432F9E7104B996001E00F4A93600023BB
S11327600E4A0F49891A8B4204D0D45C0D48C454D4
S11327700133F8E700230C4A0C49891A8B4204D030
S11327800024D01804700133F8E710BD00000000E5
S1132790000000000000000000ED00E0E061000027
S11327A08C63000000FEFF1FACFFFF1FF40200203B
S11327B000234170436003708360181C704710B598
S11327C04378041C0120FF2B08D000F06DFA6378D5
S11327D00133DBB2637000F05BFA002010BD00200F
S11327E0704738B5041C0D1C00F05EFAE1682943FB
S11327F0E16000F04DFA002038BD000000220A4BD1
S11328009A641A1C40329A631A1C30329A621A1C57
S113281020329A611A1C10329A60044A1360044BE5
S11328209B60DB607047C046D4010020D0010020CB
S1132830C00100200022024B1A60186880B2704761
S11328400C007C5038B54378041C0D1C002B0BD0B5
S1132850002500F029FA6378013BDBB26370257030
S113286000F016FA281C28E00220002925D023783D
S1132870002B15D0FFF7DEFF6368A268984201D3EE
S1132880C01A03E0C01A80235B02C018824213D22C
S113289000F00AFA0023237000F0FAF902200CE099
S11328A04B1C09D000F000FA0123237000F0F0F96A
S11328B0FFF7C0FFA5606060032038BD38B5051C74
S11328C0FFF7B8FF041CFFF7B5FFA04201D3001BBC
S11328D003E08023001B5B02C0188542F3D238BD9D
S11328E008B5012801D100F0DFF908BD08B50128B9
S11328F001D100F0CDF908BD10B5FFF77FFF01232A
S11329000020084A08491360084A094C106008600E
S113291004212160074C216007490B6007490860C6
S1132920136010BD3880045000008450000004502F
S1132930000004510400045104000C50000004532E
S113294010B5044C206021710020A26023736373CE
S113295010BDC04624020020F0B587B06B4602903B
S11329601B7A05AC23706B4603911B7B3D4D637052
S11329702B79029A0420934271D92B7B6B73012328
S1132980A37000230193374E0093337B009A371CC6
S113299093421AD9009BB2689B009B58002B10D01D
S11329A01A79D2070DD51A68201C99689047002817
S11329B007D06B461B787373039B002B3AD0052317
S11329C00193009B0133DBB2DDE7019E002E02D0B0
S11329D0039B012B2FD10120FFF782FF0C20029BC8
S11329E058432B68181800F0A7F86B461B7A01208F
S11329F06B71FFF77BFF02230025A3703B7BAB4287
S1132A0016D9BA68AB009B58002B0ED01A799207DE
S1132A100BD51A68201C99689047002805D0039BA1
S1132A207D73002B1AD0062301930135EDB2E5E73F
S1132A30019814E005260023009FA370013FFFB214
S1132A40FF2F09D0AA68BB009B58002BF6D01A6848
S1132A50201C99689047F1E7301C00E0062007B07D
S1132A60F0BDC04624020020014B58797047C0468F
S1132A702402002013B500210378041C0191022BC9
S1132A8007D0032B0BD0012B0ED10279191C13484C
S1132A9001E00279114801AB00F0CEFF08E001A982
S1132AA00E4801F00BF803E00C4801A900F0A8FF60
S1132AB0002812D1A3790A4ADB01DBB213706378D0
S1132AC0084A5B00DBB21370A278074B1A70E278F5
S1132AD0064B1A706279064B1A7016BD0040064008
S1132AE0184086530040865000400650014006506E
S1132AF0184016501F22802302405B05D2051A435A
S1132B00034943099B005B181A4300231360704771
S1132B10288004401F2280210240D305490519431F
S1132B20430904489B001B1819430123081C9340C4
S1132B3003607047288004400022072373B5041CF7
S1132B40104D0093281C131C012101F097F9201C3F
S1132B50FFF790FF0022637A217A0093281C131C4C
S1132B6001F08CF9E379084A9B041360074BA17ABE
S1132B701D68281C00F0BEFF281CE17A00F0C1FF8C
S1132B80002076BD0070044000700C59D460000031
S1132B9008B5054800F0F6FE044B1968C9B20131C6
S1132BA0FDF7F2FC08BDC0460040064044801C5EB0
S1132BB008B5054800F0E6FE044B1968C9B20131B6
S1132BC0FDF7E2FC08BDC0460040064044801C5EA0
S1132BD008B5054800F0D6FE044B1968C9B20131A6
S1132BE0FDF7D2FC08BDC04600400640448014589E
S1132BF008B5054800F0C6FE044B1968C9B2013196
S1132C00FDF7C2FC08BDC04600400640448014588D
S1132C100C4B1B68DBB2022B0DD0032B0ED0002B08
S1132C2001D000200CE08021074A09021268101E1E
S1132C308842F6D104E0054B186801E0FA208000D0
S1132C407047C04600700C594C020020500200200E
S1132C5008B5FFF7DDFF08BD08B5024B185CFFF7A8
S1132C6059FF08BD8960000008B57620FFF752FFC0
S1132C7008BD08B57620FFF73DFF08BD08B56620FE
S1132C80FFF748FF08BD08B56620FFF733FF08BD0E
S1132C90044A1368002B04D0013B1360002B00D1BD
S1132CA062B670473402002072B6024A13680133D8
S1132CB0136070473402002010B50B4B0B4A127896
S1132CC0002A04D1013B002BF8D103200AE0064C72
S1132CD0074801F069FB012803D0013C002CF7D11F
S1132CE0F3E7002010BDC046EA03000002D00751FC
S1132CF000E0074010B5064C064801F055FB0428D7
S1132D0004D0013C002CF7D1032000E0002010BDCA
S1132D10EA03000000E00740F7B5071C0E1C151C71
S1132D2001930120002F18D0002916D0FFF7D8FDF9
S1132D300A4C0021201C102201F0C7FC27602671D8
S1132D40002D06D06B461B79A56023736B461B7957
S1132D5063730120FFF7CAFD0020FEBD3802002086
S1132D60F0B5B24C8BB002900191237B01206373C8
S1132D70FFF7B6FD2379029A934204D80120FFF7A6
S1132D80B5FD022050E1029A23689200D6586B46A2
S1132D901B7907AC357823726B461B7A2A1C237087
S1132DA002239A4366600392012A01D0052D0AD1B9
S1132DB001219F4801F04AFA002809D10120FFF7B8
S1132DC095FD012030E1072D02D999480321F1E74F
S1132DD00123637200240094944F009A3B7B934236
S1132DE01AD9009BBA689B009B58002B0FD01A7904
S1132DF0D2070CD51A6807A899689047002806D00E
S1132E006B461B7804247B73019B012B04D1009B2C
S1132E100133DBB20093DFE70120FFF767FD85484C
S1132E2000F0D4FD039B012B1DD10138C0B2022850
S1132E3011D8FFF7DDFE804B98420CD8FFF7A8FEAF
S1132E407E4FB84207D8FFF7C3FEB84203D8FFF756
S1132E50AFFEB84207D9019B012B01D1062407E03C
S1132E60002C05D1FAE7019B012B52D0002C50D045
S1132E700120FFF735FD002307AE009D7372013D6D
S1132E80EDB2FF2D40D0694BAA009B68D358002BAC
S1132E90F5D01A79D207F2D51A68301C9968904790
S1132EA0EDE7072205AB1A7000225A70F2789A7087
S1132EB03279DA702B1C083B05A9022B03D87379ED
S1132EC08B71B379CB717378002B00D084E05848B0
S1132ED001F0F0F9002800D00324002D00D08AE08E
S1132EE0FFF7EAFE0024002800D09DE00120FFF750
S1132EF0F7FC6B464D4E1B7A0025B373022307AFD4
S1132F007B72337BAB427CD80120FFF7EFFC201CA3
S1132F108AE003200A2D00D986E0281CFDF720FB57
S1132F2006080A1940583339C1282D00002250E000
S1132F3003224EE03E4801F037FA012807D03C480E
S1132F40002101F093F9FFF7B7FE041E6CD10122B2
S1132F503FE0374801F028FA042807D0344802211A
S1132F6001F084F9FFF7C6FE041E5DD1042230E0AF
S1132F70072205AB1A70063A03E0072205AB1A7064
S1132F80043A5A7096E7022205AB1A70013A1A7194
S1132F9004E00222012105AB1A7019715A7189E704
S1132FA00222002705AB1A702148013A1A715F7199
S1132FB001F0FAF9012800D17CE71D48391C01F021
S1132FC055F9FFF779FE041EBC4200D172E72BE0ED
S1132FD0052205AB1A706DE7012D00D877E7B278AA
S1132FE00220174B002A02D01A69024301E01A6931
S1132FF082431A616BE7012D00D077E7FFF77AFE71
S113300070E7B268AB009B58002B0AD01A7992077C
S113301007D51A68381C99689047002801D0052400
S113302075730135EDB26CE70BB0F0BD38020020CA
S113303000E007400040064040420F0080841E002C
S113304000ED00E008B5064801F0AEF900230128C0
S113305003D00133042800D00A33181C08BDC0462D
S113306000E00740F7B5FF2403681C4A1D0A254009
S11330701C40AB009F581A4A061C9B58281C0193FD
S1133080FFF7EAFD211C0022381C01F095F9019B91
S1133090A4001C19842332795B05234352001A606F
S11330A0802372795B0523431A609023B2795B0510
S11330B0234312011A60F3790A4A14431A04226062
S11330C0002B0AD0084B5A5D002A06D01F23134058
S11330D001229A40131C054A1360F7BDE06000000A
S11330E0D860000000001818E860000000E100E06B
S11330F0F8B5FF24051C0368114A180A20401C4037
S113310083009F580F4A9E58FFF7A6FD381C211CC8
S1133110012201F051F96A68381C211C01F05CF9A4
S113312088232A7AA40034195B05234392001A6089
S113313098235B051C436B7A9B012360F8BDC04652
S1133140E0600000D860000038B50C1C002802D1F3
S1133150002C09D112E003680133F9D0051C0835AD
S1133160FFF780FF281CF6E72368013306D0251CEF
S1133170201C0C35FFF7BCFF2C1CF5E738BD000004
S1133180FF22030A134002400120904002499B00A1
S11331905B5858607047C046E0600000FF22030A95
S11331A0134002400120904002499B005B58986004
S11331B07047C046E060000008B5084B8200D35851
S11331C094220233520513431B78002B02D000F0E3
S11331D041FA01E000F096FA08BDC0468C60000098
S11331E0031C80220C33520513431B78002BF7D0A9
S11331F00171704738B50D1C084B8000C458201C61
S1133200291C1830FFF71EFB0328F8D0002801D032
S113321004232374207CC0B238BDC0464802002079
S1133220F0B589B00290161C8200374805931058F7
S11332300EAB019035481B781458002007AA108063
S1133240A27C8F0A04920122E274A2745A4253416E
S11332501E3FDBB203937B425F41FFB2CDB2874294
S113326002D0CBB29C460D0A00216D00EDB28F4214
S113327004D1391C002E01D16B46197B0D4307ABD9
S11332801D700122002F02D062465A700222A360F0
S1133290E2600198291CFFF7A3FF02980F99FFF73A
S11332A0A9FF237C002B0CD1002E0AD0059BA6601D
S11332B0E36031780198FFF793FF02980F99FFF7C5
S11332C099FF237C002B16D1039B002B13D0002FD6
S11332D001D1002E0FD000230127A3600198E760DD
S11332E001F0D2F8391C01982943FFF779FF0298BD
S11332F00F99FFF77FFF0023E3746B46207C1B7C50
S1133300C0B2A37409B0F0BD8C6000004802002074
S1133310104A830010B598580F4A9C58E37C002B40
S113332005D0237C052B02D0237C042B09D19822C1
S1133330831C5205134300221A7001F0B7F80123CD
S11333406374A37C002B03D0201C1830FFF737FADA
S113335010BDC0468C60000048020020F7B5194B30
S11333608700FB5801250093174BFE58002E26D1E9
S11333700C1C24220190081C311C01F0A6F9201C0D
S1133380311C1830FFF714FA0198FFF777FC009806
S113339001F02AF80C4B019AFC500C4B9A5C1F2349
S11333A013402A1C9A40131C094A13609C22009B58
S11333B052050233134380226574351C1A70281C8D
S11333C0FEBDC0468C600000480200208B600000F7
S11333D000E100E0F7B59C220027051C0D4E840097
S11333E0A359520501930C4BE358023313431F7046
S11333F0FFF749FC094B01985A5D1F231340012232
S11334009A40131C064A1830D367FFF7E8F9A7510E
S1133410F7BDC046480200208C6000008B600000AD
S113342004E100E00A4B800070B5C558094BC6584A
S11334304B68726993420AD00C1CFFF7C9FB002346
S1133440011C6268281C00F0DDFF6368736170BDB5
S11334508C60000048020020F0B587B00FAC334FF9
S1133460334D267884006559E459677C002F02D1D6
S11334700320207458E0002E01D11E270E970593D7
S11334800023A674E360A360237423606374071CA1
S113349004920391FFF7C6FF90231021AA1C5B0539
S11334A0134319708421EB1C49050B430221197045
S11334B098235B05134302934023029A281C13703C
S11334C000F0E2FF039B381C1988012300930E9B34
S11334D0049A0193059BFFF7A3FE0D9B002B15D0C7
S11334E0237C002B0FD10C9B281CA3600D9BE36055
S11334F00C9B1978FFF774FE002E13D0381C0E991C
S1133500FFF778FE0EE0237C042B0BD10023012669
S1133510029A1370EB785B09334202D0281C00F046
S1133520C5FF6674207CC0B207B0F0BD480200201D
S11335308C600000F0B58BB013AC2478364E374D58
S1133540039484006559A459667C002E02D103209B
S113355020745FE0039E002E01D11E36129609935B
S1133560109B00262360119BA66063606B461B7B47
S1133570E660A37426746674079108920490FFF7BA
S113358051FF9023AF1C5B053B4305931023059A21
S1133590281C13708422EB1C5205134302221A7058
S11335A098235B053B4306934023069A137000F06F
S11335B06BFF079B089A1988129B00960193049845
S11335C0099BFFF72DFE227CD2B2B24212D1059B99
S11335D011991A708C235B053B43012900D1082201
S11335E01A702B79039B002B12D004981299FFF7C1
S11335F001FE0DE0237C042B0AD1069B1E700126DC
S1133600EB785B09334202D0281C00F04FFF66744C
S1133610207CC0B20BB0F0BD480200208C600000DA
S11336201FB5069C0094079C0194089C02940124F5
S11336300394FFF711FF04B010BD1FB5069C00945E
S1133640079C0194089C029401240394FFF772FFE1
S113365004B010BD842138B5244B8200D5584905E7
S1133660EB1C0B4302211970214BD45890226B1888
S113367052051A431278E978D2B2890634D59421D6
S113368049051943097800292ED0012A15D1EB7870
S1133690134202D0052323740CE0E368013BE3608A
S11336A0002B07D0A368281C5A1CA2605978FFF786
S11336B097FD19E0FFF72CFE16E06268013A62609C
S11336C0002A06D08C214905012A05D10B43082282
S11336D004E0FFF71DFE02E000220B431A7023688A
S11336E05A1C22602A791A7038BDC0468C600000CA
S11336F048020020842303305B051843022303702F
S113370070470000902149050A1CF0B58F4B071C37
S11337108000C55889B0EB1C0493EB78EE78DBB2DB
S11337200593F3B20693AB1D1A4394461278982678
S1133730D2B20792942252051A4314787605621E77
S11337409441E2B2824C33430459A81C00900843CC
S113375001921A780178D2B2C9B203910199029008
S113376000292FD0079900290CD010236246281C69
S11337701370FFF7BFFF236BF8B20121002B00D0B9
S1133780DCE0E0E0002A1DD04022281C1A70FFF77C
S1133790B1FF231C2C331B78002B02D1009A164353
S11337A03370236B002B03D0F8B28021626B9847EF
S11337B0E37D002B04D0201C80211830FFF711F882
S11337C00A23BFE0069B281C9E1101231E40FFF71D
S11337D091FF0122059B1B11134219D09023049AD7
S11337E05B05134310221A70002E04D0EB785B079C
S11337F0DB0F10D11AE0082323702C342278002A1E
S113380000D0A0E0982300995B050B431A709AE05E
S1133810002E16D0EAE71023029A1370236B002BB4
S11338206ED0F8B20221626B984769E0029A137075
S1133830236B002B03D0F8B20421626B98472B79D9
S113384081E0039B012B29D1EB78039A134257D0D3
S1133850029B1E702B79231C2C331B78002B09D15F
S1133860019B002B06D19823009A5B0513436A46FB
S113387012791A70236B002B03D0F8B20821626B03
S11338809847A37D002B04D0201C08211830FEF794
S1133890A8FF00236360E360237554E02B79A268DA
S11338A0DBB2002A2AD02269137023690133236111
S11338B0A368013BA360A368002B44D1019B002BA8
S11338C013D1231C2C331B78002B06D19823009A88
S11338D05B0513436A4612791A70E37D002B04D00A
S11338E0201C20211830FEF77CFF00236375236120
S11338F0236BF8B22021002B20D124E0072321E000
S11339006368002B1DD0E3681A782B1C80210C33CC
S113391049050B431B78002BF7D02A71E368013368
S1133920E3606368013B63606368002B0BD1E36071
S11339302375236B002B06D01021F8B2626B9847D5
S113394001E00623237009B0F0BDC0468C6000007E
S11339504802002084235B0503431A7800239A421B
S113396009D0802301305B0518430378012B01D073
S1133970024B00E0024B181C7047C04680841E00B6
S113398000127A0010B50D4A831D13431B78DBB275
S1133990002B10D0012B08D1041CFFF7DBFF084BD0
S11339A008341C432378D84006E00020022B03D1BE
S11339B0044B186800E0044810BDC046000008111C
S11339C0000090104C020020006CDC020B4A831DA6
S11339D013431B78DBB2012B06D0181E0CD0032036
S11339E0022B09D0052007E0802301305B05184332
S11339F000784342584101307047C0460000081126
S1133A00021C031C9C2018334005034380201870BB
S1133A100020064B134318700548931D03431B787D
S1133A20D8B20028F8D1034B0B607047000008138C
S1133A3000000811006CDC02F8B5041C0D1C171CF6
S1133A401E1CFFF7C3FF012802D1002D04D007E09C
S1133A50022805D1012D03D1201C311CFFF7D0FF12
S1133A608022631C520513431D70842302225B05CC
S1133A7023431A70231C0C4A083313437A00D2B22E
S1133A801A704022094B23431A70094AA31D134399
S1133A901B78012BF9D1002D01D1064A00E0064A1A
S1133AA03A4100203260F8BD000090100000081375
S1133AB00000081180841E0000127A000A4B10B521
S1133AC01C681A1C0123002C0CD08024074B0343D0
S1133AD01C70074C831D23431B78022BF9D11368F8
S1133AE00B600023181C10BD4C02002000000813BA
S1133AF0000008119C23C9015B051843C9B2017079
S1133B007047942349015B051843C9B2017070479B
S1133B1070B506680C1C301C2049FCF735FD1F49A4
S1133B20051C301CFCF7B6FD0E1C081CE121090124
S1133B30FCF72AFDE121E0800901301CFCF7AAFD15
S1133B400E1C081C3C21FCF71FFD3C212081301C6D
S1133B50FCF7A0FD6E22124BA1722380FF32238852
S1133B6095420BD9AD1A032201339BB22380B721AE
S1133B7013405A1E93414900CA1AF0E709499B07AA
S1133B8000D109490123CA5C954201D8638003E04E
S1133B900133AD1A0D2BF6D1A58070BD8051010003
S1133BA0B2070000B7600000AA60000030B5114AF7
S1133BB00188031C8A180020812A19D85A88541EA7
S1133BC00B2C15D89C88651E1E2D11D8DD88172D49
S1133BD00ED81D893B2D0BD89B7A3B2B08D88B071D
S1133BE001D0054B00E0054B9B5CA3424041C0B2B1
S1133BF030BDC0464EF8FFFFB7600000AA60000069
S1133C0070B5124A838804889A186E23FF3363437D
S1133C104588D318A2089B180D4A6E00B25A9B1807
S1133C20A20702D1022D00D8013B0B60E1233C2204
S1133C30C4881B015C4303895343827AE3189A18AE
S1133C400868044B4343D3180B6070BD4A05F5FF65
S1133C509060000080510100084B1A6880231B0209
S1133C609A4209D1A02310305B0518430368002B46
S1133C7002D10133FF3303607047C0464C02002079
S1133C80021C802110B500230124490510320A4387
S1133C901460136090224360520504601C30024398
S1133CA013608822520502431360842252050243A2
S1133CB008431360036010BD031C902214335205A3
S1133CC0134300221A604260103201601A60704788
S1133CD003680B6070470000114B820070B5D55823
S1133CE08022104B92051A60041C281CFFF7C8FFA1
S1133CF0281CFFF7B1FF01201F22011C0A4B0B4EA9
S1133D001B5D345D134099402240C0250B1C90403C
S1133D1007496D004B5148510B60086070BDC046A7
S1133D20C86000003C80845EC5600000C460000080
S1133D3000E100E0F7B50027114B8000C658081CCD
S1133D400D1C0197FFF732FF041EBC4216D001A9D7
S1133D50281CFFF755FF381CFEF77AFF011C802052
S1133D600002814206D0FCF70FFC011C0198FCF70D
S1133D700BFC0190301C0199FFF79EFF201CFEBD37
S1133D80C8600000F7B50025124B8000C4580E1C13
S1133D90201C01A90195FFF79BFF281CFEF758FF83
S1133DA0051C8020000285420ED00B4B291C0434D4
S1133DB01C43FCF7E9FB2768019C291C4443B8B267
S1133DC0FCF7E2FB20180190311C01A8FFF7A0FECC
S1133DD0F7BDC046C860000000007810F0B50026AA
S1133DE0184B800085B0C458081C0F1C0192039620
S1133DF0FFF7DCFE051EB54201D100251EE0381C8C
S1133E0003A9FFF7FDFE301C2768FEF721FF011C04
S1133E1080200002814206D0FCF7B6FB011C039807
S1133E20FCF7B2FB0390039BBB42E6D3A360882359
S1133E301C345B051C43019B9B002360281C05B0BC
S1133E40F0BDC046C86000008822044B8000C358FF
S1133E5052051C331343890019607047C860000081
S1133E608822054B8000C358520514331343186845
S1133E70431E9841C0B27047C86000006B46E02200
S1133E801B78D2021B04134009071943014BC018C5
S1133E90016070474410000008B5084B8200D358F5
S1133EA090220333520513431B78002B02D000F0F9
S1133EB015F901E000F07AF908BDC046D0600000B1
S1133EC008B50C4B8000C2580B4B0021C3589C20F2
S1133ED003334005184311710170942040050343D6
S1133EE01970137F8B4203D02032101CFEF767FC3D
S1133EF008BDC04654020020D0600000F7B5061C7F
S1133F001C4B30220C1C8700081C0021FD5800F0BB
S1133F10DCFB301CFEF7A8FEFEF75AFE2060281CCE
S1133F2000F0E1FA201C00212030FEF741FCEB1CDC
S1133F3001939023019A5B0513431022281C1A70E5
S1133F40032100F010FB281C002100F032FB0A4B77
S1133F50FC500A4B9A5D1F23134001229A40131C04
S1133F60074A13609823019A5B05134340221A7091
S1133F70F7BDC046D060000054020020CC600000B1
S1133F8000E100E0F8B50D4E84000D4BA759051C67
S1133F90E05800F0A8FA381C2030FEF720FC094B4A
S1133FA0281C5A5D1F23134001229A40131C064A01
S1133FB0D367FEF75EFE0023A351F8BD5402002030
S1133FC0D0600000CC60000004E100E00A4B8000F7
S1133FD070B5C658094B0C1CC358151C301C1A6804
S1133FE0096800F087FA28602179301C6279A37986
S1133FF000F0CCFA70BDC046D0600000540200202E
S1134000F7B51E4A83009C581D4A9E582279042302
S1134010002A31D1071C002902D001AAFFF7D6FFDC
S1134020982300214020F21C5B051343197018707B
S113403025698D4203D1381CFFF742FF1BE00123A1
S1134040237194235B053343A16119780723002965
S113405012D0A368191E02D019780133A360B1717C
S11340602369013B2361A3690133A3619C235B059D
S11340701A43802313700023181CFEBD5402002031
S1134080D0600000F8B5134F134C85002C59ED593E
S11340900127069E2777A2602661E3606661FFF729
S11340A0AFFF061E14D1201C07992030FEF7CAFB6F
S11340B00328F8D000280BD09C210022EB1C4905D2
S11340C0194322710A709421032649050B431A707F
S11340D0301CF8BDD06000005402002010B51E4B07
S11340E08200D3581D4951581A79002A32D05A698E
S11340F0002A11D09C2252050A431278002A0BD0C0
S11341008A79DC68D2B2002C03D02270DA680132DA
S1134110DA605A69013A5A611A69002A12D0942263
S113412052050A431278002A0CD09A68141E02D051
S1134130147801329A608C711A69013A1A619A6989
S113414001329A611A69002A04D15B69002B01D1FA
S1134150FFF7B6FE10BDC04654020020D060000038
S1134160104A80008158002208B50F4B0331C35810
S1134170581CC2779C2040050843DA621A701A83DF
S11341805A629A621A6302709420400501430A70CD
S11341901A1C38321278002A03D0181D0121FEF7A8
S11341A020FB08BDD06000005402002038B5254B28
S11341B08200D35824495258591CC97F00293FD042
S11341C0D96A002916DB942149051143097800298D
S11341D010D0596A1C7F002905D0DD6A002D02DD4C
S11341E00C78013159629471D96A0139D962596BD9
S11341F001315963D96A002905DA9424D11C640574
S1134200214300240C70196B002911DD9C21490500
S11342101143097800290BD09279996AD2B2002906
S113422003D00A709A6A01329A621A6B013A1A63CD
S1134230DA6A002A04DC1B6B002B01DCFFF790FF19
S113424038BDC04654020020D0600000012903D0CC
S1134250032909D1842300E094235B0518430078E3
S1134260431E9841C0B200E000207047034B013068
S113427049011843C9B201707047C0460000881252
S1134280942302305B0549011843C9B20170704799
S1134290034B023089011843C9B201707047C0460C
S11342A0000008138C2302305B05C9001843C9B20F
S11342B001707047F7B5384EC21C164337780B7837
S11342C0FFB20122072B65D8041C181C0D1CFCF737
S11342D051F904192A0D192A2A3A00232F480134C6
S11342E0044323703378012BFCD152E00322012FC5
S11342F050D1402329480134044323703378042BDC
S1134300FCD146E00021012B01D0042302213078A6
S1134310032298423ED1201CFFF7A8FF0421204A23
S113432013698B4333E00227BB4207D100270B7983
S1134330BB4203D04979201CFFF7AAFF1948013476
S11343400443277019E004231649621C0A431370BE
S11343506A78A31C0B431A706B78002B06D1AB78D8
S1134360002B03D0E978201CFFF78AFFAB79002BE0
S113437003D0E979201CFFF795FF04213378084A1C
S1134380DBB20193019B0133019313690B43136166
S113439030BF0022101CFEBD000030100000881247
S11343A000ED00E000001010024B033018430078C9
S11343B0C0B270470000301014308023012A04D1A9
S11343C08A401B051843026005E0DB0418430123FF
S11343D08B40D9430160704701238B40002A01D0F0
S11343E0436000E0836070470023C222037043707F
S11343F08370C37043718371C37103724272837299
S1134400C3727047F0B5002789B00393FA230125DE
S11344103C1C9B0053430690079102936D42019705
S11344200123A3400493174B9E1CCA330593049B9A
S1134430318807985943FCF7A7F8029B029AC31ADC
S1134440824200D9131AAB4204D2B21E17780194E7
S11344501D1E03D0059B04369E42E8D10134032C73
S113446001D0002DDCD1039B002B00D01D603F2325
S11344701F40019B9B011F43069BFFB25F7009B065
S1134480F0BDC046EA600000942302305B0503439C
S11344901B78002B04D088235B051843042303E016
S11344A080231B0518433023037070479422831C18
S11344B052051A431278011C0220012A12D18022CB
S11344C0D2041343CF221A708022D2002023C8784A
S11344D0034004D0013A002A03D0C046F6E7181C72
S11344E000E0092070470423C370002383704370E5
S11344F003717047F0B5130B89B0012504930823A9
S113450000266D4203935B1907900591069202936E
S113451002270024731C191C069879430193FCF7A5
S113452033F8059B834206D31B1A9D4203D91D1CF5
S113453004900394029601347F00092C02D0002DCC
S1134540E8D104E0072E02D0019E002DE0D17022B4
S1134550029B04981B011340039A1343079ADBB28E
S1134560537009B0F0BD8422C31C52051A430123C1
S11345700B405B00DBB2137090238907C90F5B0506
S1134580023009011843C9B20170704710B58C2478
S113459003306405C9000443C9B221708821920024
S11345A049050143D2B20A708022520510430370B8
S11345B010BD8023012202305B0503430A401A70B8
S11345C08C238907C90F5B05C9001843C9B2017060
S11345D07047011C002008B5021C031C00F03EF9C2
S11345E008BD0000014B18687047C046A4FFFF1FB8
S11345F0084B10B5041C002B02D0002100F08AF9EE
S1134600054B1868836A002B00D09847201C00F0E3
S1134610F5F9C04615490000B461000038B5074BF0
S1134620074C1D1CE41AA410002C04D0013CA30068
S1134630EB589847F8E701F0C5FD38BDDC61000090
S1134640E06100000E4B70B500251E1C0D4CE41AF1
S1134650A410A54204D0AB00F35898470135F8E7FD
S113466001F0AAFD084B00251E1C084CE41AA410F6
S1134670A54204D0AB00F35898470135F8E770BD64
S1134680D8610000D8610000D8610000DC6100003E
S113469008B5034B011C186800F066F808BDC04655
S11346A0A4FFFF1F08B5034B011C186800F016F89F
S11346B008BDC046A4FFFF1F002310B5934203D0DA
S11346C0CC5CC4540133F9E710BD031C8218934237
S11346D002D019700133FAE77047000030B50029A1
S11346E03ED004390B68002B00DAC9181D4A136840
S11346F0141C002B02D14B60116031E099420DD2A1
S113470008680A189A4203D11368C3180B605368E7
S11347104B60216024E08A4203D8131C5A68002AA3
S1134720F9D11D685C198C420BD1096869185818B5
S11347301960904214D110685268091819605A60BF
S11347400EE08C4202D90C23036009E008680C18BF
S1134750944203D114685268001908604A60596091
S113476030BDC0465C020020032370B5CC1C9C43C2
S11347700834051C0C2C01D20C2405E0002C03DAAF
S11347800C2300202B6042E08C42F9D3204A1368AA
S1134790101C191C002913D00A68121B0DD40B2AF3
S11347A002D90A608B181FE08B4202D15A6802605A
S11347B01BE04A685A600B1C17E00B1C4968E9E7C8
S11347C0144E3368002B03D1281C00F025F8306008
S11347D0281C211C00F020F8031C421CD0D003220A
S11347E0C61C964386420AD11C60181C07210B3054
S11347F01A1D8843821A0AD05142995007E0311A8F
S1134800281C00F009F8431CBAD0331CECE770BD37
S11348105C0200205802002038B50023064C051C19
S1134820081C2360FCF732F8431C03D12368002BD7
S113483000D02B6038BDC046F0020020031C0A786B
S113484001311A700133002AF9D170470023C25C88
S11348500133002AFBD1581E70470000F7B52A4DDA
S1134860061C2C680091171C0193002C01D1274CC5
S11348702C6063681F2B15DD254B002B02D1012012
S1134880404240E08C20FFF703FF041EF7D02A6863
S113489000230260021C88324360286013609E4239
S11348A00AD128E0002E26D0231C8833186800285B
S11348B010D1174B002BE2D084204000FFF7E8FE14
S11348C00028DCD0031C0022FC335A609A60231CAD
S11348D088331860012261688A408B00C31880C342
S11348E0FC304168114341600199D967022E02D11D
S11348F083681A438260002063685A1C6260023332
S1134900009A9B001A51FEBDEC02002060020020B8
S113491091460000F0B587B005900391344D2C68A2
S1134920002C63D0231C88331E6863685A1E0192CE
S1134930304A9B189B00F7180433E3180293019B39
S1134940002B3DDB039B002B07D0002E31D03B1CFA
S113495080331B68039A93422BD16268029B0199AE
S1134960013A5B68914201D1616002E00022029940
S11349704A60002B1DD062680492002E07D00122E9
S113498001998A40311CFC314868104201D1984792
S113499008E08968114203D105983968984701E015
S11349A038689847049B62689342B7D12B68A34246
S11349B0B4D1019B043F013B0193029B043BBDE73F
S11349C00D4B002B12D062682368002A0BD1002BF8
S11349D009D02B60002E02D0301CFFF763FE201C90
S11349E0FFF760FE9BE7251C1C1C99E707B0F0BD90
S11349F0EC020020FFFFFF3FA5460000FEE7C04693
S1134A001B5B306D1B5B343B34336D1B5B313B33C1
S1134A10376D0D53616E69747920636865636B202B
S1134A206661696C6564211B5B306D0A001B5B3039
S1134A306D1B5B343B34316D1B5B313B33376D0D88
S1134A40496E76616C696420737570706C79207638
S1134A506F6C74616765205B25645D206D56211B56
S1134A605B306D0A004D6561737572656D656E74BA
S1134A70206E756D6265722C205254432D3E545342
S1134A80522C205254432D3E5450522C0020525448
S1134A90432D3E5453522C205254432D3E545052D5
S1134AA02C202320436F6E666967204572726F72F3
S1134AB0730025752C2025642C2025642C002025CA
S1134AC0642C2025642C2025640A000D09307825E7
S1134AD0303278202D2D3E205B30782530327820FE
S1134AE0307825303278203078253032785D0A00ED
S1134AF00D09307825303278202D2D3E2030782550
S1134B003032780A000D09307825303278202D2D86
S1134B103E202D2D2D2D0A000D0A0925642F256414
S1134B20207375636365737320726174652E0A0064
S1134B300D0925642F25642073756363657373659C
S1134B4073206D617463686564207265662E2076D7
S1134B50616C7565206F66203078253032782E0AB6
S1134B60000D0925642062616420636F6D6D616EC0
S1134B7064732E0A0A000D0A094144584C33363234
S1134B8020526561642041626F727465642E204412
S1134B9065766963652044697361626C6564203A73
S1134BA028000D0A094D4D413834353151205265E4
S1134BB061642041626F727465642E204465766975
S1134BC063652044697361626C6564203A28000D52
S1134BD00A0A424D453638302052656164204162EC
S1134BE06F727465642E2044657669636520446938
S1134BF07361626C6564203A28000D0A09424D58BD
S1134C00303535616363656C2052656164204162AF
S1134C106F727465642E2044657669636520446907
S1134C207361626C6564203A2820000D0A09424DC4
S1134C30583035356779726F20526561642041625E
S1134C406F727465642E20446576696365204469D7
S1134C507361626C6564203A2820000D0A092042C1
S1134C604D583035356D616720526561642041626D
S1134C706F727465642E20446576696365204469A7
S1134C807361626C6564203A2820000D0A094D4165
S1134C90473331313020526561642041626F727450
S1134CA065642E2044657669636520446973616296
S1134CB06C6564203A2820000D0A094C33474432BD
S1134CC0304820526561642041626F727465642EBD
S1134CD0204465766963652044697361626C656428
S1134CE0203A2820000D0A094C50533235482052EE
S1134CF06561642041626F727465642E2044657638
S1134D006963652044697361626C6564203A282094
S1134D10000D0A0954435333343732352052656148
S1134D20642041626F727465642E20446576696301
S1134D30652044697361626C6564203A2820000D23
S1134D400A09534934373035205265616420416281
S1134D506F727465642E20446576696365204469C6
S1134D607361626C6564203A2820000D0A09484486
S1134D70433130303020526561642041626F727477
S1134D8065642E20446576696365204469736162B5
S1134D906C6564203A2820000D0A095349373032E3
S1134DA03120526561642041626F727465642E2003
S1134DB04465766963652044697361626C65642047
S1134DC03A2820000D0A09434353383131205265F3
S1134DD061642041626F727465642E204465766953
S1134DE063652044697361626C6564203A2820001D
S1134DF00D0A09414D473838333420526561642027
S1134E0041626F727465642E20446576696365201F
S1134E1044697361626C6564203A2820000D0A09B4
S1134E2041533732363220526561642041626F72D9
S1134E307465642E204465766963652044697361F2
S1134E40626C6564203A2820000D0A094153373208
S1134E50363320526561642041626F727465642E3A
S1134E60204465766963652044697361626C656496
S1134E70203A2820000D09496E76616C6964207718
S1134E8061727053656E736F7244657669636520F1
S1134E905B25645D2070617373656420746F207298
S1134EA06570656174526567697374657252656192
S1134EB064466F72446576696365416E64416464F7
S1134EC0726573732E0A000D09506F7765727570E1
S1134ED020636F6D6D616E64206661696C65642E1C
S1134EE020424D583035352064697361626C6564C5
S1134EF0200A000D09506F776572646F776E206326
S1134F006F6D6D616E64206162616E646F6E656465
S1134F102E20424D583035352064697361626C65CA
S1134F20640A000D09506F776572646F776E2063B1
S1134F306F6D6D616E64206162616E646F6E656435
S1134F402E204C3347443230482064697361626CCC
S1134F5065640A000D09506F776572646F776E207F
S1134F60636F6D6D616E64206162616E646F6E6506
S1134F70642E2054435333343732352064697361CB
S1134F80626C65640A000A0A0A0D426F6F74696EE6
S1134F906720576172702C20696E20332E2E2E20CC
S1134FA000322E2E2E2000312E2E2E0A0D000D0A38
S1134FB0494E413231393A0A0D000D0A0A0A0A5B98
S1134FC0202A090909095709610972097009287217
S1134FD065762E2062290909092A205D0A000D5BE5
S1134FE020200909090920202020202043616D6226
S1134FF07269646765202F2050687973636F6D70E0
S11350006C61622020200909090920205D0A0A0038
S11350100D09537570706C793D25646D562C0944E7
S1135020656661756C74205461726765742052659D
S113503061642052656769737465723D3078253008
S113504032780A000D094932433D25646B622F739F
S11350502C095350493D25646B622F732C0955412B
S113506052543D25646B622F732C094932432050FE
S1135070756C6C2D55703D25640A0A000D09534961
S11350804D2D3E53434743363D3078253032780921
S1135090095254432D3E53523D307825303278091D
S11350A0095254432D3E5453523D307825303278C2
S11350B00A000D094D43475F43313D3078253032B6
S11350C0780909094D43475F43323D307825303232
S11350D07809094D43475F533D3078253032780ACB
S11350E0000D094D43475F53433D307825303278F6
S11350F00909094D43475F4D433D307825303278E7
S113510009094F53435F43523D3078253032780AC2
S1135110000D09534D435F504D50524F543D30786C
S113512025303278090909534D435F504D43545299
S11351304C3D30782530327809095343422D3E5393
S113514043523D3078253032780A000D09504D43E2
S11351505F52454753433D30782530327809090979
S113516053494D5F53434743343D307825303278BB
S1135170095254432D3E5450523D307825303278F4
S11351800A0A000D0925647320696E2052544320D5
S113519048616E646C657220746F2D646174652C53
S11351A009256420506D6772204572726F72730A0C
S11351B0000D53656C6563743A0A000D2D20276158
S11351C0273A207365742064656661756C74207376
S11351D0656E736F722E0A000D2D202762273A2008
S11351E0736574204932432062617564207261746E
S11351F0652E0A000D2D202763273A20736574203D
S1135200535049206261756420726174652E0A00EE
S11352100D2D202764273A2073657420554152547C
S1135220206261756420726174652E0A000D2D2060
S11352302765273A207365742064656661756C740C
S11352402072656769737465722061646472657342
S1135250732E0A000D2D202766273A207772697471
S113526065206279746520746F2073656E736F7244
S11352702E0A000D2D202767273A207365742064B9
S1135280656661756C74205353535550504C592EB8
S11352900A000D2D202768273A20706F7765726405
S11352A06F776E20636F6D6D616E6420746F206123
S11352B06C6C2073656E736F72732E0A000D2D2053
S11352C02769273A207365742070756C6C2D75708E
S11352D020656E61626C652076616C75652E0A00CE
S11352E00D2D20276A273A2072657065617420723B
S11352F06561642072656720307825303278206FCC
S11353006E2073656E736F72202325642E0A000D60
S11353102D20276B273A20736C65657020756E7499
S1135320696C2072657365742E0A000D2D20276C3C
S1135330273A2073656E64207265706561746564D4
S11353402062797465206F6E204932432E0A000D65
S11353502D20276D273A2073656E64207265706571
S1135360617465642062797465206F6E20535049BE
S11353702E0A000D2D20276E273A20656E61626C7F
S113538065205353535550504C592E0A000D2D206F
S1135390276F273A2064697361626C652053535305
S11353A05550504C592E0A000D2D202770273A20B5
S11353B073776974636820746F20564C5052206D63
S11353C06F64652E0A000D2D202772273A2073770B
S11353D06974636820746F2052554E206D6F646544
S11353E02E0A000D2D202773273A20706F776572DF
S11353F020757020616C6C2073656E736F72732EF0
S11354000A000D2D202774273A2064756D702070D2
S1135410726F636573736F722073746174652E0A9F
S1135420000D2D202775273A2073657420493243D7
S113543020616464726573732E0A000D2D20277831
S1135440273A2064697361626C6520535744206174
S11354506E64207370696E20666F72203130207321
S11354606563732E0A000D2D20277A273A20647570
S11354706D7020616C6C2073656E736F7273206441
S11354806174612E0A000D456E7465722073656C3B
S1135490656374696F6E3E20000D0953656C656326
S11354A0743A0A000D092D20273127204144584C15
S11354B033363209090928307830302D2D307832CE
S11354C044293A20312E3656202D2D20332E3556A0
S11354D02028636F6D70696C6564206F7574292072
S11354E00A000D092D2027322720424D583035352A
S11354F0616363656C20090928307830302D2D30C4
S1135500783346293A20322E3456202D2D20332E3E
S113551036562028636F6D70696C6564206F7574EE
S113552029200A000D092D2027332720424D583009
S113553035356779726F09090928307830302D2D97
S113554030783346293A20322E3456202D2D2033FC
S11355502E36562028636F6D70696C6564206F75F4
S11355607429200A000D092D2027342720424D5884
S11355703035356D616709090928307834302D2DAF
S113558030783532293A20322E3456202D2D2033CE
S11355902E36562028636F6D70696C6564206F75B4
S11355A07429200A000D092D20273527204D4D414F
S11355B0383435315109090928307830302D2D30EF
S11355C0783331293A20312E393556202D2D203388
S11355D02E36562028636F6D70696C6564206F7574
S11355E07429200A000D092D20273627204C5053FA
S11355F032354809090928307830382D2D30783271
S113560034293A20312E3756202D2D20332E36566C
S11356102028636F6D70696C6564206F7574292030
S11356200A000D092D20273727204D4147333131FA
S11356303009090928307830302D2D30783131295E
S11356403A20312E393556202D2D20332E36562032
S113565028636F6D70696C6564206F757429200A06
S1135660000D092D2027382720484443313030309D
S113567009090928307830302D2D30783146293AFF
S113568020332E3056202D2D20352E3056202863E1
S11356906F6D70696C6564206F757429200A000D44
S11356A0092D202739272053493730323109090978
S11356B028307830302D2D30783046293A20312E5C
S11356C03956202D2D20332E36562028636F6D70C9
S11356D0696C6564206F757429200A000D092D20FA
S11356E0276127204C3347443230480909092830C0
S11356F07830462D2D30783339293A20322E3256DF
S1135700202D2D20332E36562028636F6D70696C42
S11357106564206F757429200A000D092D20276205
S11357202720424D4536383009090928307841414F
S11357302D2D30784638293A20312E3656202D2DFD
S113574020332E36562028636F6D70696C65642093
S11357506F757429200A000D092D20276427205411
S11357604353333437323509090928307830302D22
S11357702D30783144293A20322E3756202D2D20D1
S1135780332E33562028636F6D70696C6564206F07
S1135790757429200A000D092D20276527205349F7
S11357A034373035090909286E2F61293A20202021
S11357B02020202020322E3756202D2D20352E3526
S11357C0562028636F6D70696C6564206F75742949
S11357D0200A000D092D202766272050414E313321
S11357E03236090909286E2F61292028636F6D70EC
S11357F0696C6564206F757429200A000D092D20D9
S11358002767272043435338313109090928307861
S113581030302D2D30784646293A20312E38562006
S11358202D2D20332E36562028636F6D70696C65DC
S113583064206F757429200A000D092D202768271C
S113584020414D473838333409090928307830303D
S11358502D2D3F293A203F56202D2D203F5620281C
S1135860636F6D70696C6564206F757429200A001C
S11358700D092D20276A2720415337323632090972
S11358800928307830302D2D30783242293A2032B0
S11358902E3756202D2D20332E36562028636F6D3B
S11358A070696C6564206F757429200A000D092DD8
S11358B020276B2720415337323633090909283012
S11358C07830302D2D30783242293A20322E375616
S11358D0202D2D20332E36562028636F6D70696C71
S11358E06564206F757429200A000D09456E74657E
S11358F0722073656C656374696F6E3E20000D09D8
S1135900496E76616C69642073656C656374696F54
S11359106E202725632720210A000D0A0953657488
S11359202049324320626175642072617465206984
S11359306E206B6270732028652E672E2C20273012
S113594030303127293E20000D0A094932432062B4
S113595061756420726174652073657420746F20AE
S11359602564206B622F73000D0A0953657420535C
S113597050492062617564207261746520696E20EB
S11359806B6270732028652E672E2C2027303030F0
S11359903127293E20000D0A0953504920626175C0
S11359A06420726174653A202564206B622F730051
S11359B00D0A09536574205541525420626175647F
S11359C0207261746520696E206B62707320286593
S11359D02E672E2C20273030303127293E20000D11
S11359E00A095541525420626175642072617465DC
S11359F03A202564206B622F73000D0A09456E74EA
S1135A00657220322D6E7962626C652072656769F9
S1135A107374657220686578206164647265737359
S1135A202028652E672E2C2027336527293E200049
S1135A300D0A09456E7465726564205B3078253003
S1135A4032785D2E0A0A000D0A09456E74657220CB
S1135A5049324320616464722E2028652E672E2CFF
S1135A60202730662729206F72202739392720669E
S1135A706F7220535049203E20000D0A09456E7470
S1135A8065726564205B3078253032785D2E0A00BB
S1135A900D0A09456E746572206865782062797410
S1135AA06520746F2073656E642028652E672E2C24
S1135AB02027306627293E20000D0A09535049202B
S1135AC07772697465206661696C65642E2041444F
S1135AD0584C3336322044697361626C6564000D3E
S1135AE00A09493243207772697465206661696CDA
S1135AF065642C206572726F722025642E0A0A0078
S1135B000D0A094F766572726964652053535355C3
S1135B1050504C5920696E206D562028652E672EF2
S1135B202C20273138303027293E20000D0A094F18
S1135B3076657272696465205353535550504C59BD
S1135B402073657420746F202564206D56000D0A3F
S1135B50094E4F54453A20466972737420706F772A
S1135B6065722073656E736F727320616E64206555
S1135B706E61626C65204932430A0A000D0A0944C9
S1135B80656661756C742070756C6C757020656EDB
S1135B9061626C652076616C756520696E206B6945
S1135BA06C6F4F686D732028652E672E2C2027306C
S1135BB030303027293E20000D0A094932635075E0
S1135BC06C6C757056616C75652073657420746FA8
S1135BD02025640A000D0A094175746F2D696E63EE
S1135BE072656D656E742066726F6D206261736597
S1135BF02061646472657373203078253032783F95
S1135C00205B273027207C202731275D3E20000D94
S1135C100A094368756E6B20726561647320706550
S1135C207220616464726573732028652E672E2C5C
S1135C3020273127293E20000D0A09436861747426
S1135C40793F205B273027207C202731275D3E20A9
S1135C50000D0A09496E7465722D6F706572617466
S1135C60696F6E207370696E2064656C6179206958
S1135C706E206D696C6C697365636F6E6473202844
S1135C80652E672E2C20273030303027293E200007
S1135C900D0A0952657065746974696F6E732070BA
S1135CA0657220616464726573732028652E672EA3
S1135CB02C20273030303027293E20000D0A094D92
S1135CC06178696D756D20766F6C746167652066A7
S1135CD06F72206164617074697665207375707089
S1135CE06C792028652E672E2C2027303030302701
S1135CF0293E20000D0A095265666572656E63656A
S1135D00206279746520666F7220636F6D706172B2
S1135D1069736F6E732028652E672E2C20273365D8
S1135D2027293E20000D0A09526570656174696E69
S1135D3067206465762564204020307825303278E9
S1135D402C20726570733D25642C2070756C6C3D3D
S1135D5025642C2064656C61793D25646D733A0A71
S1135D600A000D0A09536C656570696E6720756ECB
S1135D7074696C2073797374656D207265736574CE
S1135D802E2E2E0A000D0A094279746520746F20A4
S1135D9073656E642028652E672E2C2027463027D5
S1135DA0293E20000D0A0952657065746974696F93
S1135DB06E732028652E672E2C2027303030302734
S1135DC0293E20000D0A0953656E64696E6720251B
S1135DD0642072657065746974696F6E73206F6690
S1135DE0205B3078253032785D206F6E2049324355
S1135DF02C2069326350756C6C7570456E61626CF1
S1135E00653D25642C205353535550504C593D2522
S1135E10646D560A0A000D0A0953656E64696E675B
S1135E202025642072657065746974696F6E7320CF
S1135E306F66205B3078253032785D206F6E20539A
S1135E4050492C205353535550504C593D25646DA3
S1135E50560A0A000D0A0943616E6E6F7420736559
S1135E60742049324320616464726573733A204636
S1135E706972737420736574207468652064656640
S1135E8061756C7420493243206465766963652EBC
S1135E900A000D0A095370696E6E696E6720666F99
S1135EA072203130207365636F6E64732E2E2E0A58
S1135EB0000D09446F6E652E0A0A000D0A09456E2D
S1135EC061626C696E67204932432070696E732E7B
S1135ED02E2E0A000D0A09486578206F7220636F20
S1135EE06E766572746564206D6F64653F20282743
S1135EF06827206F7220276327293E20000D0A0996
S1135F00536574207468652074696D652064656CDC
S1135F106179206265747765656E206561636820C8
S1135F2072756E20696E206D696C6C697365636F40
S1135F306E64732028652E672E2C2027313233346B
S1135F4027293E20000D0A0944656C6179206265A9
S1135F50747765656E20726561642062617463683C
S1135F6065732073657420746F202564206D696CDB
S1135F706C697365636F6E64732E0A0A000D0950B1
S1135F8061796C6F616473206D616B6520726F63FE
S1135F906B657473206D6F7265207468616E206A1E
S1135FA07573742066697265776F726B732E000D5A
S1135FB0696E6974494E413231392066756E637475
S1135FC0696F6E2073746172740A000D7265616486
S1135FD053656E736F725265676973746572494E67
S1135FE0413231392066756E6374696F6E20737443
S1135FF06172740A000D52656769737465723A20A0
S1136000307825303278202D2D3E2056616C756510
S11360103A095B3078253032782C30782530327864
